{
	"back/contracts/campaigns.sol": {
		"Campaigns": {
			"abi": [
				{
					"anonymous": false,
					"inputs": [
						{
							"indexed": false,
							"internalType": "uint256",
							"name": "campaignId",
							"type": "uint256"
						},
						{
							"indexed": false,
							"internalType": "string",
							"name": "name",
							"type": "string"
						}
					],
					"name": "CampaignCancelled",
					"type": "event"
				},
				{
					"anonymous": false,
					"inputs": [
						{
							"indexed": false,
							"internalType": "uint256",
							"name": "campaignId",
							"type": "uint256"
						},
						{
							"indexed": false,
							"internalType": "uint256",
							"name": "amount",
							"type": "uint256"
						},
						{
							"indexed": false,
							"internalType": "address",
							"name": "contributor",
							"type": "address"
						}
					],
					"name": "ContributionReceived",
					"type": "event"
				},
				{
					"anonymous": false,
					"inputs": [
						{
							"indexed": false,
							"internalType": "uint256",
							"name": "campaignId",
							"type": "uint256"
						},
						{
							"indexed": false,
							"internalType": "string",
							"name": "name",
							"type": "string"
						},
						{
							"indexed": false,
							"internalType": "uint256",
							"name": "target_amount",
							"type": "uint256"
						},
						{
							"indexed": false,
							"internalType": "uint256",
							"name": "_days_deadline",
							"type": "uint256"
						}
					],
					"name": "NewCampaign",
					"type": "event"
				},
				{
					"inputs": [
						{
							"internalType": "uint256",
							"name": "",
							"type": "uint256"
						}
					],
					"name": "campaigns",
					"outputs": [
						{
							"internalType": "string",
							"name": "name",
							"type": "string"
						},
						{
							"internalType": "uint256",
							"name": "target_amount",
							"type": "uint256"
						},
						{
							"internalType": "uint256",
							"name": "current_amount",
							"type": "uint256"
						},
						{
							"internalType": "uint256",
							"name": "deadline",
							"type": "uint256"
						},
						{
							"internalType": "uint256",
							"name": "creationDate",
							"type": "uint256"
						},
						{
							"internalType": "address",
							"name": "creator",
							"type": "address"
						},
						{
							"internalType": "enum Campaigns.CampaignState",
							"name": "state",
							"type": "uint8"
						}
					],
					"stateMutability": "view",
					"type": "function"
				},
				{
					"inputs": [
						{
							"internalType": "address",
							"name": "",
							"type": "address"
						},
						{
							"internalType": "uint256",
							"name": "",
							"type": "uint256"
						}
					],
					"name": "campaignsByContributor",
					"outputs": [
						{
							"internalType": "uint256",
							"name": "",
							"type": "uint256"
						}
					],
					"stateMutability": "view",
					"type": "function"
				},
				{
					"inputs": [
						{
							"internalType": "uint256",
							"name": "_campaignId",
							"type": "uint256"
						}
					],
					"name": "cancelCampaign",
					"outputs": [],
					"stateMutability": "nonpayable",
					"type": "function"
				},
				{
					"inputs": [
						{
							"internalType": "address",
							"name": "_contributor",
							"type": "address"
						},
						{
							"internalType": "uint256",
							"name": "_campaignId",
							"type": "uint256"
						}
					],
					"name": "contribute",
					"outputs": [],
					"stateMutability": "payable",
					"type": "function"
				},
				{
					"inputs": [
						{
							"internalType": "uint256",
							"name": "",
							"type": "uint256"
						},
						{
							"internalType": "uint256",
							"name": "",
							"type": "uint256"
						}
					],
					"name": "contributorsByCampaignId",
					"outputs": [
						{
							"internalType": "address",
							"name": "",
							"type": "address"
						}
					],
					"stateMutability": "view",
					"type": "function"
				},
				{
					"inputs": [],
					"name": "getCampaigns",
					"outputs": [
						{
							"components": [
								{
									"internalType": "string",
									"name": "name",
									"type": "string"
								},
								{
									"internalType": "uint256",
									"name": "target_amount",
									"type": "uint256"
								},
								{
									"internalType": "uint256",
									"name": "current_amount",
									"type": "uint256"
								},
								{
									"internalType": "uint256",
									"name": "deadline",
									"type": "uint256"
								},
								{
									"internalType": "uint256",
									"name": "creationDate",
									"type": "uint256"
								},
								{
									"internalType": "address",
									"name": "creator",
									"type": "address"
								},
								{
									"internalType": "enum Campaigns.CampaignState",
									"name": "state",
									"type": "uint8"
								}
							],
							"internalType": "struct Campaigns.Campaign[]",
							"name": "",
							"type": "tuple[]"
						}
					],
					"stateMutability": "view",
					"type": "function"
				},
				{
					"inputs": [
						{
							"internalType": "uint256",
							"name": "_target_amount",
							"type": "uint256"
						},
						{
							"internalType": "uint256",
							"name": "_days_deadline",
							"type": "uint256"
						},
						{
							"internalType": "string",
							"name": "_name",
							"type": "string"
						}
					],
					"name": "setCampaign",
					"outputs": [],
					"stateMutability": "nonpayable",
					"type": "function"
				}
			],
			"devdoc": {
				"kind": "dev",
				"methods": {},
				"version": 1
			},
			"evm": {
				"assembly": "    /* \"back/contracts/campaigns.sol\":57:3315  contract Campaigns {... */\n  mstore(0x40, 0x80)\n  callvalue\n  dup1\n  iszero\n  tag_1\n  jumpi\n  0x00\n  dup1\n  revert\ntag_1:\n  pop\n  dataSize(sub_0)\n  dup1\n  dataOffset(sub_0)\n  0x00\n  codecopy\n  0x00\n  return\nstop\n\nsub_0: assembly {\n        /* \"back/contracts/campaigns.sol\":57:3315  contract Campaigns {... */\n      mstore(0x40, 0x80)\n      jumpi(tag_1, lt(calldatasize, 0x04))\n      shr(0xe0, calldataload(0x00))\n      dup1\n      0x8418cd99\n      gt\n      tag_9\n      jumpi\n      dup1\n      0x8418cd99\n      eq\n      tag_5\n      jumpi\n      dup1\n      0xa6b03633\n      eq\n      tag_6\n      jumpi\n      dup1\n      0xace6e3c6\n      eq\n      tag_7\n      jumpi\n      dup1\n      0xe543fd50\n      eq\n      tag_8\n      jumpi\n      jump(tag_1)\n    tag_9:\n      dup1\n      0x141961bc\n      eq\n      tag_2\n      jumpi\n      dup1\n      0x45598b4a\n      eq\n      tag_3\n      jumpi\n      dup1\n      0x4d2ebe8d\n      eq\n      tag_4\n      jumpi\n    tag_1:\n      0x00\n      dup1\n      revert\n        /* \"back/contracts/campaigns.sol\":584:611  Campaign[] public campaigns */\n    tag_2:\n      callvalue\n      dup1\n      iszero\n      tag_10\n      jumpi\n      0x00\n      dup1\n      revert\n    tag_10:\n      pop\n      tag_11\n      0x04\n      dup1\n      calldatasize\n      sub\n      dup2\n      add\n      swap1\n      tag_12\n      swap2\n      swap1\n      tag_13\n      jump\t// in\n    tag_12:\n      tag_14\n      jump\t// in\n    tag_11:\n      mload(0x40)\n      tag_15\n      swap8\n      swap7\n      swap6\n      swap5\n      swap4\n      swap3\n      swap2\n      swap1\n      tag_16\n      jump\t// in\n    tag_15:\n      mload(0x40)\n      dup1\n      swap2\n      sub\n      swap1\n      return\n        /* \"back/contracts/campaigns.sol\":2504:3313  function cancelCampaign(uint _campaignId) public {... */\n    tag_3:\n      callvalue\n      dup1\n      iszero\n      tag_17\n      jumpi\n      0x00\n      dup1\n      revert\n    tag_17:\n      pop\n      tag_18\n      0x04\n      dup1\n      calldatasize\n      sub\n      dup2\n      add\n      swap1\n      tag_19\n      swap2\n      swap1\n      tag_13\n      jump\t// in\n    tag_19:\n      tag_20\n      jump\t// in\n    tag_18:\n      stop\n        /* \"back/contracts/campaigns.sol\":685:756  mapping(address => mapping(uint => uint)) public campaignsByContributor */\n    tag_4:\n      callvalue\n      dup1\n      iszero\n      tag_21\n      jumpi\n      0x00\n      dup1\n      revert\n    tag_21:\n      pop\n      tag_22\n      0x04\n      dup1\n      calldatasize\n      sub\n      dup2\n      add\n      swap1\n      tag_23\n      swap2\n      swap1\n      tag_24\n      jump\t// in\n    tag_23:\n      tag_25\n      jump\t// in\n    tag_22:\n      mload(0x40)\n      tag_26\n      swap2\n      swap1\n      tag_27\n      jump\t// in\n    tag_26:\n      mload(0x40)\n      dup1\n      swap2\n      sub\n      swap1\n      return\n        /* \"back/contracts/campaigns.sol\":1555:2346  function contribute(address _contributor, uint _campaignId) external payable { ... */\n    tag_5:\n      tag_28\n      0x04\n      dup1\n      calldatasize\n      sub\n      dup2\n      add\n      swap1\n      tag_29\n      swap2\n      swap1\n      tag_24\n      jump\t// in\n    tag_29:\n      tag_30\n      jump\t// in\n    tag_28:\n      stop\n        /* \"back/contracts/campaigns.sol\":1247:1549  function getCampaigns() public view returns ( Campaign[] memory) {... */\n    tag_6:\n      callvalue\n      dup1\n      iszero\n      tag_31\n      jumpi\n      0x00\n      dup1\n      revert\n    tag_31:\n      pop\n      tag_32\n      tag_33\n      jump\t// in\n    tag_32:\n      mload(0x40)\n      tag_34\n      swap2\n      swap1\n      tag_35\n      jump\t// in\n    tag_34:\n      mload(0x40)\n      dup1\n      swap2\n      sub\n      swap1\n      return\n        /* \"back/contracts/campaigns.sol\":767:1241  function setCampaign(uint _target_amount, uint _days_deadline, string memory _name) public {... */\n    tag_7:\n      callvalue\n      dup1\n      iszero\n      tag_36\n      jumpi\n      0x00\n      dup1\n      revert\n    tag_36:\n      pop\n      tag_37\n      0x04\n      dup1\n      calldatasize\n      sub\n      dup2\n      add\n      swap1\n      tag_38\n      swap2\n      swap1\n      tag_39\n      jump\t// in\n    tag_38:\n      tag_40\n      jump\t// in\n    tag_37:\n      stop\n        /* \"back/contracts/campaigns.sol\":617:675  mapping(uint => address[]) public contributorsByCampaignId */\n    tag_8:\n      callvalue\n      dup1\n      iszero\n      tag_41\n      jumpi\n      0x00\n      dup1\n      revert\n    tag_41:\n      pop\n      tag_42\n      0x04\n      dup1\n      calldatasize\n      sub\n      dup2\n      add\n      swap1\n      tag_43\n      swap2\n      swap1\n      tag_44\n      jump\t// in\n    tag_43:\n      tag_45\n      jump\t// in\n    tag_42:\n      mload(0x40)\n      tag_46\n      swap2\n      swap1\n      tag_47\n      jump\t// in\n    tag_46:\n      mload(0x40)\n      dup1\n      swap2\n      sub\n      swap1\n      return\n        /* \"back/contracts/campaigns.sol\":584:611  Campaign[] public campaigns */\n    tag_14:\n      0x00\n      dup2\n      dup2\n      sload\n      dup2\n      lt\n      tag_48\n      jumpi\n      0x00\n      dup1\n      revert\n    tag_48:\n      swap1\n      0x00\n      mstore\n      keccak256(0x00, 0x20)\n      swap1\n      0x06\n      mul\n      add\n      0x00\n      swap2\n      pop\n      swap1\n      pop\n      dup1\n      0x00\n      add\n      dup1\n      sload\n      tag_50\n      swap1\n      tag_51\n      jump\t// in\n    tag_50:\n      dup1\n      0x1f\n      add\n      0x20\n      dup1\n      swap2\n      div\n      mul\n      0x20\n      add\n      mload(0x40)\n      swap1\n      dup2\n      add\n      0x40\n      mstore\n      dup1\n      swap3\n      swap2\n      swap1\n      dup2\n      dup2\n      mstore\n      0x20\n      add\n      dup3\n      dup1\n      sload\n      tag_52\n      swap1\n      tag_51\n      jump\t// in\n    tag_52:\n      dup1\n      iszero\n      tag_53\n      jumpi\n      dup1\n      0x1f\n      lt\n      tag_54\n      jumpi\n      0x0100\n      dup1\n      dup4\n      sload\n      div\n      mul\n      dup4\n      mstore\n      swap2\n      0x20\n      add\n      swap2\n      jump(tag_53)\n    tag_54:\n      dup3\n      add\n      swap2\n      swap1\n      0x00\n      mstore\n      keccak256(0x00, 0x20)\n      swap1\n    tag_55:\n      dup2\n      sload\n      dup2\n      mstore\n      swap1\n      0x01\n      add\n      swap1\n      0x20\n      add\n      dup1\n      dup4\n      gt\n      tag_55\n      jumpi\n      dup3\n      swap1\n      sub\n      0x1f\n      and\n      dup3\n      add\n      swap2\n    tag_53:\n      pop\n      pop\n      pop\n      pop\n      pop\n      swap1\n      dup1\n      0x01\n      add\n      sload\n      swap1\n      dup1\n      0x02\n      add\n      sload\n      swap1\n      dup1\n      0x03\n      add\n      sload\n      swap1\n      dup1\n      0x04\n      add\n      sload\n      swap1\n      dup1\n      0x05\n      add\n      0x00\n      swap1\n      sload\n      swap1\n      0x0100\n      exp\n      swap1\n      div\n      0xffffffffffffffffffffffffffffffffffffffff\n      and\n      swap1\n      dup1\n      0x05\n      add\n      0x14\n      swap1\n      sload\n      swap1\n      0x0100\n      exp\n      swap1\n      div\n      0xff\n      and\n      swap1\n      pop\n      dup8\n      jump\t// out\n        /* \"back/contracts/campaigns.sol\":2504:3313  function cancelCampaign(uint _campaignId) public {... */\n    tag_20:\n        /* \"back/contracts/campaigns.sol\":2585:2594  campaigns */\n      0x00\n        /* \"back/contracts/campaigns.sol\":2585:2601  campaigns.length */\n      dup1\n      sload\n      swap1\n      pop\n        /* \"back/contracts/campaigns.sol\":2571:2582  _campaignId */\n      dup2\n        /* \"back/contracts/campaigns.sol\":2571:2601  _campaignId < campaigns.length */\n      lt\n        /* \"back/contracts/campaigns.sol\":2563:2629  require(_campaignId < campaigns.length, \"Campaign does not exist\") */\n      tag_57\n      jumpi\n      mload(0x40)\n      0x08c379a000000000000000000000000000000000000000000000000000000000\n      dup2\n      mstore\n      0x04\n      add\n      tag_58\n      swap1\n      tag_59\n      jump\t// in\n    tag_58:\n      mload(0x40)\n      dup1\n      swap2\n      sub\n      swap1\n      revert\n    tag_57:\n        /* \"back/contracts/campaigns.sol\":2639:2664  Campaign storage campaign */\n      0x00\n        /* \"back/contracts/campaigns.sol\":2667:2676  campaigns */\n      dup1\n        /* \"back/contracts/campaigns.sol\":2677:2688  _campaignId */\n      dup3\n        /* \"back/contracts/campaigns.sol\":2667:2689  campaigns[_campaignId] */\n      dup2\n      sload\n      dup2\n      lt\n      tag_60\n      jumpi\n      tag_61\n      tag_62\n      jump\t// in\n    tag_61:\n    tag_60:\n      swap1\n      0x00\n      mstore\n      keccak256(0x00, 0x20)\n      swap1\n      0x06\n      mul\n      add\n        /* \"back/contracts/campaigns.sol\":2639:2689  Campaign storage campaign = campaigns[_campaignId] */\n      swap1\n      pop\n        /* \"back/contracts/campaigns.sol\":2728:2738  msg.sender */\n      caller\n        /* \"back/contracts/campaigns.sol\":2708:2738  campaign.creator == msg.sender */\n      0xffffffffffffffffffffffffffffffffffffffff\n      and\n        /* \"back/contracts/campaigns.sol\":2708:2716  campaign */\n      dup2\n        /* \"back/contracts/campaigns.sol\":2708:2724  campaign.creator */\n      0x05\n      add\n      0x00\n      swap1\n      sload\n      swap1\n      0x0100\n      exp\n      swap1\n      div\n      0xffffffffffffffffffffffffffffffffffffffff\n      and\n        /* \"back/contracts/campaigns.sol\":2708:2738  campaign.creator == msg.sender */\n      0xffffffffffffffffffffffffffffffffffffffff\n      and\n      eq\n        /* \"back/contracts/campaigns.sol\":2700:2784  require(campaign.creator == msg.sender, \"Only the creator can cancel this campaign\") */\n      tag_64\n      jumpi\n      mload(0x40)\n      0x08c379a000000000000000000000000000000000000000000000000000000000\n      dup2\n      mstore\n      0x04\n      add\n      tag_65\n      swap1\n      tag_66\n      jump\t// in\n    tag_65:\n      mload(0x40)\n      dup1\n      swap2\n      sub\n      swap1\n      revert\n    tag_64:\n        /* \"back/contracts/campaigns.sol\":2820:2840  CampaignState.Active */\n      0x00\n        /* \"back/contracts/campaigns.sol\":2802:2840  campaign.state == CampaignState.Active */\n      0x02\n      dup2\n      gt\n      iszero\n      tag_67\n      jumpi\n      tag_68\n      tag_69\n      jump\t// in\n    tag_68:\n    tag_67:\n        /* \"back/contracts/campaigns.sol\":2802:2810  campaign */\n      dup2\n        /* \"back/contracts/campaigns.sol\":2802:2816  campaign.state */\n      0x05\n      add\n      0x14\n      swap1\n      sload\n      swap1\n      0x0100\n      exp\n      swap1\n      div\n      0xff\n      and\n        /* \"back/contracts/campaigns.sol\":2802:2840  campaign.state == CampaignState.Active */\n      0x02\n      dup2\n      gt\n      iszero\n      tag_70\n      jumpi\n      tag_71\n      tag_69\n      jump\t// in\n    tag_71:\n    tag_70:\n      eq\n        /* \"back/contracts/campaigns.sol\":2794:2867  require(campaign.state == CampaignState.Active, \"Campaign is not active\") */\n      tag_72\n      jumpi\n      mload(0x40)\n      0x08c379a000000000000000000000000000000000000000000000000000000000\n      dup2\n      mstore\n      0x04\n      add\n      tag_73\n      swap1\n      tag_74\n      jump\t// in\n    tag_73:\n      mload(0x40)\n      dup1\n      swap2\n      sub\n      swap1\n      revert\n    tag_72:\n        /* \"back/contracts/campaigns.sol\":2895:2915  CampaignState.Failed */\n      0x02\n        /* \"back/contracts/campaigns.sol\":2878:2886  campaign */\n      dup2\n        /* \"back/contracts/campaigns.sol\":2878:2892  campaign.state */\n      0x05\n      add\n      0x14\n        /* \"back/contracts/campaigns.sol\":2878:2915  campaign.state = CampaignState.Failed */\n      0x0100\n      exp\n      dup2\n      sload\n      dup2\n      0xff\n      mul\n      not\n      and\n      swap1\n      dup4\n      0x02\n      dup2\n      gt\n      iszero\n      tag_75\n      jumpi\n      tag_76\n      tag_69\n      jump\t// in\n    tag_76:\n    tag_75:\n      mul\n      or\n      swap1\n      sstore\n      pop\n        /* \"back/contracts/campaigns.sol\":2930:2936  uint i */\n      0x00\n        /* \"back/contracts/campaigns.sol\":2926:3246  for(uint i = 0; i < contributorsByCampaignId[_campaignId].length; i++) {... */\n    tag_77:\n        /* \"back/contracts/campaigns.sol\":2946:2970  contributorsByCampaignId */\n      0x01\n        /* \"back/contracts/campaigns.sol\":2946:2983  contributorsByCampaignId[_campaignId] */\n      0x00\n        /* \"back/contracts/campaigns.sol\":2971:2982  _campaignId */\n      dup5\n        /* \"back/contracts/campaigns.sol\":2946:2983  contributorsByCampaignId[_campaignId] */\n      dup2\n      mstore\n      0x20\n      add\n      swap1\n      dup2\n      mstore\n      0x20\n      add\n      0x00\n      keccak256\n        /* \"back/contracts/campaigns.sol\":2946:2990  contributorsByCampaignId[_campaignId].length */\n      dup1\n      sload\n      swap1\n      pop\n        /* \"back/contracts/campaigns.sol\":2942:2943  i */\n      dup2\n        /* \"back/contracts/campaigns.sol\":2942:2990  i < contributorsByCampaignId[_campaignId].length */\n      lt\n        /* \"back/contracts/campaigns.sol\":2926:3246  for(uint i = 0; i < contributorsByCampaignId[_campaignId].length; i++) {... */\n      iszero\n      tag_78\n      jumpi\n        /* \"back/contracts/campaigns.sol\":3011:3037  address contributorAddress */\n      0x00\n        /* \"back/contracts/campaigns.sol\":3040:3064  contributorsByCampaignId */\n      0x01\n        /* \"back/contracts/campaigns.sol\":3040:3077  contributorsByCampaignId[_campaignId] */\n      0x00\n        /* \"back/contracts/campaigns.sol\":3065:3076  _campaignId */\n      dup6\n        /* \"back/contracts/campaigns.sol\":3040:3077  contributorsByCampaignId[_campaignId] */\n      dup2\n      mstore\n      0x20\n      add\n      swap1\n      dup2\n      mstore\n      0x20\n      add\n      0x00\n      keccak256\n        /* \"back/contracts/campaigns.sol\":3078:3079  i */\n      dup3\n        /* \"back/contracts/campaigns.sol\":3040:3080  contributorsByCampaignId[_campaignId][i] */\n      dup2\n      sload\n      dup2\n      lt\n      tag_80\n      jumpi\n      tag_81\n      tag_62\n      jump\t// in\n    tag_81:\n    tag_80:\n      swap1\n      0x00\n      mstore\n      keccak256(0x00, 0x20)\n      add\n      0x00\n      swap1\n      sload\n      swap1\n      0x0100\n      exp\n      swap1\n      div\n      0xffffffffffffffffffffffffffffffffffffffff\n      and\n        /* \"back/contracts/campaigns.sol\":3011:3080  address contributorAddress = contributorsByCampaignId[_campaignId][i] */\n      swap1\n      pop\n        /* \"back/contracts/campaigns.sol\":3094:3112  uint amountDonated */\n      0x00\n        /* \"back/contracts/campaigns.sol\":3115:3137  campaignsByContributor */\n      0x02\n        /* \"back/contracts/campaigns.sol\":3115:3157  campaignsByContributor[contributorAddress] */\n      0x00\n        /* \"back/contracts/campaigns.sol\":3138:3156  contributorAddress */\n      dup4\n        /* \"back/contracts/campaigns.sol\":3115:3157  campaignsByContributor[contributorAddress] */\n      0xffffffffffffffffffffffffffffffffffffffff\n      and\n      0xffffffffffffffffffffffffffffffffffffffff\n      and\n      dup2\n      mstore\n      0x20\n      add\n      swap1\n      dup2\n      mstore\n      0x20\n      add\n      0x00\n      keccak256\n        /* \"back/contracts/campaigns.sol\":3115:3170  campaignsByContributor[contributorAddress][_campaignId] */\n      0x00\n        /* \"back/contracts/campaigns.sol\":3158:3169  _campaignId */\n      dup7\n        /* \"back/contracts/campaigns.sol\":3115:3170  campaignsByContributor[contributorAddress][_campaignId] */\n      dup2\n      mstore\n      0x20\n      add\n      swap1\n      dup2\n      mstore\n      0x20\n      add\n      0x00\n      keccak256\n      sload\n        /* \"back/contracts/campaigns.sol\":3094:3170  uint amountDonated = campaignsByContributor[contributorAddress][_campaignId] */\n      swap1\n      pop\n        /* \"back/contracts/campaigns.sol\":3192:3210  contributorAddress */\n      dup2\n        /* \"back/contracts/campaigns.sol\":3184:3220  payable(contributorAddress).transfer */\n      0xffffffffffffffffffffffffffffffffffffffff\n      and\n        /* \"back/contracts/campaigns.sol\":3184:3235  payable(contributorAddress).transfer(amountDonated) */\n      0x08fc\n        /* \"back/contracts/campaigns.sol\":3221:3234  amountDonated */\n      dup3\n        /* \"back/contracts/campaigns.sol\":3184:3235  payable(contributorAddress).transfer(amountDonated) */\n      swap1\n      dup2\n      iszero\n      mul\n      swap1\n      mload(0x40)\n      0x00\n      mload(0x40)\n      dup1\n      dup4\n      sub\n      dup2\n      dup6\n      dup9\n      dup9\n      call\n      swap4\n      pop\n      pop\n      pop\n      pop\n      iszero\n      dup1\n      iszero\n      tag_84\n      jumpi\n      returndatasize\n      0x00\n      dup1\n      returndatacopy\n      revert(0x00, returndatasize)\n    tag_84:\n      pop\n        /* \"back/contracts/campaigns.sol\":2997:3246  {... */\n      pop\n      pop\n        /* \"back/contracts/campaigns.sol\":2992:2995  i++ */\n      dup1\n      dup1\n      0x01\n      add\n      swap2\n      pop\n      pop\n        /* \"back/contracts/campaigns.sol\":2926:3246  for(uint i = 0; i < contributorsByCampaignId[_campaignId].length; i++) {... */\n      jump(tag_77)\n    tag_78:\n      pop\n        /* \"back/contracts/campaigns.sol\":3261:3306  CampaignCancelled(_campaignId, campaign.name) */\n      0xf021e62333cdfbbd34d095d4f9914d4a723cc108f866fba75fc4581b1a34fa1f\n        /* \"back/contracts/campaigns.sol\":3279:3290  _campaignId */\n      dup3\n        /* \"back/contracts/campaigns.sol\":3292:3300  campaign */\n      dup3\n        /* \"back/contracts/campaigns.sol\":3292:3305  campaign.name */\n      0x00\n      add\n        /* \"back/contracts/campaigns.sol\":3261:3306  CampaignCancelled(_campaignId, campaign.name) */\n      mload(0x40)\n      tag_85\n      swap3\n      swap2\n      swap1\n      tag_86\n      jump\t// in\n    tag_85:\n      mload(0x40)\n      dup1\n      swap2\n      sub\n      swap1\n      log1\n        /* \"back/contracts/campaigns.sol\":2553:3313  {... */\n      pop\n        /* \"back/contracts/campaigns.sol\":2504:3313  function cancelCampaign(uint _campaignId) public {... */\n      pop\n      jump\t// out\n        /* \"back/contracts/campaigns.sol\":685:756  mapping(address => mapping(uint => uint)) public campaignsByContributor */\n    tag_25:\n      mstore(0x20, 0x02)\n      dup2\n      0x00\n      mstore\n      mstore(0x20, keccak256(0x00, 0x40))\n      dup1\n      0x00\n      mstore\n      keccak256(0x00, 0x40)\n      0x00\n      swap2\n      pop\n      swap2\n      pop\n      pop\n      sload\n      dup2\n      jump\t// out\n        /* \"back/contracts/campaigns.sol\":1555:2346  function contribute(address _contributor, uint _campaignId) external payable { ... */\n    tag_30:\n        /* \"back/contracts/campaigns.sol\":1663:1664  0 */\n      0x00\n        /* \"back/contracts/campaigns.sol\":1651:1660  msg.value */\n      callvalue\n        /* \"back/contracts/campaigns.sol\":1651:1664  msg.value > 0 */\n      gt\n        /* \"back/contracts/campaigns.sol\":1643:1704  require(msg.value > 0, \"Contribution must be greater than 0\") */\n      tag_88\n      jumpi\n      mload(0x40)\n      0x08c379a000000000000000000000000000000000000000000000000000000000\n      dup2\n      mstore\n      0x04\n      add\n      tag_89\n      swap1\n      tag_90\n      jump\t// in\n    tag_89:\n      mload(0x40)\n      dup1\n      swap2\n      sub\n      swap1\n      revert\n    tag_88:\n        /* \"back/contracts/campaigns.sol\":1736:1745  campaigns */\n      0x00\n        /* \"back/contracts/campaigns.sol\":1736:1752  campaigns.length */\n      dup1\n      sload\n      swap1\n      pop\n        /* \"back/contracts/campaigns.sol\":1722:1733  _campaignId */\n      dup2\n        /* \"back/contracts/campaigns.sol\":1722:1752  _campaignId < campaigns.length */\n      lt\n        /* \"back/contracts/campaigns.sol\":1714:1780  require(_campaignId < campaigns.length, \"Campaign does not exist\") */\n      tag_91\n      jumpi\n      mload(0x40)\n      0x08c379a000000000000000000000000000000000000000000000000000000000\n      dup2\n      mstore\n      0x04\n      add\n      tag_92\n      swap1\n      tag_59\n      jump\t// in\n    tag_92:\n      mload(0x40)\n      dup1\n      swap2\n      sub\n      swap1\n      revert\n    tag_91:\n        /* \"back/contracts/campaigns.sol\":1799:1823  Campaign memory campaign */\n      0x00\n        /* \"back/contracts/campaigns.sol\":1826:1835  campaigns */\n      dup1\n        /* \"back/contracts/campaigns.sol\":1836:1847  _campaignId */\n      dup3\n        /* \"back/contracts/campaigns.sol\":1826:1848  campaigns[_campaignId] */\n      dup2\n      sload\n      dup2\n      lt\n      tag_93\n      jumpi\n      tag_94\n      tag_62\n      jump\t// in\n    tag_94:\n    tag_93:\n      swap1\n      0x00\n      mstore\n      keccak256(0x00, 0x20)\n      swap1\n      0x06\n      mul\n      add\n        /* \"back/contracts/campaigns.sol\":1799:1848  Campaign memory campaign = campaigns[_campaignId] */\n      mload(0x40)\n      dup1\n      0xe0\n      add\n      0x40\n      mstore\n      swap1\n      dup2\n      0x00\n      dup3\n      add\n      dup1\n      sload\n      tag_96\n      swap1\n      tag_51\n      jump\t// in\n    tag_96:\n      dup1\n      0x1f\n      add\n      0x20\n      dup1\n      swap2\n      div\n      mul\n      0x20\n      add\n      mload(0x40)\n      swap1\n      dup2\n      add\n      0x40\n      mstore\n      dup1\n      swap3\n      swap2\n      swap1\n      dup2\n      dup2\n      mstore\n      0x20\n      add\n      dup3\n      dup1\n      sload\n      tag_97\n      swap1\n      tag_51\n      jump\t// in\n    tag_97:\n      dup1\n      iszero\n      tag_98\n      jumpi\n      dup1\n      0x1f\n      lt\n      tag_99\n      jumpi\n      0x0100\n      dup1\n      dup4\n      sload\n      div\n      mul\n      dup4\n      mstore\n      swap2\n      0x20\n      add\n      swap2\n      jump(tag_98)\n    tag_99:\n      dup3\n      add\n      swap2\n      swap1\n      0x00\n      mstore\n      keccak256(0x00, 0x20)\n      swap1\n    tag_100:\n      dup2\n      sload\n      dup2\n      mstore\n      swap1\n      0x01\n      add\n      swap1\n      0x20\n      add\n      dup1\n      dup4\n      gt\n      tag_100\n      jumpi\n      dup3\n      swap1\n      sub\n      0x1f\n      and\n      dup3\n      add\n      swap2\n    tag_98:\n      pop\n      pop\n      pop\n      pop\n      pop\n      dup2\n      mstore\n      0x20\n      add\n      0x01\n      dup3\n      add\n      sload\n      dup2\n      mstore\n      0x20\n      add\n      0x02\n      dup3\n      add\n      sload\n      dup2\n      mstore\n      0x20\n      add\n      0x03\n      dup3\n      add\n      sload\n      dup2\n      mstore\n      0x20\n      add\n      0x04\n      dup3\n      add\n      sload\n      dup2\n      mstore\n      0x20\n      add\n      0x05\n      dup3\n      add\n      0x00\n      swap1\n      sload\n      swap1\n      0x0100\n      exp\n      swap1\n      div\n      0xffffffffffffffffffffffffffffffffffffffff\n      and\n      0xffffffffffffffffffffffffffffffffffffffff\n      and\n      0xffffffffffffffffffffffffffffffffffffffff\n      and\n      dup2\n      mstore\n      0x20\n      add\n      0x05\n      dup3\n      add\n      0x14\n      swap1\n      sload\n      swap1\n      0x0100\n      exp\n      swap1\n      div\n      0xff\n      and\n      0x02\n      dup2\n      gt\n      iszero\n      tag_101\n      jumpi\n      tag_102\n      tag_69\n      jump\t// in\n    tag_102:\n    tag_101:\n      0x02\n      dup2\n      gt\n      iszero\n      tag_103\n      jumpi\n      tag_104\n      tag_69\n      jump\t// in\n    tag_104:\n    tag_103:\n      dup2\n      mstore\n      pop\n      pop\n      swap1\n      pop\n        /* \"back/contracts/campaigns.sol\":1884:1904  CampaignState.Active */\n      0x00\n        /* \"back/contracts/campaigns.sol\":1866:1904  campaign.state == CampaignState.Active */\n      0x02\n      dup2\n      gt\n      iszero\n      tag_105\n      jumpi\n      tag_106\n      tag_69\n      jump\t// in\n    tag_106:\n    tag_105:\n        /* \"back/contracts/campaigns.sol\":1866:1874  campaign */\n      dup2\n        /* \"back/contracts/campaigns.sol\":1866:1880  campaign.state */\n      0xc0\n      add\n      mload\n        /* \"back/contracts/campaigns.sol\":1866:1904  campaign.state == CampaignState.Active */\n      0x02\n      dup2\n      gt\n      iszero\n      tag_107\n      jumpi\n      tag_108\n      tag_69\n      jump\t// in\n    tag_108:\n    tag_107:\n      eq\n        /* \"back/contracts/campaigns.sol\":1858:1948  require(campaign.state == CampaignState.Active, \"Can only contribute to active campaigns\") */\n      tag_109\n      jumpi\n      mload(0x40)\n      0x08c379a000000000000000000000000000000000000000000000000000000000\n      dup2\n      mstore\n      0x04\n      add\n      tag_110\n      swap1\n      tag_111\n      jump\t// in\n    tag_110:\n      mload(0x40)\n      dup1\n      swap2\n      sub\n      swap1\n      revert\n    tag_109:\n        /* \"back/contracts/campaigns.sol\":1959:1974  uint valueEther */\n      0x00\n        /* \"back/contracts/campaigns.sol\":1988:1995  1 ether */\n      0x0de0b6b3a7640000\n        /* \"back/contracts/campaigns.sol\":1977:1986  msg.value */\n      callvalue\n        /* \"back/contracts/campaigns.sol\":1977:1996  msg.value/(1 ether) */\n      tag_112\n      swap2\n      swap1\n      tag_113\n      jump\t// in\n    tag_112:\n        /* \"back/contracts/campaigns.sol\":1959:1996  uint valueEther = msg.value/(1 ether) */\n      swap1\n      pop\n        /* \"back/contracts/campaigns.sol\":2062:2063  0 */\n      0x00\n        /* \"back/contracts/campaigns.sol\":2009:2031  campaignsByContributor */\n      0x02\n        /* \"back/contracts/campaigns.sol\":2009:2045  campaignsByContributor[_contributor] */\n      0x00\n        /* \"back/contracts/campaigns.sol\":2032:2044  _contributor */\n      dup7\n        /* \"back/contracts/campaigns.sol\":2009:2045  campaignsByContributor[_contributor] */\n      0xffffffffffffffffffffffffffffffffffffffff\n      and\n      0xffffffffffffffffffffffffffffffffffffffff\n      and\n      dup2\n      mstore\n      0x20\n      add\n      swap1\n      dup2\n      mstore\n      0x20\n      add\n      0x00\n      keccak256\n        /* \"back/contracts/campaigns.sol\":2009:2058  campaignsByContributor[_contributor][_campaignId] */\n      0x00\n        /* \"back/contracts/campaigns.sol\":2046:2057  _campaignId */\n      dup6\n        /* \"back/contracts/campaigns.sol\":2009:2058  campaignsByContributor[_contributor][_campaignId] */\n      dup2\n      mstore\n      0x20\n      add\n      swap1\n      dup2\n      mstore\n      0x20\n      add\n      0x00\n      keccak256\n      sload\n        /* \"back/contracts/campaigns.sol\":2009:2063  campaignsByContributor[_contributor][_campaignId] == 0 */\n      sub\n        /* \"back/contracts/campaigns.sol\":2006:2146  if(campaignsByContributor[_contributor][_campaignId] == 0) {... */\n      tag_114\n      jumpi\n        /* \"back/contracts/campaigns.sol\":2079:2103  contributorsByCampaignId */\n      0x01\n        /* \"back/contracts/campaigns.sol\":2079:2116  contributorsByCampaignId[_campaignId] */\n      0x00\n        /* \"back/contracts/campaigns.sol\":2104:2115  _campaignId */\n      dup5\n        /* \"back/contracts/campaigns.sol\":2079:2116  contributorsByCampaignId[_campaignId] */\n      dup2\n      mstore\n      0x20\n      add\n      swap1\n      dup2\n      mstore\n      0x20\n      add\n      0x00\n      keccak256\n        /* \"back/contracts/campaigns.sol\":2122:2134  _contributor */\n      dup5\n        /* \"back/contracts/campaigns.sol\":2079:2135  contributorsByCampaignId[_campaignId].push(_contributor) */\n      swap1\n      dup1\n      0x01\n      dup2\n      sload\n      add\n      dup1\n      dup3\n      sstore\n      dup1\n      swap2\n      pop\n      pop\n      0x01\n      swap1\n      sub\n      swap1\n      0x00\n      mstore\n      keccak256(0x00, 0x20)\n      add\n      0x00\n      swap1\n      swap2\n      swap1\n      swap2\n      swap1\n      swap2\n      0x0100\n      exp\n      dup2\n      sload\n      dup2\n      0xffffffffffffffffffffffffffffffffffffffff\n      mul\n      not\n      and\n      swap1\n      dup4\n      0xffffffffffffffffffffffffffffffffffffffff\n      and\n      mul\n      or\n      swap1\n      sstore\n      pop\n        /* \"back/contracts/campaigns.sol\":2006:2146  if(campaignsByContributor[_contributor][_campaignId] == 0) {... */\n    tag_114:\n        /* \"back/contracts/campaigns.sol\":2208:2217  msg.value */\n      callvalue\n        /* \"back/contracts/campaigns.sol\":2155:2177  campaignsByContributor */\n      0x02\n        /* \"back/contracts/campaigns.sol\":2155:2191  campaignsByContributor[_contributor] */\n      0x00\n        /* \"back/contracts/campaigns.sol\":2178:2190  _contributor */\n      dup7\n        /* \"back/contracts/campaigns.sol\":2155:2191  campaignsByContributor[_contributor] */\n      0xffffffffffffffffffffffffffffffffffffffff\n      and\n      0xffffffffffffffffffffffffffffffffffffffff\n      and\n      dup2\n      mstore\n      0x20\n      add\n      swap1\n      dup2\n      mstore\n      0x20\n      add\n      0x00\n      keccak256\n        /* \"back/contracts/campaigns.sol\":2155:2204  campaignsByContributor[_contributor][_campaignId] */\n      0x00\n        /* \"back/contracts/campaigns.sol\":2192:2203  _campaignId */\n      dup6\n        /* \"back/contracts/campaigns.sol\":2155:2204  campaignsByContributor[_contributor][_campaignId] */\n      dup2\n      mstore\n      0x20\n      add\n      swap1\n      dup2\n      mstore\n      0x20\n      add\n      0x00\n      keccak256\n      0x00\n        /* \"back/contracts/campaigns.sol\":2155:2217  campaignsByContributor[_contributor][_campaignId] += msg.value */\n      dup3\n      dup3\n      sload\n      tag_116\n      swap2\n      swap1\n      tag_117\n      jump\t// in\n    tag_116:\n      swap3\n      pop\n      pop\n      dup2\n      swap1\n      sstore\n      pop\n        /* \"back/contracts/campaigns.sol\":2254:2264  valueEther */\n      dup1\n        /* \"back/contracts/campaigns.sol\":2227:2235  campaign */\n      dup3\n        /* \"back/contracts/campaigns.sol\":2227:2250  campaign.current_amount */\n      0x40\n      add\n        /* \"back/contracts/campaigns.sol\":2227:2264  campaign.current_amount += valueEther */\n      dup2\n      dup2\n      mload\n      tag_118\n      swap2\n      swap1\n      tag_117\n      jump\t// in\n    tag_118:\n      swap2\n      pop\n      dup2\n      dup2\n      mstore\n      pop\n      pop\n        /* \"back/contracts/campaigns.sol\":2280:2339  ContributionReceived(_campaignId, valueEther, _contributor) */\n      0xee00973e6c16bdd1dedb2118f4c32980d7c53c73529bd0fc135501096f0155b9\n        /* \"back/contracts/campaigns.sol\":2301:2312  _campaignId */\n      dup4\n        /* \"back/contracts/campaigns.sol\":2314:2324  valueEther */\n      dup3\n        /* \"back/contracts/campaigns.sol\":2326:2338  _contributor */\n      dup7\n        /* \"back/contracts/campaigns.sol\":2280:2339  ContributionReceived(_campaignId, valueEther, _contributor) */\n      mload(0x40)\n      tag_119\n      swap4\n      swap3\n      swap2\n      swap1\n      tag_120\n      jump\t// in\n    tag_119:\n      mload(0x40)\n      dup1\n      swap2\n      sub\n      swap1\n      log1\n        /* \"back/contracts/campaigns.sol\":1632:2346  { ... */\n      pop\n      pop\n        /* \"back/contracts/campaigns.sol\":1555:2346  function contribute(address _contributor, uint _campaignId) external payable { ... */\n      pop\n      pop\n      jump\t// out\n        /* \"back/contracts/campaigns.sol\":1247:1549  function getCampaigns() public view returns ( Campaign[] memory) {... */\n    tag_33:\n        /* \"back/contracts/campaigns.sol\":1293:1310  Campaign[] memory */\n      0x60\n        /* \"back/contracts/campaigns.sol\":1322:1352  Campaign[] memory allCampaigns */\n      0x00\n        /* \"back/contracts/campaigns.sol\":1370:1379  campaigns */\n      dup1\n        /* \"back/contracts/campaigns.sol\":1370:1386  campaigns.length */\n      dup1\n      sload\n      swap1\n      pop\n        /* \"back/contracts/campaigns.sol\":1355:1387  new Campaign[](campaigns.length) */\n      0xffffffffffffffff\n      dup2\n      gt\n      iszero\n      tag_122\n      jumpi\n      tag_123\n      tag_124\n      jump\t// in\n    tag_123:\n    tag_122:\n      mload(0x40)\n      swap1\n      dup1\n      dup3\n      mstore\n      dup1\n      0x20\n      mul\n      0x20\n      add\n      dup3\n      add\n      0x40\n      mstore\n      dup1\n      iszero\n      tag_125\n      jumpi\n      dup2\n      0x20\n      add\n    tag_126:\n      tag_127\n      tag_128\n      jump\t// in\n    tag_127:\n      dup2\n      mstore\n      0x20\n      add\n      swap1\n      0x01\n      swap1\n      sub\n      swap1\n      dup2\n      tag_126\n      jumpi\n      swap1\n      pop\n    tag_125:\n      pop\n        /* \"back/contracts/campaigns.sol\":1322:1387  Campaign[] memory allCampaigns = new Campaign[](campaigns.length) */\n      swap1\n      pop\n        /* \"back/contracts/campaigns.sol\":1411:1417  uint i */\n      0x00\n        /* \"back/contracts/campaigns.sol\":1406:1505  for (uint i = 0; i < campaigns.length; i++) {... */\n    tag_129:\n        /* \"back/contracts/campaigns.sol\":1427:1436  campaigns */\n      0x00\n        /* \"back/contracts/campaigns.sol\":1427:1443  campaigns.length */\n      dup1\n      sload\n      swap1\n      pop\n        /* \"back/contracts/campaigns.sol\":1423:1424  i */\n      dup2\n        /* \"back/contracts/campaigns.sol\":1423:1443  i < campaigns.length */\n      lt\n        /* \"back/contracts/campaigns.sol\":1406:1505  for (uint i = 0; i < campaigns.length; i++) {... */\n      iszero\n      tag_130\n      jumpi\n        /* \"back/contracts/campaigns.sol\":1482:1491  campaigns */\n      0x00\n        /* \"back/contracts/campaigns.sol\":1492:1493  i */\n      dup2\n        /* \"back/contracts/campaigns.sol\":1482:1494  campaigns[i] */\n      dup2\n      sload\n      dup2\n      lt\n      tag_132\n      jumpi\n      tag_133\n      tag_62\n      jump\t// in\n    tag_133:\n    tag_132:\n      swap1\n      0x00\n      mstore\n      keccak256(0x00, 0x20)\n      swap1\n      0x06\n      mul\n      add\n        /* \"back/contracts/campaigns.sol\":1464:1494  allCampaigns[i] = campaigns[i] */\n      mload(0x40)\n      dup1\n      0xe0\n      add\n      0x40\n      mstore\n      swap1\n      dup2\n      0x00\n      dup3\n      add\n      dup1\n      sload\n      tag_135\n      swap1\n      tag_51\n      jump\t// in\n    tag_135:\n      dup1\n      0x1f\n      add\n      0x20\n      dup1\n      swap2\n      div\n      mul\n      0x20\n      add\n      mload(0x40)\n      swap1\n      dup2\n      add\n      0x40\n      mstore\n      dup1\n      swap3\n      swap2\n      swap1\n      dup2\n      dup2\n      mstore\n      0x20\n      add\n      dup3\n      dup1\n      sload\n      tag_136\n      swap1\n      tag_51\n      jump\t// in\n    tag_136:\n      dup1\n      iszero\n      tag_137\n      jumpi\n      dup1\n      0x1f\n      lt\n      tag_138\n      jumpi\n      0x0100\n      dup1\n      dup4\n      sload\n      div\n      mul\n      dup4\n      mstore\n      swap2\n      0x20\n      add\n      swap2\n      jump(tag_137)\n    tag_138:\n      dup3\n      add\n      swap2\n      swap1\n      0x00\n      mstore\n      keccak256(0x00, 0x20)\n      swap1\n    tag_139:\n      dup2\n      sload\n      dup2\n      mstore\n      swap1\n      0x01\n      add\n      swap1\n      0x20\n      add\n      dup1\n      dup4\n      gt\n      tag_139\n      jumpi\n      dup3\n      swap1\n      sub\n      0x1f\n      and\n      dup3\n      add\n      swap2\n    tag_137:\n      pop\n      pop\n      pop\n      pop\n      pop\n      dup2\n      mstore\n      0x20\n      add\n      0x01\n      dup3\n      add\n      sload\n      dup2\n      mstore\n      0x20\n      add\n      0x02\n      dup3\n      add\n      sload\n      dup2\n      mstore\n      0x20\n      add\n      0x03\n      dup3\n      add\n      sload\n      dup2\n      mstore\n      0x20\n      add\n      0x04\n      dup3\n      add\n      sload\n      dup2\n      mstore\n      0x20\n      add\n      0x05\n      dup3\n      add\n      0x00\n      swap1\n      sload\n      swap1\n      0x0100\n      exp\n      swap1\n      div\n      0xffffffffffffffffffffffffffffffffffffffff\n      and\n      0xffffffffffffffffffffffffffffffffffffffff\n      and\n      0xffffffffffffffffffffffffffffffffffffffff\n      and\n      dup2\n      mstore\n      0x20\n      add\n      0x05\n      dup3\n      add\n      0x14\n      swap1\n      sload\n      swap1\n      0x0100\n      exp\n      swap1\n      div\n      0xff\n      and\n      0x02\n      dup2\n      gt\n      iszero\n      tag_140\n      jumpi\n      tag_141\n      tag_69\n      jump\t// in\n    tag_141:\n    tag_140:\n      0x02\n      dup2\n      gt\n      iszero\n      tag_142\n      jumpi\n      tag_143\n      tag_69\n      jump\t// in\n    tag_143:\n    tag_142:\n      dup2\n      mstore\n      pop\n      pop\n        /* \"back/contracts/campaigns.sol\":1464:1476  allCampaigns */\n      dup3\n        /* \"back/contracts/campaigns.sol\":1477:1478  i */\n      dup3\n        /* \"back/contracts/campaigns.sol\":1464:1479  allCampaigns[i] */\n      dup2\n      mload\n      dup2\n      lt\n      tag_144\n      jumpi\n      tag_145\n      tag_62\n      jump\t// in\n    tag_145:\n    tag_144:\n      0x20\n      mul\n      0x20\n      add\n      add\n        /* \"back/contracts/campaigns.sol\":1464:1494  allCampaigns[i] = campaigns[i] */\n      dup2\n      swap1\n      mstore\n      pop\n        /* \"back/contracts/campaigns.sol\":1445:1448  i++ */\n      dup1\n      dup1\n      0x01\n      add\n      swap2\n      pop\n      pop\n        /* \"back/contracts/campaigns.sol\":1406:1505  for (uint i = 0; i < campaigns.length; i++) {... */\n      jump(tag_129)\n    tag_130:\n      pop\n        /* \"back/contracts/campaigns.sol\":1530:1542  allCampaigns */\n      dup1\n        /* \"back/contracts/campaigns.sol\":1523:1542  return allCampaigns */\n      swap2\n      pop\n      pop\n        /* \"back/contracts/campaigns.sol\":1247:1549  function getCampaigns() public view returns ( Campaign[] memory) {... */\n      swap1\n      jump\t// out\n        /* \"back/contracts/campaigns.sol\":767:1241  function setCampaign(uint _target_amount, uint _days_deadline, string memory _name) public {... */\n    tag_40:\n        /* \"back/contracts/campaigns.sol\":893:894  0 */\n      0x00\n        /* \"back/contracts/campaigns.sol\":876:890  _target_amount */\n      dup4\n        /* \"back/contracts/campaigns.sol\":876:894  _target_amount > 0 */\n      gt\n        /* \"back/contracts/campaigns.sol\":868:939  require(_target_amount > 0, \"Target amount must be greater than zero \") */\n      tag_147\n      jumpi\n      mload(0x40)\n      0x08c379a000000000000000000000000000000000000000000000000000000000\n      dup2\n      mstore\n      0x04\n      add\n      tag_148\n      swap1\n      tag_149\n      jump\t// in\n    tag_148:\n      mload(0x40)\n      dup1\n      swap2\n      sub\n      swap1\n      revert\n    tag_147:\n        /* \"back/contracts/campaigns.sol\":950:974  Campaign memory campaign */\n      0x00\n        /* \"back/contracts/campaigns.sol\":977:1078  Campaign(_name, _target_amount, 0, _days_deadline, block.timestamp, msg.sender, CampaignState.Active) */\n      mload(0x40)\n      dup1\n      0xe0\n      add\n      0x40\n      mstore\n      dup1\n        /* \"back/contracts/campaigns.sol\":986:991  _name */\n      dup4\n        /* \"back/contracts/campaigns.sol\":977:1078  Campaign(_name, _target_amount, 0, _days_deadline, block.timestamp, msg.sender, CampaignState.Active) */\n      dup2\n      mstore\n      0x20\n      add\n        /* \"back/contracts/campaigns.sol\":993:1007  _target_amount */\n      dup6\n        /* \"back/contracts/campaigns.sol\":977:1078  Campaign(_name, _target_amount, 0, _days_deadline, block.timestamp, msg.sender, CampaignState.Active) */\n      dup2\n      mstore\n      0x20\n      add\n        /* \"back/contracts/campaigns.sol\":1009:1010  0 */\n      0x00\n        /* \"back/contracts/campaigns.sol\":977:1078  Campaign(_name, _target_amount, 0, _days_deadline, block.timestamp, msg.sender, CampaignState.Active) */\n      dup2\n      mstore\n      0x20\n      add\n        /* \"back/contracts/campaigns.sol\":1012:1026  _days_deadline */\n      dup5\n        /* \"back/contracts/campaigns.sol\":977:1078  Campaign(_name, _target_amount, 0, _days_deadline, block.timestamp, msg.sender, CampaignState.Active) */\n      dup2\n      mstore\n      0x20\n      add\n        /* \"back/contracts/campaigns.sol\":1028:1043  block.timestamp */\n      timestamp\n        /* \"back/contracts/campaigns.sol\":977:1078  Campaign(_name, _target_amount, 0, _days_deadline, block.timestamp, msg.sender, CampaignState.Active) */\n      dup2\n      mstore\n      0x20\n      add\n        /* \"back/contracts/campaigns.sol\":1045:1055  msg.sender */\n      caller\n        /* \"back/contracts/campaigns.sol\":977:1078  Campaign(_name, _target_amount, 0, _days_deadline, block.timestamp, msg.sender, CampaignState.Active) */\n      0xffffffffffffffffffffffffffffffffffffffff\n      and\n      dup2\n      mstore\n      0x20\n      add\n        /* \"back/contracts/campaigns.sol\":1057:1077  CampaignState.Active */\n      0x00\n        /* \"back/contracts/campaigns.sol\":977:1078  Campaign(_name, _target_amount, 0, _days_deadline, block.timestamp, msg.sender, CampaignState.Active) */\n      0x02\n      dup2\n      gt\n      iszero\n      tag_150\n      jumpi\n      tag_151\n      tag_69\n      jump\t// in\n    tag_151:\n    tag_150:\n      dup2\n      mstore\n      pop\n        /* \"back/contracts/campaigns.sol\":950:1078  Campaign memory campaign = Campaign(_name, _target_amount, 0, _days_deadline, block.timestamp, msg.sender, CampaignState.Active) */\n      swap1\n      pop\n        /* \"back/contracts/campaigns.sol\":1088:1097  campaigns */\n      0x00\n        /* \"back/contracts/campaigns.sol\":1103:1111  campaign */\n      dup2\n        /* \"back/contracts/campaigns.sol\":1088:1112  campaigns.push(campaign) */\n      swap1\n      dup1\n      0x01\n      dup2\n      sload\n      add\n      dup1\n      dup3\n      sstore\n      dup1\n      swap2\n      pop\n      pop\n      0x01\n      swap1\n      sub\n      swap1\n      0x00\n      mstore\n      keccak256(0x00, 0x20)\n      swap1\n      0x06\n      mul\n      add\n      0x00\n      swap1\n      swap2\n      swap1\n      swap2\n      swap1\n      swap2\n      pop\n      0x00\n      dup3\n      add\n      mload\n      dup2\n      0x00\n      add\n      swap1\n      dup2\n      tag_153\n      swap2\n      swap1\n      tag_154\n      jump\t// in\n    tag_153:\n      pop\n      0x20\n      dup3\n      add\n      mload\n      dup2\n      0x01\n      add\n      sstore\n      0x40\n      dup3\n      add\n      mload\n      dup2\n      0x02\n      add\n      sstore\n      0x60\n      dup3\n      add\n      mload\n      dup2\n      0x03\n      add\n      sstore\n      0x80\n      dup3\n      add\n      mload\n      dup2\n      0x04\n      add\n      sstore\n      0xa0\n      dup3\n      add\n      mload\n      dup2\n      0x05\n      add\n      exp(0x0100, 0x00)\n      dup2\n      sload\n      dup2\n      0xffffffffffffffffffffffffffffffffffffffff\n      mul\n      not\n      and\n      swap1\n      dup4\n      0xffffffffffffffffffffffffffffffffffffffff\n      and\n      mul\n      or\n      swap1\n      sstore\n      pop\n      0xc0\n      dup3\n      add\n      mload\n      dup2\n      0x05\n      add\n      exp(0x0100, 0x14)\n      dup2\n      sload\n      dup2\n      0xff\n      mul\n      not\n      and\n      swap1\n      dup4\n      0x02\n      dup2\n      gt\n      iszero\n      tag_155\n      jumpi\n      tag_156\n      tag_69\n      jump\t// in\n    tag_156:\n    tag_155:\n      mul\n      or\n      swap1\n      sstore\n      pop\n      pop\n      pop\n        /* \"back/contracts/campaigns.sol\":1123:1138  uint campaignId */\n      0x00\n        /* \"back/contracts/campaigns.sol\":1141:1150  campaigns */\n      dup1\n        /* \"back/contracts/campaigns.sol\":1141:1157  campaigns.length */\n      dup1\n      sload\n      swap1\n      pop\n        /* \"back/contracts/campaigns.sol\":1123:1157  uint campaignId = campaigns.length */\n      swap1\n      pop\n        /* \"back/contracts/campaigns.sol\":1172:1234  NewCampaign(campaignId, _name, _target_amount, _days_deadline) */\n      0x1486a9d041aafa1cc375bcfca1613261bf8835c435c377e732a03a0854a0c5ad\n        /* \"back/contracts/campaigns.sol\":1184:1194  campaignId */\n      dup2\n        /* \"back/contracts/campaigns.sol\":1196:1201  _name */\n      dup5\n        /* \"back/contracts/campaigns.sol\":1203:1217  _target_amount */\n      dup8\n        /* \"back/contracts/campaigns.sol\":1219:1233  _days_deadline */\n      dup8\n        /* \"back/contracts/campaigns.sol\":1172:1234  NewCampaign(campaignId, _name, _target_amount, _days_deadline) */\n      mload(0x40)\n      tag_157\n      swap5\n      swap4\n      swap3\n      swap2\n      swap1\n      tag_158\n      jump\t// in\n    tag_157:\n      mload(0x40)\n      dup1\n      swap2\n      sub\n      swap1\n      log1\n        /* \"back/contracts/campaigns.sol\":858:1241  {... */\n      pop\n      pop\n        /* \"back/contracts/campaigns.sol\":767:1241  function setCampaign(uint _target_amount, uint _days_deadline, string memory _name) public {... */\n      pop\n      pop\n      pop\n      jump\t// out\n        /* \"back/contracts/campaigns.sol\":617:675  mapping(uint => address[]) public contributorsByCampaignId */\n    tag_45:\n      mstore(0x20, 0x01)\n      dup2\n      0x00\n      mstore\n      keccak256(0x00, 0x40)\n      dup2\n      dup2\n      sload\n      dup2\n      lt\n      tag_159\n      jumpi\n      0x00\n      dup1\n      revert\n    tag_159:\n      swap1\n      0x00\n      mstore\n      keccak256(0x00, 0x20)\n      add\n      0x00\n      swap2\n      pop\n      swap2\n      pop\n      swap1\n      sload\n      swap1\n      0x0100\n      exp\n      swap1\n      div\n      0xffffffffffffffffffffffffffffffffffffffff\n      and\n      dup2\n      jump\t// out\n    tag_128:\n      mload(0x40)\n      dup1\n      0xe0\n      add\n      0x40\n      mstore\n      dup1\n      0x60\n      dup2\n      mstore\n      0x20\n      add\n      0x00\n      dup2\n      mstore\n      0x20\n      add\n      0x00\n      dup2\n      mstore\n      0x20\n      add\n      0x00\n      dup2\n      mstore\n      0x20\n      add\n      0x00\n      dup2\n      mstore\n      0x20\n      add\n      and(0xffffffffffffffffffffffffffffffffffffffff, 0x00)\n      dup2\n      mstore\n      0x20\n      add\n      0x00\n      0x02\n      dup2\n      gt\n      iszero\n      tag_161\n      jumpi\n      tag_162\n      tag_69\n      jump\t// in\n    tag_162:\n    tag_161:\n      dup2\n      mstore\n      pop\n      swap1\n      jump\t// out\n        /* \"#utility.yul\":7:82   */\n    tag_163:\n        /* \"#utility.yul\":40:46   */\n      0x00\n        /* \"#utility.yul\":73:75   */\n      0x40\n        /* \"#utility.yul\":67:76   */\n      mload\n        /* \"#utility.yul\":57:76   */\n      swap1\n      pop\n        /* \"#utility.yul\":7:82   */\n      swap1\n      jump\t// out\n        /* \"#utility.yul\":88:205   */\n    tag_164:\n        /* \"#utility.yul\":197:198   */\n      0x00\n        /* \"#utility.yul\":194:195   */\n      dup1\n        /* \"#utility.yul\":187:199   */\n      revert\n        /* \"#utility.yul\":211:328   */\n    tag_165:\n        /* \"#utility.yul\":320:321   */\n      0x00\n        /* \"#utility.yul\":317:318   */\n      dup1\n        /* \"#utility.yul\":310:322   */\n      revert\n        /* \"#utility.yul\":334:411   */\n    tag_166:\n        /* \"#utility.yul\":371:378   */\n      0x00\n        /* \"#utility.yul\":400:405   */\n      dup2\n        /* \"#utility.yul\":389:405   */\n      swap1\n      pop\n        /* \"#utility.yul\":334:411   */\n      swap2\n      swap1\n      pop\n      jump\t// out\n        /* \"#utility.yul\":417:539   */\n    tag_167:\n        /* \"#utility.yul\":490:514   */\n      tag_241\n        /* \"#utility.yul\":508:513   */\n      dup2\n        /* \"#utility.yul\":490:514   */\n      tag_166\n      jump\t// in\n    tag_241:\n        /* \"#utility.yul\":483:488   */\n      dup2\n        /* \"#utility.yul\":480:515   */\n      eq\n        /* \"#utility.yul\":470:533   */\n      tag_242\n      jumpi\n        /* \"#utility.yul\":529:530   */\n      0x00\n        /* \"#utility.yul\":526:527   */\n      dup1\n        /* \"#utility.yul\":519:531   */\n      revert\n        /* \"#utility.yul\":470:533   */\n    tag_242:\n        /* \"#utility.yul\":417:539   */\n      pop\n      jump\t// out\n        /* \"#utility.yul\":545:684   */\n    tag_168:\n        /* \"#utility.yul\":591:596   */\n      0x00\n        /* \"#utility.yul\":629:635   */\n      dup2\n        /* \"#utility.yul\":616:636   */\n      calldataload\n        /* \"#utility.yul\":607:636   */\n      swap1\n      pop\n        /* \"#utility.yul\":645:678   */\n      tag_244\n        /* \"#utility.yul\":672:677   */\n      dup2\n        /* \"#utility.yul\":645:678   */\n      tag_167\n      jump\t// in\n    tag_244:\n        /* \"#utility.yul\":545:684   */\n      swap3\n      swap2\n      pop\n      pop\n      jump\t// out\n        /* \"#utility.yul\":690:1019   */\n    tag_13:\n        /* \"#utility.yul\":749:755   */\n      0x00\n        /* \"#utility.yul\":798:800   */\n      0x20\n        /* \"#utility.yul\":786:795   */\n      dup3\n        /* \"#utility.yul\":777:784   */\n      dup5\n        /* \"#utility.yul\":773:796   */\n      sub\n        /* \"#utility.yul\":769:801   */\n      slt\n        /* \"#utility.yul\":766:885   */\n      iszero\n      tag_246\n      jumpi\n        /* \"#utility.yul\":804:883   */\n      tag_247\n      tag_164\n      jump\t// in\n    tag_247:\n        /* \"#utility.yul\":766:885   */\n    tag_246:\n        /* \"#utility.yul\":924:925   */\n      0x00\n        /* \"#utility.yul\":949:1002   */\n      tag_248\n        /* \"#utility.yul\":994:1001   */\n      dup5\n        /* \"#utility.yul\":985:991   */\n      dup3\n        /* \"#utility.yul\":974:983   */\n      dup6\n        /* \"#utility.yul\":970:992   */\n      add\n        /* \"#utility.yul\":949:1002   */\n      tag_168\n      jump\t// in\n    tag_248:\n        /* \"#utility.yul\":939:1002   */\n      swap2\n      pop\n        /* \"#utility.yul\":895:1012   */\n      pop\n        /* \"#utility.yul\":690:1019   */\n      swap3\n      swap2\n      pop\n      pop\n      jump\t// out\n        /* \"#utility.yul\":1025:1124   */\n    tag_169:\n        /* \"#utility.yul\":1077:1083   */\n      0x00\n        /* \"#utility.yul\":1111:1116   */\n      dup2\n        /* \"#utility.yul\":1105:1117   */\n      mload\n        /* \"#utility.yul\":1095:1117   */\n      swap1\n      pop\n        /* \"#utility.yul\":1025:1124   */\n      swap2\n      swap1\n      pop\n      jump\t// out\n        /* \"#utility.yul\":1130:1299   */\n    tag_170:\n        /* \"#utility.yul\":1214:1225   */\n      0x00\n        /* \"#utility.yul\":1248:1254   */\n      dup3\n        /* \"#utility.yul\":1243:1246   */\n      dup3\n        /* \"#utility.yul\":1236:1255   */\n      mstore\n        /* \"#utility.yul\":1288:1292   */\n      0x20\n        /* \"#utility.yul\":1283:1286   */\n      dup3\n        /* \"#utility.yul\":1279:1293   */\n      add\n        /* \"#utility.yul\":1264:1293   */\n      swap1\n      pop\n        /* \"#utility.yul\":1130:1299   */\n      swap3\n      swap2\n      pop\n      pop\n      jump\t// out\n        /* \"#utility.yul\":1305:1444   */\n    tag_171:\n        /* \"#utility.yul\":1394:1400   */\n      dup3\n        /* \"#utility.yul\":1389:1392   */\n      dup2\n        /* \"#utility.yul\":1384:1387   */\n      dup4\n        /* \"#utility.yul\":1378:1401   */\n      mcopy\n        /* \"#utility.yul\":1435:1436   */\n      0x00\n        /* \"#utility.yul\":1426:1432   */\n      dup4\n        /* \"#utility.yul\":1421:1424   */\n      dup4\n        /* \"#utility.yul\":1417:1433   */\n      add\n        /* \"#utility.yul\":1410:1437   */\n      mstore\n        /* \"#utility.yul\":1305:1444   */\n      pop\n      pop\n      pop\n      jump\t// out\n        /* \"#utility.yul\":1450:1552   */\n    tag_172:\n        /* \"#utility.yul\":1491:1497   */\n      0x00\n        /* \"#utility.yul\":1542:1544   */\n      0x1f\n        /* \"#utility.yul\":1538:1545   */\n      not\n        /* \"#utility.yul\":1533:1535   */\n      0x1f\n        /* \"#utility.yul\":1526:1531   */\n      dup4\n        /* \"#utility.yul\":1522:1536   */\n      add\n        /* \"#utility.yul\":1518:1546   */\n      and\n        /* \"#utility.yul\":1508:1546   */\n      swap1\n      pop\n        /* \"#utility.yul\":1450:1552   */\n      swap2\n      swap1\n      pop\n      jump\t// out\n        /* \"#utility.yul\":1558:1935   */\n    tag_173:\n        /* \"#utility.yul\":1646:1649   */\n      0x00\n        /* \"#utility.yul\":1674:1713   */\n      tag_254\n        /* \"#utility.yul\":1707:1712   */\n      dup3\n        /* \"#utility.yul\":1674:1713   */\n      tag_169\n      jump\t// in\n    tag_254:\n        /* \"#utility.yul\":1729:1800   */\n      tag_255\n        /* \"#utility.yul\":1793:1799   */\n      dup2\n        /* \"#utility.yul\":1788:1791   */\n      dup6\n        /* \"#utility.yul\":1729:1800   */\n      tag_170\n      jump\t// in\n    tag_255:\n        /* \"#utility.yul\":1722:1800   */\n      swap4\n      pop\n        /* \"#utility.yul\":1809:1874   */\n      tag_256\n        /* \"#utility.yul\":1867:1873   */\n      dup2\n        /* \"#utility.yul\":1862:1865   */\n      dup6\n        /* \"#utility.yul\":1855:1859   */\n      0x20\n        /* \"#utility.yul\":1848:1853   */\n      dup7\n        /* \"#utility.yul\":1844:1860   */\n      add\n        /* \"#utility.yul\":1809:1874   */\n      tag_171\n      jump\t// in\n    tag_256:\n        /* \"#utility.yul\":1899:1928   */\n      tag_257\n        /* \"#utility.yul\":1921:1927   */\n      dup2\n        /* \"#utility.yul\":1899:1928   */\n      tag_172\n      jump\t// in\n    tag_257:\n        /* \"#utility.yul\":1894:1897   */\n      dup5\n        /* \"#utility.yul\":1890:1929   */\n      add\n        /* \"#utility.yul\":1883:1929   */\n      swap2\n      pop\n        /* \"#utility.yul\":1650:1935   */\n      pop\n        /* \"#utility.yul\":1558:1935   */\n      swap3\n      swap2\n      pop\n      pop\n      jump\t// out\n        /* \"#utility.yul\":1941:2059   */\n    tag_174:\n        /* \"#utility.yul\":2028:2052   */\n      tag_259\n        /* \"#utility.yul\":2046:2051   */\n      dup2\n        /* \"#utility.yul\":2028:2052   */\n      tag_166\n      jump\t// in\n    tag_259:\n        /* \"#utility.yul\":2023:2026   */\n      dup3\n        /* \"#utility.yul\":2016:2053   */\n      mstore\n        /* \"#utility.yul\":1941:2059   */\n      pop\n      pop\n      jump\t// out\n        /* \"#utility.yul\":2065:2191   */\n    tag_175:\n        /* \"#utility.yul\":2102:2109   */\n      0x00\n        /* \"#utility.yul\":2142:2184   */\n      0xffffffffffffffffffffffffffffffffffffffff\n        /* \"#utility.yul\":2135:2140   */\n      dup3\n        /* \"#utility.yul\":2131:2185   */\n      and\n        /* \"#utility.yul\":2120:2185   */\n      swap1\n      pop\n        /* \"#utility.yul\":2065:2191   */\n      swap2\n      swap1\n      pop\n      jump\t// out\n        /* \"#utility.yul\":2197:2293   */\n    tag_176:\n        /* \"#utility.yul\":2234:2241   */\n      0x00\n        /* \"#utility.yul\":2263:2287   */\n      tag_262\n        /* \"#utility.yul\":2281:2286   */\n      dup3\n        /* \"#utility.yul\":2263:2287   */\n      tag_175\n      jump\t// in\n    tag_262:\n        /* \"#utility.yul\":2252:2287   */\n      swap1\n      pop\n        /* \"#utility.yul\":2197:2293   */\n      swap2\n      swap1\n      pop\n      jump\t// out\n        /* \"#utility.yul\":2299:2417   */\n    tag_177:\n        /* \"#utility.yul\":2386:2410   */\n      tag_264\n        /* \"#utility.yul\":2404:2409   */\n      dup2\n        /* \"#utility.yul\":2386:2410   */\n      tag_176\n      jump\t// in\n    tag_264:\n        /* \"#utility.yul\":2381:2384   */\n      dup3\n        /* \"#utility.yul\":2374:2411   */\n      mstore\n        /* \"#utility.yul\":2299:2417   */\n      pop\n      pop\n      jump\t// out\n        /* \"#utility.yul\":2423:2603   */\n    tag_69:\n        /* \"#utility.yul\":2471:2548   */\n      0x4e487b7100000000000000000000000000000000000000000000000000000000\n        /* \"#utility.yul\":2468:2469   */\n      0x00\n        /* \"#utility.yul\":2461:2549   */\n      mstore\n        /* \"#utility.yul\":2568:2572   */\n      0x21\n        /* \"#utility.yul\":2565:2566   */\n      0x04\n        /* \"#utility.yul\":2558:2573   */\n      mstore\n        /* \"#utility.yul\":2592:2596   */\n      0x24\n        /* \"#utility.yul\":2589:2590   */\n      0x00\n        /* \"#utility.yul\":2582:2597   */\n      revert\n        /* \"#utility.yul\":2609:2729   */\n    tag_178:\n        /* \"#utility.yul\":2697:2698   */\n      0x03\n        /* \"#utility.yul\":2690:2695   */\n      dup2\n        /* \"#utility.yul\":2687:2699   */\n      lt\n        /* \"#utility.yul\":2677:2723   */\n      tag_267\n      jumpi\n        /* \"#utility.yul\":2703:2721   */\n      tag_268\n      tag_69\n      jump\t// in\n    tag_268:\n        /* \"#utility.yul\":2677:2723   */\n    tag_267:\n        /* \"#utility.yul\":2609:2729   */\n      pop\n      jump\t// out\n        /* \"#utility.yul\":2735:2876   */\n    tag_179:\n        /* \"#utility.yul\":2787:2794   */\n      0x00\n        /* \"#utility.yul\":2816:2821   */\n      dup2\n        /* \"#utility.yul\":2805:2821   */\n      swap1\n      pop\n        /* \"#utility.yul\":2822:2870   */\n      tag_270\n        /* \"#utility.yul\":2864:2869   */\n      dup3\n        /* \"#utility.yul\":2822:2870   */\n      tag_178\n      jump\t// in\n    tag_270:\n        /* \"#utility.yul\":2735:2876   */\n      swap2\n      swap1\n      pop\n      jump\t// out\n        /* \"#utility.yul\":2882:3023   */\n    tag_180:\n        /* \"#utility.yul\":2945:2954   */\n      0x00\n        /* \"#utility.yul\":2978:3017   */\n      tag_272\n        /* \"#utility.yul\":3011:3016   */\n      dup3\n        /* \"#utility.yul\":2978:3017   */\n      tag_179\n      jump\t// in\n    tag_272:\n        /* \"#utility.yul\":2965:3017   */\n      swap1\n      pop\n        /* \"#utility.yul\":2882:3023   */\n      swap2\n      swap1\n      pop\n      jump\t// out\n        /* \"#utility.yul\":3029:3186   */\n    tag_181:\n        /* \"#utility.yul\":3129:3179   */\n      tag_274\n        /* \"#utility.yul\":3173:3178   */\n      dup2\n        /* \"#utility.yul\":3129:3179   */\n      tag_180\n      jump\t// in\n    tag_274:\n        /* \"#utility.yul\":3124:3127   */\n      dup3\n        /* \"#utility.yul\":3117:3180   */\n      mstore\n        /* \"#utility.yul\":3029:3186   */\n      pop\n      pop\n      jump\t// out\n        /* \"#utility.yul\":3192:4195   */\n    tag_16:\n        /* \"#utility.yul\":3486:3490   */\n      0x00\n        /* \"#utility.yul\":3524:3527   */\n      0xe0\n        /* \"#utility.yul\":3513:3522   */\n      dup3\n        /* \"#utility.yul\":3509:3528   */\n      add\n        /* \"#utility.yul\":3501:3528   */\n      swap1\n      pop\n        /* \"#utility.yul\":3574:3583   */\n      dup2\n        /* \"#utility.yul\":3568:3572   */\n      dup2\n        /* \"#utility.yul\":3564:3584   */\n      sub\n        /* \"#utility.yul\":3560:3561   */\n      0x00\n        /* \"#utility.yul\":3549:3558   */\n      dup4\n        /* \"#utility.yul\":3545:3562   */\n      add\n        /* \"#utility.yul\":3538:3585   */\n      mstore\n        /* \"#utility.yul\":3602:3680   */\n      tag_276\n        /* \"#utility.yul\":3675:3679   */\n      dup2\n        /* \"#utility.yul\":3666:3672   */\n      dup11\n        /* \"#utility.yul\":3602:3680   */\n      tag_173\n      jump\t// in\n    tag_276:\n        /* \"#utility.yul\":3594:3680   */\n      swap1\n      pop\n        /* \"#utility.yul\":3690:3762   */\n      tag_277\n        /* \"#utility.yul\":3758:3760   */\n      0x20\n        /* \"#utility.yul\":3747:3756   */\n      dup4\n        /* \"#utility.yul\":3743:3761   */\n      add\n        /* \"#utility.yul\":3734:3740   */\n      dup10\n        /* \"#utility.yul\":3690:3762   */\n      tag_174\n      jump\t// in\n    tag_277:\n        /* \"#utility.yul\":3772:3844   */\n      tag_278\n        /* \"#utility.yul\":3840:3842   */\n      0x40\n        /* \"#utility.yul\":3829:3838   */\n      dup4\n        /* \"#utility.yul\":3825:3843   */\n      add\n        /* \"#utility.yul\":3816:3822   */\n      dup9\n        /* \"#utility.yul\":3772:3844   */\n      tag_174\n      jump\t// in\n    tag_278:\n        /* \"#utility.yul\":3854:3926   */\n      tag_279\n        /* \"#utility.yul\":3922:3924   */\n      0x60\n        /* \"#utility.yul\":3911:3920   */\n      dup4\n        /* \"#utility.yul\":3907:3925   */\n      add\n        /* \"#utility.yul\":3898:3904   */\n      dup8\n        /* \"#utility.yul\":3854:3926   */\n      tag_174\n      jump\t// in\n    tag_279:\n        /* \"#utility.yul\":3936:4009   */\n      tag_280\n        /* \"#utility.yul\":4004:4007   */\n      0x80\n        /* \"#utility.yul\":3993:4002   */\n      dup4\n        /* \"#utility.yul\":3989:4008   */\n      add\n        /* \"#utility.yul\":3980:3986   */\n      dup7\n        /* \"#utility.yul\":3936:4009   */\n      tag_174\n      jump\t// in\n    tag_280:\n        /* \"#utility.yul\":4019:4092   */\n      tag_281\n        /* \"#utility.yul\":4087:4090   */\n      0xa0\n        /* \"#utility.yul\":4076:4085   */\n      dup4\n        /* \"#utility.yul\":4072:4091   */\n      add\n        /* \"#utility.yul\":4063:4069   */\n      dup6\n        /* \"#utility.yul\":4019:4092   */\n      tag_177\n      jump\t// in\n    tag_281:\n        /* \"#utility.yul\":4102:4188   */\n      tag_282\n        /* \"#utility.yul\":4183:4186   */\n      0xc0\n        /* \"#utility.yul\":4172:4181   */\n      dup4\n        /* \"#utility.yul\":4168:4187   */\n      add\n        /* \"#utility.yul\":4159:4165   */\n      dup5\n        /* \"#utility.yul\":4102:4188   */\n      tag_181\n      jump\t// in\n    tag_282:\n        /* \"#utility.yul\":3192:4195   */\n      swap9\n      swap8\n      pop\n      pop\n      pop\n      pop\n      pop\n      pop\n      pop\n      pop\n      jump\t// out\n        /* \"#utility.yul\":4201:4323   */\n    tag_182:\n        /* \"#utility.yul\":4274:4298   */\n      tag_284\n        /* \"#utility.yul\":4292:4297   */\n      dup2\n        /* \"#utility.yul\":4274:4298   */\n      tag_176\n      jump\t// in\n    tag_284:\n        /* \"#utility.yul\":4267:4272   */\n      dup2\n        /* \"#utility.yul\":4264:4299   */\n      eq\n        /* \"#utility.yul\":4254:4317   */\n      tag_285\n      jumpi\n        /* \"#utility.yul\":4313:4314   */\n      0x00\n        /* \"#utility.yul\":4310:4311   */\n      dup1\n        /* \"#utility.yul\":4303:4315   */\n      revert\n        /* \"#utility.yul\":4254:4317   */\n    tag_285:\n        /* \"#utility.yul\":4201:4323   */\n      pop\n      jump\t// out\n        /* \"#utility.yul\":4329:4468   */\n    tag_183:\n        /* \"#utility.yul\":4375:4380   */\n      0x00\n        /* \"#utility.yul\":4413:4419   */\n      dup2\n        /* \"#utility.yul\":4400:4420   */\n      calldataload\n        /* \"#utility.yul\":4391:4420   */\n      swap1\n      pop\n        /* \"#utility.yul\":4429:4462   */\n      tag_287\n        /* \"#utility.yul\":4456:4461   */\n      dup2\n        /* \"#utility.yul\":4429:4462   */\n      tag_182\n      jump\t// in\n    tag_287:\n        /* \"#utility.yul\":4329:4468   */\n      swap3\n      swap2\n      pop\n      pop\n      jump\t// out\n        /* \"#utility.yul\":4474:4948   */\n    tag_24:\n        /* \"#utility.yul\":4542:4548   */\n      0x00\n        /* \"#utility.yul\":4550:4556   */\n      dup1\n        /* \"#utility.yul\":4599:4601   */\n      0x40\n        /* \"#utility.yul\":4587:4596   */\n      dup4\n        /* \"#utility.yul\":4578:4585   */\n      dup6\n        /* \"#utility.yul\":4574:4597   */\n      sub\n        /* \"#utility.yul\":4570:4602   */\n      slt\n        /* \"#utility.yul\":4567:4686   */\n      iszero\n      tag_289\n      jumpi\n        /* \"#utility.yul\":4605:4684   */\n      tag_290\n      tag_164\n      jump\t// in\n    tag_290:\n        /* \"#utility.yul\":4567:4686   */\n    tag_289:\n        /* \"#utility.yul\":4725:4726   */\n      0x00\n        /* \"#utility.yul\":4750:4803   */\n      tag_291\n        /* \"#utility.yul\":4795:4802   */\n      dup6\n        /* \"#utility.yul\":4786:4792   */\n      dup3\n        /* \"#utility.yul\":4775:4784   */\n      dup7\n        /* \"#utility.yul\":4771:4793   */\n      add\n        /* \"#utility.yul\":4750:4803   */\n      tag_183\n      jump\t// in\n    tag_291:\n        /* \"#utility.yul\":4740:4803   */\n      swap3\n      pop\n        /* \"#utility.yul\":4696:4813   */\n      pop\n        /* \"#utility.yul\":4852:4854   */\n      0x20\n        /* \"#utility.yul\":4878:4931   */\n      tag_292\n        /* \"#utility.yul\":4923:4930   */\n      dup6\n        /* \"#utility.yul\":4914:4920   */\n      dup3\n        /* \"#utility.yul\":4903:4912   */\n      dup7\n        /* \"#utility.yul\":4899:4921   */\n      add\n        /* \"#utility.yul\":4878:4931   */\n      tag_168\n      jump\t// in\n    tag_292:\n        /* \"#utility.yul\":4868:4931   */\n      swap2\n      pop\n        /* \"#utility.yul\":4823:4941   */\n      pop\n        /* \"#utility.yul\":4474:4948   */\n      swap3\n      pop\n      swap3\n      swap1\n      pop\n      jump\t// out\n        /* \"#utility.yul\":4954:5176   */\n    tag_27:\n        /* \"#utility.yul\":5047:5051   */\n      0x00\n        /* \"#utility.yul\":5085:5087   */\n      0x20\n        /* \"#utility.yul\":5074:5083   */\n      dup3\n        /* \"#utility.yul\":5070:5088   */\n      add\n        /* \"#utility.yul\":5062:5088   */\n      swap1\n      pop\n        /* \"#utility.yul\":5098:5169   */\n      tag_294\n        /* \"#utility.yul\":5166:5167   */\n      0x00\n        /* \"#utility.yul\":5155:5164   */\n      dup4\n        /* \"#utility.yul\":5151:5168   */\n      add\n        /* \"#utility.yul\":5142:5148   */\n      dup5\n        /* \"#utility.yul\":5098:5169   */\n      tag_174\n      jump\t// in\n    tag_294:\n        /* \"#utility.yul\":4954:5176   */\n      swap3\n      swap2\n      pop\n      pop\n      jump\t// out\n        /* \"#utility.yul\":5182:5320   */\n    tag_184:\n        /* \"#utility.yul\":5273:5279   */\n      0x00\n        /* \"#utility.yul\":5307:5312   */\n      dup2\n        /* \"#utility.yul\":5301:5313   */\n      mload\n        /* \"#utility.yul\":5291:5313   */\n      swap1\n      pop\n        /* \"#utility.yul\":5182:5320   */\n      swap2\n      swap1\n      pop\n      jump\t// out\n        /* \"#utility.yul\":5326:5534   */\n    tag_185:\n        /* \"#utility.yul\":5449:5460   */\n      0x00\n        /* \"#utility.yul\":5483:5489   */\n      dup3\n        /* \"#utility.yul\":5478:5481   */\n      dup3\n        /* \"#utility.yul\":5471:5490   */\n      mstore\n        /* \"#utility.yul\":5523:5527   */\n      0x20\n        /* \"#utility.yul\":5518:5521   */\n      dup3\n        /* \"#utility.yul\":5514:5528   */\n      add\n        /* \"#utility.yul\":5499:5528   */\n      swap1\n      pop\n        /* \"#utility.yul\":5326:5534   */\n      swap3\n      swap2\n      pop\n      pop\n      jump\t// out\n        /* \"#utility.yul\":5540:5696   */\n    tag_186:\n        /* \"#utility.yul\":5631:5635   */\n      0x00\n        /* \"#utility.yul\":5654:5657   */\n      dup2\n        /* \"#utility.yul\":5646:5657   */\n      swap1\n      pop\n        /* \"#utility.yul\":5684:5688   */\n      0x20\n        /* \"#utility.yul\":5679:5682   */\n      dup3\n        /* \"#utility.yul\":5675:5689   */\n      add\n        /* \"#utility.yul\":5667:5689   */\n      swap1\n      pop\n        /* \"#utility.yul\":5540:5696   */\n      swap2\n      swap1\n      pop\n      jump\t// out\n        /* \"#utility.yul\":5702:5861   */\n    tag_187:\n        /* \"#utility.yul\":5776:5787   */\n      0x00\n        /* \"#utility.yul\":5810:5816   */\n      dup3\n        /* \"#utility.yul\":5805:5808   */\n      dup3\n        /* \"#utility.yul\":5798:5817   */\n      mstore\n        /* \"#utility.yul\":5850:5854   */\n      0x20\n        /* \"#utility.yul\":5845:5848   */\n      dup3\n        /* \"#utility.yul\":5841:5855   */\n      add\n        /* \"#utility.yul\":5826:5855   */\n      swap1\n      pop\n        /* \"#utility.yul\":5702:5861   */\n      swap3\n      swap2\n      pop\n      pop\n      jump\t// out\n        /* \"#utility.yul\":5867:6224   */\n    tag_188:\n        /* \"#utility.yul\":5945:5948   */\n      0x00\n        /* \"#utility.yul\":5973:6012   */\n      tag_300\n        /* \"#utility.yul\":6006:6011   */\n      dup3\n        /* \"#utility.yul\":5973:6012   */\n      tag_169\n      jump\t// in\n    tag_300:\n        /* \"#utility.yul\":6028:6089   */\n      tag_301\n        /* \"#utility.yul\":6082:6088   */\n      dup2\n        /* \"#utility.yul\":6077:6080   */\n      dup6\n        /* \"#utility.yul\":6028:6089   */\n      tag_187\n      jump\t// in\n    tag_301:\n        /* \"#utility.yul\":6021:6089   */\n      swap4\n      pop\n        /* \"#utility.yul\":6098:6163   */\n      tag_302\n        /* \"#utility.yul\":6156:6162   */\n      dup2\n        /* \"#utility.yul\":6151:6154   */\n      dup6\n        /* \"#utility.yul\":6144:6148   */\n      0x20\n        /* \"#utility.yul\":6137:6142   */\n      dup7\n        /* \"#utility.yul\":6133:6149   */\n      add\n        /* \"#utility.yul\":6098:6163   */\n      tag_171\n      jump\t// in\n    tag_302:\n        /* \"#utility.yul\":6188:6217   */\n      tag_303\n        /* \"#utility.yul\":6210:6216   */\n      dup2\n        /* \"#utility.yul\":6188:6217   */\n      tag_172\n      jump\t// in\n    tag_303:\n        /* \"#utility.yul\":6183:6186   */\n      dup5\n        /* \"#utility.yul\":6179:6218   */\n      add\n        /* \"#utility.yul\":6172:6218   */\n      swap2\n      pop\n        /* \"#utility.yul\":5949:6224   */\n      pop\n        /* \"#utility.yul\":5867:6224   */\n      swap3\n      swap2\n      pop\n      pop\n      jump\t// out\n        /* \"#utility.yul\":6230:6338   */\n    tag_189:\n        /* \"#utility.yul\":6307:6331   */\n      tag_305\n        /* \"#utility.yul\":6325:6330   */\n      dup2\n        /* \"#utility.yul\":6307:6331   */\n      tag_166\n      jump\t// in\n    tag_305:\n        /* \"#utility.yul\":6302:6305   */\n      dup3\n        /* \"#utility.yul\":6295:6332   */\n      mstore\n        /* \"#utility.yul\":6230:6338   */\n      pop\n      pop\n      jump\t// out\n        /* \"#utility.yul\":6344:6452   */\n    tag_190:\n        /* \"#utility.yul\":6421:6445   */\n      tag_307\n        /* \"#utility.yul\":6439:6444   */\n      dup2\n        /* \"#utility.yul\":6421:6445   */\n      tag_176\n      jump\t// in\n    tag_307:\n        /* \"#utility.yul\":6416:6419   */\n      dup3\n        /* \"#utility.yul\":6409:6446   */\n      mstore\n        /* \"#utility.yul\":6344:6452   */\n      pop\n      pop\n      jump\t// out\n        /* \"#utility.yul\":6458:6605   */\n    tag_191:\n        /* \"#utility.yul\":6548:6598   */\n      tag_309\n        /* \"#utility.yul\":6592:6597   */\n      dup2\n        /* \"#utility.yul\":6548:6598   */\n      tag_180\n      jump\t// in\n    tag_309:\n        /* \"#utility.yul\":6543:6546   */\n      dup3\n        /* \"#utility.yul\":6536:6599   */\n      mstore\n        /* \"#utility.yul\":6458:6605   */\n      pop\n      pop\n      jump\t// out\n        /* \"#utility.yul\":6673:8185   */\n    tag_192:\n        /* \"#utility.yul\":6780:6783   */\n      0x00\n        /* \"#utility.yul\":6816:6820   */\n      0xe0\n        /* \"#utility.yul\":6811:6814   */\n      dup4\n        /* \"#utility.yul\":6807:6821   */\n      add\n        /* \"#utility.yul\":6903:6907   */\n      0x00\n        /* \"#utility.yul\":6896:6901   */\n      dup4\n        /* \"#utility.yul\":6892:6908   */\n      add\n        /* \"#utility.yul\":6886:6909   */\n      mload\n        /* \"#utility.yul\":6956:6959   */\n      dup5\n        /* \"#utility.yul\":6950:6954   */\n      dup3\n        /* \"#utility.yul\":6946:6960   */\n      sub\n        /* \"#utility.yul\":6939:6943   */\n      0x00\n        /* \"#utility.yul\":6934:6937   */\n      dup7\n        /* \"#utility.yul\":6930:6944   */\n      add\n        /* \"#utility.yul\":6923:6961   */\n      mstore\n        /* \"#utility.yul\":6982:7055   */\n      tag_311\n        /* \"#utility.yul\":7050:7054   */\n      dup3\n        /* \"#utility.yul\":7036:7048   */\n      dup3\n        /* \"#utility.yul\":6982:7055   */\n      tag_188\n      jump\t// in\n    tag_311:\n        /* \"#utility.yul\":6974:7055   */\n      swap2\n      pop\n        /* \"#utility.yul\":6831:7066   */\n      pop\n        /* \"#utility.yul\":7157:7161   */\n      0x20\n        /* \"#utility.yul\":7150:7155   */\n      dup4\n        /* \"#utility.yul\":7146:7162   */\n      add\n        /* \"#utility.yul\":7140:7163   */\n      mload\n        /* \"#utility.yul\":7176:7239   */\n      tag_312\n        /* \"#utility.yul\":7233:7237   */\n      0x20\n        /* \"#utility.yul\":7228:7231   */\n      dup7\n        /* \"#utility.yul\":7224:7238   */\n      add\n        /* \"#utility.yul\":7210:7222   */\n      dup3\n        /* \"#utility.yul\":7176:7239   */\n      tag_189\n      jump\t// in\n    tag_312:\n        /* \"#utility.yul\":7076:7249   */\n      pop\n        /* \"#utility.yul\":7341:7345   */\n      0x40\n        /* \"#utility.yul\":7334:7339   */\n      dup4\n        /* \"#utility.yul\":7330:7346   */\n      add\n        /* \"#utility.yul\":7324:7347   */\n      mload\n        /* \"#utility.yul\":7360:7423   */\n      tag_313\n        /* \"#utility.yul\":7417:7421   */\n      0x40\n        /* \"#utility.yul\":7412:7415   */\n      dup7\n        /* \"#utility.yul\":7408:7422   */\n      add\n        /* \"#utility.yul\":7394:7406   */\n      dup3\n        /* \"#utility.yul\":7360:7423   */\n      tag_189\n      jump\t// in\n    tag_313:\n        /* \"#utility.yul\":7259:7433   */\n      pop\n        /* \"#utility.yul\":7519:7523   */\n      0x60\n        /* \"#utility.yul\":7512:7517   */\n      dup4\n        /* \"#utility.yul\":7508:7524   */\n      add\n        /* \"#utility.yul\":7502:7525   */\n      mload\n        /* \"#utility.yul\":7538:7601   */\n      tag_314\n        /* \"#utility.yul\":7595:7599   */\n      0x60\n        /* \"#utility.yul\":7590:7593   */\n      dup7\n        /* \"#utility.yul\":7586:7600   */\n      add\n        /* \"#utility.yul\":7572:7584   */\n      dup3\n        /* \"#utility.yul\":7538:7601   */\n      tag_189\n      jump\t// in\n    tag_314:\n        /* \"#utility.yul\":7443:7611   */\n      pop\n        /* \"#utility.yul\":7701:7705   */\n      0x80\n        /* \"#utility.yul\":7694:7699   */\n      dup4\n        /* \"#utility.yul\":7690:7706   */\n      add\n        /* \"#utility.yul\":7684:7707   */\n      mload\n        /* \"#utility.yul\":7720:7783   */\n      tag_315\n        /* \"#utility.yul\":7777:7781   */\n      0x80\n        /* \"#utility.yul\":7772:7775   */\n      dup7\n        /* \"#utility.yul\":7768:7782   */\n      add\n        /* \"#utility.yul\":7754:7766   */\n      dup3\n        /* \"#utility.yul\":7720:7783   */\n      tag_189\n      jump\t// in\n    tag_315:\n        /* \"#utility.yul\":7621:7793   */\n      pop\n        /* \"#utility.yul\":7878:7882   */\n      0xa0\n        /* \"#utility.yul\":7871:7876   */\n      dup4\n        /* \"#utility.yul\":7867:7883   */\n      add\n        /* \"#utility.yul\":7861:7884   */\n      mload\n        /* \"#utility.yul\":7897:7960   */\n      tag_316\n        /* \"#utility.yul\":7954:7958   */\n      0xa0\n        /* \"#utility.yul\":7949:7952   */\n      dup7\n        /* \"#utility.yul\":7945:7959   */\n      add\n        /* \"#utility.yul\":7931:7943   */\n      dup3\n        /* \"#utility.yul\":7897:7960   */\n      tag_190\n      jump\t// in\n    tag_316:\n        /* \"#utility.yul\":7803:7970   */\n      pop\n        /* \"#utility.yul\":8053:8057   */\n      0xc0\n        /* \"#utility.yul\":8046:8051   */\n      dup4\n        /* \"#utility.yul\":8042:8058   */\n      add\n        /* \"#utility.yul\":8036:8059   */\n      mload\n        /* \"#utility.yul\":8072:8148   */\n      tag_317\n        /* \"#utility.yul\":8142:8146   */\n      0xc0\n        /* \"#utility.yul\":8137:8140   */\n      dup7\n        /* \"#utility.yul\":8133:8147   */\n      add\n        /* \"#utility.yul\":8119:8131   */\n      dup3\n        /* \"#utility.yul\":8072:8148   */\n      tag_191\n      jump\t// in\n    tag_317:\n        /* \"#utility.yul\":7980:8158   */\n      pop\n        /* \"#utility.yul\":8175:8179   */\n      dup1\n        /* \"#utility.yul\":8168:8179   */\n      swap2\n      pop\n        /* \"#utility.yul\":6785:8185   */\n      pop\n        /* \"#utility.yul\":6673:8185   */\n      swap3\n      swap2\n      pop\n      pop\n      jump\t// out\n        /* \"#utility.yul\":8191:8443   */\n    tag_193:\n        /* \"#utility.yul\":8308:8318   */\n      0x00\n        /* \"#utility.yul\":8343:8437   */\n      tag_319\n        /* \"#utility.yul\":8433:8436   */\n      dup4\n        /* \"#utility.yul\":8425:8431   */\n      dup4\n        /* \"#utility.yul\":8343:8437   */\n      tag_192\n      jump\t// in\n    tag_319:\n        /* \"#utility.yul\":8329:8437   */\n      swap1\n      pop\n        /* \"#utility.yul\":8191:8443   */\n      swap3\n      swap2\n      pop\n      pop\n      jump\t// out\n        /* \"#utility.yul\":8449:8586   */\n    tag_194:\n        /* \"#utility.yul\":8543:8547   */\n      0x00\n        /* \"#utility.yul\":8575:8579   */\n      0x20\n        /* \"#utility.yul\":8570:8573   */\n      dup3\n        /* \"#utility.yul\":8566:8580   */\n      add\n        /* \"#utility.yul\":8558:8580   */\n      swap1\n      pop\n        /* \"#utility.yul\":8449:8586   */\n      swap2\n      swap1\n      pop\n      jump\t// out\n        /* \"#utility.yul\":8658:9761   */\n    tag_195:\n        /* \"#utility.yul\":8825:8828   */\n      0x00\n        /* \"#utility.yul\":8854:8932   */\n      tag_322\n        /* \"#utility.yul\":8926:8931   */\n      dup3\n        /* \"#utility.yul\":8854:8932   */\n      tag_184\n      jump\t// in\n    tag_322:\n        /* \"#utility.yul\":8948:9058   */\n      tag_323\n        /* \"#utility.yul\":9051:9057   */\n      dup2\n        /* \"#utility.yul\":9046:9049   */\n      dup6\n        /* \"#utility.yul\":8948:9058   */\n      tag_185\n      jump\t// in\n    tag_323:\n        /* \"#utility.yul\":8941:9058   */\n      swap4\n      pop\n        /* \"#utility.yul\":9084:9087   */\n      dup4\n        /* \"#utility.yul\":9129:9133   */\n      0x20\n        /* \"#utility.yul\":9121:9127   */\n      dup3\n        /* \"#utility.yul\":9117:9134   */\n      mul\n        /* \"#utility.yul\":9112:9115   */\n      dup6\n        /* \"#utility.yul\":9108:9135   */\n      add\n        /* \"#utility.yul\":9159:9239   */\n      tag_324\n        /* \"#utility.yul\":9233:9238   */\n      dup6\n        /* \"#utility.yul\":9159:9239   */\n      tag_186\n      jump\t// in\n    tag_324:\n        /* \"#utility.yul\":9262:9269   */\n      dup1\n        /* \"#utility.yul\":9293:9294   */\n      0x00\n        /* \"#utility.yul\":9278:9716   */\n    tag_325:\n        /* \"#utility.yul\":9303:9309   */\n      dup6\n        /* \"#utility.yul\":9300:9301   */\n      dup2\n        /* \"#utility.yul\":9297:9310   */\n      lt\n        /* \"#utility.yul\":9278:9716   */\n      iszero\n      tag_327\n      jumpi\n        /* \"#utility.yul\":9374:9383   */\n      dup5\n        /* \"#utility.yul\":9368:9372   */\n      dup5\n        /* \"#utility.yul\":9364:9384   */\n      sub\n        /* \"#utility.yul\":9359:9362   */\n      dup10\n        /* \"#utility.yul\":9352:9385   */\n      mstore\n        /* \"#utility.yul\":9425:9431   */\n      dup2\n        /* \"#utility.yul\":9419:9432   */\n      mload\n        /* \"#utility.yul\":9453:9565   */\n      tag_328\n        /* \"#utility.yul\":9560:9564   */\n      dup6\n        /* \"#utility.yul\":9545:9558   */\n      dup3\n        /* \"#utility.yul\":9453:9565   */\n      tag_193\n      jump\t// in\n    tag_328:\n        /* \"#utility.yul\":9445:9565   */\n      swap5\n      pop\n        /* \"#utility.yul\":9588:9672   */\n      tag_329\n        /* \"#utility.yul\":9665:9671   */\n      dup4\n        /* \"#utility.yul\":9588:9672   */\n      tag_194\n      jump\t// in\n    tag_329:\n        /* \"#utility.yul\":9578:9672   */\n      swap3\n      pop\n        /* \"#utility.yul\":9701:9705   */\n      0x20\n        /* \"#utility.yul\":9696:9699   */\n      dup11\n        /* \"#utility.yul\":9692:9706   */\n      add\n        /* \"#utility.yul\":9685:9706   */\n      swap10\n      pop\n        /* \"#utility.yul\":9338:9716   */\n      pop\n        /* \"#utility.yul\":9325:9326   */\n      0x01\n        /* \"#utility.yul\":9322:9323   */\n      dup2\n        /* \"#utility.yul\":9318:9327   */\n      add\n        /* \"#utility.yul\":9313:9327   */\n      swap1\n      pop\n        /* \"#utility.yul\":9278:9716   */\n      jump(tag_325)\n    tag_327:\n        /* \"#utility.yul\":9282:9296   */\n      pop\n        /* \"#utility.yul\":9732:9736   */\n      dup3\n        /* \"#utility.yul\":9725:9736   */\n      swap8\n      pop\n        /* \"#utility.yul\":9752:9755   */\n      dup8\n        /* \"#utility.yul\":9745:9755   */\n      swap6\n      pop\n        /* \"#utility.yul\":8830:9761   */\n      pop\n      pop\n      pop\n      pop\n      pop\n        /* \"#utility.yul\":8658:9761   */\n      swap3\n      swap2\n      pop\n      pop\n      jump\t// out\n        /* \"#utility.yul\":9767:10236   */\n    tag_35:\n        /* \"#utility.yul\":9958:9962   */\n      0x00\n        /* \"#utility.yul\":9996:9998   */\n      0x20\n        /* \"#utility.yul\":9985:9994   */\n      dup3\n        /* \"#utility.yul\":9981:9999   */\n      add\n        /* \"#utility.yul\":9973:9999   */\n      swap1\n      pop\n        /* \"#utility.yul\":10045:10054   */\n      dup2\n        /* \"#utility.yul\":10039:10043   */\n      dup2\n        /* \"#utility.yul\":10035:10055   */\n      sub\n        /* \"#utility.yul\":10031:10032   */\n      0x00\n        /* \"#utility.yul\":10020:10029   */\n      dup4\n        /* \"#utility.yul\":10016:10033   */\n      add\n        /* \"#utility.yul\":10009:10056   */\n      mstore\n        /* \"#utility.yul\":10073:10229   */\n      tag_331\n        /* \"#utility.yul\":10224:10228   */\n      dup2\n        /* \"#utility.yul\":10215:10221   */\n      dup5\n        /* \"#utility.yul\":10073:10229   */\n      tag_195\n      jump\t// in\n    tag_331:\n        /* \"#utility.yul\":10065:10229   */\n      swap1\n      pop\n        /* \"#utility.yul\":9767:10236   */\n      swap3\n      swap2\n      pop\n      pop\n      jump\t// out\n        /* \"#utility.yul\":10242:10359   */\n    tag_196:\n        /* \"#utility.yul\":10351:10352   */\n      0x00\n        /* \"#utility.yul\":10348:10349   */\n      dup1\n        /* \"#utility.yul\":10341:10353   */\n      revert\n        /* \"#utility.yul\":10365:10482   */\n    tag_197:\n        /* \"#utility.yul\":10474:10475   */\n      0x00\n        /* \"#utility.yul\":10471:10472   */\n      dup1\n        /* \"#utility.yul\":10464:10476   */\n      revert\n        /* \"#utility.yul\":10488:10668   */\n    tag_124:\n        /* \"#utility.yul\":10536:10613   */\n      0x4e487b7100000000000000000000000000000000000000000000000000000000\n        /* \"#utility.yul\":10533:10534   */\n      0x00\n        /* \"#utility.yul\":10526:10614   */\n      mstore\n        /* \"#utility.yul\":10633:10637   */\n      0x41\n        /* \"#utility.yul\":10630:10631   */\n      0x04\n        /* \"#utility.yul\":10623:10638   */\n      mstore\n        /* \"#utility.yul\":10657:10661   */\n      0x24\n        /* \"#utility.yul\":10654:10655   */\n      0x00\n        /* \"#utility.yul\":10647:10662   */\n      revert\n        /* \"#utility.yul\":10674:10955   */\n    tag_198:\n        /* \"#utility.yul\":10757:10784   */\n      tag_336\n        /* \"#utility.yul\":10779:10783   */\n      dup3\n        /* \"#utility.yul\":10757:10784   */\n      tag_172\n      jump\t// in\n    tag_336:\n        /* \"#utility.yul\":10749:10755   */\n      dup2\n        /* \"#utility.yul\":10745:10785   */\n      add\n        /* \"#utility.yul\":10887:10893   */\n      dup2\n        /* \"#utility.yul\":10875:10885   */\n      dup2\n        /* \"#utility.yul\":10872:10894   */\n      lt\n        /* \"#utility.yul\":10851:10869   */\n      0xffffffffffffffff\n        /* \"#utility.yul\":10839:10849   */\n      dup3\n        /* \"#utility.yul\":10836:10870   */\n      gt\n        /* \"#utility.yul\":10833:10895   */\n      or\n        /* \"#utility.yul\":10830:10918   */\n      iszero\n      tag_337\n      jumpi\n        /* \"#utility.yul\":10898:10916   */\n      tag_338\n      tag_124\n      jump\t// in\n    tag_338:\n        /* \"#utility.yul\":10830:10918   */\n    tag_337:\n        /* \"#utility.yul\":10938:10948   */\n      dup1\n        /* \"#utility.yul\":10934:10936   */\n      0x40\n        /* \"#utility.yul\":10927:10949   */\n      mstore\n        /* \"#utility.yul\":10717:10955   */\n      pop\n        /* \"#utility.yul\":10674:10955   */\n      pop\n      pop\n      jump\t// out\n        /* \"#utility.yul\":10961:11090   */\n    tag_199:\n        /* \"#utility.yul\":10995:11001   */\n      0x00\n        /* \"#utility.yul\":11022:11042   */\n      tag_340\n      tag_163\n      jump\t// in\n    tag_340:\n        /* \"#utility.yul\":11012:11042   */\n      swap1\n      pop\n        /* \"#utility.yul\":11051:11084   */\n      tag_341\n        /* \"#utility.yul\":11079:11083   */\n      dup3\n        /* \"#utility.yul\":11071:11077   */\n      dup3\n        /* \"#utility.yul\":11051:11084   */\n      tag_198\n      jump\t// in\n    tag_341:\n        /* \"#utility.yul\":10961:11090   */\n      swap2\n      swap1\n      pop\n      jump\t// out\n        /* \"#utility.yul\":11096:11404   */\n    tag_200:\n        /* \"#utility.yul\":11158:11162   */\n      0x00\n        /* \"#utility.yul\":11248:11266   */\n      0xffffffffffffffff\n        /* \"#utility.yul\":11240:11246   */\n      dup3\n        /* \"#utility.yul\":11237:11267   */\n      gt\n        /* \"#utility.yul\":11234:11290   */\n      iszero\n      tag_343\n      jumpi\n        /* \"#utility.yul\":11270:11288   */\n      tag_344\n      tag_124\n      jump\t// in\n    tag_344:\n        /* \"#utility.yul\":11234:11290   */\n    tag_343:\n        /* \"#utility.yul\":11308:11337   */\n      tag_345\n        /* \"#utility.yul\":11330:11336   */\n      dup3\n        /* \"#utility.yul\":11308:11337   */\n      tag_172\n      jump\t// in\n    tag_345:\n        /* \"#utility.yul\":11300:11337   */\n      swap1\n      pop\n        /* \"#utility.yul\":11392:11396   */\n      0x20\n        /* \"#utility.yul\":11386:11390   */\n      dup2\n        /* \"#utility.yul\":11382:11397   */\n      add\n        /* \"#utility.yul\":11374:11397   */\n      swap1\n      pop\n        /* \"#utility.yul\":11096:11404   */\n      swap2\n      swap1\n      pop\n      jump\t// out\n        /* \"#utility.yul\":11410:11558   */\n    tag_201:\n        /* \"#utility.yul\":11508:11514   */\n      dup3\n        /* \"#utility.yul\":11503:11506   */\n      dup2\n        /* \"#utility.yul\":11498:11501   */\n      dup4\n        /* \"#utility.yul\":11485:11515   */\n      calldatacopy\n        /* \"#utility.yul\":11549:11550   */\n      0x00\n        /* \"#utility.yul\":11540:11546   */\n      dup4\n        /* \"#utility.yul\":11535:11538   */\n      dup4\n        /* \"#utility.yul\":11531:11547   */\n      add\n        /* \"#utility.yul\":11524:11551   */\n      mstore\n        /* \"#utility.yul\":11410:11558   */\n      pop\n      pop\n      pop\n      jump\t// out\n        /* \"#utility.yul\":11564:11989   */\n    tag_202:\n        /* \"#utility.yul\":11642:11647   */\n      0x00\n        /* \"#utility.yul\":11667:11733   */\n      tag_348\n        /* \"#utility.yul\":11683:11732   */\n      tag_349\n        /* \"#utility.yul\":11725:11731   */\n      dup5\n        /* \"#utility.yul\":11683:11732   */\n      tag_200\n      jump\t// in\n    tag_349:\n        /* \"#utility.yul\":11667:11733   */\n      tag_199\n      jump\t// in\n    tag_348:\n        /* \"#utility.yul\":11658:11733   */\n      swap1\n      pop\n        /* \"#utility.yul\":11756:11762   */\n      dup3\n        /* \"#utility.yul\":11749:11754   */\n      dup2\n        /* \"#utility.yul\":11742:11763   */\n      mstore\n        /* \"#utility.yul\":11794:11798   */\n      0x20\n        /* \"#utility.yul\":11787:11792   */\n      dup2\n        /* \"#utility.yul\":11783:11799   */\n      add\n        /* \"#utility.yul\":11832:11835   */\n      dup5\n        /* \"#utility.yul\":11823:11829   */\n      dup5\n        /* \"#utility.yul\":11818:11821   */\n      dup5\n        /* \"#utility.yul\":11814:11830   */\n      add\n        /* \"#utility.yul\":11811:11836   */\n      gt\n        /* \"#utility.yul\":11808:11920   */\n      iszero\n      tag_350\n      jumpi\n        /* \"#utility.yul\":11839:11918   */\n      tag_351\n      tag_197\n      jump\t// in\n    tag_351:\n        /* \"#utility.yul\":11808:11920   */\n    tag_350:\n        /* \"#utility.yul\":11929:11983   */\n      tag_352\n        /* \"#utility.yul\":11976:11982   */\n      dup5\n        /* \"#utility.yul\":11971:11974   */\n      dup3\n        /* \"#utility.yul\":11966:11969   */\n      dup6\n        /* \"#utility.yul\":11929:11983   */\n      tag_201\n      jump\t// in\n    tag_352:\n        /* \"#utility.yul\":11648:11989   */\n      pop\n        /* \"#utility.yul\":11564:11989   */\n      swap4\n      swap3\n      pop\n      pop\n      pop\n      jump\t// out\n        /* \"#utility.yul\":12009:12349   */\n    tag_203:\n        /* \"#utility.yul\":12065:12070   */\n      0x00\n        /* \"#utility.yul\":12114:12117   */\n      dup3\n        /* \"#utility.yul\":12107:12111   */\n      0x1f\n        /* \"#utility.yul\":12099:12105   */\n      dup4\n        /* \"#utility.yul\":12095:12112   */\n      add\n        /* \"#utility.yul\":12091:12118   */\n      slt\n        /* \"#utility.yul\":12081:12203   */\n      tag_354\n      jumpi\n        /* \"#utility.yul\":12122:12201   */\n      tag_355\n      tag_196\n      jump\t// in\n    tag_355:\n        /* \"#utility.yul\":12081:12203   */\n    tag_354:\n        /* \"#utility.yul\":12239:12245   */\n      dup2\n        /* \"#utility.yul\":12226:12246   */\n      calldataload\n        /* \"#utility.yul\":12264:12343   */\n      tag_356\n        /* \"#utility.yul\":12339:12342   */\n      dup5\n        /* \"#utility.yul\":12331:12337   */\n      dup3\n        /* \"#utility.yul\":12324:12328   */\n      0x20\n        /* \"#utility.yul\":12316:12322   */\n      dup7\n        /* \"#utility.yul\":12312:12329   */\n      add\n        /* \"#utility.yul\":12264:12343   */\n      tag_202\n      jump\t// in\n    tag_356:\n        /* \"#utility.yul\":12255:12343   */\n      swap2\n      pop\n        /* \"#utility.yul\":12071:12349   */\n      pop\n        /* \"#utility.yul\":12009:12349   */\n      swap3\n      swap2\n      pop\n      pop\n      jump\t// out\n        /* \"#utility.yul\":12355:13154   */\n    tag_39:\n        /* \"#utility.yul\":12442:12448   */\n      0x00\n        /* \"#utility.yul\":12450:12456   */\n      dup1\n        /* \"#utility.yul\":12458:12464   */\n      0x00\n        /* \"#utility.yul\":12507:12509   */\n      0x60\n        /* \"#utility.yul\":12495:12504   */\n      dup5\n        /* \"#utility.yul\":12486:12493   */\n      dup7\n        /* \"#utility.yul\":12482:12505   */\n      sub\n        /* \"#utility.yul\":12478:12510   */\n      slt\n        /* \"#utility.yul\":12475:12594   */\n      iszero\n      tag_358\n      jumpi\n        /* \"#utility.yul\":12513:12592   */\n      tag_359\n      tag_164\n      jump\t// in\n    tag_359:\n        /* \"#utility.yul\":12475:12594   */\n    tag_358:\n        /* \"#utility.yul\":12633:12634   */\n      0x00\n        /* \"#utility.yul\":12658:12711   */\n      tag_360\n        /* \"#utility.yul\":12703:12710   */\n      dup7\n        /* \"#utility.yul\":12694:12700   */\n      dup3\n        /* \"#utility.yul\":12683:12692   */\n      dup8\n        /* \"#utility.yul\":12679:12701   */\n      add\n        /* \"#utility.yul\":12658:12711   */\n      tag_168\n      jump\t// in\n    tag_360:\n        /* \"#utility.yul\":12648:12711   */\n      swap4\n      pop\n        /* \"#utility.yul\":12604:12721   */\n      pop\n        /* \"#utility.yul\":12760:12762   */\n      0x20\n        /* \"#utility.yul\":12786:12839   */\n      tag_361\n        /* \"#utility.yul\":12831:12838   */\n      dup7\n        /* \"#utility.yul\":12822:12828   */\n      dup3\n        /* \"#utility.yul\":12811:12820   */\n      dup8\n        /* \"#utility.yul\":12807:12829   */\n      add\n        /* \"#utility.yul\":12786:12839   */\n      tag_168\n      jump\t// in\n    tag_361:\n        /* \"#utility.yul\":12776:12839   */\n      swap3\n      pop\n        /* \"#utility.yul\":12731:12849   */\n      pop\n        /* \"#utility.yul\":12916:12918   */\n      0x40\n        /* \"#utility.yul\":12905:12914   */\n      dup5\n        /* \"#utility.yul\":12901:12919   */\n      add\n        /* \"#utility.yul\":12888:12920   */\n      calldataload\n        /* \"#utility.yul\":12947:12965   */\n      0xffffffffffffffff\n        /* \"#utility.yul\":12939:12945   */\n      dup2\n        /* \"#utility.yul\":12936:12966   */\n      gt\n        /* \"#utility.yul\":12933:13050   */\n      iszero\n      tag_362\n      jumpi\n        /* \"#utility.yul\":12969:13048   */\n      tag_363\n      tag_165\n      jump\t// in\n    tag_363:\n        /* \"#utility.yul\":12933:13050   */\n    tag_362:\n        /* \"#utility.yul\":13074:13137   */\n      tag_364\n        /* \"#utility.yul\":13129:13136   */\n      dup7\n        /* \"#utility.yul\":13120:13126   */\n      dup3\n        /* \"#utility.yul\":13109:13118   */\n      dup8\n        /* \"#utility.yul\":13105:13127   */\n      add\n        /* \"#utility.yul\":13074:13137   */\n      tag_203\n      jump\t// in\n    tag_364:\n        /* \"#utility.yul\":13064:13137   */\n      swap2\n      pop\n        /* \"#utility.yul\":12859:13147   */\n      pop\n        /* \"#utility.yul\":12355:13154   */\n      swap3\n      pop\n      swap3\n      pop\n      swap3\n      jump\t// out\n        /* \"#utility.yul\":13160:13634   */\n    tag_44:\n        /* \"#utility.yul\":13228:13234   */\n      0x00\n        /* \"#utility.yul\":13236:13242   */\n      dup1\n        /* \"#utility.yul\":13285:13287   */\n      0x40\n        /* \"#utility.yul\":13273:13282   */\n      dup4\n        /* \"#utility.yul\":13264:13271   */\n      dup6\n        /* \"#utility.yul\":13260:13283   */\n      sub\n        /* \"#utility.yul\":13256:13288   */\n      slt\n        /* \"#utility.yul\":13253:13372   */\n      iszero\n      tag_366\n      jumpi\n        /* \"#utility.yul\":13291:13370   */\n      tag_367\n      tag_164\n      jump\t// in\n    tag_367:\n        /* \"#utility.yul\":13253:13372   */\n    tag_366:\n        /* \"#utility.yul\":13411:13412   */\n      0x00\n        /* \"#utility.yul\":13436:13489   */\n      tag_368\n        /* \"#utility.yul\":13481:13488   */\n      dup6\n        /* \"#utility.yul\":13472:13478   */\n      dup3\n        /* \"#utility.yul\":13461:13470   */\n      dup7\n        /* \"#utility.yul\":13457:13479   */\n      add\n        /* \"#utility.yul\":13436:13489   */\n      tag_168\n      jump\t// in\n    tag_368:\n        /* \"#utility.yul\":13426:13489   */\n      swap3\n      pop\n        /* \"#utility.yul\":13382:13499   */\n      pop\n        /* \"#utility.yul\":13538:13540   */\n      0x20\n        /* \"#utility.yul\":13564:13617   */\n      tag_369\n        /* \"#utility.yul\":13609:13616   */\n      dup6\n        /* \"#utility.yul\":13600:13606   */\n      dup3\n        /* \"#utility.yul\":13589:13598   */\n      dup7\n        /* \"#utility.yul\":13585:13607   */\n      add\n        /* \"#utility.yul\":13564:13617   */\n      tag_168\n      jump\t// in\n    tag_369:\n        /* \"#utility.yul\":13554:13617   */\n      swap2\n      pop\n        /* \"#utility.yul\":13509:13627   */\n      pop\n        /* \"#utility.yul\":13160:13634   */\n      swap3\n      pop\n      swap3\n      swap1\n      pop\n      jump\t// out\n        /* \"#utility.yul\":13640:13862   */\n    tag_47:\n        /* \"#utility.yul\":13733:13737   */\n      0x00\n        /* \"#utility.yul\":13771:13773   */\n      0x20\n        /* \"#utility.yul\":13760:13769   */\n      dup3\n        /* \"#utility.yul\":13756:13774   */\n      add\n        /* \"#utility.yul\":13748:13774   */\n      swap1\n      pop\n        /* \"#utility.yul\":13784:13855   */\n      tag_371\n        /* \"#utility.yul\":13852:13853   */\n      0x00\n        /* \"#utility.yul\":13841:13850   */\n      dup4\n        /* \"#utility.yul\":13837:13854   */\n      add\n        /* \"#utility.yul\":13828:13834   */\n      dup5\n        /* \"#utility.yul\":13784:13855   */\n      tag_177\n      jump\t// in\n    tag_371:\n        /* \"#utility.yul\":13640:13862   */\n      swap3\n      swap2\n      pop\n      pop\n      jump\t// out\n        /* \"#utility.yul\":13868:14048   */\n    tag_204:\n        /* \"#utility.yul\":13916:13993   */\n      0x4e487b7100000000000000000000000000000000000000000000000000000000\n        /* \"#utility.yul\":13913:13914   */\n      0x00\n        /* \"#utility.yul\":13906:13994   */\n      mstore\n        /* \"#utility.yul\":14013:14017   */\n      0x22\n        /* \"#utility.yul\":14010:14011   */\n      0x04\n        /* \"#utility.yul\":14003:14018   */\n      mstore\n        /* \"#utility.yul\":14037:14041   */\n      0x24\n        /* \"#utility.yul\":14034:14035   */\n      0x00\n        /* \"#utility.yul\":14027:14042   */\n      revert\n        /* \"#utility.yul\":14054:14374   */\n    tag_51:\n        /* \"#utility.yul\":14098:14104   */\n      0x00\n        /* \"#utility.yul\":14135:14136   */\n      0x02\n        /* \"#utility.yul\":14129:14133   */\n      dup3\n        /* \"#utility.yul\":14125:14137   */\n      div\n        /* \"#utility.yul\":14115:14137   */\n      swap1\n      pop\n        /* \"#utility.yul\":14182:14183   */\n      0x01\n        /* \"#utility.yul\":14176:14180   */\n      dup3\n        /* \"#utility.yul\":14172:14184   */\n      and\n        /* \"#utility.yul\":14203:14221   */\n      dup1\n        /* \"#utility.yul\":14193:14274   */\n      tag_374\n      jumpi\n        /* \"#utility.yul\":14259:14263   */\n      0x7f\n        /* \"#utility.yul\":14251:14257   */\n      dup3\n        /* \"#utility.yul\":14247:14264   */\n      and\n        /* \"#utility.yul\":14237:14264   */\n      swap2\n      pop\n        /* \"#utility.yul\":14193:14274   */\n    tag_374:\n        /* \"#utility.yul\":14321:14323   */\n      0x20\n        /* \"#utility.yul\":14313:14319   */\n      dup3\n        /* \"#utility.yul\":14310:14324   */\n      lt\n        /* \"#utility.yul\":14290:14308   */\n      dup2\n        /* \"#utility.yul\":14287:14325   */\n      sub\n        /* \"#utility.yul\":14284:14368   */\n      tag_375\n      jumpi\n        /* \"#utility.yul\":14340:14358   */\n      tag_376\n      tag_204\n      jump\t// in\n    tag_376:\n        /* \"#utility.yul\":14284:14368   */\n    tag_375:\n        /* \"#utility.yul\":14105:14374   */\n      pop\n        /* \"#utility.yul\":14054:14374   */\n      swap2\n      swap1\n      pop\n      jump\t// out\n        /* \"#utility.yul\":14380:14553   */\n    tag_205:\n        /* \"#utility.yul\":14520:14545   */\n      0x43616d706169676e20646f6573206e6f74206578697374000000000000000000\n        /* \"#utility.yul\":14516:14517   */\n      0x00\n        /* \"#utility.yul\":14508:14514   */\n      dup3\n        /* \"#utility.yul\":14504:14518   */\n      add\n        /* \"#utility.yul\":14497:14546   */\n      mstore\n        /* \"#utility.yul\":14380:14553   */\n      pop\n      jump\t// out\n        /* \"#utility.yul\":14559:14925   */\n    tag_206:\n        /* \"#utility.yul\":14701:14704   */\n      0x00\n        /* \"#utility.yul\":14722:14789   */\n      tag_379\n        /* \"#utility.yul\":14786:14788   */\n      0x17\n        /* \"#utility.yul\":14781:14784   */\n      dup4\n        /* \"#utility.yul\":14722:14789   */\n      tag_170\n      jump\t// in\n    tag_379:\n        /* \"#utility.yul\":14715:14789   */\n      swap2\n      pop\n        /* \"#utility.yul\":14798:14891   */\n      tag_380\n        /* \"#utility.yul\":14887:14890   */\n      dup3\n        /* \"#utility.yul\":14798:14891   */\n      tag_205\n      jump\t// in\n    tag_380:\n        /* \"#utility.yul\":14916:14918   */\n      0x20\n        /* \"#utility.yul\":14911:14914   */\n      dup3\n        /* \"#utility.yul\":14907:14919   */\n      add\n        /* \"#utility.yul\":14900:14919   */\n      swap1\n      pop\n        /* \"#utility.yul\":14559:14925   */\n      swap2\n      swap1\n      pop\n      jump\t// out\n        /* \"#utility.yul\":14931:15350   */\n    tag_59:\n        /* \"#utility.yul\":15097:15101   */\n      0x00\n        /* \"#utility.yul\":15135:15137   */\n      0x20\n        /* \"#utility.yul\":15124:15133   */\n      dup3\n        /* \"#utility.yul\":15120:15138   */\n      add\n        /* \"#utility.yul\":15112:15138   */\n      swap1\n      pop\n        /* \"#utility.yul\":15184:15193   */\n      dup2\n        /* \"#utility.yul\":15178:15182   */\n      dup2\n        /* \"#utility.yul\":15174:15194   */\n      sub\n        /* \"#utility.yul\":15170:15171   */\n      0x00\n        /* \"#utility.yul\":15159:15168   */\n      dup4\n        /* \"#utility.yul\":15155:15172   */\n      add\n        /* \"#utility.yul\":15148:15195   */\n      mstore\n        /* \"#utility.yul\":15212:15343   */\n      tag_382\n        /* \"#utility.yul\":15338:15342   */\n      dup2\n        /* \"#utility.yul\":15212:15343   */\n      tag_206\n      jump\t// in\n    tag_382:\n        /* \"#utility.yul\":15204:15343   */\n      swap1\n      pop\n        /* \"#utility.yul\":14931:15350   */\n      swap2\n      swap1\n      pop\n      jump\t// out\n        /* \"#utility.yul\":15356:15536   */\n    tag_62:\n        /* \"#utility.yul\":15404:15481   */\n      0x4e487b7100000000000000000000000000000000000000000000000000000000\n        /* \"#utility.yul\":15401:15402   */\n      0x00\n        /* \"#utility.yul\":15394:15482   */\n      mstore\n        /* \"#utility.yul\":15501:15505   */\n      0x32\n        /* \"#utility.yul\":15498:15499   */\n      0x04\n        /* \"#utility.yul\":15491:15506   */\n      mstore\n        /* \"#utility.yul\":15525:15529   */\n      0x24\n        /* \"#utility.yul\":15522:15523   */\n      0x00\n        /* \"#utility.yul\":15515:15530   */\n      revert\n        /* \"#utility.yul\":15542:15770   */\n    tag_207:\n        /* \"#utility.yul\":15682:15716   */\n      0x4f6e6c79207468652063726561746f722063616e2063616e63656c2074686973\n        /* \"#utility.yul\":15678:15679   */\n      0x00\n        /* \"#utility.yul\":15670:15676   */\n      dup3\n        /* \"#utility.yul\":15666:15680   */\n      add\n        /* \"#utility.yul\":15659:15717   */\n      mstore\n        /* \"#utility.yul\":15751:15762   */\n      0x2063616d706169676e0000000000000000000000000000000000000000000000\n        /* \"#utility.yul\":15746:15748   */\n      0x20\n        /* \"#utility.yul\":15738:15744   */\n      dup3\n        /* \"#utility.yul\":15734:15749   */\n      add\n        /* \"#utility.yul\":15727:15763   */\n      mstore\n        /* \"#utility.yul\":15542:15770   */\n      pop\n      jump\t// out\n        /* \"#utility.yul\":15776:16142   */\n    tag_208:\n        /* \"#utility.yul\":15918:15921   */\n      0x00\n        /* \"#utility.yul\":15939:16006   */\n      tag_386\n        /* \"#utility.yul\":16003:16005   */\n      0x29\n        /* \"#utility.yul\":15998:16001   */\n      dup4\n        /* \"#utility.yul\":15939:16006   */\n      tag_170\n      jump\t// in\n    tag_386:\n        /* \"#utility.yul\":15932:16006   */\n      swap2\n      pop\n        /* \"#utility.yul\":16015:16108   */\n      tag_387\n        /* \"#utility.yul\":16104:16107   */\n      dup3\n        /* \"#utility.yul\":16015:16108   */\n      tag_207\n      jump\t// in\n    tag_387:\n        /* \"#utility.yul\":16133:16135   */\n      0x40\n        /* \"#utility.yul\":16128:16131   */\n      dup3\n        /* \"#utility.yul\":16124:16136   */\n      add\n        /* \"#utility.yul\":16117:16136   */\n      swap1\n      pop\n        /* \"#utility.yul\":15776:16142   */\n      swap2\n      swap1\n      pop\n      jump\t// out\n        /* \"#utility.yul\":16148:16567   */\n    tag_66:\n        /* \"#utility.yul\":16314:16318   */\n      0x00\n        /* \"#utility.yul\":16352:16354   */\n      0x20\n        /* \"#utility.yul\":16341:16350   */\n      dup3\n        /* \"#utility.yul\":16337:16355   */\n      add\n        /* \"#utility.yul\":16329:16355   */\n      swap1\n      pop\n        /* \"#utility.yul\":16401:16410   */\n      dup2\n        /* \"#utility.yul\":16395:16399   */\n      dup2\n        /* \"#utility.yul\":16391:16411   */\n      sub\n        /* \"#utility.yul\":16387:16388   */\n      0x00\n        /* \"#utility.yul\":16376:16385   */\n      dup4\n        /* \"#utility.yul\":16372:16389   */\n      add\n        /* \"#utility.yul\":16365:16412   */\n      mstore\n        /* \"#utility.yul\":16429:16560   */\n      tag_389\n        /* \"#utility.yul\":16555:16559   */\n      dup2\n        /* \"#utility.yul\":16429:16560   */\n      tag_208\n      jump\t// in\n    tag_389:\n        /* \"#utility.yul\":16421:16560   */\n      swap1\n      pop\n        /* \"#utility.yul\":16148:16567   */\n      swap2\n      swap1\n      pop\n      jump\t// out\n        /* \"#utility.yul\":16573:16745   */\n    tag_209:\n        /* \"#utility.yul\":16713:16737   */\n      0x43616d706169676e206973206e6f742061637469766500000000000000000000\n        /* \"#utility.yul\":16709:16710   */\n      0x00\n        /* \"#utility.yul\":16701:16707   */\n      dup3\n        /* \"#utility.yul\":16697:16711   */\n      add\n        /* \"#utility.yul\":16690:16738   */\n      mstore\n        /* \"#utility.yul\":16573:16745   */\n      pop\n      jump\t// out\n        /* \"#utility.yul\":16751:17117   */\n    tag_210:\n        /* \"#utility.yul\":16893:16896   */\n      0x00\n        /* \"#utility.yul\":16914:16981   */\n      tag_392\n        /* \"#utility.yul\":16978:16980   */\n      0x16\n        /* \"#utility.yul\":16973:16976   */\n      dup4\n        /* \"#utility.yul\":16914:16981   */\n      tag_170\n      jump\t// in\n    tag_392:\n        /* \"#utility.yul\":16907:16981   */\n      swap2\n      pop\n        /* \"#utility.yul\":16990:17083   */\n      tag_393\n        /* \"#utility.yul\":17079:17082   */\n      dup3\n        /* \"#utility.yul\":16990:17083   */\n      tag_209\n      jump\t// in\n    tag_393:\n        /* \"#utility.yul\":17108:17110   */\n      0x20\n        /* \"#utility.yul\":17103:17106   */\n      dup3\n        /* \"#utility.yul\":17099:17111   */\n      add\n        /* \"#utility.yul\":17092:17111   */\n      swap1\n      pop\n        /* \"#utility.yul\":16751:17117   */\n      swap2\n      swap1\n      pop\n      jump\t// out\n        /* \"#utility.yul\":17123:17542   */\n    tag_74:\n        /* \"#utility.yul\":17289:17293   */\n      0x00\n        /* \"#utility.yul\":17327:17329   */\n      0x20\n        /* \"#utility.yul\":17316:17325   */\n      dup3\n        /* \"#utility.yul\":17312:17330   */\n      add\n        /* \"#utility.yul\":17304:17330   */\n      swap1\n      pop\n        /* \"#utility.yul\":17376:17385   */\n      dup2\n        /* \"#utility.yul\":17370:17374   */\n      dup2\n        /* \"#utility.yul\":17366:17386   */\n      sub\n        /* \"#utility.yul\":17362:17363   */\n      0x00\n        /* \"#utility.yul\":17351:17360   */\n      dup4\n        /* \"#utility.yul\":17347:17364   */\n      add\n        /* \"#utility.yul\":17340:17387   */\n      mstore\n        /* \"#utility.yul\":17404:17535   */\n      tag_395\n        /* \"#utility.yul\":17530:17534   */\n      dup2\n        /* \"#utility.yul\":17404:17535   */\n      tag_210\n      jump\t// in\n    tag_395:\n        /* \"#utility.yul\":17396:17535   */\n      swap1\n      pop\n        /* \"#utility.yul\":17123:17542   */\n      swap2\n      swap1\n      pop\n      jump\t// out\n        /* \"#utility.yul\":17548:17689   */\n    tag_211:\n        /* \"#utility.yul\":17597:17601   */\n      0x00\n        /* \"#utility.yul\":17620:17623   */\n      dup2\n        /* \"#utility.yul\":17612:17623   */\n      swap1\n      pop\n        /* \"#utility.yul\":17643:17646   */\n      dup2\n        /* \"#utility.yul\":17640:17641   */\n      0x00\n        /* \"#utility.yul\":17633:17647   */\n      mstore\n        /* \"#utility.yul\":17677:17681   */\n      0x20\n        /* \"#utility.yul\":17674:17675   */\n      0x00\n        /* \"#utility.yul\":17664:17682   */\n      keccak256\n        /* \"#utility.yul\":17656:17682   */\n      swap1\n      pop\n        /* \"#utility.yul\":17548:17689   */\n      swap2\n      swap1\n      pop\n      jump\t// out\n        /* \"#utility.yul\":17719:18550   */\n    tag_212:\n        /* \"#utility.yul\":17804:17807   */\n      0x00\n        /* \"#utility.yul\":17841:17846   */\n      dup2\n        /* \"#utility.yul\":17835:17847   */\n      sload\n        /* \"#utility.yul\":17870:17906   */\n      tag_398\n        /* \"#utility.yul\":17896:17905   */\n      dup2\n        /* \"#utility.yul\":17870:17906   */\n      tag_51\n      jump\t// in\n    tag_398:\n        /* \"#utility.yul\":17922:17993   */\n      tag_399\n        /* \"#utility.yul\":17986:17992   */\n      dup2\n        /* \"#utility.yul\":17981:17984   */\n      dup7\n        /* \"#utility.yul\":17922:17993   */\n      tag_170\n      jump\t// in\n    tag_399:\n        /* \"#utility.yul\":17915:17993   */\n      swap5\n      pop\n        /* \"#utility.yul\":18024:18025   */\n      0x01\n        /* \"#utility.yul\":18013:18022   */\n      dup3\n        /* \"#utility.yul\":18009:18026   */\n      and\n        /* \"#utility.yul\":18040:18041   */\n      0x00\n        /* \"#utility.yul\":18035:18199   */\n      dup2\n      eq\n      tag_401\n      jumpi\n        /* \"#utility.yul\":18213:18214   */\n      0x01\n        /* \"#utility.yul\":18208:18544   */\n      dup2\n      eq\n      tag_402\n      jumpi\n        /* \"#utility.yul\":18002:18544   */\n      jump(tag_400)\n        /* \"#utility.yul\":18035:18199   */\n    tag_401:\n        /* \"#utility.yul\":18119:18123   */\n      0xff\n        /* \"#utility.yul\":18115:18124   */\n      not\n        /* \"#utility.yul\":18104:18113   */\n      dup4\n        /* \"#utility.yul\":18100:18125   */\n      and\n        /* \"#utility.yul\":18095:18098   */\n      dup7\n        /* \"#utility.yul\":18088:18126   */\n      mstore\n        /* \"#utility.yul\":18179:18185   */\n      dup2\n        /* \"#utility.yul\":18172:18186   */\n      iszero\n        /* \"#utility.yul\":18165:18187   */\n      iszero\n        /* \"#utility.yul\":18159:18163   */\n      0x20\n        /* \"#utility.yul\":18155:18188   */\n      mul\n        /* \"#utility.yul\":18150:18153   */\n      dup7\n        /* \"#utility.yul\":18146:18189   */\n      add\n        /* \"#utility.yul\":18139:18189   */\n      swap4\n      pop\n        /* \"#utility.yul\":18035:18199   */\n      jump(tag_400)\n        /* \"#utility.yul\":18208:18544   */\n    tag_402:\n        /* \"#utility.yul\":18275:18313   */\n      tag_403\n        /* \"#utility.yul\":18307:18312   */\n      dup6\n        /* \"#utility.yul\":18275:18313   */\n      tag_211\n      jump\t// in\n    tag_403:\n        /* \"#utility.yul\":18335:18336   */\n      0x00\n        /* \"#utility.yul\":18349:18503   */\n    tag_404:\n        /* \"#utility.yul\":18363:18369   */\n      dup4\n        /* \"#utility.yul\":18360:18361   */\n      dup2\n        /* \"#utility.yul\":18357:18370   */\n      lt\n        /* \"#utility.yul\":18349:18503   */\n      iszero\n      tag_406\n      jumpi\n        /* \"#utility.yul\":18437:18444   */\n      dup2\n        /* \"#utility.yul\":18431:18445   */\n      sload\n        /* \"#utility.yul\":18427:18428   */\n      dup2\n        /* \"#utility.yul\":18422:18425   */\n      dup10\n        /* \"#utility.yul\":18418:18429   */\n      add\n        /* \"#utility.yul\":18411:18446   */\n      mstore\n        /* \"#utility.yul\":18487:18488   */\n      0x01\n        /* \"#utility.yul\":18478:18485   */\n      dup3\n        /* \"#utility.yul\":18474:18489   */\n      add\n        /* \"#utility.yul\":18463:18489   */\n      swap2\n      pop\n        /* \"#utility.yul\":18385:18389   */\n      0x20\n        /* \"#utility.yul\":18382:18383   */\n      dup2\n        /* \"#utility.yul\":18378:18390   */\n      add\n        /* \"#utility.yul\":18373:18390   */\n      swap1\n      pop\n        /* \"#utility.yul\":18349:18503   */\n      jump(tag_404)\n    tag_406:\n        /* \"#utility.yul\":18532:18533   */\n      dup1\n        /* \"#utility.yul\":18527:18530   */\n      dup9\n        /* \"#utility.yul\":18523:18534   */\n      add\n        /* \"#utility.yul\":18516:18534   */\n      swap6\n      pop\n        /* \"#utility.yul\":18215:18544   */\n      pop\n      pop\n        /* \"#utility.yul\":18002:18544   */\n    tag_400:\n      pop\n        /* \"#utility.yul\":17808:18550   */\n      pop\n      pop\n        /* \"#utility.yul\":17719:18550   */\n      swap3\n      swap2\n      pop\n      pop\n      jump\t// out\n        /* \"#utility.yul\":18556:18973   */\n    tag_86:\n        /* \"#utility.yul\":18694:18698   */\n      0x00\n        /* \"#utility.yul\":18732:18734   */\n      0x40\n        /* \"#utility.yul\":18721:18730   */\n      dup3\n        /* \"#utility.yul\":18717:18735   */\n      add\n        /* \"#utility.yul\":18709:18735   */\n      swap1\n      pop\n        /* \"#utility.yul\":18745:18816   */\n      tag_408\n        /* \"#utility.yul\":18813:18814   */\n      0x00\n        /* \"#utility.yul\":18802:18811   */\n      dup4\n        /* \"#utility.yul\":18798:18815   */\n      add\n        /* \"#utility.yul\":18789:18795   */\n      dup6\n        /* \"#utility.yul\":18745:18816   */\n      tag_174\n      jump\t// in\n    tag_408:\n        /* \"#utility.yul\":18863:18872   */\n      dup2\n        /* \"#utility.yul\":18857:18861   */\n      dup2\n        /* \"#utility.yul\":18853:18873   */\n      sub\n        /* \"#utility.yul\":18848:18850   */\n      0x20\n        /* \"#utility.yul\":18837:18846   */\n      dup4\n        /* \"#utility.yul\":18833:18851   */\n      add\n        /* \"#utility.yul\":18826:18874   */\n      mstore\n        /* \"#utility.yul\":18891:18966   */\n      tag_409\n        /* \"#utility.yul\":18961:18965   */\n      dup2\n        /* \"#utility.yul\":18952:18958   */\n      dup5\n        /* \"#utility.yul\":18891:18966   */\n      tag_212\n      jump\t// in\n    tag_409:\n        /* \"#utility.yul\":18883:18966   */\n      swap1\n      pop\n        /* \"#utility.yul\":18556:18973   */\n      swap4\n      swap3\n      pop\n      pop\n      pop\n      jump\t// out\n        /* \"#utility.yul\":18979:19201   */\n    tag_213:\n        /* \"#utility.yul\":19119:19153   */\n      0x436f6e747269627574696f6e206d757374206265206772656174657220746861\n        /* \"#utility.yul\":19115:19116   */\n      0x00\n        /* \"#utility.yul\":19107:19113   */\n      dup3\n        /* \"#utility.yul\":19103:19117   */\n      add\n        /* \"#utility.yul\":19096:19154   */\n      mstore\n        /* \"#utility.yul\":19188:19193   */\n      0x6e20300000000000000000000000000000000000000000000000000000000000\n        /* \"#utility.yul\":19183:19185   */\n      0x20\n        /* \"#utility.yul\":19175:19181   */\n      dup3\n        /* \"#utility.yul\":19171:19186   */\n      add\n        /* \"#utility.yul\":19164:19194   */\n      mstore\n        /* \"#utility.yul\":18979:19201   */\n      pop\n      jump\t// out\n        /* \"#utility.yul\":19207:19573   */\n    tag_214:\n        /* \"#utility.yul\":19349:19352   */\n      0x00\n        /* \"#utility.yul\":19370:19437   */\n      tag_412\n        /* \"#utility.yul\":19434:19436   */\n      0x23\n        /* \"#utility.yul\":19429:19432   */\n      dup4\n        /* \"#utility.yul\":19370:19437   */\n      tag_170\n      jump\t// in\n    tag_412:\n        /* \"#utility.yul\":19363:19437   */\n      swap2\n      pop\n        /* \"#utility.yul\":19446:19539   */\n      tag_413\n        /* \"#utility.yul\":19535:19538   */\n      dup3\n        /* \"#utility.yul\":19446:19539   */\n      tag_213\n      jump\t// in\n    tag_413:\n        /* \"#utility.yul\":19564:19566   */\n      0x40\n        /* \"#utility.yul\":19559:19562   */\n      dup3\n        /* \"#utility.yul\":19555:19567   */\n      add\n        /* \"#utility.yul\":19548:19567   */\n      swap1\n      pop\n        /* \"#utility.yul\":19207:19573   */\n      swap2\n      swap1\n      pop\n      jump\t// out\n        /* \"#utility.yul\":19579:19998   */\n    tag_90:\n        /* \"#utility.yul\":19745:19749   */\n      0x00\n        /* \"#utility.yul\":19783:19785   */\n      0x20\n        /* \"#utility.yul\":19772:19781   */\n      dup3\n        /* \"#utility.yul\":19768:19786   */\n      add\n        /* \"#utility.yul\":19760:19786   */\n      swap1\n      pop\n        /* \"#utility.yul\":19832:19841   */\n      dup2\n        /* \"#utility.yul\":19826:19830   */\n      dup2\n        /* \"#utility.yul\":19822:19842   */\n      sub\n        /* \"#utility.yul\":19818:19819   */\n      0x00\n        /* \"#utility.yul\":19807:19816   */\n      dup4\n        /* \"#utility.yul\":19803:19820   */\n      add\n        /* \"#utility.yul\":19796:19843   */\n      mstore\n        /* \"#utility.yul\":19860:19991   */\n      tag_415\n        /* \"#utility.yul\":19986:19990   */\n      dup2\n        /* \"#utility.yul\":19860:19991   */\n      tag_214\n      jump\t// in\n    tag_415:\n        /* \"#utility.yul\":19852:19991   */\n      swap1\n      pop\n        /* \"#utility.yul\":19579:19998   */\n      swap2\n      swap1\n      pop\n      jump\t// out\n        /* \"#utility.yul\":20004:20230   */\n    tag_215:\n        /* \"#utility.yul\":20144:20178   */\n      0x43616e206f6e6c7920636f6e7472696275746520746f20616374697665206361\n        /* \"#utility.yul\":20140:20141   */\n      0x00\n        /* \"#utility.yul\":20132:20138   */\n      dup3\n        /* \"#utility.yul\":20128:20142   */\n      add\n        /* \"#utility.yul\":20121:20179   */\n      mstore\n        /* \"#utility.yul\":20213:20222   */\n      0x6d706169676e7300000000000000000000000000000000000000000000000000\n        /* \"#utility.yul\":20208:20210   */\n      0x20\n        /* \"#utility.yul\":20200:20206   */\n      dup3\n        /* \"#utility.yul\":20196:20211   */\n      add\n        /* \"#utility.yul\":20189:20223   */\n      mstore\n        /* \"#utility.yul\":20004:20230   */\n      pop\n      jump\t// out\n        /* \"#utility.yul\":20236:20602   */\n    tag_216:\n        /* \"#utility.yul\":20378:20381   */\n      0x00\n        /* \"#utility.yul\":20399:20466   */\n      tag_418\n        /* \"#utility.yul\":20463:20465   */\n      0x27\n        /* \"#utility.yul\":20458:20461   */\n      dup4\n        /* \"#utility.yul\":20399:20466   */\n      tag_170\n      jump\t// in\n    tag_418:\n        /* \"#utility.yul\":20392:20466   */\n      swap2\n      pop\n        /* \"#utility.yul\":20475:20568   */\n      tag_419\n        /* \"#utility.yul\":20564:20567   */\n      dup3\n        /* \"#utility.yul\":20475:20568   */\n      tag_215\n      jump\t// in\n    tag_419:\n        /* \"#utility.yul\":20593:20595   */\n      0x40\n        /* \"#utility.yul\":20588:20591   */\n      dup3\n        /* \"#utility.yul\":20584:20596   */\n      add\n        /* \"#utility.yul\":20577:20596   */\n      swap1\n      pop\n        /* \"#utility.yul\":20236:20602   */\n      swap2\n      swap1\n      pop\n      jump\t// out\n        /* \"#utility.yul\":20608:21027   */\n    tag_111:\n        /* \"#utility.yul\":20774:20778   */\n      0x00\n        /* \"#utility.yul\":20812:20814   */\n      0x20\n        /* \"#utility.yul\":20801:20810   */\n      dup3\n        /* \"#utility.yul\":20797:20815   */\n      add\n        /* \"#utility.yul\":20789:20815   */\n      swap1\n      pop\n        /* \"#utility.yul\":20861:20870   */\n      dup2\n        /* \"#utility.yul\":20855:20859   */\n      dup2\n        /* \"#utility.yul\":20851:20871   */\n      sub\n        /* \"#utility.yul\":20847:20848   */\n      0x00\n        /* \"#utility.yul\":20836:20845   */\n      dup4\n        /* \"#utility.yul\":20832:20849   */\n      add\n        /* \"#utility.yul\":20825:20872   */\n      mstore\n        /* \"#utility.yul\":20889:21020   */\n      tag_421\n        /* \"#utility.yul\":21015:21019   */\n      dup2\n        /* \"#utility.yul\":20889:21020   */\n      tag_216\n      jump\t// in\n    tag_421:\n        /* \"#utility.yul\":20881:21020   */\n      swap1\n      pop\n        /* \"#utility.yul\":20608:21027   */\n      swap2\n      swap1\n      pop\n      jump\t// out\n        /* \"#utility.yul\":21033:21213   */\n    tag_217:\n        /* \"#utility.yul\":21081:21158   */\n      0x4e487b7100000000000000000000000000000000000000000000000000000000\n        /* \"#utility.yul\":21078:21079   */\n      0x00\n        /* \"#utility.yul\":21071:21159   */\n      mstore\n        /* \"#utility.yul\":21178:21182   */\n      0x12\n        /* \"#utility.yul\":21175:21176   */\n      0x04\n        /* \"#utility.yul\":21168:21183   */\n      mstore\n        /* \"#utility.yul\":21202:21206   */\n      0x24\n        /* \"#utility.yul\":21199:21200   */\n      0x00\n        /* \"#utility.yul\":21192:21207   */\n      revert\n        /* \"#utility.yul\":21219:21399   */\n    tag_218:\n        /* \"#utility.yul\":21267:21344   */\n      0x4e487b7100000000000000000000000000000000000000000000000000000000\n        /* \"#utility.yul\":21264:21265   */\n      0x00\n        /* \"#utility.yul\":21257:21345   */\n      mstore\n        /* \"#utility.yul\":21364:21368   */\n      0x11\n        /* \"#utility.yul\":21361:21362   */\n      0x04\n        /* \"#utility.yul\":21354:21369   */\n      mstore\n        /* \"#utility.yul\":21388:21392   */\n      0x24\n        /* \"#utility.yul\":21385:21386   */\n      0x00\n        /* \"#utility.yul\":21378:21393   */\n      revert\n        /* \"#utility.yul\":21405:21590   */\n    tag_113:\n        /* \"#utility.yul\":21445:21446   */\n      0x00\n        /* \"#utility.yul\":21462:21482   */\n      tag_425\n        /* \"#utility.yul\":21480:21481   */\n      dup3\n        /* \"#utility.yul\":21462:21482   */\n      tag_166\n      jump\t// in\n    tag_425:\n        /* \"#utility.yul\":21457:21482   */\n      swap2\n      pop\n        /* \"#utility.yul\":21496:21516   */\n      tag_426\n        /* \"#utility.yul\":21514:21515   */\n      dup4\n        /* \"#utility.yul\":21496:21516   */\n      tag_166\n      jump\t// in\n    tag_426:\n        /* \"#utility.yul\":21491:21516   */\n      swap3\n      pop\n        /* \"#utility.yul\":21535:21536   */\n      dup3\n        /* \"#utility.yul\":21525:21560   */\n      tag_427\n      jumpi\n        /* \"#utility.yul\":21540:21558   */\n      tag_428\n      tag_217\n      jump\t// in\n    tag_428:\n        /* \"#utility.yul\":21525:21560   */\n    tag_427:\n        /* \"#utility.yul\":21582:21583   */\n      dup3\n        /* \"#utility.yul\":21579:21580   */\n      dup3\n        /* \"#utility.yul\":21575:21584   */\n      div\n        /* \"#utility.yul\":21570:21584   */\n      swap1\n      pop\n        /* \"#utility.yul\":21405:21590   */\n      swap3\n      swap2\n      pop\n      pop\n      jump\t// out\n        /* \"#utility.yul\":21596:21787   */\n    tag_117:\n        /* \"#utility.yul\":21636:21639   */\n      0x00\n        /* \"#utility.yul\":21655:21675   */\n      tag_430\n        /* \"#utility.yul\":21673:21674   */\n      dup3\n        /* \"#utility.yul\":21655:21675   */\n      tag_166\n      jump\t// in\n    tag_430:\n        /* \"#utility.yul\":21650:21675   */\n      swap2\n      pop\n        /* \"#utility.yul\":21689:21709   */\n      tag_431\n        /* \"#utility.yul\":21707:21708   */\n      dup4\n        /* \"#utility.yul\":21689:21709   */\n      tag_166\n      jump\t// in\n    tag_431:\n        /* \"#utility.yul\":21684:21709   */\n      swap3\n      pop\n        /* \"#utility.yul\":21732:21733   */\n      dup3\n        /* \"#utility.yul\":21729:21730   */\n      dup3\n        /* \"#utility.yul\":21725:21734   */\n      add\n        /* \"#utility.yul\":21718:21734   */\n      swap1\n      pop\n        /* \"#utility.yul\":21753:21756   */\n      dup1\n        /* \"#utility.yul\":21750:21751   */\n      dup3\n        /* \"#utility.yul\":21747:21757   */\n      gt\n        /* \"#utility.yul\":21744:21780   */\n      iszero\n      tag_432\n      jumpi\n        /* \"#utility.yul\":21760:21778   */\n      tag_433\n      tag_218\n      jump\t// in\n    tag_433:\n        /* \"#utility.yul\":21744:21780   */\n    tag_432:\n        /* \"#utility.yul\":21596:21787   */\n      swap3\n      swap2\n      pop\n      pop\n      jump\t// out\n        /* \"#utility.yul\":21793:22235   */\n    tag_120:\n        /* \"#utility.yul\":21942:21946   */\n      0x00\n        /* \"#utility.yul\":21980:21982   */\n      0x60\n        /* \"#utility.yul\":21969:21978   */\n      dup3\n        /* \"#utility.yul\":21965:21983   */\n      add\n        /* \"#utility.yul\":21957:21983   */\n      swap1\n      pop\n        /* \"#utility.yul\":21993:22064   */\n      tag_435\n        /* \"#utility.yul\":22061:22062   */\n      0x00\n        /* \"#utility.yul\":22050:22059   */\n      dup4\n        /* \"#utility.yul\":22046:22063   */\n      add\n        /* \"#utility.yul\":22037:22043   */\n      dup7\n        /* \"#utility.yul\":21993:22064   */\n      tag_174\n      jump\t// in\n    tag_435:\n        /* \"#utility.yul\":22074:22146   */\n      tag_436\n        /* \"#utility.yul\":22142:22144   */\n      0x20\n        /* \"#utility.yul\":22131:22140   */\n      dup4\n        /* \"#utility.yul\":22127:22145   */\n      add\n        /* \"#utility.yul\":22118:22124   */\n      dup6\n        /* \"#utility.yul\":22074:22146   */\n      tag_174\n      jump\t// in\n    tag_436:\n        /* \"#utility.yul\":22156:22228   */\n      tag_437\n        /* \"#utility.yul\":22224:22226   */\n      0x40\n        /* \"#utility.yul\":22213:22222   */\n      dup4\n        /* \"#utility.yul\":22209:22227   */\n      add\n        /* \"#utility.yul\":22200:22206   */\n      dup5\n        /* \"#utility.yul\":22156:22228   */\n      tag_177\n      jump\t// in\n    tag_437:\n        /* \"#utility.yul\":21793:22235   */\n      swap5\n      swap4\n      pop\n      pop\n      pop\n      pop\n      jump\t// out\n        /* \"#utility.yul\":22241:22468   */\n    tag_219:\n        /* \"#utility.yul\":22381:22415   */\n      0x54617267657420616d6f756e74206d7573742062652067726561746572207468\n        /* \"#utility.yul\":22377:22378   */\n      0x00\n        /* \"#utility.yul\":22369:22375   */\n      dup3\n        /* \"#utility.yul\":22365:22379   */\n      add\n        /* \"#utility.yul\":22358:22416   */\n      mstore\n        /* \"#utility.yul\":22450:22460   */\n      0x616e207a65726f20000000000000000000000000000000000000000000000000\n        /* \"#utility.yul\":22445:22447   */\n      0x20\n        /* \"#utility.yul\":22437:22443   */\n      dup3\n        /* \"#utility.yul\":22433:22448   */\n      add\n        /* \"#utility.yul\":22426:22461   */\n      mstore\n        /* \"#utility.yul\":22241:22468   */\n      pop\n      jump\t// out\n        /* \"#utility.yul\":22474:22840   */\n    tag_220:\n        /* \"#utility.yul\":22616:22619   */\n      0x00\n        /* \"#utility.yul\":22637:22704   */\n      tag_440\n        /* \"#utility.yul\":22701:22703   */\n      0x28\n        /* \"#utility.yul\":22696:22699   */\n      dup4\n        /* \"#utility.yul\":22637:22704   */\n      tag_170\n      jump\t// in\n    tag_440:\n        /* \"#utility.yul\":22630:22704   */\n      swap2\n      pop\n        /* \"#utility.yul\":22713:22806   */\n      tag_441\n        /* \"#utility.yul\":22802:22805   */\n      dup3\n        /* \"#utility.yul\":22713:22806   */\n      tag_219\n      jump\t// in\n    tag_441:\n        /* \"#utility.yul\":22831:22833   */\n      0x40\n        /* \"#utility.yul\":22826:22829   */\n      dup3\n        /* \"#utility.yul\":22822:22834   */\n      add\n        /* \"#utility.yul\":22815:22834   */\n      swap1\n      pop\n        /* \"#utility.yul\":22474:22840   */\n      swap2\n      swap1\n      pop\n      jump\t// out\n        /* \"#utility.yul\":22846:23265   */\n    tag_149:\n        /* \"#utility.yul\":23012:23016   */\n      0x00\n        /* \"#utility.yul\":23050:23052   */\n      0x20\n        /* \"#utility.yul\":23039:23048   */\n      dup3\n        /* \"#utility.yul\":23035:23053   */\n      add\n        /* \"#utility.yul\":23027:23053   */\n      swap1\n      pop\n        /* \"#utility.yul\":23099:23108   */\n      dup2\n        /* \"#utility.yul\":23093:23097   */\n      dup2\n        /* \"#utility.yul\":23089:23109   */\n      sub\n        /* \"#utility.yul\":23085:23086   */\n      0x00\n        /* \"#utility.yul\":23074:23083   */\n      dup4\n        /* \"#utility.yul\":23070:23087   */\n      add\n        /* \"#utility.yul\":23063:23110   */\n      mstore\n        /* \"#utility.yul\":23127:23258   */\n      tag_443\n        /* \"#utility.yul\":23253:23257   */\n      dup2\n        /* \"#utility.yul\":23127:23258   */\n      tag_220\n      jump\t// in\n    tag_443:\n        /* \"#utility.yul\":23119:23258   */\n      swap1\n      pop\n        /* \"#utility.yul\":22846:23265   */\n      swap2\n      swap1\n      pop\n      jump\t// out\n        /* \"#utility.yul\":23271:23364   */\n    tag_221:\n        /* \"#utility.yul\":23308:23314   */\n      0x00\n        /* \"#utility.yul\":23355:23357   */\n      0x20\n        /* \"#utility.yul\":23350:23352   */\n      0x1f\n        /* \"#utility.yul\":23343:23348   */\n      dup4\n        /* \"#utility.yul\":23339:23353   */\n      add\n        /* \"#utility.yul\":23335:23358   */\n      div\n        /* \"#utility.yul\":23325:23358   */\n      swap1\n      pop\n        /* \"#utility.yul\":23271:23364   */\n      swap2\n      swap1\n      pop\n      jump\t// out\n        /* \"#utility.yul\":23370:23477   */\n    tag_222:\n        /* \"#utility.yul\":23414:23422   */\n      0x00\n        /* \"#utility.yul\":23464:23469   */\n      dup3\n        /* \"#utility.yul\":23458:23462   */\n      dup3\n        /* \"#utility.yul\":23454:23470   */\n      shl\n        /* \"#utility.yul\":23433:23470   */\n      swap1\n      pop\n        /* \"#utility.yul\":23370:23477   */\n      swap3\n      swap2\n      pop\n      pop\n      jump\t// out\n        /* \"#utility.yul\":23483:23876   */\n    tag_223:\n        /* \"#utility.yul\":23552:23558   */\n      0x00\n        /* \"#utility.yul\":23602:23603   */\n      0x08\n        /* \"#utility.yul\":23590:23600   */\n      dup4\n        /* \"#utility.yul\":23586:23604   */\n      mul\n        /* \"#utility.yul\":23625:23722   */\n      tag_447\n        /* \"#utility.yul\":23655:23721   */\n      0xffffffffffffffffffffffffffffffffffffffffffffffffffffffffffffffff\n        /* \"#utility.yul\":23644:23653   */\n      dup3\n        /* \"#utility.yul\":23625:23722   */\n      tag_222\n      jump\t// in\n    tag_447:\n        /* \"#utility.yul\":23743:23782   */\n      tag_448\n        /* \"#utility.yul\":23773:23781   */\n      dup7\n        /* \"#utility.yul\":23762:23771   */\n      dup4\n        /* \"#utility.yul\":23743:23782   */\n      tag_222\n      jump\t// in\n    tag_448:\n        /* \"#utility.yul\":23731:23782   */\n      swap6\n      pop\n        /* \"#utility.yul\":23815:23819   */\n      dup1\n        /* \"#utility.yul\":23811:23820   */\n      not\n        /* \"#utility.yul\":23804:23809   */\n      dup5\n        /* \"#utility.yul\":23800:23821   */\n      and\n        /* \"#utility.yul\":23791:23821   */\n      swap4\n      pop\n        /* \"#utility.yul\":23864:23868   */\n      dup1\n        /* \"#utility.yul\":23854:23862   */\n      dup7\n        /* \"#utility.yul\":23850:23869   */\n      and\n        /* \"#utility.yul\":23843:23848   */\n      dup5\n        /* \"#utility.yul\":23840:23870   */\n      or\n        /* \"#utility.yul\":23830:23870   */\n      swap3\n      pop\n        /* \"#utility.yul\":23559:23876   */\n      pop\n      pop\n        /* \"#utility.yul\":23483:23876   */\n      swap4\n      swap3\n      pop\n      pop\n      pop\n      jump\t// out\n        /* \"#utility.yul\":23882:23942   */\n    tag_224:\n        /* \"#utility.yul\":23910:23913   */\n      0x00\n        /* \"#utility.yul\":23931:23936   */\n      dup2\n        /* \"#utility.yul\":23924:23936   */\n      swap1\n      pop\n        /* \"#utility.yul\":23882:23942   */\n      swap2\n      swap1\n      pop\n      jump\t// out\n        /* \"#utility.yul\":23948:24090   */\n    tag_225:\n        /* \"#utility.yul\":23998:24007   */\n      0x00\n        /* \"#utility.yul\":24031:24084   */\n      tag_451\n        /* \"#utility.yul\":24049:24083   */\n      tag_452\n        /* \"#utility.yul\":24058:24082   */\n      tag_453\n        /* \"#utility.yul\":24076:24081   */\n      dup5\n        /* \"#utility.yul\":24058:24082   */\n      tag_166\n      jump\t// in\n    tag_453:\n        /* \"#utility.yul\":24049:24083   */\n      tag_224\n      jump\t// in\n    tag_452:\n        /* \"#utility.yul\":24031:24084   */\n      tag_166\n      jump\t// in\n    tag_451:\n        /* \"#utility.yul\":24018:24084   */\n      swap1\n      pop\n        /* \"#utility.yul\":23948:24090   */\n      swap2\n      swap1\n      pop\n      jump\t// out\n        /* \"#utility.yul\":24096:24171   */\n    tag_226:\n        /* \"#utility.yul\":24139:24142   */\n      0x00\n        /* \"#utility.yul\":24160:24165   */\n      dup2\n        /* \"#utility.yul\":24153:24165   */\n      swap1\n      pop\n        /* \"#utility.yul\":24096:24171   */\n      swap2\n      swap1\n      pop\n      jump\t// out\n        /* \"#utility.yul\":24177:24446   */\n    tag_227:\n        /* \"#utility.yul\":24287:24326   */\n      tag_456\n        /* \"#utility.yul\":24318:24325   */\n      dup4\n        /* \"#utility.yul\":24287:24326   */\n      tag_225\n      jump\t// in\n    tag_456:\n        /* \"#utility.yul\":24348:24439   */\n      tag_457\n        /* \"#utility.yul\":24397:24438   */\n      tag_458\n        /* \"#utility.yul\":24421:24437   */\n      dup3\n        /* \"#utility.yul\":24397:24438   */\n      tag_226\n      jump\t// in\n    tag_458:\n        /* \"#utility.yul\":24389:24395   */\n      dup5\n        /* \"#utility.yul\":24382:24386   */\n      dup5\n        /* \"#utility.yul\":24376:24387   */\n      sload\n        /* \"#utility.yul\":24348:24439   */\n      tag_223\n      jump\t// in\n    tag_457:\n        /* \"#utility.yul\":24342:24346   */\n      dup3\n        /* \"#utility.yul\":24335:24440   */\n      sstore\n        /* \"#utility.yul\":24253:24446   */\n      pop\n        /* \"#utility.yul\":24177:24446   */\n      pop\n      pop\n      pop\n      jump\t// out\n        /* \"#utility.yul\":24452:24525   */\n    tag_228:\n        /* \"#utility.yul\":24497:24500   */\n      0x00\n        /* \"#utility.yul\":24452:24525   */\n      swap1\n      jump\t// out\n        /* \"#utility.yul\":24531:24720   */\n    tag_229:\n        /* \"#utility.yul\":24608:24640   */\n      tag_461\n      tag_228\n      jump\t// in\n    tag_461:\n        /* \"#utility.yul\":24649:24714   */\n      tag_462\n        /* \"#utility.yul\":24707:24713   */\n      dup2\n        /* \"#utility.yul\":24699:24705   */\n      dup5\n        /* \"#utility.yul\":24693:24697   */\n      dup5\n        /* \"#utility.yul\":24649:24714   */\n      tag_227\n      jump\t// in\n    tag_462:\n        /* \"#utility.yul\":24584:24720   */\n      pop\n        /* \"#utility.yul\":24531:24720   */\n      pop\n      pop\n      jump\t// out\n        /* \"#utility.yul\":24726:24912   */\n    tag_230:\n        /* \"#utility.yul\":24786:24906   */\n    tag_464:\n        /* \"#utility.yul\":24803:24806   */\n      dup2\n        /* \"#utility.yul\":24796:24801   */\n      dup2\n        /* \"#utility.yul\":24793:24807   */\n      lt\n        /* \"#utility.yul\":24786:24906   */\n      iszero\n      tag_466\n      jumpi\n        /* \"#utility.yul\":24857:24896   */\n      tag_467\n        /* \"#utility.yul\":24894:24895   */\n      0x00\n        /* \"#utility.yul\":24887:24892   */\n      dup3\n        /* \"#utility.yul\":24857:24896   */\n      tag_229\n      jump\t// in\n    tag_467:\n        /* \"#utility.yul\":24830:24831   */\n      0x01\n        /* \"#utility.yul\":24823:24828   */\n      dup2\n        /* \"#utility.yul\":24819:24832   */\n      add\n        /* \"#utility.yul\":24810:24832   */\n      swap1\n      pop\n        /* \"#utility.yul\":24786:24906   */\n      jump(tag_464)\n    tag_466:\n        /* \"#utility.yul\":24726:24912   */\n      pop\n      pop\n      jump\t// out\n        /* \"#utility.yul\":24918:25461   */\n    tag_231:\n        /* \"#utility.yul\":25019:25021   */\n      0x1f\n        /* \"#utility.yul\":25014:25017   */\n      dup3\n        /* \"#utility.yul\":25011:25022   */\n      gt\n        /* \"#utility.yul\":25008:25454   */\n      iszero\n      tag_469\n      jumpi\n        /* \"#utility.yul\":25053:25091   */\n      tag_470\n        /* \"#utility.yul\":25085:25090   */\n      dup2\n        /* \"#utility.yul\":25053:25091   */\n      tag_211\n      jump\t// in\n    tag_470:\n        /* \"#utility.yul\":25137:25166   */\n      tag_471\n        /* \"#utility.yul\":25155:25165   */\n      dup5\n        /* \"#utility.yul\":25137:25166   */\n      tag_221\n      jump\t// in\n    tag_471:\n        /* \"#utility.yul\":25127:25135   */\n      dup2\n        /* \"#utility.yul\":25123:25167   */\n      add\n        /* \"#utility.yul\":25320:25322   */\n      0x20\n        /* \"#utility.yul\":25308:25318   */\n      dup6\n        /* \"#utility.yul\":25305:25323   */\n      lt\n        /* \"#utility.yul\":25302:25351   */\n      iszero\n      tag_472\n      jumpi\n        /* \"#utility.yul\":25341:25349   */\n      dup2\n        /* \"#utility.yul\":25326:25349   */\n      swap1\n      pop\n        /* \"#utility.yul\":25302:25351   */\n    tag_472:\n        /* \"#utility.yul\":25364:25444   */\n      tag_473\n        /* \"#utility.yul\":25420:25442   */\n      tag_474\n        /* \"#utility.yul\":25438:25441   */\n      dup6\n        /* \"#utility.yul\":25420:25442   */\n      tag_221\n      jump\t// in\n    tag_474:\n        /* \"#utility.yul\":25410:25418   */\n      dup4\n        /* \"#utility.yul\":25406:25443   */\n      add\n        /* \"#utility.yul\":25393:25404   */\n      dup3\n        /* \"#utility.yul\":25364:25444   */\n      tag_230\n      jump\t// in\n    tag_473:\n        /* \"#utility.yul\":25023:25454   */\n      pop\n      pop\n        /* \"#utility.yul\":25008:25454   */\n    tag_469:\n        /* \"#utility.yul\":24918:25461   */\n      pop\n      pop\n      pop\n      jump\t// out\n        /* \"#utility.yul\":25467:25584   */\n    tag_232:\n        /* \"#utility.yul\":25521:25529   */\n      0x00\n        /* \"#utility.yul\":25571:25576   */\n      dup3\n        /* \"#utility.yul\":25565:25569   */\n      dup3\n        /* \"#utility.yul\":25561:25577   */\n      shr\n        /* \"#utility.yul\":25540:25577   */\n      swap1\n      pop\n        /* \"#utility.yul\":25467:25584   */\n      swap3\n      swap2\n      pop\n      pop\n      jump\t// out\n        /* \"#utility.yul\":25590:25759   */\n    tag_233:\n        /* \"#utility.yul\":25634:25640   */\n      0x00\n        /* \"#utility.yul\":25667:25718   */\n      tag_477\n        /* \"#utility.yul\":25715:25716   */\n      0x00\n        /* \"#utility.yul\":25711:25717   */\n      not\n        /* \"#utility.yul\":25703:25708   */\n      dup5\n        /* \"#utility.yul\":25700:25701   */\n      0x08\n        /* \"#utility.yul\":25696:25709   */\n      mul\n        /* \"#utility.yul\":25667:25718   */\n      tag_232\n      jump\t// in\n    tag_477:\n        /* \"#utility.yul\":25663:25719   */\n      not\n        /* \"#utility.yul\":25748:25752   */\n      dup1\n        /* \"#utility.yul\":25742:25746   */\n      dup4\n        /* \"#utility.yul\":25738:25753   */\n      and\n        /* \"#utility.yul\":25728:25753   */\n      swap2\n      pop\n        /* \"#utility.yul\":25641:25759   */\n      pop\n        /* \"#utility.yul\":25590:25759   */\n      swap3\n      swap2\n      pop\n      pop\n      jump\t// out\n        /* \"#utility.yul\":25764:26059   */\n    tag_234:\n        /* \"#utility.yul\":25840:25844   */\n      0x00\n        /* \"#utility.yul\":25986:26015   */\n      tag_479\n        /* \"#utility.yul\":26011:26014   */\n      dup4\n        /* \"#utility.yul\":26005:26009   */\n      dup4\n        /* \"#utility.yul\":25986:26015   */\n      tag_233\n      jump\t// in\n    tag_479:\n        /* \"#utility.yul\":25978:26015   */\n      swap2\n      pop\n        /* \"#utility.yul\":26048:26051   */\n      dup3\n        /* \"#utility.yul\":26045:26046   */\n      0x02\n        /* \"#utility.yul\":26041:26052   */\n      mul\n        /* \"#utility.yul\":26035:26039   */\n      dup3\n        /* \"#utility.yul\":26032:26053   */\n      or\n        /* \"#utility.yul\":26024:26053   */\n      swap1\n      pop\n        /* \"#utility.yul\":25764:26059   */\n      swap3\n      swap2\n      pop\n      pop\n      jump\t// out\n        /* \"#utility.yul\":26064:27459   */\n    tag_154:\n        /* \"#utility.yul\":26181:26218   */\n      tag_481\n        /* \"#utility.yul\":26214:26217   */\n      dup3\n        /* \"#utility.yul\":26181:26218   */\n      tag_169\n      jump\t// in\n    tag_481:\n        /* \"#utility.yul\":26283:26301   */\n      0xffffffffffffffff\n        /* \"#utility.yul\":26275:26281   */\n      dup2\n        /* \"#utility.yul\":26272:26302   */\n      gt\n        /* \"#utility.yul\":26269:26325   */\n      iszero\n      tag_482\n      jumpi\n        /* \"#utility.yul\":26305:26323   */\n      tag_483\n      tag_124\n      jump\t// in\n    tag_483:\n        /* \"#utility.yul\":26269:26325   */\n    tag_482:\n        /* \"#utility.yul\":26349:26387   */\n      tag_484\n        /* \"#utility.yul\":26381:26385   */\n      dup3\n        /* \"#utility.yul\":26375:26386   */\n      sload\n        /* \"#utility.yul\":26349:26387   */\n      tag_51\n      jump\t// in\n    tag_484:\n        /* \"#utility.yul\":26434:26501   */\n      tag_485\n        /* \"#utility.yul\":26494:26500   */\n      dup3\n        /* \"#utility.yul\":26486:26492   */\n      dup3\n        /* \"#utility.yul\":26480:26484   */\n      dup6\n        /* \"#utility.yul\":26434:26501   */\n      tag_231\n      jump\t// in\n    tag_485:\n        /* \"#utility.yul\":26528:26529   */\n      0x00\n        /* \"#utility.yul\":26552:26556   */\n      0x20\n        /* \"#utility.yul\":26539:26556   */\n      swap1\n      pop\n        /* \"#utility.yul\":26584:26586   */\n      0x1f\n        /* \"#utility.yul\":26576:26582   */\n      dup4\n        /* \"#utility.yul\":26573:26587   */\n      gt\n        /* \"#utility.yul\":26601:26602   */\n      0x01\n        /* \"#utility.yul\":26596:27214   */\n      dup2\n      eq\n      tag_487\n      jumpi\n        /* \"#utility.yul\":27258:27259   */\n      0x00\n        /* \"#utility.yul\":27275:27281   */\n      dup5\n        /* \"#utility.yul\":27272:27349   */\n      iszero\n      tag_488\n      jumpi\n        /* \"#utility.yul\":27324:27333   */\n      dup3\n        /* \"#utility.yul\":27319:27322   */\n      dup8\n        /* \"#utility.yul\":27315:27334   */\n      add\n        /* \"#utility.yul\":27309:27335   */\n      mload\n        /* \"#utility.yul\":27300:27335   */\n      swap1\n      pop\n        /* \"#utility.yul\":27272:27349   */\n    tag_488:\n        /* \"#utility.yul\":27375:27442   */\n      tag_489\n        /* \"#utility.yul\":27435:27441   */\n      dup6\n        /* \"#utility.yul\":27428:27433   */\n      dup3\n        /* \"#utility.yul\":27375:27442   */\n      tag_234\n      jump\t// in\n    tag_489:\n        /* \"#utility.yul\":27369:27373   */\n      dup7\n        /* \"#utility.yul\":27362:27443   */\n      sstore\n        /* \"#utility.yul\":27231:27453   */\n      pop\n        /* \"#utility.yul\":26566:27453   */\n      jump(tag_486)\n        /* \"#utility.yul\":26596:27214   */\n    tag_487:\n        /* \"#utility.yul\":26648:26652   */\n      0x1f\n        /* \"#utility.yul\":26644:26653   */\n      not\n        /* \"#utility.yul\":26636:26642   */\n      dup5\n        /* \"#utility.yul\":26632:26654   */\n      and\n        /* \"#utility.yul\":26682:26719   */\n      tag_490\n        /* \"#utility.yul\":26714:26718   */\n      dup7\n        /* \"#utility.yul\":26682:26719   */\n      tag_211\n      jump\t// in\n    tag_490:\n        /* \"#utility.yul\":26741:26742   */\n      0x00\n        /* \"#utility.yul\":26755:26963   */\n    tag_491:\n        /* \"#utility.yul\":26769:26776   */\n      dup3\n        /* \"#utility.yul\":26766:26767   */\n      dup2\n        /* \"#utility.yul\":26763:26777   */\n      lt\n        /* \"#utility.yul\":26755:26963   */\n      iszero\n      tag_493\n      jumpi\n        /* \"#utility.yul\":26848:26857   */\n      dup5\n        /* \"#utility.yul\":26843:26846   */\n      dup10\n        /* \"#utility.yul\":26839:26858   */\n      add\n        /* \"#utility.yul\":26833:26859   */\n      mload\n        /* \"#utility.yul\":26825:26831   */\n      dup3\n        /* \"#utility.yul\":26818:26860   */\n      sstore\n        /* \"#utility.yul\":26899:26900   */\n      0x01\n        /* \"#utility.yul\":26891:26897   */\n      dup3\n        /* \"#utility.yul\":26887:26901   */\n      add\n        /* \"#utility.yul\":26877:26901   */\n      swap2\n      pop\n        /* \"#utility.yul\":26946:26948   */\n      0x20\n        /* \"#utility.yul\":26935:26944   */\n      dup6\n        /* \"#utility.yul\":26931:26949   */\n      add\n        /* \"#utility.yul\":26918:26949   */\n      swap5\n      pop\n        /* \"#utility.yul\":26792:26796   */\n      0x20\n        /* \"#utility.yul\":26789:26790   */\n      dup2\n        /* \"#utility.yul\":26785:26797   */\n      add\n        /* \"#utility.yul\":26780:26797   */\n      swap1\n      pop\n        /* \"#utility.yul\":26755:26963   */\n      jump(tag_491)\n    tag_493:\n        /* \"#utility.yul\":26991:26997   */\n      dup7\n        /* \"#utility.yul\":26982:26989   */\n      dup4\n        /* \"#utility.yul\":26979:26998   */\n      lt\n        /* \"#utility.yul\":26976:27155   */\n      iszero\n      tag_494\n      jumpi\n        /* \"#utility.yul\":27049:27058   */\n      dup5\n        /* \"#utility.yul\":27044:27047   */\n      dup10\n        /* \"#utility.yul\":27040:27059   */\n      add\n        /* \"#utility.yul\":27034:27060   */\n      mload\n        /* \"#utility.yul\":27092:27140   */\n      tag_495\n        /* \"#utility.yul\":27134:27138   */\n      0x1f\n        /* \"#utility.yul\":27126:27132   */\n      dup10\n        /* \"#utility.yul\":27122:27139   */\n      and\n        /* \"#utility.yul\":27111:27120   */\n      dup3\n        /* \"#utility.yul\":27092:27140   */\n      tag_233\n      jump\t// in\n    tag_495:\n        /* \"#utility.yul\":27084:27090   */\n      dup4\n        /* \"#utility.yul\":27077:27141   */\n      sstore\n        /* \"#utility.yul\":26999:27155   */\n      pop\n        /* \"#utility.yul\":26976:27155   */\n    tag_494:\n        /* \"#utility.yul\":27201:27202   */\n      0x01\n        /* \"#utility.yul\":27197:27198   */\n      0x02\n        /* \"#utility.yul\":27189:27195   */\n      dup9\n        /* \"#utility.yul\":27185:27199   */\n      mul\n        /* \"#utility.yul\":27181:27203   */\n      add\n        /* \"#utility.yul\":27175:27179   */\n      dup9\n        /* \"#utility.yul\":27168:27204   */\n      sstore\n        /* \"#utility.yul\":26603:27214   */\n      pop\n      pop\n      pop\n        /* \"#utility.yul\":26566:27453   */\n    tag_486:\n      pop\n        /* \"#utility.yul\":26156:27459   */\n      pop\n      pop\n      pop\n        /* \"#utility.yul\":26064:27459   */\n      pop\n      pop\n      jump\t// out\n        /* \"#utility.yul\":27465:28109   */\n    tag_158:\n        /* \"#utility.yul\":27662:27666   */\n      0x00\n        /* \"#utility.yul\":27700:27703   */\n      0x80\n        /* \"#utility.yul\":27689:27698   */\n      dup3\n        /* \"#utility.yul\":27685:27704   */\n      add\n        /* \"#utility.yul\":27677:27704   */\n      swap1\n      pop\n        /* \"#utility.yul\":27714:27785   */\n      tag_497\n        /* \"#utility.yul\":27782:27783   */\n      0x00\n        /* \"#utility.yul\":27771:27780   */\n      dup4\n        /* \"#utility.yul\":27767:27784   */\n      add\n        /* \"#utility.yul\":27758:27764   */\n      dup8\n        /* \"#utility.yul\":27714:27785   */\n      tag_174\n      jump\t// in\n    tag_497:\n        /* \"#utility.yul\":27832:27841   */\n      dup2\n        /* \"#utility.yul\":27826:27830   */\n      dup2\n        /* \"#utility.yul\":27822:27842   */\n      sub\n        /* \"#utility.yul\":27817:27819   */\n      0x20\n        /* \"#utility.yul\":27806:27815   */\n      dup4\n        /* \"#utility.yul\":27802:27820   */\n      add\n        /* \"#utility.yul\":27795:27843   */\n      mstore\n        /* \"#utility.yul\":27860:27938   */\n      tag_498\n        /* \"#utility.yul\":27933:27937   */\n      dup2\n        /* \"#utility.yul\":27924:27930   */\n      dup7\n        /* \"#utility.yul\":27860:27938   */\n      tag_173\n      jump\t// in\n    tag_498:\n        /* \"#utility.yul\":27852:27938   */\n      swap1\n      pop\n        /* \"#utility.yul\":27948:28020   */\n      tag_499\n        /* \"#utility.yul\":28016:28018   */\n      0x40\n        /* \"#utility.yul\":28005:28014   */\n      dup4\n        /* \"#utility.yul\":28001:28019   */\n      add\n        /* \"#utility.yul\":27992:27998   */\n      dup6\n        /* \"#utility.yul\":27948:28020   */\n      tag_174\n      jump\t// in\n    tag_499:\n        /* \"#utility.yul\":28030:28102   */\n      tag_500\n        /* \"#utility.yul\":28098:28100   */\n      0x60\n        /* \"#utility.yul\":28087:28096   */\n      dup4\n        /* \"#utility.yul\":28083:28101   */\n      add\n        /* \"#utility.yul\":28074:28080   */\n      dup5\n        /* \"#utility.yul\":28030:28102   */\n      tag_174\n      jump\t// in\n    tag_500:\n        /* \"#utility.yul\":27465:28109   */\n      swap6\n      swap5\n      pop\n      pop\n      pop\n      pop\n      pop\n      jump\t// out\n\n    auxdata: 0xa2646970667358221220f240a583148269bb6f1144af7e23a534374b6e94e74c8d5ed5de9a13eeab410b64736f6c634300081a0033\n}\n",
				"bytecode": {
					"linkReferences": {},
					"object": "6080604052348015600e575f80fd5b50611cd38061001c5f395ff3fe60806040526004361061006f575f3560e01c80638418cd991161004d5780638418cd9914610119578063a6b0363314610135578063ace6e3c61461015f578063e543fd50146101875761006f565b8063141961bc1461007357806345598b4a146100b55780634d2ebe8d146100dd575b5f80fd5b34801561007e575f80fd5b5061009960048036038101906100949190610e8b565b6101c3565b6040516100ac9796959493929190610fe7565b60405180910390f35b3480156100c0575f80fd5b506100db60048036038101906100d69190610e8b565b6102c1565b005b3480156100e8575f80fd5b5061010360048036038101906100fe9190611085565b6105ad565b60405161011091906110c3565b60405180910390f35b610133600480360381019061012e9190611085565b6105cd565b005b348015610140575f80fd5b506101496109c9565b60405161015691906112a5565b60405180910390f35b34801561016a575f80fd5b50610185600480360381019061018091906113f1565b610bd8565b005b348015610192575f80fd5b506101ad60048036038101906101a8919061145d565b610da0565b6040516101ba919061149b565b60405180910390f35b5f81815481106101d1575f80fd5b905f5260205f2090600602015f91509050805f0180546101f0906114e1565b80601f016020809104026020016040519081016040528092919081815260200182805461021c906114e1565b80156102675780601f1061023e57610100808354040283529160200191610267565b820191905f5260205f20905b81548152906001019060200180831161024a57829003601f168201915b505050505090806001015490806002015490806003015490806004015490806005015f9054906101000a900473ffffffffffffffffffffffffffffffffffffffff16908060050160149054906101000a900460ff16905087565b5f805490508110610307576040517f08c379a00000000000000000000000000000000000000000000000000000000081526004016102fe9061155b565b60405180910390fd5b5f80828154811061031b5761031a611579565b5b905f5260205f20906006020190503373ffffffffffffffffffffffffffffffffffffffff16816005015f9054906101000a900473ffffffffffffffffffffffffffffffffffffffff1673ffffffffffffffffffffffffffffffffffffffff16146103ba576040517f08c379a00000000000000000000000000000000000000000000000000000000081526004016103b190611616565b60405180910390fd5b5f60028111156103cd576103cc610f74565b5b8160050160149054906101000a900460ff1660028111156103f1576103f0610f74565b5b14610431576040517f08c379a00000000000000000000000000000000000000000000000000000000081526004016104289061167e565b60405180910390fd5b60028160050160146101000a81548160ff0219169083600281111561045957610458610f74565b5b02179055505f5b60015f8481526020019081526020015f208054905081101561056d575f60015f8581526020019081526020015f2082815481106104a05761049f611579565b5b905f5260205f20015f9054906101000a900473ffffffffffffffffffffffffffffffffffffffff1690505f60025f8373ffffffffffffffffffffffffffffffffffffffff1673ffffffffffffffffffffffffffffffffffffffff1681526020019081526020015f205f8681526020019081526020015f205490508173ffffffffffffffffffffffffffffffffffffffff166108fc8290811502906040515f60405180830381858888f1935050505015801561055d573d5f803e3d5ffd5b5050508080600101915050610460565b507ff021e62333cdfbbd34d095d4f9914d4a723cc108f866fba75fc4581b1a34fa1f82825f016040516105a192919061172f565b60405180910390a15050565b6002602052815f5260405f20602052805f5260405f205f91509150505481565b5f341161060f576040517f08c379a0000000000000000000000000000000000000000000000000000000008152600401610606906117cd565b60405180910390fd5b5f805490508110610655576040517f08c379a000000000000000000000000000000000000000000000000000000000815260040161064c9061155b565b60405180910390fd5b5f80828154811061066957610668611579565b5b905f5260205f2090600602016040518060e00160405290815f8201805461068f906114e1565b80601f01602080910402602001604051908101604052809291908181526020018280546106bb906114e1565b80156107065780601f106106dd57610100808354040283529160200191610706565b820191905f5260205f20905b8154815290600101906020018083116106e957829003601f168201915b5050505050815260200160018201548152602001600282015481526020016003820154815260200160048201548152602001600582015f9054906101000a900473ffffffffffffffffffffffffffffffffffffffff1673ffffffffffffffffffffffffffffffffffffffff1673ffffffffffffffffffffffffffffffffffffffff1681526020016005820160149054906101000a900460ff1660028111156107b1576107b0610f74565b5b60028111156107c3576107c2610f74565b5b8152505090505f60028111156107dc576107db610f74565b5b8160c0015160028111156107f3576107f2610f74565b5b14610833576040517f08c379a000000000000000000000000000000000000000000000000000000000815260040161082a9061185b565b60405180910390fd5b5f670de0b6b3a76400003461084891906118d3565b90505f60025f8673ffffffffffffffffffffffffffffffffffffffff1673ffffffffffffffffffffffffffffffffffffffff1681526020019081526020015f205f8581526020019081526020015f20540361090d5760015f8481526020019081526020015f2084908060018154018082558091505060019003905f5260205f20015f9091909190916101000a81548173ffffffffffffffffffffffffffffffffffffffff021916908373ffffffffffffffffffffffffffffffffffffffff1602179055505b3460025f8673ffffffffffffffffffffffffffffffffffffffff1673ffffffffffffffffffffffffffffffffffffffff1681526020019081526020015f205f8581526020019081526020015f205f8282546109689190611903565b9250508190555080826040018181516109819190611903565b915081815250507fee00973e6c16bdd1dedb2118f4c32980d7c53c73529bd0fc135501096f0155b98382866040516109bb93929190611936565b60405180910390a150505050565b60605f808054905067ffffffffffffffff8111156109ea576109e96112cd565b5b604051908082528060200260200182016040528015610a2357816020015b610a10610de8565b815260200190600190039081610a085790505b5090505f5b5f80549050811015610bd0575f8181548110610a4757610a46611579565b5b905f5260205f2090600602016040518060e00160405290815f82018054610a6d906114e1565b80601f0160208091040260200160405190810160405280929190818152602001828054610a99906114e1565b8015610ae45780601f10610abb57610100808354040283529160200191610ae4565b820191905f5260205f20905b815481529060010190602001808311610ac757829003601f168201915b5050505050815260200160018201548152602001600282015481526020016003820154815260200160048201548152602001600582015f9054906101000a900473ffffffffffffffffffffffffffffffffffffffff1673ffffffffffffffffffffffffffffffffffffffff1673ffffffffffffffffffffffffffffffffffffffff1681526020016005820160149054906101000a900460ff166002811115610b8f57610b8e610f74565b5b6002811115610ba157610ba0610f74565b5b81525050828281518110610bb857610bb7611579565b5b60200260200101819052508080600101915050610a28565b508091505090565b5f8311610c1a576040517f08c379a0000000000000000000000000000000000000000000000000000000008152600401610c11906119db565b60405180910390fd5b5f6040518060e001604052808381526020018581526020015f81526020018481526020014281526020013373ffffffffffffffffffffffffffffffffffffffff1681526020015f6002811115610c7357610c72610f74565b5b81525090505f81908060018154018082558091505060019003905f5260205f2090600602015f909190919091505f820151815f019081610cb39190611b84565b506020820151816001015560408201518160020155606082015181600301556080820151816004015560a0820151816005015f6101000a81548173ffffffffffffffffffffffffffffffffffffffff021916908373ffffffffffffffffffffffffffffffffffffffff16021790555060c08201518160050160146101000a81548160ff02191690836002811115610d4d57610d4c610f74565b5b021790555050505f808054905090507f1486a9d041aafa1cc375bcfca1613261bf8835c435c377e732a03a0854a0c5ad81848787604051610d919493929190611c53565b60405180910390a15050505050565b6001602052815f5260405f208181548110610db9575f80fd5b905f5260205f20015f915091509054906101000a900473ffffffffffffffffffffffffffffffffffffffff1681565b6040518060e00160405280606081526020015f81526020015f81526020015f81526020015f81526020015f73ffffffffffffffffffffffffffffffffffffffff1681526020015f6002811115610e4157610e40610f74565b5b81525090565b5f604051905090565b5f80fd5b5f80fd5b5f819050919050565b610e6a81610e58565b8114610e74575f80fd5b50565b5f81359050610e8581610e61565b92915050565b5f60208284031215610ea057610e9f610e50565b5b5f610ead84828501610e77565b91505092915050565b5f81519050919050565b5f82825260208201905092915050565b8281835e5f83830152505050565b5f601f19601f8301169050919050565b5f610ef882610eb6565b610f028185610ec0565b9350610f12818560208601610ed0565b610f1b81610ede565b840191505092915050565b610f2f81610e58565b82525050565b5f73ffffffffffffffffffffffffffffffffffffffff82169050919050565b5f610f5e82610f35565b9050919050565b610f6e81610f54565b82525050565b7f4e487b71000000000000000000000000000000000000000000000000000000005f52602160045260245ffd5b60038110610fb257610fb1610f74565b5b50565b5f819050610fc282610fa1565b919050565b5f610fd182610fb5565b9050919050565b610fe181610fc7565b82525050565b5f60e0820190508181035f830152610fff818a610eee565b905061100e6020830189610f26565b61101b6040830188610f26565b6110286060830187610f26565b6110356080830186610f26565b61104260a0830185610f65565b61104f60c0830184610fd8565b98975050505050505050565b61106481610f54565b811461106e575f80fd5b50565b5f8135905061107f8161105b565b92915050565b5f806040838503121561109b5761109a610e50565b5b5f6110a885828601611071565b92505060206110b985828601610e77565b9150509250929050565b5f6020820190506110d65f830184610f26565b92915050565b5f81519050919050565b5f82825260208201905092915050565b5f819050602082019050919050565b5f82825260208201905092915050565b5f61111f82610eb6565b6111298185611105565b9350611139818560208601610ed0565b61114281610ede565b840191505092915050565b61115681610e58565b82525050565b61116581610f54565b82525050565b61117481610fc7565b82525050565b5f60e083015f8301518482035f8601526111948282611115565b91505060208301516111a9602086018261114d565b5060408301516111bc604086018261114d565b5060608301516111cf606086018261114d565b5060808301516111e2608086018261114d565b5060a08301516111f560a086018261115c565b5060c083015161120860c086018261116b565b508091505092915050565b5f61121e838361117a565b905092915050565b5f602082019050919050565b5f61123c826110dc565b61124681856110e6565b935083602082028501611258856110f6565b805f5b8581101561129357848403895281516112748582611213565b945061127f83611226565b925060208a0199505060018101905061125b565b50829750879550505050505092915050565b5f6020820190508181035f8301526112bd8184611232565b905092915050565b5f80fd5b5f80fd5b7f4e487b71000000000000000000000000000000000000000000000000000000005f52604160045260245ffd5b61130382610ede565b810181811067ffffffffffffffff82111715611322576113216112cd565b5b80604052505050565b5f611334610e47565b905061134082826112fa565b919050565b5f67ffffffffffffffff82111561135f5761135e6112cd565b5b61136882610ede565b9050602081019050919050565b828183375f83830152505050565b5f61139561139084611345565b61132b565b9050828152602081018484840111156113b1576113b06112c9565b5b6113bc848285611375565b509392505050565b5f82601f8301126113d8576113d76112c5565b5b81356113e8848260208601611383565b91505092915050565b5f805f6060848603121561140857611407610e50565b5b5f61141586828701610e77565b935050602061142686828701610e77565b925050604084013567ffffffffffffffff81111561144757611446610e54565b5b611453868287016113c4565b9150509250925092565b5f806040838503121561147357611472610e50565b5b5f61148085828601610e77565b925050602061149185828601610e77565b9150509250929050565b5f6020820190506114ae5f830184610f65565b92915050565b7f4e487b71000000000000000000000000000000000000000000000000000000005f52602260045260245ffd5b5f60028204905060018216806114f857607f821691505b60208210810361150b5761150a6114b4565b5b50919050565b7f43616d706169676e20646f6573206e6f742065786973740000000000000000005f82015250565b5f611545601783610ec0565b915061155082611511565b602082019050919050565b5f6020820190508181035f83015261157281611539565b9050919050565b7f4e487b71000000000000000000000000000000000000000000000000000000005f52603260045260245ffd5b7f4f6e6c79207468652063726561746f722063616e2063616e63656c20746869735f8201527f2063616d706169676e0000000000000000000000000000000000000000000000602082015250565b5f611600602983610ec0565b915061160b826115a6565b604082019050919050565b5f6020820190508181035f83015261162d816115f4565b9050919050565b7f43616d706169676e206973206e6f7420616374697665000000000000000000005f82015250565b5f611668601683610ec0565b915061167382611634565b602082019050919050565b5f6020820190508181035f8301526116958161165c565b9050919050565b5f819050815f5260205f209050919050565b5f81546116ba816114e1565b6116c48186610ec0565b9450600182165f81146116de57600181146116f457611726565b60ff198316865281151560200286019350611726565b6116fd8561169c565b5f5b8381101561171e578154818901526001820191506020810190506116ff565b808801955050505b50505092915050565b5f6040820190506117425f830185610f26565b818103602083015261175481846116ae565b90509392505050565b7f436f6e747269627574696f6e206d7573742062652067726561746572207468615f8201527f6e20300000000000000000000000000000000000000000000000000000000000602082015250565b5f6117b7602383610ec0565b91506117c28261175d565b604082019050919050565b5f6020820190508181035f8301526117e4816117ab565b9050919050565b7f43616e206f6e6c7920636f6e7472696275746520746f206163746976652063615f8201527f6d706169676e7300000000000000000000000000000000000000000000000000602082015250565b5f611845602783610ec0565b9150611850826117eb565b604082019050919050565b5f6020820190508181035f83015261187281611839565b9050919050565b7f4e487b71000000000000000000000000000000000000000000000000000000005f52601260045260245ffd5b7f4e487b71000000000000000000000000000000000000000000000000000000005f52601160045260245ffd5b5f6118dd82610e58565b91506118e883610e58565b9250826118f8576118f7611879565b5b828204905092915050565b5f61190d82610e58565b915061191883610e58565b92508282019050808211156119305761192f6118a6565b5b92915050565b5f6060820190506119495f830186610f26565b6119566020830185610f26565b6119636040830184610f65565b949350505050565b7f54617267657420616d6f756e74206d75737420626520677265617465722074685f8201527f616e207a65726f20000000000000000000000000000000000000000000000000602082015250565b5f6119c5602883610ec0565b91506119d08261196b565b604082019050919050565b5f6020820190508181035f8301526119f2816119b9565b9050919050565b5f6020601f8301049050919050565b5f82821b905092915050565b5f60088302611a437fffffffffffffffffffffffffffffffffffffffffffffffffffffffffffffffff82611a08565b611a4d8683611a08565b95508019841693508086168417925050509392505050565b5f819050919050565b5f611a88611a83611a7e84610e58565b611a65565b610e58565b9050919050565b5f819050919050565b611aa183611a6e565b611ab5611aad82611a8f565b848454611a14565b825550505050565b5f90565b611ac9611abd565b611ad4818484611a98565b505050565b5b81811015611af757611aec5f82611ac1565b600181019050611ada565b5050565b601f821115611b3c57611b0d8161169c565b611b16846119f9565b81016020851015611b25578190505b611b39611b31856119f9565b830182611ad9565b50505b505050565b5f82821c905092915050565b5f611b5c5f1984600802611b41565b1980831691505092915050565b5f611b748383611b4d565b9150826002028217905092915050565b611b8d82610eb6565b67ffffffffffffffff811115611ba657611ba56112cd565b5b611bb082546114e1565b611bbb828285611afb565b5f60209050601f831160018114611bec575f8415611bda578287015190505b611be48582611b69565b865550611c4b565b601f198416611bfa8661169c565b5f5b82811015611c2157848901518255600182019150602085019450602081019050611bfc565b86831015611c3e5784890151611c3a601f891682611b4d565b8355505b6001600288020188555050505b505050505050565b5f608082019050611c665f830187610f26565b8181036020830152611c788186610eee565b9050611c876040830185610f26565b611c946060830184610f26565b9594505050505056fea2646970667358221220f240a583148269bb6f1144af7e23a534374b6e94e74c8d5ed5de9a13eeab410b64736f6c634300081a0033",
					"opcodes": "PUSH1 0x80 PUSH1 0x40 MSTORE CALLVALUE DUP1 ISZERO PUSH1 0xE JUMPI PUSH0 DUP1 REVERT JUMPDEST POP PUSH2 0x1CD3 DUP1 PUSH2 0x1C PUSH0 CODECOPY PUSH0 RETURN INVALID PUSH1 0x80 PUSH1 0x40 MSTORE PUSH1 0x4 CALLDATASIZE LT PUSH2 0x6F JUMPI PUSH0 CALLDATALOAD PUSH1 0xE0 SHR DUP1 PUSH4 0x8418CD99 GT PUSH2 0x4D JUMPI DUP1 PUSH4 0x8418CD99 EQ PUSH2 0x119 JUMPI DUP1 PUSH4 0xA6B03633 EQ PUSH2 0x135 JUMPI DUP1 PUSH4 0xACE6E3C6 EQ PUSH2 0x15F JUMPI DUP1 PUSH4 0xE543FD50 EQ PUSH2 0x187 JUMPI PUSH2 0x6F JUMP JUMPDEST DUP1 PUSH4 0x141961BC EQ PUSH2 0x73 JUMPI DUP1 PUSH4 0x45598B4A EQ PUSH2 0xB5 JUMPI DUP1 PUSH4 0x4D2EBE8D EQ PUSH2 0xDD JUMPI JUMPDEST PUSH0 DUP1 REVERT JUMPDEST CALLVALUE DUP1 ISZERO PUSH2 0x7E JUMPI PUSH0 DUP1 REVERT JUMPDEST POP PUSH2 0x99 PUSH1 0x4 DUP1 CALLDATASIZE SUB DUP2 ADD SWAP1 PUSH2 0x94 SWAP2 SWAP1 PUSH2 0xE8B JUMP JUMPDEST PUSH2 0x1C3 JUMP JUMPDEST PUSH1 0x40 MLOAD PUSH2 0xAC SWAP8 SWAP7 SWAP6 SWAP5 SWAP4 SWAP3 SWAP2 SWAP1 PUSH2 0xFE7 JUMP JUMPDEST PUSH1 0x40 MLOAD DUP1 SWAP2 SUB SWAP1 RETURN JUMPDEST CALLVALUE DUP1 ISZERO PUSH2 0xC0 JUMPI PUSH0 DUP1 REVERT JUMPDEST POP PUSH2 0xDB PUSH1 0x4 DUP1 CALLDATASIZE SUB DUP2 ADD SWAP1 PUSH2 0xD6 SWAP2 SWAP1 PUSH2 0xE8B JUMP JUMPDEST PUSH2 0x2C1 JUMP JUMPDEST STOP JUMPDEST CALLVALUE DUP1 ISZERO PUSH2 0xE8 JUMPI PUSH0 DUP1 REVERT JUMPDEST POP PUSH2 0x103 PUSH1 0x4 DUP1 CALLDATASIZE SUB DUP2 ADD SWAP1 PUSH2 0xFE SWAP2 SWAP1 PUSH2 0x1085 JUMP JUMPDEST PUSH2 0x5AD JUMP JUMPDEST PUSH1 0x40 MLOAD PUSH2 0x110 SWAP2 SWAP1 PUSH2 0x10C3 JUMP JUMPDEST PUSH1 0x40 MLOAD DUP1 SWAP2 SUB SWAP1 RETURN JUMPDEST PUSH2 0x133 PUSH1 0x4 DUP1 CALLDATASIZE SUB DUP2 ADD SWAP1 PUSH2 0x12E SWAP2 SWAP1 PUSH2 0x1085 JUMP JUMPDEST PUSH2 0x5CD JUMP JUMPDEST STOP JUMPDEST CALLVALUE DUP1 ISZERO PUSH2 0x140 JUMPI PUSH0 DUP1 REVERT JUMPDEST POP PUSH2 0x149 PUSH2 0x9C9 JUMP JUMPDEST PUSH1 0x40 MLOAD PUSH2 0x156 SWAP2 SWAP1 PUSH2 0x12A5 JUMP JUMPDEST PUSH1 0x40 MLOAD DUP1 SWAP2 SUB SWAP1 RETURN JUMPDEST CALLVALUE DUP1 ISZERO PUSH2 0x16A JUMPI PUSH0 DUP1 REVERT JUMPDEST POP PUSH2 0x185 PUSH1 0x4 DUP1 CALLDATASIZE SUB DUP2 ADD SWAP1 PUSH2 0x180 SWAP2 SWAP1 PUSH2 0x13F1 JUMP JUMPDEST PUSH2 0xBD8 JUMP JUMPDEST STOP JUMPDEST CALLVALUE DUP1 ISZERO PUSH2 0x192 JUMPI PUSH0 DUP1 REVERT JUMPDEST POP PUSH2 0x1AD PUSH1 0x4 DUP1 CALLDATASIZE SUB DUP2 ADD SWAP1 PUSH2 0x1A8 SWAP2 SWAP1 PUSH2 0x145D JUMP JUMPDEST PUSH2 0xDA0 JUMP JUMPDEST PUSH1 0x40 MLOAD PUSH2 0x1BA SWAP2 SWAP1 PUSH2 0x149B JUMP JUMPDEST PUSH1 0x40 MLOAD DUP1 SWAP2 SUB SWAP1 RETURN JUMPDEST PUSH0 DUP2 DUP2 SLOAD DUP2 LT PUSH2 0x1D1 JUMPI PUSH0 DUP1 REVERT JUMPDEST SWAP1 PUSH0 MSTORE PUSH1 0x20 PUSH0 KECCAK256 SWAP1 PUSH1 0x6 MUL ADD PUSH0 SWAP2 POP SWAP1 POP DUP1 PUSH0 ADD DUP1 SLOAD PUSH2 0x1F0 SWAP1 PUSH2 0x14E1 JUMP JUMPDEST DUP1 PUSH1 0x1F ADD PUSH1 0x20 DUP1 SWAP2 DIV MUL PUSH1 0x20 ADD PUSH1 0x40 MLOAD SWAP1 DUP2 ADD PUSH1 0x40 MSTORE DUP1 SWAP3 SWAP2 SWAP1 DUP2 DUP2 MSTORE PUSH1 0x20 ADD DUP3 DUP1 SLOAD PUSH2 0x21C SWAP1 PUSH2 0x14E1 JUMP JUMPDEST DUP1 ISZERO PUSH2 0x267 JUMPI DUP1 PUSH1 0x1F LT PUSH2 0x23E JUMPI PUSH2 0x100 DUP1 DUP4 SLOAD DIV MUL DUP4 MSTORE SWAP2 PUSH1 0x20 ADD SWAP2 PUSH2 0x267 JUMP JUMPDEST DUP3 ADD SWAP2 SWAP1 PUSH0 MSTORE PUSH1 0x20 PUSH0 KECCAK256 SWAP1 JUMPDEST DUP2 SLOAD DUP2 MSTORE SWAP1 PUSH1 0x1 ADD SWAP1 PUSH1 0x20 ADD DUP1 DUP4 GT PUSH2 0x24A JUMPI DUP3 SWAP1 SUB PUSH1 0x1F AND DUP3 ADD SWAP2 JUMPDEST POP POP POP POP POP SWAP1 DUP1 PUSH1 0x1 ADD SLOAD SWAP1 DUP1 PUSH1 0x2 ADD SLOAD SWAP1 DUP1 PUSH1 0x3 ADD SLOAD SWAP1 DUP1 PUSH1 0x4 ADD SLOAD SWAP1 DUP1 PUSH1 0x5 ADD PUSH0 SWAP1 SLOAD SWAP1 PUSH2 0x100 EXP SWAP1 DIV PUSH20 0xFFFFFFFFFFFFFFFFFFFFFFFFFFFFFFFFFFFFFFFF AND SWAP1 DUP1 PUSH1 0x5 ADD PUSH1 0x14 SWAP1 SLOAD SWAP1 PUSH2 0x100 EXP SWAP1 DIV PUSH1 0xFF AND SWAP1 POP DUP8 JUMP JUMPDEST PUSH0 DUP1 SLOAD SWAP1 POP DUP2 LT PUSH2 0x307 JUMPI PUSH1 0x40 MLOAD PUSH32 0x8C379A000000000000000000000000000000000000000000000000000000000 DUP2 MSTORE PUSH1 0x4 ADD PUSH2 0x2FE SWAP1 PUSH2 0x155B JUMP JUMPDEST PUSH1 0x40 MLOAD DUP1 SWAP2 SUB SWAP1 REVERT JUMPDEST PUSH0 DUP1 DUP3 DUP2 SLOAD DUP2 LT PUSH2 0x31B JUMPI PUSH2 0x31A PUSH2 0x1579 JUMP JUMPDEST JUMPDEST SWAP1 PUSH0 MSTORE PUSH1 0x20 PUSH0 KECCAK256 SWAP1 PUSH1 0x6 MUL ADD SWAP1 POP CALLER PUSH20 0xFFFFFFFFFFFFFFFFFFFFFFFFFFFFFFFFFFFFFFFF AND DUP2 PUSH1 0x5 ADD PUSH0 SWAP1 SLOAD SWAP1 PUSH2 0x100 EXP SWAP1 DIV PUSH20 0xFFFFFFFFFFFFFFFFFFFFFFFFFFFFFFFFFFFFFFFF AND PUSH20 0xFFFFFFFFFFFFFFFFFFFFFFFFFFFFFFFFFFFFFFFF AND EQ PUSH2 0x3BA JUMPI PUSH1 0x40 MLOAD PUSH32 0x8C379A000000000000000000000000000000000000000000000000000000000 DUP2 MSTORE PUSH1 0x4 ADD PUSH2 0x3B1 SWAP1 PUSH2 0x1616 JUMP JUMPDEST PUSH1 0x40 MLOAD DUP1 SWAP2 SUB SWAP1 REVERT JUMPDEST PUSH0 PUSH1 0x2 DUP2 GT ISZERO PUSH2 0x3CD JUMPI PUSH2 0x3CC PUSH2 0xF74 JUMP JUMPDEST JUMPDEST DUP2 PUSH1 0x5 ADD PUSH1 0x14 SWAP1 SLOAD SWAP1 PUSH2 0x100 EXP SWAP1 DIV PUSH1 0xFF AND PUSH1 0x2 DUP2 GT ISZERO PUSH2 0x3F1 JUMPI PUSH2 0x3F0 PUSH2 0xF74 JUMP JUMPDEST JUMPDEST EQ PUSH2 0x431 JUMPI PUSH1 0x40 MLOAD PUSH32 0x8C379A000000000000000000000000000000000000000000000000000000000 DUP2 MSTORE PUSH1 0x4 ADD PUSH2 0x428 SWAP1 PUSH2 0x167E JUMP JUMPDEST PUSH1 0x40 MLOAD DUP1 SWAP2 SUB SWAP1 REVERT JUMPDEST PUSH1 0x2 DUP2 PUSH1 0x5 ADD PUSH1 0x14 PUSH2 0x100 EXP DUP2 SLOAD DUP2 PUSH1 0xFF MUL NOT AND SWAP1 DUP4 PUSH1 0x2 DUP2 GT ISZERO PUSH2 0x459 JUMPI PUSH2 0x458 PUSH2 0xF74 JUMP JUMPDEST JUMPDEST MUL OR SWAP1 SSTORE POP PUSH0 JUMPDEST PUSH1 0x1 PUSH0 DUP5 DUP2 MSTORE PUSH1 0x20 ADD SWAP1 DUP2 MSTORE PUSH1 0x20 ADD PUSH0 KECCAK256 DUP1 SLOAD SWAP1 POP DUP2 LT ISZERO PUSH2 0x56D JUMPI PUSH0 PUSH1 0x1 PUSH0 DUP6 DUP2 MSTORE PUSH1 0x20 ADD SWAP1 DUP2 MSTORE PUSH1 0x20 ADD PUSH0 KECCAK256 DUP3 DUP2 SLOAD DUP2 LT PUSH2 0x4A0 JUMPI PUSH2 0x49F PUSH2 0x1579 JUMP JUMPDEST JUMPDEST SWAP1 PUSH0 MSTORE PUSH1 0x20 PUSH0 KECCAK256 ADD PUSH0 SWAP1 SLOAD SWAP1 PUSH2 0x100 EXP SWAP1 DIV PUSH20 0xFFFFFFFFFFFFFFFFFFFFFFFFFFFFFFFFFFFFFFFF AND SWAP1 POP PUSH0 PUSH1 0x2 PUSH0 DUP4 PUSH20 0xFFFFFFFFFFFFFFFFFFFFFFFFFFFFFFFFFFFFFFFF AND PUSH20 0xFFFFFFFFFFFFFFFFFFFFFFFFFFFFFFFFFFFFFFFF AND DUP2 MSTORE PUSH1 0x20 ADD SWAP1 DUP2 MSTORE PUSH1 0x20 ADD PUSH0 KECCAK256 PUSH0 DUP7 DUP2 MSTORE PUSH1 0x20 ADD SWAP1 DUP2 MSTORE PUSH1 0x20 ADD PUSH0 KECCAK256 SLOAD SWAP1 POP DUP2 PUSH20 0xFFFFFFFFFFFFFFFFFFFFFFFFFFFFFFFFFFFFFFFF AND PUSH2 0x8FC DUP3 SWAP1 DUP2 ISZERO MUL SWAP1 PUSH1 0x40 MLOAD PUSH0 PUSH1 0x40 MLOAD DUP1 DUP4 SUB DUP2 DUP6 DUP9 DUP9 CALL SWAP4 POP POP POP POP ISZERO DUP1 ISZERO PUSH2 0x55D JUMPI RETURNDATASIZE PUSH0 DUP1 RETURNDATACOPY RETURNDATASIZE PUSH0 REVERT JUMPDEST POP POP POP DUP1 DUP1 PUSH1 0x1 ADD SWAP2 POP POP PUSH2 0x460 JUMP JUMPDEST POP PUSH32 0xF021E62333CDFBBD34D095D4F9914D4A723CC108F866FBA75FC4581B1A34FA1F DUP3 DUP3 PUSH0 ADD PUSH1 0x40 MLOAD PUSH2 0x5A1 SWAP3 SWAP2 SWAP1 PUSH2 0x172F JUMP JUMPDEST PUSH1 0x40 MLOAD DUP1 SWAP2 SUB SWAP1 LOG1 POP POP JUMP JUMPDEST PUSH1 0x2 PUSH1 0x20 MSTORE DUP2 PUSH0 MSTORE PUSH1 0x40 PUSH0 KECCAK256 PUSH1 0x20 MSTORE DUP1 PUSH0 MSTORE PUSH1 0x40 PUSH0 KECCAK256 PUSH0 SWAP2 POP SWAP2 POP POP SLOAD DUP2 JUMP JUMPDEST PUSH0 CALLVALUE GT PUSH2 0x60F JUMPI PUSH1 0x40 MLOAD PUSH32 0x8C379A000000000000000000000000000000000000000000000000000000000 DUP2 MSTORE PUSH1 0x4 ADD PUSH2 0x606 SWAP1 PUSH2 0x17CD JUMP JUMPDEST PUSH1 0x40 MLOAD DUP1 SWAP2 SUB SWAP1 REVERT JUMPDEST PUSH0 DUP1 SLOAD SWAP1 POP DUP2 LT PUSH2 0x655 JUMPI PUSH1 0x40 MLOAD PUSH32 0x8C379A000000000000000000000000000000000000000000000000000000000 DUP2 MSTORE PUSH1 0x4 ADD PUSH2 0x64C SWAP1 PUSH2 0x155B JUMP JUMPDEST PUSH1 0x40 MLOAD DUP1 SWAP2 SUB SWAP1 REVERT JUMPDEST PUSH0 DUP1 DUP3 DUP2 SLOAD DUP2 LT PUSH2 0x669 JUMPI PUSH2 0x668 PUSH2 0x1579 JUMP JUMPDEST JUMPDEST SWAP1 PUSH0 MSTORE PUSH1 0x20 PUSH0 KECCAK256 SWAP1 PUSH1 0x6 MUL ADD PUSH1 0x40 MLOAD DUP1 PUSH1 0xE0 ADD PUSH1 0x40 MSTORE SWAP1 DUP2 PUSH0 DUP3 ADD DUP1 SLOAD PUSH2 0x68F SWAP1 PUSH2 0x14E1 JUMP JUMPDEST DUP1 PUSH1 0x1F ADD PUSH1 0x20 DUP1 SWAP2 DIV MUL PUSH1 0x20 ADD PUSH1 0x40 MLOAD SWAP1 DUP2 ADD PUSH1 0x40 MSTORE DUP1 SWAP3 SWAP2 SWAP1 DUP2 DUP2 MSTORE PUSH1 0x20 ADD DUP3 DUP1 SLOAD PUSH2 0x6BB SWAP1 PUSH2 0x14E1 JUMP JUMPDEST DUP1 ISZERO PUSH2 0x706 JUMPI DUP1 PUSH1 0x1F LT PUSH2 0x6DD JUMPI PUSH2 0x100 DUP1 DUP4 SLOAD DIV MUL DUP4 MSTORE SWAP2 PUSH1 0x20 ADD SWAP2 PUSH2 0x706 JUMP JUMPDEST DUP3 ADD SWAP2 SWAP1 PUSH0 MSTORE PUSH1 0x20 PUSH0 KECCAK256 SWAP1 JUMPDEST DUP2 SLOAD DUP2 MSTORE SWAP1 PUSH1 0x1 ADD SWAP1 PUSH1 0x20 ADD DUP1 DUP4 GT PUSH2 0x6E9 JUMPI DUP3 SWAP1 SUB PUSH1 0x1F AND DUP3 ADD SWAP2 JUMPDEST POP POP POP POP POP DUP2 MSTORE PUSH1 0x20 ADD PUSH1 0x1 DUP3 ADD SLOAD DUP2 MSTORE PUSH1 0x20 ADD PUSH1 0x2 DUP3 ADD SLOAD DUP2 MSTORE PUSH1 0x20 ADD PUSH1 0x3 DUP3 ADD SLOAD DUP2 MSTORE PUSH1 0x20 ADD PUSH1 0x4 DUP3 ADD SLOAD DUP2 MSTORE PUSH1 0x20 ADD PUSH1 0x5 DUP3 ADD PUSH0 SWAP1 SLOAD SWAP1 PUSH2 0x100 EXP SWAP1 DIV PUSH20 0xFFFFFFFFFFFFFFFFFFFFFFFFFFFFFFFFFFFFFFFF AND PUSH20 0xFFFFFFFFFFFFFFFFFFFFFFFFFFFFFFFFFFFFFFFF AND PUSH20 0xFFFFFFFFFFFFFFFFFFFFFFFFFFFFFFFFFFFFFFFF AND DUP2 MSTORE PUSH1 0x20 ADD PUSH1 0x5 DUP3 ADD PUSH1 0x14 SWAP1 SLOAD SWAP1 PUSH2 0x100 EXP SWAP1 DIV PUSH1 0xFF AND PUSH1 0x2 DUP2 GT ISZERO PUSH2 0x7B1 JUMPI PUSH2 0x7B0 PUSH2 0xF74 JUMP JUMPDEST JUMPDEST PUSH1 0x2 DUP2 GT ISZERO PUSH2 0x7C3 JUMPI PUSH2 0x7C2 PUSH2 0xF74 JUMP JUMPDEST JUMPDEST DUP2 MSTORE POP POP SWAP1 POP PUSH0 PUSH1 0x2 DUP2 GT ISZERO PUSH2 0x7DC JUMPI PUSH2 0x7DB PUSH2 0xF74 JUMP JUMPDEST JUMPDEST DUP2 PUSH1 0xC0 ADD MLOAD PUSH1 0x2 DUP2 GT ISZERO PUSH2 0x7F3 JUMPI PUSH2 0x7F2 PUSH2 0xF74 JUMP JUMPDEST JUMPDEST EQ PUSH2 0x833 JUMPI PUSH1 0x40 MLOAD PUSH32 0x8C379A000000000000000000000000000000000000000000000000000000000 DUP2 MSTORE PUSH1 0x4 ADD PUSH2 0x82A SWAP1 PUSH2 0x185B JUMP JUMPDEST PUSH1 0x40 MLOAD DUP1 SWAP2 SUB SWAP1 REVERT JUMPDEST PUSH0 PUSH8 0xDE0B6B3A7640000 CALLVALUE PUSH2 0x848 SWAP2 SWAP1 PUSH2 0x18D3 JUMP JUMPDEST SWAP1 POP PUSH0 PUSH1 0x2 PUSH0 DUP7 PUSH20 0xFFFFFFFFFFFFFFFFFFFFFFFFFFFFFFFFFFFFFFFF AND PUSH20 0xFFFFFFFFFFFFFFFFFFFFFFFFFFFFFFFFFFFFFFFF AND DUP2 MSTORE PUSH1 0x20 ADD SWAP1 DUP2 MSTORE PUSH1 0x20 ADD PUSH0 KECCAK256 PUSH0 DUP6 DUP2 MSTORE PUSH1 0x20 ADD SWAP1 DUP2 MSTORE PUSH1 0x20 ADD PUSH0 KECCAK256 SLOAD SUB PUSH2 0x90D JUMPI PUSH1 0x1 PUSH0 DUP5 DUP2 MSTORE PUSH1 0x20 ADD SWAP1 DUP2 MSTORE PUSH1 0x20 ADD PUSH0 KECCAK256 DUP5 SWAP1 DUP1 PUSH1 0x1 DUP2 SLOAD ADD DUP1 DUP3 SSTORE DUP1 SWAP2 POP POP PUSH1 0x1 SWAP1 SUB SWAP1 PUSH0 MSTORE PUSH1 0x20 PUSH0 KECCAK256 ADD PUSH0 SWAP1 SWAP2 SWAP1 SWAP2 SWAP1 SWAP2 PUSH2 0x100 EXP DUP2 SLOAD DUP2 PUSH20 0xFFFFFFFFFFFFFFFFFFFFFFFFFFFFFFFFFFFFFFFF MUL NOT AND SWAP1 DUP4 PUSH20 0xFFFFFFFFFFFFFFFFFFFFFFFFFFFFFFFFFFFFFFFF AND MUL OR SWAP1 SSTORE POP JUMPDEST CALLVALUE PUSH1 0x2 PUSH0 DUP7 PUSH20 0xFFFFFFFFFFFFFFFFFFFFFFFFFFFFFFFFFFFFFFFF AND PUSH20 0xFFFFFFFFFFFFFFFFFFFFFFFFFFFFFFFFFFFFFFFF AND DUP2 MSTORE PUSH1 0x20 ADD SWAP1 DUP2 MSTORE PUSH1 0x20 ADD PUSH0 KECCAK256 PUSH0 DUP6 DUP2 MSTORE PUSH1 0x20 ADD SWAP1 DUP2 MSTORE PUSH1 0x20 ADD PUSH0 KECCAK256 PUSH0 DUP3 DUP3 SLOAD PUSH2 0x968 SWAP2 SWAP1 PUSH2 0x1903 JUMP JUMPDEST SWAP3 POP POP DUP2 SWAP1 SSTORE POP DUP1 DUP3 PUSH1 0x40 ADD DUP2 DUP2 MLOAD PUSH2 0x981 SWAP2 SWAP1 PUSH2 0x1903 JUMP JUMPDEST SWAP2 POP DUP2 DUP2 MSTORE POP POP PUSH32 0xEE00973E6C16BDD1DEDB2118F4C32980D7C53C73529BD0FC135501096F0155B9 DUP4 DUP3 DUP7 PUSH1 0x40 MLOAD PUSH2 0x9BB SWAP4 SWAP3 SWAP2 SWAP1 PUSH2 0x1936 JUMP JUMPDEST PUSH1 0x40 MLOAD DUP1 SWAP2 SUB SWAP1 LOG1 POP POP POP POP JUMP JUMPDEST PUSH1 0x60 PUSH0 DUP1 DUP1 SLOAD SWAP1 POP PUSH8 0xFFFFFFFFFFFFFFFF DUP2 GT ISZERO PUSH2 0x9EA JUMPI PUSH2 0x9E9 PUSH2 0x12CD JUMP JUMPDEST JUMPDEST PUSH1 0x40 MLOAD SWAP1 DUP1 DUP3 MSTORE DUP1 PUSH1 0x20 MUL PUSH1 0x20 ADD DUP3 ADD PUSH1 0x40 MSTORE DUP1 ISZERO PUSH2 0xA23 JUMPI DUP2 PUSH1 0x20 ADD JUMPDEST PUSH2 0xA10 PUSH2 0xDE8 JUMP JUMPDEST DUP2 MSTORE PUSH1 0x20 ADD SWAP1 PUSH1 0x1 SWAP1 SUB SWAP1 DUP2 PUSH2 0xA08 JUMPI SWAP1 POP JUMPDEST POP SWAP1 POP PUSH0 JUMPDEST PUSH0 DUP1 SLOAD SWAP1 POP DUP2 LT ISZERO PUSH2 0xBD0 JUMPI PUSH0 DUP2 DUP2 SLOAD DUP2 LT PUSH2 0xA47 JUMPI PUSH2 0xA46 PUSH2 0x1579 JUMP JUMPDEST JUMPDEST SWAP1 PUSH0 MSTORE PUSH1 0x20 PUSH0 KECCAK256 SWAP1 PUSH1 0x6 MUL ADD PUSH1 0x40 MLOAD DUP1 PUSH1 0xE0 ADD PUSH1 0x40 MSTORE SWAP1 DUP2 PUSH0 DUP3 ADD DUP1 SLOAD PUSH2 0xA6D SWAP1 PUSH2 0x14E1 JUMP JUMPDEST DUP1 PUSH1 0x1F ADD PUSH1 0x20 DUP1 SWAP2 DIV MUL PUSH1 0x20 ADD PUSH1 0x40 MLOAD SWAP1 DUP2 ADD PUSH1 0x40 MSTORE DUP1 SWAP3 SWAP2 SWAP1 DUP2 DUP2 MSTORE PUSH1 0x20 ADD DUP3 DUP1 SLOAD PUSH2 0xA99 SWAP1 PUSH2 0x14E1 JUMP JUMPDEST DUP1 ISZERO PUSH2 0xAE4 JUMPI DUP1 PUSH1 0x1F LT PUSH2 0xABB JUMPI PUSH2 0x100 DUP1 DUP4 SLOAD DIV MUL DUP4 MSTORE SWAP2 PUSH1 0x20 ADD SWAP2 PUSH2 0xAE4 JUMP JUMPDEST DUP3 ADD SWAP2 SWAP1 PUSH0 MSTORE PUSH1 0x20 PUSH0 KECCAK256 SWAP1 JUMPDEST DUP2 SLOAD DUP2 MSTORE SWAP1 PUSH1 0x1 ADD SWAP1 PUSH1 0x20 ADD DUP1 DUP4 GT PUSH2 0xAC7 JUMPI DUP3 SWAP1 SUB PUSH1 0x1F AND DUP3 ADD SWAP2 JUMPDEST POP POP POP POP POP DUP2 MSTORE PUSH1 0x20 ADD PUSH1 0x1 DUP3 ADD SLOAD DUP2 MSTORE PUSH1 0x20 ADD PUSH1 0x2 DUP3 ADD SLOAD DUP2 MSTORE PUSH1 0x20 ADD PUSH1 0x3 DUP3 ADD SLOAD DUP2 MSTORE PUSH1 0x20 ADD PUSH1 0x4 DUP3 ADD SLOAD DUP2 MSTORE PUSH1 0x20 ADD PUSH1 0x5 DUP3 ADD PUSH0 SWAP1 SLOAD SWAP1 PUSH2 0x100 EXP SWAP1 DIV PUSH20 0xFFFFFFFFFFFFFFFFFFFFFFFFFFFFFFFFFFFFFFFF AND PUSH20 0xFFFFFFFFFFFFFFFFFFFFFFFFFFFFFFFFFFFFFFFF AND PUSH20 0xFFFFFFFFFFFFFFFFFFFFFFFFFFFFFFFFFFFFFFFF AND DUP2 MSTORE PUSH1 0x20 ADD PUSH1 0x5 DUP3 ADD PUSH1 0x14 SWAP1 SLOAD SWAP1 PUSH2 0x100 EXP SWAP1 DIV PUSH1 0xFF AND PUSH1 0x2 DUP2 GT ISZERO PUSH2 0xB8F JUMPI PUSH2 0xB8E PUSH2 0xF74 JUMP JUMPDEST JUMPDEST PUSH1 0x2 DUP2 GT ISZERO PUSH2 0xBA1 JUMPI PUSH2 0xBA0 PUSH2 0xF74 JUMP JUMPDEST JUMPDEST DUP2 MSTORE POP POP DUP3 DUP3 DUP2 MLOAD DUP2 LT PUSH2 0xBB8 JUMPI PUSH2 0xBB7 PUSH2 0x1579 JUMP JUMPDEST JUMPDEST PUSH1 0x20 MUL PUSH1 0x20 ADD ADD DUP2 SWAP1 MSTORE POP DUP1 DUP1 PUSH1 0x1 ADD SWAP2 POP POP PUSH2 0xA28 JUMP JUMPDEST POP DUP1 SWAP2 POP POP SWAP1 JUMP JUMPDEST PUSH0 DUP4 GT PUSH2 0xC1A JUMPI PUSH1 0x40 MLOAD PUSH32 0x8C379A000000000000000000000000000000000000000000000000000000000 DUP2 MSTORE PUSH1 0x4 ADD PUSH2 0xC11 SWAP1 PUSH2 0x19DB JUMP JUMPDEST PUSH1 0x40 MLOAD DUP1 SWAP2 SUB SWAP1 REVERT JUMPDEST PUSH0 PUSH1 0x40 MLOAD DUP1 PUSH1 0xE0 ADD PUSH1 0x40 MSTORE DUP1 DUP4 DUP2 MSTORE PUSH1 0x20 ADD DUP6 DUP2 MSTORE PUSH1 0x20 ADD PUSH0 DUP2 MSTORE PUSH1 0x20 ADD DUP5 DUP2 MSTORE PUSH1 0x20 ADD TIMESTAMP DUP2 MSTORE PUSH1 0x20 ADD CALLER PUSH20 0xFFFFFFFFFFFFFFFFFFFFFFFFFFFFFFFFFFFFFFFF AND DUP2 MSTORE PUSH1 0x20 ADD PUSH0 PUSH1 0x2 DUP2 GT ISZERO PUSH2 0xC73 JUMPI PUSH2 0xC72 PUSH2 0xF74 JUMP JUMPDEST JUMPDEST DUP2 MSTORE POP SWAP1 POP PUSH0 DUP2 SWAP1 DUP1 PUSH1 0x1 DUP2 SLOAD ADD DUP1 DUP3 SSTORE DUP1 SWAP2 POP POP PUSH1 0x1 SWAP1 SUB SWAP1 PUSH0 MSTORE PUSH1 0x20 PUSH0 KECCAK256 SWAP1 PUSH1 0x6 MUL ADD PUSH0 SWAP1 SWAP2 SWAP1 SWAP2 SWAP1 SWAP2 POP PUSH0 DUP3 ADD MLOAD DUP2 PUSH0 ADD SWAP1 DUP2 PUSH2 0xCB3 SWAP2 SWAP1 PUSH2 0x1B84 JUMP JUMPDEST POP PUSH1 0x20 DUP3 ADD MLOAD DUP2 PUSH1 0x1 ADD SSTORE PUSH1 0x40 DUP3 ADD MLOAD DUP2 PUSH1 0x2 ADD SSTORE PUSH1 0x60 DUP3 ADD MLOAD DUP2 PUSH1 0x3 ADD SSTORE PUSH1 0x80 DUP3 ADD MLOAD DUP2 PUSH1 0x4 ADD SSTORE PUSH1 0xA0 DUP3 ADD MLOAD DUP2 PUSH1 0x5 ADD PUSH0 PUSH2 0x100 EXP DUP2 SLOAD DUP2 PUSH20 0xFFFFFFFFFFFFFFFFFFFFFFFFFFFFFFFFFFFFFFFF MUL NOT AND SWAP1 DUP4 PUSH20 0xFFFFFFFFFFFFFFFFFFFFFFFFFFFFFFFFFFFFFFFF AND MUL OR SWAP1 SSTORE POP PUSH1 0xC0 DUP3 ADD MLOAD DUP2 PUSH1 0x5 ADD PUSH1 0x14 PUSH2 0x100 EXP DUP2 SLOAD DUP2 PUSH1 0xFF MUL NOT AND SWAP1 DUP4 PUSH1 0x2 DUP2 GT ISZERO PUSH2 0xD4D JUMPI PUSH2 0xD4C PUSH2 0xF74 JUMP JUMPDEST JUMPDEST MUL OR SWAP1 SSTORE POP POP POP PUSH0 DUP1 DUP1 SLOAD SWAP1 POP SWAP1 POP PUSH32 0x1486A9D041AAFA1CC375BCFCA1613261BF8835C435C377E732A03A0854A0C5AD DUP2 DUP5 DUP8 DUP8 PUSH1 0x40 MLOAD PUSH2 0xD91 SWAP5 SWAP4 SWAP3 SWAP2 SWAP1 PUSH2 0x1C53 JUMP JUMPDEST PUSH1 0x40 MLOAD DUP1 SWAP2 SUB SWAP1 LOG1 POP POP POP POP POP JUMP JUMPDEST PUSH1 0x1 PUSH1 0x20 MSTORE DUP2 PUSH0 MSTORE PUSH1 0x40 PUSH0 KECCAK256 DUP2 DUP2 SLOAD DUP2 LT PUSH2 0xDB9 JUMPI PUSH0 DUP1 REVERT JUMPDEST SWAP1 PUSH0 MSTORE PUSH1 0x20 PUSH0 KECCAK256 ADD PUSH0 SWAP2 POP SWAP2 POP SWAP1 SLOAD SWAP1 PUSH2 0x100 EXP SWAP1 DIV PUSH20 0xFFFFFFFFFFFFFFFFFFFFFFFFFFFFFFFFFFFFFFFF AND DUP2 JUMP JUMPDEST PUSH1 0x40 MLOAD DUP1 PUSH1 0xE0 ADD PUSH1 0x40 MSTORE DUP1 PUSH1 0x60 DUP2 MSTORE PUSH1 0x20 ADD PUSH0 DUP2 MSTORE PUSH1 0x20 ADD PUSH0 DUP2 MSTORE PUSH1 0x20 ADD PUSH0 DUP2 MSTORE PUSH1 0x20 ADD PUSH0 DUP2 MSTORE PUSH1 0x20 ADD PUSH0 PUSH20 0xFFFFFFFFFFFFFFFFFFFFFFFFFFFFFFFFFFFFFFFF AND DUP2 MSTORE PUSH1 0x20 ADD PUSH0 PUSH1 0x2 DUP2 GT ISZERO PUSH2 0xE41 JUMPI PUSH2 0xE40 PUSH2 0xF74 JUMP JUMPDEST JUMPDEST DUP2 MSTORE POP SWAP1 JUMP JUMPDEST PUSH0 PUSH1 0x40 MLOAD SWAP1 POP SWAP1 JUMP JUMPDEST PUSH0 DUP1 REVERT JUMPDEST PUSH0 DUP1 REVERT JUMPDEST PUSH0 DUP2 SWAP1 POP SWAP2 SWAP1 POP JUMP JUMPDEST PUSH2 0xE6A DUP2 PUSH2 0xE58 JUMP JUMPDEST DUP2 EQ PUSH2 0xE74 JUMPI PUSH0 DUP1 REVERT JUMPDEST POP JUMP JUMPDEST PUSH0 DUP2 CALLDATALOAD SWAP1 POP PUSH2 0xE85 DUP2 PUSH2 0xE61 JUMP JUMPDEST SWAP3 SWAP2 POP POP JUMP JUMPDEST PUSH0 PUSH1 0x20 DUP3 DUP5 SUB SLT ISZERO PUSH2 0xEA0 JUMPI PUSH2 0xE9F PUSH2 0xE50 JUMP JUMPDEST JUMPDEST PUSH0 PUSH2 0xEAD DUP5 DUP3 DUP6 ADD PUSH2 0xE77 JUMP JUMPDEST SWAP2 POP POP SWAP3 SWAP2 POP POP JUMP JUMPDEST PUSH0 DUP2 MLOAD SWAP1 POP SWAP2 SWAP1 POP JUMP JUMPDEST PUSH0 DUP3 DUP3 MSTORE PUSH1 0x20 DUP3 ADD SWAP1 POP SWAP3 SWAP2 POP POP JUMP JUMPDEST DUP3 DUP2 DUP4 MCOPY PUSH0 DUP4 DUP4 ADD MSTORE POP POP POP JUMP JUMPDEST PUSH0 PUSH1 0x1F NOT PUSH1 0x1F DUP4 ADD AND SWAP1 POP SWAP2 SWAP1 POP JUMP JUMPDEST PUSH0 PUSH2 0xEF8 DUP3 PUSH2 0xEB6 JUMP JUMPDEST PUSH2 0xF02 DUP2 DUP6 PUSH2 0xEC0 JUMP JUMPDEST SWAP4 POP PUSH2 0xF12 DUP2 DUP6 PUSH1 0x20 DUP7 ADD PUSH2 0xED0 JUMP JUMPDEST PUSH2 0xF1B DUP2 PUSH2 0xEDE JUMP JUMPDEST DUP5 ADD SWAP2 POP POP SWAP3 SWAP2 POP POP JUMP JUMPDEST PUSH2 0xF2F DUP2 PUSH2 0xE58 JUMP JUMPDEST DUP3 MSTORE POP POP JUMP JUMPDEST PUSH0 PUSH20 0xFFFFFFFFFFFFFFFFFFFFFFFFFFFFFFFFFFFFFFFF DUP3 AND SWAP1 POP SWAP2 SWAP1 POP JUMP JUMPDEST PUSH0 PUSH2 0xF5E DUP3 PUSH2 0xF35 JUMP JUMPDEST SWAP1 POP SWAP2 SWAP1 POP JUMP JUMPDEST PUSH2 0xF6E DUP2 PUSH2 0xF54 JUMP JUMPDEST DUP3 MSTORE POP POP JUMP JUMPDEST PUSH32 0x4E487B7100000000000000000000000000000000000000000000000000000000 PUSH0 MSTORE PUSH1 0x21 PUSH1 0x4 MSTORE PUSH1 0x24 PUSH0 REVERT JUMPDEST PUSH1 0x3 DUP2 LT PUSH2 0xFB2 JUMPI PUSH2 0xFB1 PUSH2 0xF74 JUMP JUMPDEST JUMPDEST POP JUMP JUMPDEST PUSH0 DUP2 SWAP1 POP PUSH2 0xFC2 DUP3 PUSH2 0xFA1 JUMP JUMPDEST SWAP2 SWAP1 POP JUMP JUMPDEST PUSH0 PUSH2 0xFD1 DUP3 PUSH2 0xFB5 JUMP JUMPDEST SWAP1 POP SWAP2 SWAP1 POP JUMP JUMPDEST PUSH2 0xFE1 DUP2 PUSH2 0xFC7 JUMP JUMPDEST DUP3 MSTORE POP POP JUMP JUMPDEST PUSH0 PUSH1 0xE0 DUP3 ADD SWAP1 POP DUP2 DUP2 SUB PUSH0 DUP4 ADD MSTORE PUSH2 0xFFF DUP2 DUP11 PUSH2 0xEEE JUMP JUMPDEST SWAP1 POP PUSH2 0x100E PUSH1 0x20 DUP4 ADD DUP10 PUSH2 0xF26 JUMP JUMPDEST PUSH2 0x101B PUSH1 0x40 DUP4 ADD DUP9 PUSH2 0xF26 JUMP JUMPDEST PUSH2 0x1028 PUSH1 0x60 DUP4 ADD DUP8 PUSH2 0xF26 JUMP JUMPDEST PUSH2 0x1035 PUSH1 0x80 DUP4 ADD DUP7 PUSH2 0xF26 JUMP JUMPDEST PUSH2 0x1042 PUSH1 0xA0 DUP4 ADD DUP6 PUSH2 0xF65 JUMP JUMPDEST PUSH2 0x104F PUSH1 0xC0 DUP4 ADD DUP5 PUSH2 0xFD8 JUMP JUMPDEST SWAP9 SWAP8 POP POP POP POP POP POP POP POP JUMP JUMPDEST PUSH2 0x1064 DUP2 PUSH2 0xF54 JUMP JUMPDEST DUP2 EQ PUSH2 0x106E JUMPI PUSH0 DUP1 REVERT JUMPDEST POP JUMP JUMPDEST PUSH0 DUP2 CALLDATALOAD SWAP1 POP PUSH2 0x107F DUP2 PUSH2 0x105B JUMP JUMPDEST SWAP3 SWAP2 POP POP JUMP JUMPDEST PUSH0 DUP1 PUSH1 0x40 DUP4 DUP6 SUB SLT ISZERO PUSH2 0x109B JUMPI PUSH2 0x109A PUSH2 0xE50 JUMP JUMPDEST JUMPDEST PUSH0 PUSH2 0x10A8 DUP6 DUP3 DUP7 ADD PUSH2 0x1071 JUMP JUMPDEST SWAP3 POP POP PUSH1 0x20 PUSH2 0x10B9 DUP6 DUP3 DUP7 ADD PUSH2 0xE77 JUMP JUMPDEST SWAP2 POP POP SWAP3 POP SWAP3 SWAP1 POP JUMP JUMPDEST PUSH0 PUSH1 0x20 DUP3 ADD SWAP1 POP PUSH2 0x10D6 PUSH0 DUP4 ADD DUP5 PUSH2 0xF26 JUMP JUMPDEST SWAP3 SWAP2 POP POP JUMP JUMPDEST PUSH0 DUP2 MLOAD SWAP1 POP SWAP2 SWAP1 POP JUMP JUMPDEST PUSH0 DUP3 DUP3 MSTORE PUSH1 0x20 DUP3 ADD SWAP1 POP SWAP3 SWAP2 POP POP JUMP JUMPDEST PUSH0 DUP2 SWAP1 POP PUSH1 0x20 DUP3 ADD SWAP1 POP SWAP2 SWAP1 POP JUMP JUMPDEST PUSH0 DUP3 DUP3 MSTORE PUSH1 0x20 DUP3 ADD SWAP1 POP SWAP3 SWAP2 POP POP JUMP JUMPDEST PUSH0 PUSH2 0x111F DUP3 PUSH2 0xEB6 JUMP JUMPDEST PUSH2 0x1129 DUP2 DUP6 PUSH2 0x1105 JUMP JUMPDEST SWAP4 POP PUSH2 0x1139 DUP2 DUP6 PUSH1 0x20 DUP7 ADD PUSH2 0xED0 JUMP JUMPDEST PUSH2 0x1142 DUP2 PUSH2 0xEDE JUMP JUMPDEST DUP5 ADD SWAP2 POP POP SWAP3 SWAP2 POP POP JUMP JUMPDEST PUSH2 0x1156 DUP2 PUSH2 0xE58 JUMP JUMPDEST DUP3 MSTORE POP POP JUMP JUMPDEST PUSH2 0x1165 DUP2 PUSH2 0xF54 JUMP JUMPDEST DUP3 MSTORE POP POP JUMP JUMPDEST PUSH2 0x1174 DUP2 PUSH2 0xFC7 JUMP JUMPDEST DUP3 MSTORE POP POP JUMP JUMPDEST PUSH0 PUSH1 0xE0 DUP4 ADD PUSH0 DUP4 ADD MLOAD DUP5 DUP3 SUB PUSH0 DUP7 ADD MSTORE PUSH2 0x1194 DUP3 DUP3 PUSH2 0x1115 JUMP JUMPDEST SWAP2 POP POP PUSH1 0x20 DUP4 ADD MLOAD PUSH2 0x11A9 PUSH1 0x20 DUP7 ADD DUP3 PUSH2 0x114D JUMP JUMPDEST POP PUSH1 0x40 DUP4 ADD MLOAD PUSH2 0x11BC PUSH1 0x40 DUP7 ADD DUP3 PUSH2 0x114D JUMP JUMPDEST POP PUSH1 0x60 DUP4 ADD MLOAD PUSH2 0x11CF PUSH1 0x60 DUP7 ADD DUP3 PUSH2 0x114D JUMP JUMPDEST POP PUSH1 0x80 DUP4 ADD MLOAD PUSH2 0x11E2 PUSH1 0x80 DUP7 ADD DUP3 PUSH2 0x114D JUMP JUMPDEST POP PUSH1 0xA0 DUP4 ADD MLOAD PUSH2 0x11F5 PUSH1 0xA0 DUP7 ADD DUP3 PUSH2 0x115C JUMP JUMPDEST POP PUSH1 0xC0 DUP4 ADD MLOAD PUSH2 0x1208 PUSH1 0xC0 DUP7 ADD DUP3 PUSH2 0x116B JUMP JUMPDEST POP DUP1 SWAP2 POP POP SWAP3 SWAP2 POP POP JUMP JUMPDEST PUSH0 PUSH2 0x121E DUP4 DUP4 PUSH2 0x117A JUMP JUMPDEST SWAP1 POP SWAP3 SWAP2 POP POP JUMP JUMPDEST PUSH0 PUSH1 0x20 DUP3 ADD SWAP1 POP SWAP2 SWAP1 POP JUMP JUMPDEST PUSH0 PUSH2 0x123C DUP3 PUSH2 0x10DC JUMP JUMPDEST PUSH2 0x1246 DUP2 DUP6 PUSH2 0x10E6 JUMP JUMPDEST SWAP4 POP DUP4 PUSH1 0x20 DUP3 MUL DUP6 ADD PUSH2 0x1258 DUP6 PUSH2 0x10F6 JUMP JUMPDEST DUP1 PUSH0 JUMPDEST DUP6 DUP2 LT ISZERO PUSH2 0x1293 JUMPI DUP5 DUP5 SUB DUP10 MSTORE DUP2 MLOAD PUSH2 0x1274 DUP6 DUP3 PUSH2 0x1213 JUMP JUMPDEST SWAP5 POP PUSH2 0x127F DUP4 PUSH2 0x1226 JUMP JUMPDEST SWAP3 POP PUSH1 0x20 DUP11 ADD SWAP10 POP POP PUSH1 0x1 DUP2 ADD SWAP1 POP PUSH2 0x125B JUMP JUMPDEST POP DUP3 SWAP8 POP DUP8 SWAP6 POP POP POP POP POP POP SWAP3 SWAP2 POP POP JUMP JUMPDEST PUSH0 PUSH1 0x20 DUP3 ADD SWAP1 POP DUP2 DUP2 SUB PUSH0 DUP4 ADD MSTORE PUSH2 0x12BD DUP2 DUP5 PUSH2 0x1232 JUMP JUMPDEST SWAP1 POP SWAP3 SWAP2 POP POP JUMP JUMPDEST PUSH0 DUP1 REVERT JUMPDEST PUSH0 DUP1 REVERT JUMPDEST PUSH32 0x4E487B7100000000000000000000000000000000000000000000000000000000 PUSH0 MSTORE PUSH1 0x41 PUSH1 0x4 MSTORE PUSH1 0x24 PUSH0 REVERT JUMPDEST PUSH2 0x1303 DUP3 PUSH2 0xEDE JUMP JUMPDEST DUP2 ADD DUP2 DUP2 LT PUSH8 0xFFFFFFFFFFFFFFFF DUP3 GT OR ISZERO PUSH2 0x1322 JUMPI PUSH2 0x1321 PUSH2 0x12CD JUMP JUMPDEST JUMPDEST DUP1 PUSH1 0x40 MSTORE POP POP POP JUMP JUMPDEST PUSH0 PUSH2 0x1334 PUSH2 0xE47 JUMP JUMPDEST SWAP1 POP PUSH2 0x1340 DUP3 DUP3 PUSH2 0x12FA JUMP JUMPDEST SWAP2 SWAP1 POP JUMP JUMPDEST PUSH0 PUSH8 0xFFFFFFFFFFFFFFFF DUP3 GT ISZERO PUSH2 0x135F JUMPI PUSH2 0x135E PUSH2 0x12CD JUMP JUMPDEST JUMPDEST PUSH2 0x1368 DUP3 PUSH2 0xEDE JUMP JUMPDEST SWAP1 POP PUSH1 0x20 DUP2 ADD SWAP1 POP SWAP2 SWAP1 POP JUMP JUMPDEST DUP3 DUP2 DUP4 CALLDATACOPY PUSH0 DUP4 DUP4 ADD MSTORE POP POP POP JUMP JUMPDEST PUSH0 PUSH2 0x1395 PUSH2 0x1390 DUP5 PUSH2 0x1345 JUMP JUMPDEST PUSH2 0x132B JUMP JUMPDEST SWAP1 POP DUP3 DUP2 MSTORE PUSH1 0x20 DUP2 ADD DUP5 DUP5 DUP5 ADD GT ISZERO PUSH2 0x13B1 JUMPI PUSH2 0x13B0 PUSH2 0x12C9 JUMP JUMPDEST JUMPDEST PUSH2 0x13BC DUP5 DUP3 DUP6 PUSH2 0x1375 JUMP JUMPDEST POP SWAP4 SWAP3 POP POP POP JUMP JUMPDEST PUSH0 DUP3 PUSH1 0x1F DUP4 ADD SLT PUSH2 0x13D8 JUMPI PUSH2 0x13D7 PUSH2 0x12C5 JUMP JUMPDEST JUMPDEST DUP2 CALLDATALOAD PUSH2 0x13E8 DUP5 DUP3 PUSH1 0x20 DUP7 ADD PUSH2 0x1383 JUMP JUMPDEST SWAP2 POP POP SWAP3 SWAP2 POP POP JUMP JUMPDEST PUSH0 DUP1 PUSH0 PUSH1 0x60 DUP5 DUP7 SUB SLT ISZERO PUSH2 0x1408 JUMPI PUSH2 0x1407 PUSH2 0xE50 JUMP JUMPDEST JUMPDEST PUSH0 PUSH2 0x1415 DUP7 DUP3 DUP8 ADD PUSH2 0xE77 JUMP JUMPDEST SWAP4 POP POP PUSH1 0x20 PUSH2 0x1426 DUP7 DUP3 DUP8 ADD PUSH2 0xE77 JUMP JUMPDEST SWAP3 POP POP PUSH1 0x40 DUP5 ADD CALLDATALOAD PUSH8 0xFFFFFFFFFFFFFFFF DUP2 GT ISZERO PUSH2 0x1447 JUMPI PUSH2 0x1446 PUSH2 0xE54 JUMP JUMPDEST JUMPDEST PUSH2 0x1453 DUP7 DUP3 DUP8 ADD PUSH2 0x13C4 JUMP JUMPDEST SWAP2 POP POP SWAP3 POP SWAP3 POP SWAP3 JUMP JUMPDEST PUSH0 DUP1 PUSH1 0x40 DUP4 DUP6 SUB SLT ISZERO PUSH2 0x1473 JUMPI PUSH2 0x1472 PUSH2 0xE50 JUMP JUMPDEST JUMPDEST PUSH0 PUSH2 0x1480 DUP6 DUP3 DUP7 ADD PUSH2 0xE77 JUMP JUMPDEST SWAP3 POP POP PUSH1 0x20 PUSH2 0x1491 DUP6 DUP3 DUP7 ADD PUSH2 0xE77 JUMP JUMPDEST SWAP2 POP POP SWAP3 POP SWAP3 SWAP1 POP JUMP JUMPDEST PUSH0 PUSH1 0x20 DUP3 ADD SWAP1 POP PUSH2 0x14AE PUSH0 DUP4 ADD DUP5 PUSH2 0xF65 JUMP JUMPDEST SWAP3 SWAP2 POP POP JUMP JUMPDEST PUSH32 0x4E487B7100000000000000000000000000000000000000000000000000000000 PUSH0 MSTORE PUSH1 0x22 PUSH1 0x4 MSTORE PUSH1 0x24 PUSH0 REVERT JUMPDEST PUSH0 PUSH1 0x2 DUP3 DIV SWAP1 POP PUSH1 0x1 DUP3 AND DUP1 PUSH2 0x14F8 JUMPI PUSH1 0x7F DUP3 AND SWAP2 POP JUMPDEST PUSH1 0x20 DUP3 LT DUP2 SUB PUSH2 0x150B JUMPI PUSH2 0x150A PUSH2 0x14B4 JUMP JUMPDEST JUMPDEST POP SWAP2 SWAP1 POP JUMP JUMPDEST PUSH32 0x43616D706169676E20646F6573206E6F74206578697374000000000000000000 PUSH0 DUP3 ADD MSTORE POP JUMP JUMPDEST PUSH0 PUSH2 0x1545 PUSH1 0x17 DUP4 PUSH2 0xEC0 JUMP JUMPDEST SWAP2 POP PUSH2 0x1550 DUP3 PUSH2 0x1511 JUMP JUMPDEST PUSH1 0x20 DUP3 ADD SWAP1 POP SWAP2 SWAP1 POP JUMP JUMPDEST PUSH0 PUSH1 0x20 DUP3 ADD SWAP1 POP DUP2 DUP2 SUB PUSH0 DUP4 ADD MSTORE PUSH2 0x1572 DUP2 PUSH2 0x1539 JUMP JUMPDEST SWAP1 POP SWAP2 SWAP1 POP JUMP JUMPDEST PUSH32 0x4E487B7100000000000000000000000000000000000000000000000000000000 PUSH0 MSTORE PUSH1 0x32 PUSH1 0x4 MSTORE PUSH1 0x24 PUSH0 REVERT JUMPDEST PUSH32 0x4F6E6C79207468652063726561746F722063616E2063616E63656C2074686973 PUSH0 DUP3 ADD MSTORE PUSH32 0x2063616D706169676E0000000000000000000000000000000000000000000000 PUSH1 0x20 DUP3 ADD MSTORE POP JUMP JUMPDEST PUSH0 PUSH2 0x1600 PUSH1 0x29 DUP4 PUSH2 0xEC0 JUMP JUMPDEST SWAP2 POP PUSH2 0x160B DUP3 PUSH2 0x15A6 JUMP JUMPDEST PUSH1 0x40 DUP3 ADD SWAP1 POP SWAP2 SWAP1 POP JUMP JUMPDEST PUSH0 PUSH1 0x20 DUP3 ADD SWAP1 POP DUP2 DUP2 SUB PUSH0 DUP4 ADD MSTORE PUSH2 0x162D DUP2 PUSH2 0x15F4 JUMP JUMPDEST SWAP1 POP SWAP2 SWAP1 POP JUMP JUMPDEST PUSH32 0x43616D706169676E206973206E6F742061637469766500000000000000000000 PUSH0 DUP3 ADD MSTORE POP JUMP JUMPDEST PUSH0 PUSH2 0x1668 PUSH1 0x16 DUP4 PUSH2 0xEC0 JUMP JUMPDEST SWAP2 POP PUSH2 0x1673 DUP3 PUSH2 0x1634 JUMP JUMPDEST PUSH1 0x20 DUP3 ADD SWAP1 POP SWAP2 SWAP1 POP JUMP JUMPDEST PUSH0 PUSH1 0x20 DUP3 ADD SWAP1 POP DUP2 DUP2 SUB PUSH0 DUP4 ADD MSTORE PUSH2 0x1695 DUP2 PUSH2 0x165C JUMP JUMPDEST SWAP1 POP SWAP2 SWAP1 POP JUMP JUMPDEST PUSH0 DUP2 SWAP1 POP DUP2 PUSH0 MSTORE PUSH1 0x20 PUSH0 KECCAK256 SWAP1 POP SWAP2 SWAP1 POP JUMP JUMPDEST PUSH0 DUP2 SLOAD PUSH2 0x16BA DUP2 PUSH2 0x14E1 JUMP JUMPDEST PUSH2 0x16C4 DUP2 DUP7 PUSH2 0xEC0 JUMP JUMPDEST SWAP5 POP PUSH1 0x1 DUP3 AND PUSH0 DUP2 EQ PUSH2 0x16DE JUMPI PUSH1 0x1 DUP2 EQ PUSH2 0x16F4 JUMPI PUSH2 0x1726 JUMP JUMPDEST PUSH1 0xFF NOT DUP4 AND DUP7 MSTORE DUP2 ISZERO ISZERO PUSH1 0x20 MUL DUP7 ADD SWAP4 POP PUSH2 0x1726 JUMP JUMPDEST PUSH2 0x16FD DUP6 PUSH2 0x169C JUMP JUMPDEST PUSH0 JUMPDEST DUP4 DUP2 LT ISZERO PUSH2 0x171E JUMPI DUP2 SLOAD DUP2 DUP10 ADD MSTORE PUSH1 0x1 DUP3 ADD SWAP2 POP PUSH1 0x20 DUP2 ADD SWAP1 POP PUSH2 0x16FF JUMP JUMPDEST DUP1 DUP9 ADD SWAP6 POP POP POP JUMPDEST POP POP POP SWAP3 SWAP2 POP POP JUMP JUMPDEST PUSH0 PUSH1 0x40 DUP3 ADD SWAP1 POP PUSH2 0x1742 PUSH0 DUP4 ADD DUP6 PUSH2 0xF26 JUMP JUMPDEST DUP2 DUP2 SUB PUSH1 0x20 DUP4 ADD MSTORE PUSH2 0x1754 DUP2 DUP5 PUSH2 0x16AE JUMP JUMPDEST SWAP1 POP SWAP4 SWAP3 POP POP POP JUMP JUMPDEST PUSH32 0x436F6E747269627574696F6E206D757374206265206772656174657220746861 PUSH0 DUP3 ADD MSTORE PUSH32 0x6E20300000000000000000000000000000000000000000000000000000000000 PUSH1 0x20 DUP3 ADD MSTORE POP JUMP JUMPDEST PUSH0 PUSH2 0x17B7 PUSH1 0x23 DUP4 PUSH2 0xEC0 JUMP JUMPDEST SWAP2 POP PUSH2 0x17C2 DUP3 PUSH2 0x175D JUMP JUMPDEST PUSH1 0x40 DUP3 ADD SWAP1 POP SWAP2 SWAP1 POP JUMP JUMPDEST PUSH0 PUSH1 0x20 DUP3 ADD SWAP1 POP DUP2 DUP2 SUB PUSH0 DUP4 ADD MSTORE PUSH2 0x17E4 DUP2 PUSH2 0x17AB JUMP JUMPDEST SWAP1 POP SWAP2 SWAP1 POP JUMP JUMPDEST PUSH32 0x43616E206F6E6C7920636F6E7472696275746520746F20616374697665206361 PUSH0 DUP3 ADD MSTORE PUSH32 0x6D706169676E7300000000000000000000000000000000000000000000000000 PUSH1 0x20 DUP3 ADD MSTORE POP JUMP JUMPDEST PUSH0 PUSH2 0x1845 PUSH1 0x27 DUP4 PUSH2 0xEC0 JUMP JUMPDEST SWAP2 POP PUSH2 0x1850 DUP3 PUSH2 0x17EB JUMP JUMPDEST PUSH1 0x40 DUP3 ADD SWAP1 POP SWAP2 SWAP1 POP JUMP JUMPDEST PUSH0 PUSH1 0x20 DUP3 ADD SWAP1 POP DUP2 DUP2 SUB PUSH0 DUP4 ADD MSTORE PUSH2 0x1872 DUP2 PUSH2 0x1839 JUMP JUMPDEST SWAP1 POP SWAP2 SWAP1 POP JUMP JUMPDEST PUSH32 0x4E487B7100000000000000000000000000000000000000000000000000000000 PUSH0 MSTORE PUSH1 0x12 PUSH1 0x4 MSTORE PUSH1 0x24 PUSH0 REVERT JUMPDEST PUSH32 0x4E487B7100000000000000000000000000000000000000000000000000000000 PUSH0 MSTORE PUSH1 0x11 PUSH1 0x4 MSTORE PUSH1 0x24 PUSH0 REVERT JUMPDEST PUSH0 PUSH2 0x18DD DUP3 PUSH2 0xE58 JUMP JUMPDEST SWAP2 POP PUSH2 0x18E8 DUP4 PUSH2 0xE58 JUMP JUMPDEST SWAP3 POP DUP3 PUSH2 0x18F8 JUMPI PUSH2 0x18F7 PUSH2 0x1879 JUMP JUMPDEST JUMPDEST DUP3 DUP3 DIV SWAP1 POP SWAP3 SWAP2 POP POP JUMP JUMPDEST PUSH0 PUSH2 0x190D DUP3 PUSH2 0xE58 JUMP JUMPDEST SWAP2 POP PUSH2 0x1918 DUP4 PUSH2 0xE58 JUMP JUMPDEST SWAP3 POP DUP3 DUP3 ADD SWAP1 POP DUP1 DUP3 GT ISZERO PUSH2 0x1930 JUMPI PUSH2 0x192F PUSH2 0x18A6 JUMP JUMPDEST JUMPDEST SWAP3 SWAP2 POP POP JUMP JUMPDEST PUSH0 PUSH1 0x60 DUP3 ADD SWAP1 POP PUSH2 0x1949 PUSH0 DUP4 ADD DUP7 PUSH2 0xF26 JUMP JUMPDEST PUSH2 0x1956 PUSH1 0x20 DUP4 ADD DUP6 PUSH2 0xF26 JUMP JUMPDEST PUSH2 0x1963 PUSH1 0x40 DUP4 ADD DUP5 PUSH2 0xF65 JUMP JUMPDEST SWAP5 SWAP4 POP POP POP POP JUMP JUMPDEST PUSH32 0x54617267657420616D6F756E74206D7573742062652067726561746572207468 PUSH0 DUP3 ADD MSTORE PUSH32 0x616E207A65726F20000000000000000000000000000000000000000000000000 PUSH1 0x20 DUP3 ADD MSTORE POP JUMP JUMPDEST PUSH0 PUSH2 0x19C5 PUSH1 0x28 DUP4 PUSH2 0xEC0 JUMP JUMPDEST SWAP2 POP PUSH2 0x19D0 DUP3 PUSH2 0x196B JUMP JUMPDEST PUSH1 0x40 DUP3 ADD SWAP1 POP SWAP2 SWAP1 POP JUMP JUMPDEST PUSH0 PUSH1 0x20 DUP3 ADD SWAP1 POP DUP2 DUP2 SUB PUSH0 DUP4 ADD MSTORE PUSH2 0x19F2 DUP2 PUSH2 0x19B9 JUMP JUMPDEST SWAP1 POP SWAP2 SWAP1 POP JUMP JUMPDEST PUSH0 PUSH1 0x20 PUSH1 0x1F DUP4 ADD DIV SWAP1 POP SWAP2 SWAP1 POP JUMP JUMPDEST PUSH0 DUP3 DUP3 SHL SWAP1 POP SWAP3 SWAP2 POP POP JUMP JUMPDEST PUSH0 PUSH1 0x8 DUP4 MUL PUSH2 0x1A43 PUSH32 0xFFFFFFFFFFFFFFFFFFFFFFFFFFFFFFFFFFFFFFFFFFFFFFFFFFFFFFFFFFFFFFFF DUP3 PUSH2 0x1A08 JUMP JUMPDEST PUSH2 0x1A4D DUP7 DUP4 PUSH2 0x1A08 JUMP JUMPDEST SWAP6 POP DUP1 NOT DUP5 AND SWAP4 POP DUP1 DUP7 AND DUP5 OR SWAP3 POP POP POP SWAP4 SWAP3 POP POP POP JUMP JUMPDEST PUSH0 DUP2 SWAP1 POP SWAP2 SWAP1 POP JUMP JUMPDEST PUSH0 PUSH2 0x1A88 PUSH2 0x1A83 PUSH2 0x1A7E DUP5 PUSH2 0xE58 JUMP JUMPDEST PUSH2 0x1A65 JUMP JUMPDEST PUSH2 0xE58 JUMP JUMPDEST SWAP1 POP SWAP2 SWAP1 POP JUMP JUMPDEST PUSH0 DUP2 SWAP1 POP SWAP2 SWAP1 POP JUMP JUMPDEST PUSH2 0x1AA1 DUP4 PUSH2 0x1A6E JUMP JUMPDEST PUSH2 0x1AB5 PUSH2 0x1AAD DUP3 PUSH2 0x1A8F JUMP JUMPDEST DUP5 DUP5 SLOAD PUSH2 0x1A14 JUMP JUMPDEST DUP3 SSTORE POP POP POP POP JUMP JUMPDEST PUSH0 SWAP1 JUMP JUMPDEST PUSH2 0x1AC9 PUSH2 0x1ABD JUMP JUMPDEST PUSH2 0x1AD4 DUP2 DUP5 DUP5 PUSH2 0x1A98 JUMP JUMPDEST POP POP POP JUMP JUMPDEST JUMPDEST DUP2 DUP2 LT ISZERO PUSH2 0x1AF7 JUMPI PUSH2 0x1AEC PUSH0 DUP3 PUSH2 0x1AC1 JUMP JUMPDEST PUSH1 0x1 DUP2 ADD SWAP1 POP PUSH2 0x1ADA JUMP JUMPDEST POP POP JUMP JUMPDEST PUSH1 0x1F DUP3 GT ISZERO PUSH2 0x1B3C JUMPI PUSH2 0x1B0D DUP2 PUSH2 0x169C JUMP JUMPDEST PUSH2 0x1B16 DUP5 PUSH2 0x19F9 JUMP JUMPDEST DUP2 ADD PUSH1 0x20 DUP6 LT ISZERO PUSH2 0x1B25 JUMPI DUP2 SWAP1 POP JUMPDEST PUSH2 0x1B39 PUSH2 0x1B31 DUP6 PUSH2 0x19F9 JUMP JUMPDEST DUP4 ADD DUP3 PUSH2 0x1AD9 JUMP JUMPDEST POP POP JUMPDEST POP POP POP JUMP JUMPDEST PUSH0 DUP3 DUP3 SHR SWAP1 POP SWAP3 SWAP2 POP POP JUMP JUMPDEST PUSH0 PUSH2 0x1B5C PUSH0 NOT DUP5 PUSH1 0x8 MUL PUSH2 0x1B41 JUMP JUMPDEST NOT DUP1 DUP4 AND SWAP2 POP POP SWAP3 SWAP2 POP POP JUMP JUMPDEST PUSH0 PUSH2 0x1B74 DUP4 DUP4 PUSH2 0x1B4D JUMP JUMPDEST SWAP2 POP DUP3 PUSH1 0x2 MUL DUP3 OR SWAP1 POP SWAP3 SWAP2 POP POP JUMP JUMPDEST PUSH2 0x1B8D DUP3 PUSH2 0xEB6 JUMP JUMPDEST PUSH8 0xFFFFFFFFFFFFFFFF DUP2 GT ISZERO PUSH2 0x1BA6 JUMPI PUSH2 0x1BA5 PUSH2 0x12CD JUMP JUMPDEST JUMPDEST PUSH2 0x1BB0 DUP3 SLOAD PUSH2 0x14E1 JUMP JUMPDEST PUSH2 0x1BBB DUP3 DUP3 DUP6 PUSH2 0x1AFB JUMP JUMPDEST PUSH0 PUSH1 0x20 SWAP1 POP PUSH1 0x1F DUP4 GT PUSH1 0x1 DUP2 EQ PUSH2 0x1BEC JUMPI PUSH0 DUP5 ISZERO PUSH2 0x1BDA JUMPI DUP3 DUP8 ADD MLOAD SWAP1 POP JUMPDEST PUSH2 0x1BE4 DUP6 DUP3 PUSH2 0x1B69 JUMP JUMPDEST DUP7 SSTORE POP PUSH2 0x1C4B JUMP JUMPDEST PUSH1 0x1F NOT DUP5 AND PUSH2 0x1BFA DUP7 PUSH2 0x169C JUMP JUMPDEST PUSH0 JUMPDEST DUP3 DUP2 LT ISZERO PUSH2 0x1C21 JUMPI DUP5 DUP10 ADD MLOAD DUP3 SSTORE PUSH1 0x1 DUP3 ADD SWAP2 POP PUSH1 0x20 DUP6 ADD SWAP5 POP PUSH1 0x20 DUP2 ADD SWAP1 POP PUSH2 0x1BFC JUMP JUMPDEST DUP7 DUP4 LT ISZERO PUSH2 0x1C3E JUMPI DUP5 DUP10 ADD MLOAD PUSH2 0x1C3A PUSH1 0x1F DUP10 AND DUP3 PUSH2 0x1B4D JUMP JUMPDEST DUP4 SSTORE POP JUMPDEST PUSH1 0x1 PUSH1 0x2 DUP9 MUL ADD DUP9 SSTORE POP POP POP JUMPDEST POP POP POP POP POP POP JUMP JUMPDEST PUSH0 PUSH1 0x80 DUP3 ADD SWAP1 POP PUSH2 0x1C66 PUSH0 DUP4 ADD DUP8 PUSH2 0xF26 JUMP JUMPDEST DUP2 DUP2 SUB PUSH1 0x20 DUP4 ADD MSTORE PUSH2 0x1C78 DUP2 DUP7 PUSH2 0xEEE JUMP JUMPDEST SWAP1 POP PUSH2 0x1C87 PUSH1 0x40 DUP4 ADD DUP6 PUSH2 0xF26 JUMP JUMPDEST PUSH2 0x1C94 PUSH1 0x60 DUP4 ADD DUP5 PUSH2 0xF26 JUMP JUMPDEST SWAP6 SWAP5 POP POP POP POP POP JUMP INVALID LOG2 PUSH5 0x6970667358 0x22 SLT KECCAK256 CALLCODE BLOCKHASH 0xA5 DUP4 EQ DUP3 PUSH10 0xBB6F1144AF7E23A53437 0x4B PUSH15 0x94E74C8D5ED5DE9A13EEAB410B6473 PUSH16 0x6C634300081A00330000000000000000 "
				},
				"gasEstimates": {
					"creation": {
						"codeDepositCost": "1475800",
						"executionCost": "1539",
						"totalCost": "1477339"
					},
					"external": {
						"campaigns(uint256)": "infinite",
						"campaignsByContributor(address,uint256)": "infinite",
						"cancelCampaign(uint256)": "infinite",
						"contribute(address,uint256)": "infinite",
						"contributorsByCampaignId(uint256,uint256)": "infinite",
						"getCampaigns()": "infinite",
						"setCampaign(uint256,uint256,string)": "infinite"
					}
				},
				"methodIdentifiers": {
					"campaigns(uint256)": "141961bc",
					"campaignsByContributor(address,uint256)": "4d2ebe8d",
					"cancelCampaign(uint256)": "45598b4a",
					"contribute(address,uint256)": "8418cd99",
					"contributorsByCampaignId(uint256,uint256)": "e543fd50",
					"getCampaigns()": "a6b03633",
					"setCampaign(uint256,uint256,string)": "ace6e3c6"
				}
			},
			"storageLayout": {
				"storage": [
					{
						"astId": 49,
						"contract": "back/contracts/campaigns.sol:Campaigns",
						"label": "campaigns",
						"offset": 0,
						"slot": "0",
						"type": "t_array(t_struct(Campaign)21_storage)dyn_storage"
					},
					{
						"astId": 54,
						"contract": "back/contracts/campaigns.sol:Campaigns",
						"label": "contributorsByCampaignId",
						"offset": 0,
						"slot": "1",
						"type": "t_mapping(t_uint256,t_array(t_address)dyn_storage)"
					},
					{
						"astId": 60,
						"contract": "back/contracts/campaigns.sol:Campaigns",
						"label": "campaignsByContributor",
						"offset": 0,
						"slot": "2",
						"type": "t_mapping(t_address,t_mapping(t_uint256,t_uint256))"
					}
				],
				"types": {
					"t_address": {
						"encoding": "inplace",
						"label": "address",
						"numberOfBytes": "20"
					},
					"t_array(t_address)dyn_storage": {
						"base": "t_address",
						"encoding": "dynamic_array",
						"label": "address[]",
						"numberOfBytes": "32"
					},
					"t_array(t_struct(Campaign)21_storage)dyn_storage": {
						"base": "t_struct(Campaign)21_storage",
						"encoding": "dynamic_array",
						"label": "struct Campaigns.Campaign[]",
						"numberOfBytes": "32"
					},
					"t_enum(CampaignState)5": {
						"encoding": "inplace",
						"label": "enum Campaigns.CampaignState",
						"numberOfBytes": "1"
					},
					"t_mapping(t_address,t_mapping(t_uint256,t_uint256))": {
						"encoding": "mapping",
						"key": "t_address",
						"label": "mapping(address => mapping(uint256 => uint256))",
						"numberOfBytes": "32",
						"value": "t_mapping(t_uint256,t_uint256)"
					},
					"t_mapping(t_uint256,t_array(t_address)dyn_storage)": {
						"encoding": "mapping",
						"key": "t_uint256",
						"label": "mapping(uint256 => address[])",
						"numberOfBytes": "32",
						"value": "t_array(t_address)dyn_storage"
					},
					"t_mapping(t_uint256,t_uint256)": {
						"encoding": "mapping",
						"key": "t_uint256",
						"label": "mapping(uint256 => uint256)",
						"numberOfBytes": "32",
						"value": "t_uint256"
					},
					"t_string_storage": {
						"encoding": "bytes",
						"label": "string",
						"numberOfBytes": "32"
					},
					"t_struct(Campaign)21_storage": {
						"encoding": "inplace",
						"label": "struct Campaigns.Campaign",
						"members": [
							{
								"astId": 7,
								"contract": "back/contracts/campaigns.sol:Campaigns",
								"label": "name",
								"offset": 0,
								"slot": "0",
								"type": "t_string_storage"
							},
							{
								"astId": 9,
								"contract": "back/contracts/campaigns.sol:Campaigns",
								"label": "target_amount",
								"offset": 0,
								"slot": "1",
								"type": "t_uint256"
							},
							{
								"astId": 11,
								"contract": "back/contracts/campaigns.sol:Campaigns",
								"label": "current_amount",
								"offset": 0,
								"slot": "2",
								"type": "t_uint256"
							},
							{
								"astId": 13,
								"contract": "back/contracts/campaigns.sol:Campaigns",
								"label": "deadline",
								"offset": 0,
								"slot": "3",
								"type": "t_uint256"
							},
							{
								"astId": 15,
								"contract": "back/contracts/campaigns.sol:Campaigns",
								"label": "creationDate",
								"offset": 0,
								"slot": "4",
								"type": "t_uint256"
							},
							{
								"astId": 17,
								"contract": "back/contracts/campaigns.sol:Campaigns",
								"label": "creator",
								"offset": 0,
								"slot": "5",
								"type": "t_address"
							},
							{
								"astId": 20,
								"contract": "back/contracts/campaigns.sol:Campaigns",
								"label": "state",
								"offset": 20,
								"slot": "5",
								"type": "t_enum(CampaignState)5"
							}
						],
						"numberOfBytes": "192"
					},
					"t_uint256": {
						"encoding": "inplace",
						"label": "uint256",
						"numberOfBytes": "32"
					}
				}
			},
			"userdoc": {
				"kind": "user",
				"methods": {},
				"version": 1
			}
		}
	}
}