{
	"back/contracts/campaigns.sol": {
		"Campaigns": {
			"abi": [
				{
					"anonymous": false,
					"inputs": [
						{
							"indexed": false,
							"internalType": "uint256",
							"name": "campaignId",
							"type": "uint256"
						},
						{
							"indexed": false,
							"internalType": "string",
							"name": "name",
							"type": "string"
						}
					],
					"name": "CampaignCancelled",
					"type": "event"
				},
				{
					"anonymous": false,
					"inputs": [
						{
							"indexed": false,
							"internalType": "uint256",
							"name": "campaignId",
							"type": "uint256"
						},
						{
							"indexed": false,
							"internalType": "uint256",
							"name": "amount",
							"type": "uint256"
						},
						{
							"indexed": false,
							"internalType": "address",
							"name": "contributor",
							"type": "address"
						}
					],
					"name": "ContributionReceived",
					"type": "event"
				},
				{
					"anonymous": false,
					"inputs": [
						{
							"indexed": false,
							"internalType": "uint256",
							"name": "campaignId",
							"type": "uint256"
						},
						{
							"indexed": false,
							"internalType": "string",
							"name": "name",
							"type": "string"
						},
						{
							"indexed": false,
							"internalType": "uint256",
							"name": "target_amount",
							"type": "uint256"
						},
						{
							"indexed": false,
							"internalType": "uint256",
							"name": "_days_deadline",
							"type": "uint256"
						}
					],
					"name": "NewCampaign",
					"type": "event"
				},
				{
					"inputs": [
						{
							"internalType": "uint256",
							"name": "",
							"type": "uint256"
						}
					],
					"name": "campaigns",
					"outputs": [
						{
							"internalType": "string",
							"name": "name",
							"type": "string"
						},
						{
							"internalType": "uint256",
							"name": "target_amount",
							"type": "uint256"
						},
						{
							"internalType": "uint256",
							"name": "current_amount",
							"type": "uint256"
						},
						{
							"internalType": "uint256",
							"name": "deadline",
							"type": "uint256"
						},
						{
							"internalType": "uint256",
							"name": "creationDate",
							"type": "uint256"
						},
						{
							"internalType": "address",
							"name": "creator",
							"type": "address"
						},
						{
							"internalType": "enum Campaigns.CampaignState",
							"name": "state",
							"type": "uint8"
						}
					],
					"stateMutability": "view",
					"type": "function"
				},
				{
					"inputs": [
						{
							"internalType": "address",
							"name": "",
							"type": "address"
						},
						{
							"internalType": "uint256",
							"name": "",
							"type": "uint256"
						}
					],
					"name": "campaignsByContributor",
					"outputs": [
						{
							"internalType": "uint256",
							"name": "",
							"type": "uint256"
						}
					],
					"stateMutability": "view",
					"type": "function"
				},
				{
					"inputs": [
						{
							"internalType": "uint256",
							"name": "_campaignId",
							"type": "uint256"
						}
					],
					"name": "cancelCampaign",
					"outputs": [],
					"stateMutability": "nonpayable",
					"type": "function"
				},
				{
					"inputs": [
						{
							"internalType": "address",
							"name": "_contributor",
							"type": "address"
						},
						{
							"internalType": "uint256",
							"name": "_campaignId",
							"type": "uint256"
						}
					],
					"name": "contribute",
					"outputs": [],
					"stateMutability": "payable",
					"type": "function"
				},
				{
					"inputs": [
						{
							"internalType": "uint256",
							"name": "",
							"type": "uint256"
						},
						{
							"internalType": "uint256",
							"name": "",
							"type": "uint256"
						}
					],
					"name": "contributorsByCampaignId",
					"outputs": [
						{
							"internalType": "address",
							"name": "",
							"type": "address"
						}
					],
					"stateMutability": "view",
					"type": "function"
				},
				{
					"inputs": [],
					"name": "getCampaigns",
					"outputs": [
						{
							"components": [
								{
									"internalType": "string",
									"name": "name",
									"type": "string"
								},
								{
									"internalType": "uint256",
									"name": "target_amount",
									"type": "uint256"
								},
								{
									"internalType": "uint256",
									"name": "current_amount",
									"type": "uint256"
								},
								{
									"internalType": "uint256",
									"name": "deadline",
									"type": "uint256"
								},
								{
									"internalType": "uint256",
									"name": "creationDate",
									"type": "uint256"
								},
								{
									"internalType": "address",
									"name": "creator",
									"type": "address"
								},
								{
									"internalType": "enum Campaigns.CampaignState",
									"name": "state",
									"type": "uint8"
								}
							],
							"internalType": "struct Campaigns.Campaign[]",
							"name": "",
							"type": "tuple[]"
						}
					],
					"stateMutability": "view",
					"type": "function"
				},
				{
					"inputs": [
						{
							"internalType": "address",
							"name": "contributor",
							"type": "address"
						}
					],
					"name": "getContributions",
					"outputs": [
						{
							"components": [
								{
									"internalType": "string",
									"name": "name",
									"type": "string"
								},
								{
									"internalType": "uint256",
									"name": "target_amount",
									"type": "uint256"
								},
								{
									"internalType": "uint256",
									"name": "current_amount",
									"type": "uint256"
								},
								{
									"internalType": "uint256",
									"name": "deadline",
									"type": "uint256"
								},
								{
									"internalType": "uint256",
									"name": "creationDate",
									"type": "uint256"
								},
								{
									"internalType": "address",
									"name": "creator",
									"type": "address"
								},
								{
									"internalType": "enum Campaigns.CampaignState",
									"name": "state",
									"type": "uint8"
								}
							],
							"internalType": "struct Campaigns.Campaign[]",
							"name": "",
							"type": "tuple[]"
						},
						{
							"internalType": "uint256[]",
							"name": "",
							"type": "uint256[]"
						}
					],
					"stateMutability": "view",
					"type": "function"
				},
				{
					"inputs": [
						{
							"internalType": "uint256",
							"name": "_target_amount",
							"type": "uint256"
						},
						{
							"internalType": "uint256",
							"name": "_days_deadline",
							"type": "uint256"
						},
						{
							"internalType": "string",
							"name": "_name",
							"type": "string"
						}
					],
					"name": "setCampaign",
					"outputs": [],
					"stateMutability": "nonpayable",
					"type": "function"
				}
			],
			"devdoc": {
				"kind": "dev",
				"methods": {},
				"version": 1
			},
			"evm": {
				"assembly": "    /* \"back/contracts/campaigns.sol\":57:4233  contract Campaigns {... */\n  mstore(0x40, 0x80)\n  callvalue\n  dup1\n  iszero\n  tag_1\n  jumpi\n  0x00\n  dup1\n  revert\ntag_1:\n  pop\n  dataSize(sub_0)\n  dup1\n  dataOffset(sub_0)\n  0x00\n  codecopy\n  0x00\n  return\nstop\n\nsub_0: assembly {\n        /* \"back/contracts/campaigns.sol\":57:4233  contract Campaigns {... */\n      mstore(0x40, 0x80)\n      jumpi(tag_1, lt(calldatasize, 0x04))\n      shr(0xe0, calldataload(0x00))\n      dup1\n      0x8418cd99\n      gt\n      tag_10\n      jumpi\n      dup1\n      0x8418cd99\n      eq\n      tag_6\n      jumpi\n      dup1\n      0xa6b03633\n      eq\n      tag_7\n      jumpi\n      dup1\n      0xace6e3c6\n      eq\n      tag_8\n      jumpi\n      dup1\n      0xe543fd50\n      eq\n      tag_9\n      jumpi\n      jump(tag_1)\n    tag_10:\n      dup1\n      0x141961bc\n      eq\n      tag_2\n      jumpi\n      dup1\n      0x3f19d043\n      eq\n      tag_3\n      jumpi\n      dup1\n      0x45598b4a\n      eq\n      tag_4\n      jumpi\n      dup1\n      0x4d2ebe8d\n      eq\n      tag_5\n      jumpi\n    tag_1:\n      0x00\n      dup1\n      revert\n        /* \"back/contracts/campaigns.sol\":584:611  Campaign[] public campaigns */\n    tag_2:\n      callvalue\n      dup1\n      iszero\n      tag_11\n      jumpi\n      0x00\n      dup1\n      revert\n    tag_11:\n      pop\n      tag_12\n      0x04\n      dup1\n      calldatasize\n      sub\n      dup2\n      add\n      swap1\n      tag_13\n      swap2\n      swap1\n      tag_14\n      jump\t// in\n    tag_13:\n      tag_15\n      jump\t// in\n    tag_12:\n      mload(0x40)\n      tag_16\n      swap8\n      swap7\n      swap6\n      swap5\n      swap4\n      swap3\n      swap2\n      swap1\n      tag_17\n      jump\t// in\n    tag_16:\n      mload(0x40)\n      dup1\n      swap2\n      sub\n      swap1\n      return\n        /* \"back/contracts/campaigns.sol\":2352:3264  function getContributions(address contributor) public view returns (Campaign[] memory, uint[] memory) {... */\n    tag_3:\n      callvalue\n      dup1\n      iszero\n      tag_18\n      jumpi\n      0x00\n      dup1\n      revert\n    tag_18:\n      pop\n      tag_19\n      0x04\n      dup1\n      calldatasize\n      sub\n      dup2\n      add\n      swap1\n      tag_20\n      swap2\n      swap1\n      tag_21\n      jump\t// in\n    tag_20:\n      tag_22\n      jump\t// in\n    tag_19:\n      mload(0x40)\n      tag_23\n      swap3\n      swap2\n      swap1\n      tag_24\n      jump\t// in\n    tag_23:\n      mload(0x40)\n      dup1\n      swap2\n      sub\n      swap1\n      return\n        /* \"back/contracts/campaigns.sol\":3422:4231  function cancelCampaign(uint _campaignId) public {... */\n    tag_4:\n      callvalue\n      dup1\n      iszero\n      tag_25\n      jumpi\n      0x00\n      dup1\n      revert\n    tag_25:\n      pop\n      tag_26\n      0x04\n      dup1\n      calldatasize\n      sub\n      dup2\n      add\n      swap1\n      tag_27\n      swap2\n      swap1\n      tag_14\n      jump\t// in\n    tag_27:\n      tag_28\n      jump\t// in\n    tag_26:\n      stop\n        /* \"back/contracts/campaigns.sol\":685:756  mapping(address => mapping(uint => uint)) public campaignsByContributor */\n    tag_5:\n      callvalue\n      dup1\n      iszero\n      tag_29\n      jumpi\n      0x00\n      dup1\n      revert\n    tag_29:\n      pop\n      tag_30\n      0x04\n      dup1\n      calldatasize\n      sub\n      dup2\n      add\n      swap1\n      tag_31\n      swap2\n      swap1\n      tag_32\n      jump\t// in\n    tag_31:\n      tag_33\n      jump\t// in\n    tag_30:\n      mload(0x40)\n      tag_34\n      swap2\n      swap1\n      tag_35\n      jump\t// in\n    tag_34:\n      mload(0x40)\n      dup1\n      swap2\n      sub\n      swap1\n      return\n        /* \"back/contracts/campaigns.sol\":1555:2346  function contribute(address _contributor, uint _campaignId) external payable { ... */\n    tag_6:\n      tag_36\n      0x04\n      dup1\n      calldatasize\n      sub\n      dup2\n      add\n      swap1\n      tag_37\n      swap2\n      swap1\n      tag_32\n      jump\t// in\n    tag_37:\n      tag_38\n      jump\t// in\n    tag_36:\n      stop\n        /* \"back/contracts/campaigns.sol\":1247:1549  function getCampaigns() public view returns ( Campaign[] memory) {... */\n    tag_7:\n      callvalue\n      dup1\n      iszero\n      tag_39\n      jumpi\n      0x00\n      dup1\n      revert\n    tag_39:\n      pop\n      tag_40\n      tag_41\n      jump\t// in\n    tag_40:\n      mload(0x40)\n      tag_42\n      swap2\n      swap1\n      tag_43\n      jump\t// in\n    tag_42:\n      mload(0x40)\n      dup1\n      swap2\n      sub\n      swap1\n      return\n        /* \"back/contracts/campaigns.sol\":767:1241  function setCampaign(uint _target_amount, uint _days_deadline, string memory _name) public {... */\n    tag_8:\n      callvalue\n      dup1\n      iszero\n      tag_44\n      jumpi\n      0x00\n      dup1\n      revert\n    tag_44:\n      pop\n      tag_45\n      0x04\n      dup1\n      calldatasize\n      sub\n      dup2\n      add\n      swap1\n      tag_46\n      swap2\n      swap1\n      tag_47\n      jump\t// in\n    tag_46:\n      tag_48\n      jump\t// in\n    tag_45:\n      stop\n        /* \"back/contracts/campaigns.sol\":617:675  mapping(uint => address[]) public contributorsByCampaignId */\n    tag_9:\n      callvalue\n      dup1\n      iszero\n      tag_49\n      jumpi\n      0x00\n      dup1\n      revert\n    tag_49:\n      pop\n      tag_50\n      0x04\n      dup1\n      calldatasize\n      sub\n      dup2\n      add\n      swap1\n      tag_51\n      swap2\n      swap1\n      tag_52\n      jump\t// in\n    tag_51:\n      tag_53\n      jump\t// in\n    tag_50:\n      mload(0x40)\n      tag_54\n      swap2\n      swap1\n      tag_55\n      jump\t// in\n    tag_54:\n      mload(0x40)\n      dup1\n      swap2\n      sub\n      swap1\n      return\n        /* \"back/contracts/campaigns.sol\":584:611  Campaign[] public campaigns */\n    tag_15:\n      0x00\n      dup2\n      dup2\n      sload\n      dup2\n      lt\n      tag_56\n      jumpi\n      0x00\n      dup1\n      revert\n    tag_56:\n      swap1\n      0x00\n      mstore\n      keccak256(0x00, 0x20)\n      swap1\n      0x06\n      mul\n      add\n      0x00\n      swap2\n      pop\n      swap1\n      pop\n      dup1\n      0x00\n      add\n      dup1\n      sload\n      tag_58\n      swap1\n      tag_59\n      jump\t// in\n    tag_58:\n      dup1\n      0x1f\n      add\n      0x20\n      dup1\n      swap2\n      div\n      mul\n      0x20\n      add\n      mload(0x40)\n      swap1\n      dup2\n      add\n      0x40\n      mstore\n      dup1\n      swap3\n      swap2\n      swap1\n      dup2\n      dup2\n      mstore\n      0x20\n      add\n      dup3\n      dup1\n      sload\n      tag_60\n      swap1\n      tag_59\n      jump\t// in\n    tag_60:\n      dup1\n      iszero\n      tag_61\n      jumpi\n      dup1\n      0x1f\n      lt\n      tag_62\n      jumpi\n      0x0100\n      dup1\n      dup4\n      sload\n      div\n      mul\n      dup4\n      mstore\n      swap2\n      0x20\n      add\n      swap2\n      jump(tag_61)\n    tag_62:\n      dup3\n      add\n      swap2\n      swap1\n      0x00\n      mstore\n      keccak256(0x00, 0x20)\n      swap1\n    tag_63:\n      dup2\n      sload\n      dup2\n      mstore\n      swap1\n      0x01\n      add\n      swap1\n      0x20\n      add\n      dup1\n      dup4\n      gt\n      tag_63\n      jumpi\n      dup3\n      swap1\n      sub\n      0x1f\n      and\n      dup3\n      add\n      swap2\n    tag_61:\n      pop\n      pop\n      pop\n      pop\n      pop\n      swap1\n      dup1\n      0x01\n      add\n      sload\n      swap1\n      dup1\n      0x02\n      add\n      sload\n      swap1\n      dup1\n      0x03\n      add\n      sload\n      swap1\n      dup1\n      0x04\n      add\n      sload\n      swap1\n      dup1\n      0x05\n      add\n      0x00\n      swap1\n      sload\n      swap1\n      0x0100\n      exp\n      swap1\n      div\n      0xffffffffffffffffffffffffffffffffffffffff\n      and\n      swap1\n      dup1\n      0x05\n      add\n      0x14\n      swap1\n      sload\n      swap1\n      0x0100\n      exp\n      swap1\n      div\n      0xff\n      and\n      swap1\n      pop\n      dup8\n      jump\t// out\n        /* \"back/contracts/campaigns.sol\":2352:3264  function getContributions(address contributor) public view returns (Campaign[] memory, uint[] memory) {... */\n    tag_22:\n        /* \"back/contracts/campaigns.sol\":2420:2437  Campaign[] memory */\n      0x60\n        /* \"back/contracts/campaigns.sol\":2439:2452  uint[] memory */\n      dup1\n        /* \"back/contracts/campaigns.sol\":2464:2487  uint contributionsCount */\n      0x00\n        /* \"back/contracts/campaigns.sol\":2505:2511  uint i */\n      dup1\n        /* \"back/contracts/campaigns.sol\":2501:2668  for(uint i = 0; i < campaigns.length; i++) {... */\n    tag_65:\n        /* \"back/contracts/campaigns.sol\":2521:2530  campaigns */\n      0x00\n        /* \"back/contracts/campaigns.sol\":2521:2537  campaigns.length */\n      dup1\n      sload\n      swap1\n      pop\n        /* \"back/contracts/campaigns.sol\":2517:2518  i */\n      dup2\n        /* \"back/contracts/campaigns.sol\":2517:2537  i < campaigns.length */\n      lt\n        /* \"back/contracts/campaigns.sol\":2501:2668  for(uint i = 0; i < campaigns.length; i++) {... */\n      iszero\n      tag_66\n      jumpi\n        /* \"back/contracts/campaigns.sol\":2602:2603  0 */\n      0x00\n        /* \"back/contracts/campaigns.sol\":2561:2583  campaignsByContributor */\n      0x02\n        /* \"back/contracts/campaigns.sol\":2561:2596  campaignsByContributor[contributor] */\n      0x00\n        /* \"back/contracts/campaigns.sol\":2584:2595  contributor */\n      dup8\n        /* \"back/contracts/campaigns.sol\":2561:2596  campaignsByContributor[contributor] */\n      0xffffffffffffffffffffffffffffffffffffffff\n      and\n      0xffffffffffffffffffffffffffffffffffffffff\n      and\n      dup2\n      mstore\n      0x20\n      add\n      swap1\n      dup2\n      mstore\n      0x20\n      add\n      0x00\n      keccak256\n        /* \"back/contracts/campaigns.sol\":2561:2599  campaignsByContributor[contributor][i] */\n      0x00\n        /* \"back/contracts/campaigns.sol\":2597:2598  i */\n      dup4\n        /* \"back/contracts/campaigns.sol\":2561:2599  campaignsByContributor[contributor][i] */\n      dup2\n      mstore\n      0x20\n      add\n      swap1\n      dup2\n      mstore\n      0x20\n      add\n      0x00\n      keccak256\n      sload\n        /* \"back/contracts/campaigns.sol\":2561:2603  campaignsByContributor[contributor][i] > 0 */\n      gt\n        /* \"back/contracts/campaigns.sol\":2558:2658  if(campaignsByContributor[contributor][i] > 0) {... */\n      iszero\n      tag_68\n      jumpi\n        /* \"back/contracts/campaigns.sol\":2623:2643  contributionsCount++ */\n      dup2\n      dup1\n      tag_69\n      swap1\n      tag_70\n      jump\t// in\n    tag_69:\n      swap3\n      pop\n      pop\n        /* \"back/contracts/campaigns.sol\":2558:2658  if(campaignsByContributor[contributor][i] > 0) {... */\n    tag_68:\n        /* \"back/contracts/campaigns.sol\":2539:2542  i++ */\n      dup1\n      dup1\n      0x01\n      add\n      swap2\n      pop\n      pop\n        /* \"back/contracts/campaigns.sol\":2501:2668  for(uint i = 0; i < campaigns.length; i++) {... */\n      jump(tag_65)\n    tag_66:\n      pop\n        /* \"back/contracts/campaigns.sol\":2678:2716  Campaign[] memory contributorCampaigns */\n      0x00\n        /* \"back/contracts/campaigns.sol\":2734:2752  contributionsCount */\n      dup2\n        /* \"back/contracts/campaigns.sol\":2719:2753  new Campaign[](contributionsCount) */\n      0xffffffffffffffff\n      dup2\n      gt\n      iszero\n      tag_71\n      jumpi\n      tag_72\n      tag_73\n      jump\t// in\n    tag_72:\n    tag_71:\n      mload(0x40)\n      swap1\n      dup1\n      dup3\n      mstore\n      dup1\n      0x20\n      mul\n      0x20\n      add\n      dup3\n      add\n      0x40\n      mstore\n      dup1\n      iszero\n      tag_74\n      jumpi\n      dup2\n      0x20\n      add\n    tag_75:\n      tag_76\n      tag_77\n      jump\t// in\n    tag_76:\n      dup2\n      mstore\n      0x20\n      add\n      swap1\n      0x01\n      swap1\n      sub\n      swap1\n      dup2\n      tag_75\n      jumpi\n      swap1\n      pop\n    tag_74:\n      pop\n        /* \"back/contracts/campaigns.sol\":2678:2753  Campaign[] memory contributorCampaigns = new Campaign[](contributionsCount) */\n      swap1\n      pop\n        /* \"back/contracts/campaigns.sol\":2763:2795  uint[] memory contributorAmounts */\n      0x00\n        /* \"back/contracts/campaigns.sol\":2809:2827  contributionsCount */\n      dup3\n        /* \"back/contracts/campaigns.sol\":2798:2828  new uint[](contributionsCount) */\n      0xffffffffffffffff\n      dup2\n      gt\n      iszero\n      tag_78\n      jumpi\n      tag_79\n      tag_73\n      jump\t// in\n    tag_79:\n    tag_78:\n      mload(0x40)\n      swap1\n      dup1\n      dup3\n      mstore\n      dup1\n      0x20\n      mul\n      0x20\n      add\n      dup3\n      add\n      0x40\n      mstore\n      dup1\n      iszero\n      tag_80\n      jumpi\n      dup2\n      0x20\n      add\n      0x20\n      dup3\n      mul\n      dup1\n      calldatasize\n      dup4\n      calldatacopy\n      dup1\n      dup3\n      add\n      swap2\n      pop\n      pop\n      swap1\n      pop\n    tag_80:\n      pop\n        /* \"back/contracts/campaigns.sol\":2763:2828  uint[] memory contributorAmounts = new uint[](contributionsCount) */\n      swap1\n      pop\n        /* \"back/contracts/campaigns.sol\":2839:2849  uint index */\n      0x00\n        /* \"back/contracts/campaigns.sol\":2868:2874  uint i */\n      dup1\n        /* \"back/contracts/campaigns.sol\":2863:3198  for (uint i = 0; i < campaigns.length; i++) {... */\n    tag_81:\n        /* \"back/contracts/campaigns.sol\":2884:2893  campaigns */\n      0x00\n        /* \"back/contracts/campaigns.sol\":2884:2900  campaigns.length */\n      dup1\n      sload\n      swap1\n      pop\n        /* \"back/contracts/campaigns.sol\":2880:2881  i */\n      dup2\n        /* \"back/contracts/campaigns.sol\":2880:2900  i < campaigns.length */\n      lt\n        /* \"back/contracts/campaigns.sol\":2863:3198  for (uint i = 0; i < campaigns.length; i++) {... */\n      iszero\n      tag_82\n      jumpi\n        /* \"back/contracts/campaigns.sol\":2921:2943  uint contributedAmount */\n      0x00\n        /* \"back/contracts/campaigns.sol\":2946:2968  campaignsByContributor */\n      0x02\n        /* \"back/contracts/campaigns.sol\":2946:2981  campaignsByContributor[contributor] */\n      0x00\n        /* \"back/contracts/campaigns.sol\":2969:2980  contributor */\n      dup11\n        /* \"back/contracts/campaigns.sol\":2946:2981  campaignsByContributor[contributor] */\n      0xffffffffffffffffffffffffffffffffffffffff\n      and\n      0xffffffffffffffffffffffffffffffffffffffff\n      and\n      dup2\n      mstore\n      0x20\n      add\n      swap1\n      dup2\n      mstore\n      0x20\n      add\n      0x00\n      keccak256\n        /* \"back/contracts/campaigns.sol\":2946:2984  campaignsByContributor[contributor][i] */\n      0x00\n        /* \"back/contracts/campaigns.sol\":2982:2983  i */\n      dup4\n        /* \"back/contracts/campaigns.sol\":2946:2984  campaignsByContributor[contributor][i] */\n      dup2\n      mstore\n      0x20\n      add\n      swap1\n      dup2\n      mstore\n      0x20\n      add\n      0x00\n      keccak256\n      sload\n        /* \"back/contracts/campaigns.sol\":2921:2984  uint contributedAmount = campaignsByContributor[contributor][i] */\n      swap1\n      pop\n        /* \"back/contracts/campaigns.sol\":3022:3023  0 */\n      0x00\n        /* \"back/contracts/campaigns.sol\":3002:3019  contributedAmount */\n      dup2\n        /* \"back/contracts/campaigns.sol\":3002:3023  contributedAmount > 0 */\n      gt\n        /* \"back/contracts/campaigns.sol\":2998:3188  if (contributedAmount > 0) {... */\n      iszero\n      tag_84\n      jumpi\n        /* \"back/contracts/campaigns.sol\":3073:3082  campaigns */\n      0x00\n        /* \"back/contracts/campaigns.sol\":3083:3084  i */\n      dup3\n        /* \"back/contracts/campaigns.sol\":3073:3085  campaigns[i] */\n      dup2\n      sload\n      dup2\n      lt\n      tag_85\n      jumpi\n      tag_86\n      tag_87\n      jump\t// in\n    tag_86:\n    tag_85:\n      swap1\n      0x00\n      mstore\n      keccak256(0x00, 0x20)\n      swap1\n      0x06\n      mul\n      add\n        /* \"back/contracts/campaigns.sol\":3043:3085  contributorCampaigns[index] = campaigns[i] */\n      mload(0x40)\n      dup1\n      0xe0\n      add\n      0x40\n      mstore\n      swap1\n      dup2\n      0x00\n      dup3\n      add\n      dup1\n      sload\n      tag_89\n      swap1\n      tag_59\n      jump\t// in\n    tag_89:\n      dup1\n      0x1f\n      add\n      0x20\n      dup1\n      swap2\n      div\n      mul\n      0x20\n      add\n      mload(0x40)\n      swap1\n      dup2\n      add\n      0x40\n      mstore\n      dup1\n      swap3\n      swap2\n      swap1\n      dup2\n      dup2\n      mstore\n      0x20\n      add\n      dup3\n      dup1\n      sload\n      tag_90\n      swap1\n      tag_59\n      jump\t// in\n    tag_90:\n      dup1\n      iszero\n      tag_91\n      jumpi\n      dup1\n      0x1f\n      lt\n      tag_92\n      jumpi\n      0x0100\n      dup1\n      dup4\n      sload\n      div\n      mul\n      dup4\n      mstore\n      swap2\n      0x20\n      add\n      swap2\n      jump(tag_91)\n    tag_92:\n      dup3\n      add\n      swap2\n      swap1\n      0x00\n      mstore\n      keccak256(0x00, 0x20)\n      swap1\n    tag_93:\n      dup2\n      sload\n      dup2\n      mstore\n      swap1\n      0x01\n      add\n      swap1\n      0x20\n      add\n      dup1\n      dup4\n      gt\n      tag_93\n      jumpi\n      dup3\n      swap1\n      sub\n      0x1f\n      and\n      dup3\n      add\n      swap2\n    tag_91:\n      pop\n      pop\n      pop\n      pop\n      pop\n      dup2\n      mstore\n      0x20\n      add\n      0x01\n      dup3\n      add\n      sload\n      dup2\n      mstore\n      0x20\n      add\n      0x02\n      dup3\n      add\n      sload\n      dup2\n      mstore\n      0x20\n      add\n      0x03\n      dup3\n      add\n      sload\n      dup2\n      mstore\n      0x20\n      add\n      0x04\n      dup3\n      add\n      sload\n      dup2\n      mstore\n      0x20\n      add\n      0x05\n      dup3\n      add\n      0x00\n      swap1\n      sload\n      swap1\n      0x0100\n      exp\n      swap1\n      div\n      0xffffffffffffffffffffffffffffffffffffffff\n      and\n      0xffffffffffffffffffffffffffffffffffffffff\n      and\n      0xffffffffffffffffffffffffffffffffffffffff\n      and\n      dup2\n      mstore\n      0x20\n      add\n      0x05\n      dup3\n      add\n      0x14\n      swap1\n      sload\n      swap1\n      0x0100\n      exp\n      swap1\n      div\n      0xff\n      and\n      0x02\n      dup2\n      gt\n      iszero\n      tag_94\n      jumpi\n      tag_95\n      tag_96\n      jump\t// in\n    tag_95:\n    tag_94:\n      0x02\n      dup2\n      gt\n      iszero\n      tag_97\n      jumpi\n      tag_98\n      tag_96\n      jump\t// in\n    tag_98:\n    tag_97:\n      dup2\n      mstore\n      pop\n      pop\n        /* \"back/contracts/campaigns.sol\":3043:3063  contributorCampaigns */\n      dup6\n        /* \"back/contracts/campaigns.sol\":3064:3069  index */\n      dup5\n        /* \"back/contracts/campaigns.sol\":3043:3070  contributorCampaigns[index] */\n      dup2\n      mload\n      dup2\n      lt\n      tag_99\n      jumpi\n      tag_100\n      tag_87\n      jump\t// in\n    tag_100:\n    tag_99:\n      0x20\n      mul\n      0x20\n      add\n      add\n        /* \"back/contracts/campaigns.sol\":3043:3085  contributorCampaigns[index] = campaigns[i] */\n      dup2\n      swap1\n      mstore\n      pop\n        /* \"back/contracts/campaigns.sol\":3131:3148  contributedAmount */\n      dup1\n        /* \"back/contracts/campaigns.sol\":3103:3121  contributorAmounts */\n      dup5\n        /* \"back/contracts/campaigns.sol\":3122:3127  index */\n      dup5\n        /* \"back/contracts/campaigns.sol\":3103:3128  contributorAmounts[index] */\n      dup2\n      mload\n      dup2\n      lt\n      tag_101\n      jumpi\n      tag_102\n      tag_87\n      jump\t// in\n    tag_102:\n    tag_101:\n      0x20\n      mul\n      0x20\n      add\n      add\n        /* \"back/contracts/campaigns.sol\":3103:3148  contributorAmounts[index] = contributedAmount */\n      dup2\n      dup2\n      mstore\n      pop\n      pop\n        /* \"back/contracts/campaigns.sol\":3166:3173  index++ */\n      dup3\n      dup1\n      tag_103\n      swap1\n      tag_70\n      jump\t// in\n    tag_103:\n      swap4\n      pop\n      pop\n        /* \"back/contracts/campaigns.sol\":2998:3188  if (contributedAmount > 0) {... */\n    tag_84:\n        /* \"back/contracts/campaigns.sol\":2907:3198  {... */\n      pop\n        /* \"back/contracts/campaigns.sol\":2902:2905  i++ */\n      dup1\n      dup1\n      0x01\n      add\n      swap2\n      pop\n      pop\n        /* \"back/contracts/campaigns.sol\":2863:3198  for (uint i = 0; i < campaigns.length; i++) {... */\n      jump(tag_81)\n    tag_82:\n      pop\n        /* \"back/contracts/campaigns.sol\":3216:3236  contributorCampaigns */\n      dup3\n        /* \"back/contracts/campaigns.sol\":3238:3256  contributorAmounts */\n      dup3\n        /* \"back/contracts/campaigns.sol\":3208:3257  return (contributorCampaigns, contributorAmounts) */\n      swap6\n      pop\n      swap6\n      pop\n      pop\n      pop\n      pop\n      pop\n        /* \"back/contracts/campaigns.sol\":2352:3264  function getContributions(address contributor) public view returns (Campaign[] memory, uint[] memory) {... */\n      swap2\n      pop\n      swap2\n      jump\t// out\n        /* \"back/contracts/campaigns.sol\":3422:4231  function cancelCampaign(uint _campaignId) public {... */\n    tag_28:\n        /* \"back/contracts/campaigns.sol\":3503:3512  campaigns */\n      0x00\n        /* \"back/contracts/campaigns.sol\":3503:3519  campaigns.length */\n      dup1\n      sload\n      swap1\n      pop\n        /* \"back/contracts/campaigns.sol\":3489:3500  _campaignId */\n      dup2\n        /* \"back/contracts/campaigns.sol\":3489:3519  _campaignId < campaigns.length */\n      lt\n        /* \"back/contracts/campaigns.sol\":3481:3547  require(_campaignId < campaigns.length, \"Campaign does not exist\") */\n      tag_105\n      jumpi\n      mload(0x40)\n      0x08c379a000000000000000000000000000000000000000000000000000000000\n      dup2\n      mstore\n      0x04\n      add\n      tag_106\n      swap1\n      tag_107\n      jump\t// in\n    tag_106:\n      mload(0x40)\n      dup1\n      swap2\n      sub\n      swap1\n      revert\n    tag_105:\n        /* \"back/contracts/campaigns.sol\":3557:3582  Campaign storage campaign */\n      0x00\n        /* \"back/contracts/campaigns.sol\":3585:3594  campaigns */\n      dup1\n        /* \"back/contracts/campaigns.sol\":3595:3606  _campaignId */\n      dup3\n        /* \"back/contracts/campaigns.sol\":3585:3607  campaigns[_campaignId] */\n      dup2\n      sload\n      dup2\n      lt\n      tag_108\n      jumpi\n      tag_109\n      tag_87\n      jump\t// in\n    tag_109:\n    tag_108:\n      swap1\n      0x00\n      mstore\n      keccak256(0x00, 0x20)\n      swap1\n      0x06\n      mul\n      add\n        /* \"back/contracts/campaigns.sol\":3557:3607  Campaign storage campaign = campaigns[_campaignId] */\n      swap1\n      pop\n        /* \"back/contracts/campaigns.sol\":3646:3656  msg.sender */\n      caller\n        /* \"back/contracts/campaigns.sol\":3626:3656  campaign.creator == msg.sender */\n      0xffffffffffffffffffffffffffffffffffffffff\n      and\n        /* \"back/contracts/campaigns.sol\":3626:3634  campaign */\n      dup2\n        /* \"back/contracts/campaigns.sol\":3626:3642  campaign.creator */\n      0x05\n      add\n      0x00\n      swap1\n      sload\n      swap1\n      0x0100\n      exp\n      swap1\n      div\n      0xffffffffffffffffffffffffffffffffffffffff\n      and\n        /* \"back/contracts/campaigns.sol\":3626:3656  campaign.creator == msg.sender */\n      0xffffffffffffffffffffffffffffffffffffffff\n      and\n      eq\n        /* \"back/contracts/campaigns.sol\":3618:3702  require(campaign.creator == msg.sender, \"Only the creator can cancel this campaign\") */\n      tag_111\n      jumpi\n      mload(0x40)\n      0x08c379a000000000000000000000000000000000000000000000000000000000\n      dup2\n      mstore\n      0x04\n      add\n      tag_112\n      swap1\n      tag_113\n      jump\t// in\n    tag_112:\n      mload(0x40)\n      dup1\n      swap2\n      sub\n      swap1\n      revert\n    tag_111:\n        /* \"back/contracts/campaigns.sol\":3738:3758  CampaignState.Active */\n      0x00\n        /* \"back/contracts/campaigns.sol\":3720:3758  campaign.state == CampaignState.Active */\n      0x02\n      dup2\n      gt\n      iszero\n      tag_114\n      jumpi\n      tag_115\n      tag_96\n      jump\t// in\n    tag_115:\n    tag_114:\n        /* \"back/contracts/campaigns.sol\":3720:3728  campaign */\n      dup2\n        /* \"back/contracts/campaigns.sol\":3720:3734  campaign.state */\n      0x05\n      add\n      0x14\n      swap1\n      sload\n      swap1\n      0x0100\n      exp\n      swap1\n      div\n      0xff\n      and\n        /* \"back/contracts/campaigns.sol\":3720:3758  campaign.state == CampaignState.Active */\n      0x02\n      dup2\n      gt\n      iszero\n      tag_116\n      jumpi\n      tag_117\n      tag_96\n      jump\t// in\n    tag_117:\n    tag_116:\n      eq\n        /* \"back/contracts/campaigns.sol\":3712:3785  require(campaign.state == CampaignState.Active, \"Campaign is not active\") */\n      tag_118\n      jumpi\n      mload(0x40)\n      0x08c379a000000000000000000000000000000000000000000000000000000000\n      dup2\n      mstore\n      0x04\n      add\n      tag_119\n      swap1\n      tag_120\n      jump\t// in\n    tag_119:\n      mload(0x40)\n      dup1\n      swap2\n      sub\n      swap1\n      revert\n    tag_118:\n        /* \"back/contracts/campaigns.sol\":3813:3833  CampaignState.Failed */\n      0x02\n        /* \"back/contracts/campaigns.sol\":3796:3804  campaign */\n      dup2\n        /* \"back/contracts/campaigns.sol\":3796:3810  campaign.state */\n      0x05\n      add\n      0x14\n        /* \"back/contracts/campaigns.sol\":3796:3833  campaign.state = CampaignState.Failed */\n      0x0100\n      exp\n      dup2\n      sload\n      dup2\n      0xff\n      mul\n      not\n      and\n      swap1\n      dup4\n      0x02\n      dup2\n      gt\n      iszero\n      tag_121\n      jumpi\n      tag_122\n      tag_96\n      jump\t// in\n    tag_122:\n    tag_121:\n      mul\n      or\n      swap1\n      sstore\n      pop\n        /* \"back/contracts/campaigns.sol\":3848:3854  uint i */\n      0x00\n        /* \"back/contracts/campaigns.sol\":3844:4164  for(uint i = 0; i < contributorsByCampaignId[_campaignId].length; i++) {... */\n    tag_123:\n        /* \"back/contracts/campaigns.sol\":3864:3888  contributorsByCampaignId */\n      0x01\n        /* \"back/contracts/campaigns.sol\":3864:3901  contributorsByCampaignId[_campaignId] */\n      0x00\n        /* \"back/contracts/campaigns.sol\":3889:3900  _campaignId */\n      dup5\n        /* \"back/contracts/campaigns.sol\":3864:3901  contributorsByCampaignId[_campaignId] */\n      dup2\n      mstore\n      0x20\n      add\n      swap1\n      dup2\n      mstore\n      0x20\n      add\n      0x00\n      keccak256\n        /* \"back/contracts/campaigns.sol\":3864:3908  contributorsByCampaignId[_campaignId].length */\n      dup1\n      sload\n      swap1\n      pop\n        /* \"back/contracts/campaigns.sol\":3860:3861  i */\n      dup2\n        /* \"back/contracts/campaigns.sol\":3860:3908  i < contributorsByCampaignId[_campaignId].length */\n      lt\n        /* \"back/contracts/campaigns.sol\":3844:4164  for(uint i = 0; i < contributorsByCampaignId[_campaignId].length; i++) {... */\n      iszero\n      tag_124\n      jumpi\n        /* \"back/contracts/campaigns.sol\":3929:3955  address contributorAddress */\n      0x00\n        /* \"back/contracts/campaigns.sol\":3958:3982  contributorsByCampaignId */\n      0x01\n        /* \"back/contracts/campaigns.sol\":3958:3995  contributorsByCampaignId[_campaignId] */\n      0x00\n        /* \"back/contracts/campaigns.sol\":3983:3994  _campaignId */\n      dup6\n        /* \"back/contracts/campaigns.sol\":3958:3995  contributorsByCampaignId[_campaignId] */\n      dup2\n      mstore\n      0x20\n      add\n      swap1\n      dup2\n      mstore\n      0x20\n      add\n      0x00\n      keccak256\n        /* \"back/contracts/campaigns.sol\":3996:3997  i */\n      dup3\n        /* \"back/contracts/campaigns.sol\":3958:3998  contributorsByCampaignId[_campaignId][i] */\n      dup2\n      sload\n      dup2\n      lt\n      tag_126\n      jumpi\n      tag_127\n      tag_87\n      jump\t// in\n    tag_127:\n    tag_126:\n      swap1\n      0x00\n      mstore\n      keccak256(0x00, 0x20)\n      add\n      0x00\n      swap1\n      sload\n      swap1\n      0x0100\n      exp\n      swap1\n      div\n      0xffffffffffffffffffffffffffffffffffffffff\n      and\n        /* \"back/contracts/campaigns.sol\":3929:3998  address contributorAddress = contributorsByCampaignId[_campaignId][i] */\n      swap1\n      pop\n        /* \"back/contracts/campaigns.sol\":4012:4030  uint amountDonated */\n      0x00\n        /* \"back/contracts/campaigns.sol\":4033:4055  campaignsByContributor */\n      0x02\n        /* \"back/contracts/campaigns.sol\":4033:4075  campaignsByContributor[contributorAddress] */\n      0x00\n        /* \"back/contracts/campaigns.sol\":4056:4074  contributorAddress */\n      dup4\n        /* \"back/contracts/campaigns.sol\":4033:4075  campaignsByContributor[contributorAddress] */\n      0xffffffffffffffffffffffffffffffffffffffff\n      and\n      0xffffffffffffffffffffffffffffffffffffffff\n      and\n      dup2\n      mstore\n      0x20\n      add\n      swap1\n      dup2\n      mstore\n      0x20\n      add\n      0x00\n      keccak256\n        /* \"back/contracts/campaigns.sol\":4033:4088  campaignsByContributor[contributorAddress][_campaignId] */\n      0x00\n        /* \"back/contracts/campaigns.sol\":4076:4087  _campaignId */\n      dup7\n        /* \"back/contracts/campaigns.sol\":4033:4088  campaignsByContributor[contributorAddress][_campaignId] */\n      dup2\n      mstore\n      0x20\n      add\n      swap1\n      dup2\n      mstore\n      0x20\n      add\n      0x00\n      keccak256\n      sload\n        /* \"back/contracts/campaigns.sol\":4012:4088  uint amountDonated = campaignsByContributor[contributorAddress][_campaignId] */\n      swap1\n      pop\n        /* \"back/contracts/campaigns.sol\":4110:4128  contributorAddress */\n      dup2\n        /* \"back/contracts/campaigns.sol\":4102:4138  payable(contributorAddress).transfer */\n      0xffffffffffffffffffffffffffffffffffffffff\n      and\n        /* \"back/contracts/campaigns.sol\":4102:4153  payable(contributorAddress).transfer(amountDonated) */\n      0x08fc\n        /* \"back/contracts/campaigns.sol\":4139:4152  amountDonated */\n      dup3\n        /* \"back/contracts/campaigns.sol\":4102:4153  payable(contributorAddress).transfer(amountDonated) */\n      swap1\n      dup2\n      iszero\n      mul\n      swap1\n      mload(0x40)\n      0x00\n      mload(0x40)\n      dup1\n      dup4\n      sub\n      dup2\n      dup6\n      dup9\n      dup9\n      call\n      swap4\n      pop\n      pop\n      pop\n      pop\n      iszero\n      dup1\n      iszero\n      tag_130\n      jumpi\n      returndatasize\n      0x00\n      dup1\n      returndatacopy\n      revert(0x00, returndatasize)\n    tag_130:\n      pop\n        /* \"back/contracts/campaigns.sol\":3915:4164  {... */\n      pop\n      pop\n        /* \"back/contracts/campaigns.sol\":3910:3913  i++ */\n      dup1\n      dup1\n      0x01\n      add\n      swap2\n      pop\n      pop\n        /* \"back/contracts/campaigns.sol\":3844:4164  for(uint i = 0; i < contributorsByCampaignId[_campaignId].length; i++) {... */\n      jump(tag_123)\n    tag_124:\n      pop\n        /* \"back/contracts/campaigns.sol\":4179:4224  CampaignCancelled(_campaignId, campaign.name) */\n      0xf021e62333cdfbbd34d095d4f9914d4a723cc108f866fba75fc4581b1a34fa1f\n        /* \"back/contracts/campaigns.sol\":4197:4208  _campaignId */\n      dup3\n        /* \"back/contracts/campaigns.sol\":4210:4218  campaign */\n      dup3\n        /* \"back/contracts/campaigns.sol\":4210:4223  campaign.name */\n      0x00\n      add\n        /* \"back/contracts/campaigns.sol\":4179:4224  CampaignCancelled(_campaignId, campaign.name) */\n      mload(0x40)\n      tag_131\n      swap3\n      swap2\n      swap1\n      tag_132\n      jump\t// in\n    tag_131:\n      mload(0x40)\n      dup1\n      swap2\n      sub\n      swap1\n      log1\n        /* \"back/contracts/campaigns.sol\":3471:4231  {... */\n      pop\n        /* \"back/contracts/campaigns.sol\":3422:4231  function cancelCampaign(uint _campaignId) public {... */\n      pop\n      jump\t// out\n        /* \"back/contracts/campaigns.sol\":685:756  mapping(address => mapping(uint => uint)) public campaignsByContributor */\n    tag_33:\n      mstore(0x20, 0x02)\n      dup2\n      0x00\n      mstore\n      mstore(0x20, keccak256(0x00, 0x40))\n      dup1\n      0x00\n      mstore\n      keccak256(0x00, 0x40)\n      0x00\n      swap2\n      pop\n      swap2\n      pop\n      pop\n      sload\n      dup2\n      jump\t// out\n        /* \"back/contracts/campaigns.sol\":1555:2346  function contribute(address _contributor, uint _campaignId) external payable { ... */\n    tag_38:\n        /* \"back/contracts/campaigns.sol\":1663:1664  0 */\n      0x00\n        /* \"back/contracts/campaigns.sol\":1651:1660  msg.value */\n      callvalue\n        /* \"back/contracts/campaigns.sol\":1651:1664  msg.value > 0 */\n      gt\n        /* \"back/contracts/campaigns.sol\":1643:1704  require(msg.value > 0, \"Contribution must be greater than 0\") */\n      tag_134\n      jumpi\n      mload(0x40)\n      0x08c379a000000000000000000000000000000000000000000000000000000000\n      dup2\n      mstore\n      0x04\n      add\n      tag_135\n      swap1\n      tag_136\n      jump\t// in\n    tag_135:\n      mload(0x40)\n      dup1\n      swap2\n      sub\n      swap1\n      revert\n    tag_134:\n        /* \"back/contracts/campaigns.sol\":1736:1745  campaigns */\n      0x00\n        /* \"back/contracts/campaigns.sol\":1736:1752  campaigns.length */\n      dup1\n      sload\n      swap1\n      pop\n        /* \"back/contracts/campaigns.sol\":1722:1733  _campaignId */\n      dup2\n        /* \"back/contracts/campaigns.sol\":1722:1752  _campaignId < campaigns.length */\n      lt\n        /* \"back/contracts/campaigns.sol\":1714:1780  require(_campaignId < campaigns.length, \"Campaign does not exist\") */\n      tag_137\n      jumpi\n      mload(0x40)\n      0x08c379a000000000000000000000000000000000000000000000000000000000\n      dup2\n      mstore\n      0x04\n      add\n      tag_138\n      swap1\n      tag_107\n      jump\t// in\n    tag_138:\n      mload(0x40)\n      dup1\n      swap2\n      sub\n      swap1\n      revert\n    tag_137:\n        /* \"back/contracts/campaigns.sol\":1799:1823  Campaign memory campaign */\n      0x00\n        /* \"back/contracts/campaigns.sol\":1826:1835  campaigns */\n      dup1\n        /* \"back/contracts/campaigns.sol\":1836:1847  _campaignId */\n      dup3\n        /* \"back/contracts/campaigns.sol\":1826:1848  campaigns[_campaignId] */\n      dup2\n      sload\n      dup2\n      lt\n      tag_139\n      jumpi\n      tag_140\n      tag_87\n      jump\t// in\n    tag_140:\n    tag_139:\n      swap1\n      0x00\n      mstore\n      keccak256(0x00, 0x20)\n      swap1\n      0x06\n      mul\n      add\n        /* \"back/contracts/campaigns.sol\":1799:1848  Campaign memory campaign = campaigns[_campaignId] */\n      mload(0x40)\n      dup1\n      0xe0\n      add\n      0x40\n      mstore\n      swap1\n      dup2\n      0x00\n      dup3\n      add\n      dup1\n      sload\n      tag_142\n      swap1\n      tag_59\n      jump\t// in\n    tag_142:\n      dup1\n      0x1f\n      add\n      0x20\n      dup1\n      swap2\n      div\n      mul\n      0x20\n      add\n      mload(0x40)\n      swap1\n      dup2\n      add\n      0x40\n      mstore\n      dup1\n      swap3\n      swap2\n      swap1\n      dup2\n      dup2\n      mstore\n      0x20\n      add\n      dup3\n      dup1\n      sload\n      tag_143\n      swap1\n      tag_59\n      jump\t// in\n    tag_143:\n      dup1\n      iszero\n      tag_144\n      jumpi\n      dup1\n      0x1f\n      lt\n      tag_145\n      jumpi\n      0x0100\n      dup1\n      dup4\n      sload\n      div\n      mul\n      dup4\n      mstore\n      swap2\n      0x20\n      add\n      swap2\n      jump(tag_144)\n    tag_145:\n      dup3\n      add\n      swap2\n      swap1\n      0x00\n      mstore\n      keccak256(0x00, 0x20)\n      swap1\n    tag_146:\n      dup2\n      sload\n      dup2\n      mstore\n      swap1\n      0x01\n      add\n      swap1\n      0x20\n      add\n      dup1\n      dup4\n      gt\n      tag_146\n      jumpi\n      dup3\n      swap1\n      sub\n      0x1f\n      and\n      dup3\n      add\n      swap2\n    tag_144:\n      pop\n      pop\n      pop\n      pop\n      pop\n      dup2\n      mstore\n      0x20\n      add\n      0x01\n      dup3\n      add\n      sload\n      dup2\n      mstore\n      0x20\n      add\n      0x02\n      dup3\n      add\n      sload\n      dup2\n      mstore\n      0x20\n      add\n      0x03\n      dup3\n      add\n      sload\n      dup2\n      mstore\n      0x20\n      add\n      0x04\n      dup3\n      add\n      sload\n      dup2\n      mstore\n      0x20\n      add\n      0x05\n      dup3\n      add\n      0x00\n      swap1\n      sload\n      swap1\n      0x0100\n      exp\n      swap1\n      div\n      0xffffffffffffffffffffffffffffffffffffffff\n      and\n      0xffffffffffffffffffffffffffffffffffffffff\n      and\n      0xffffffffffffffffffffffffffffffffffffffff\n      and\n      dup2\n      mstore\n      0x20\n      add\n      0x05\n      dup3\n      add\n      0x14\n      swap1\n      sload\n      swap1\n      0x0100\n      exp\n      swap1\n      div\n      0xff\n      and\n      0x02\n      dup2\n      gt\n      iszero\n      tag_147\n      jumpi\n      tag_148\n      tag_96\n      jump\t// in\n    tag_148:\n    tag_147:\n      0x02\n      dup2\n      gt\n      iszero\n      tag_149\n      jumpi\n      tag_150\n      tag_96\n      jump\t// in\n    tag_150:\n    tag_149:\n      dup2\n      mstore\n      pop\n      pop\n      swap1\n      pop\n        /* \"back/contracts/campaigns.sol\":1884:1904  CampaignState.Active */\n      0x00\n        /* \"back/contracts/campaigns.sol\":1866:1904  campaign.state == CampaignState.Active */\n      0x02\n      dup2\n      gt\n      iszero\n      tag_151\n      jumpi\n      tag_152\n      tag_96\n      jump\t// in\n    tag_152:\n    tag_151:\n        /* \"back/contracts/campaigns.sol\":1866:1874  campaign */\n      dup2\n        /* \"back/contracts/campaigns.sol\":1866:1880  campaign.state */\n      0xc0\n      add\n      mload\n        /* \"back/contracts/campaigns.sol\":1866:1904  campaign.state == CampaignState.Active */\n      0x02\n      dup2\n      gt\n      iszero\n      tag_153\n      jumpi\n      tag_154\n      tag_96\n      jump\t// in\n    tag_154:\n    tag_153:\n      eq\n        /* \"back/contracts/campaigns.sol\":1858:1948  require(campaign.state == CampaignState.Active, \"Can only contribute to active campaigns\") */\n      tag_155\n      jumpi\n      mload(0x40)\n      0x08c379a000000000000000000000000000000000000000000000000000000000\n      dup2\n      mstore\n      0x04\n      add\n      tag_156\n      swap1\n      tag_157\n      jump\t// in\n    tag_156:\n      mload(0x40)\n      dup1\n      swap2\n      sub\n      swap1\n      revert\n    tag_155:\n        /* \"back/contracts/campaigns.sol\":1959:1974  uint valueEther */\n      0x00\n        /* \"back/contracts/campaigns.sol\":1988:1995  1 ether */\n      0x0de0b6b3a7640000\n        /* \"back/contracts/campaigns.sol\":1977:1986  msg.value */\n      callvalue\n        /* \"back/contracts/campaigns.sol\":1977:1996  msg.value/(1 ether) */\n      tag_158\n      swap2\n      swap1\n      tag_159\n      jump\t// in\n    tag_158:\n        /* \"back/contracts/campaigns.sol\":1959:1996  uint valueEther = msg.value/(1 ether) */\n      swap1\n      pop\n        /* \"back/contracts/campaigns.sol\":2062:2063  0 */\n      0x00\n        /* \"back/contracts/campaigns.sol\":2009:2031  campaignsByContributor */\n      0x02\n        /* \"back/contracts/campaigns.sol\":2009:2045  campaignsByContributor[_contributor] */\n      0x00\n        /* \"back/contracts/campaigns.sol\":2032:2044  _contributor */\n      dup7\n        /* \"back/contracts/campaigns.sol\":2009:2045  campaignsByContributor[_contributor] */\n      0xffffffffffffffffffffffffffffffffffffffff\n      and\n      0xffffffffffffffffffffffffffffffffffffffff\n      and\n      dup2\n      mstore\n      0x20\n      add\n      swap1\n      dup2\n      mstore\n      0x20\n      add\n      0x00\n      keccak256\n        /* \"back/contracts/campaigns.sol\":2009:2058  campaignsByContributor[_contributor][_campaignId] */\n      0x00\n        /* \"back/contracts/campaigns.sol\":2046:2057  _campaignId */\n      dup6\n        /* \"back/contracts/campaigns.sol\":2009:2058  campaignsByContributor[_contributor][_campaignId] */\n      dup2\n      mstore\n      0x20\n      add\n      swap1\n      dup2\n      mstore\n      0x20\n      add\n      0x00\n      keccak256\n      sload\n        /* \"back/contracts/campaigns.sol\":2009:2063  campaignsByContributor[_contributor][_campaignId] == 0 */\n      sub\n        /* \"back/contracts/campaigns.sol\":2006:2146  if(campaignsByContributor[_contributor][_campaignId] == 0) {... */\n      tag_160\n      jumpi\n        /* \"back/contracts/campaigns.sol\":2079:2103  contributorsByCampaignId */\n      0x01\n        /* \"back/contracts/campaigns.sol\":2079:2116  contributorsByCampaignId[_campaignId] */\n      0x00\n        /* \"back/contracts/campaigns.sol\":2104:2115  _campaignId */\n      dup5\n        /* \"back/contracts/campaigns.sol\":2079:2116  contributorsByCampaignId[_campaignId] */\n      dup2\n      mstore\n      0x20\n      add\n      swap1\n      dup2\n      mstore\n      0x20\n      add\n      0x00\n      keccak256\n        /* \"back/contracts/campaigns.sol\":2122:2134  _contributor */\n      dup5\n        /* \"back/contracts/campaigns.sol\":2079:2135  contributorsByCampaignId[_campaignId].push(_contributor) */\n      swap1\n      dup1\n      0x01\n      dup2\n      sload\n      add\n      dup1\n      dup3\n      sstore\n      dup1\n      swap2\n      pop\n      pop\n      0x01\n      swap1\n      sub\n      swap1\n      0x00\n      mstore\n      keccak256(0x00, 0x20)\n      add\n      0x00\n      swap1\n      swap2\n      swap1\n      swap2\n      swap1\n      swap2\n      0x0100\n      exp\n      dup2\n      sload\n      dup2\n      0xffffffffffffffffffffffffffffffffffffffff\n      mul\n      not\n      and\n      swap1\n      dup4\n      0xffffffffffffffffffffffffffffffffffffffff\n      and\n      mul\n      or\n      swap1\n      sstore\n      pop\n        /* \"back/contracts/campaigns.sol\":2006:2146  if(campaignsByContributor[_contributor][_campaignId] == 0) {... */\n    tag_160:\n        /* \"back/contracts/campaigns.sol\":2208:2217  msg.value */\n      callvalue\n        /* \"back/contracts/campaigns.sol\":2155:2177  campaignsByContributor */\n      0x02\n        /* \"back/contracts/campaigns.sol\":2155:2191  campaignsByContributor[_contributor] */\n      0x00\n        /* \"back/contracts/campaigns.sol\":2178:2190  _contributor */\n      dup7\n        /* \"back/contracts/campaigns.sol\":2155:2191  campaignsByContributor[_contributor] */\n      0xffffffffffffffffffffffffffffffffffffffff\n      and\n      0xffffffffffffffffffffffffffffffffffffffff\n      and\n      dup2\n      mstore\n      0x20\n      add\n      swap1\n      dup2\n      mstore\n      0x20\n      add\n      0x00\n      keccak256\n        /* \"back/contracts/campaigns.sol\":2155:2204  campaignsByContributor[_contributor][_campaignId] */\n      0x00\n        /* \"back/contracts/campaigns.sol\":2192:2203  _campaignId */\n      dup6\n        /* \"back/contracts/campaigns.sol\":2155:2204  campaignsByContributor[_contributor][_campaignId] */\n      dup2\n      mstore\n      0x20\n      add\n      swap1\n      dup2\n      mstore\n      0x20\n      add\n      0x00\n      keccak256\n      0x00\n        /* \"back/contracts/campaigns.sol\":2155:2217  campaignsByContributor[_contributor][_campaignId] += msg.value */\n      dup3\n      dup3\n      sload\n      tag_162\n      swap2\n      swap1\n      tag_163\n      jump\t// in\n    tag_162:\n      swap3\n      pop\n      pop\n      dup2\n      swap1\n      sstore\n      pop\n        /* \"back/contracts/campaigns.sol\":2254:2264  valueEther */\n      dup1\n        /* \"back/contracts/campaigns.sol\":2227:2235  campaign */\n      dup3\n        /* \"back/contracts/campaigns.sol\":2227:2250  campaign.current_amount */\n      0x40\n      add\n        /* \"back/contracts/campaigns.sol\":2227:2264  campaign.current_amount += valueEther */\n      dup2\n      dup2\n      mload\n      tag_164\n      swap2\n      swap1\n      tag_163\n      jump\t// in\n    tag_164:\n      swap2\n      pop\n      dup2\n      dup2\n      mstore\n      pop\n      pop\n        /* \"back/contracts/campaigns.sol\":2280:2339  ContributionReceived(_campaignId, valueEther, _contributor) */\n      0xee00973e6c16bdd1dedb2118f4c32980d7c53c73529bd0fc135501096f0155b9\n        /* \"back/contracts/campaigns.sol\":2301:2312  _campaignId */\n      dup4\n        /* \"back/contracts/campaigns.sol\":2314:2324  valueEther */\n      dup3\n        /* \"back/contracts/campaigns.sol\":2326:2338  _contributor */\n      dup7\n        /* \"back/contracts/campaigns.sol\":2280:2339  ContributionReceived(_campaignId, valueEther, _contributor) */\n      mload(0x40)\n      tag_165\n      swap4\n      swap3\n      swap2\n      swap1\n      tag_166\n      jump\t// in\n    tag_165:\n      mload(0x40)\n      dup1\n      swap2\n      sub\n      swap1\n      log1\n        /* \"back/contracts/campaigns.sol\":1632:2346  { ... */\n      pop\n      pop\n        /* \"back/contracts/campaigns.sol\":1555:2346  function contribute(address _contributor, uint _campaignId) external payable { ... */\n      pop\n      pop\n      jump\t// out\n        /* \"back/contracts/campaigns.sol\":1247:1549  function getCampaigns() public view returns ( Campaign[] memory) {... */\n    tag_41:\n        /* \"back/contracts/campaigns.sol\":1293:1310  Campaign[] memory */\n      0x60\n        /* \"back/contracts/campaigns.sol\":1322:1352  Campaign[] memory allCampaigns */\n      0x00\n        /* \"back/contracts/campaigns.sol\":1370:1379  campaigns */\n      dup1\n        /* \"back/contracts/campaigns.sol\":1370:1386  campaigns.length */\n      dup1\n      sload\n      swap1\n      pop\n        /* \"back/contracts/campaigns.sol\":1355:1387  new Campaign[](campaigns.length) */\n      0xffffffffffffffff\n      dup2\n      gt\n      iszero\n      tag_168\n      jumpi\n      tag_169\n      tag_73\n      jump\t// in\n    tag_169:\n    tag_168:\n      mload(0x40)\n      swap1\n      dup1\n      dup3\n      mstore\n      dup1\n      0x20\n      mul\n      0x20\n      add\n      dup3\n      add\n      0x40\n      mstore\n      dup1\n      iszero\n      tag_170\n      jumpi\n      dup2\n      0x20\n      add\n    tag_171:\n      tag_172\n      tag_77\n      jump\t// in\n    tag_172:\n      dup2\n      mstore\n      0x20\n      add\n      swap1\n      0x01\n      swap1\n      sub\n      swap1\n      dup2\n      tag_171\n      jumpi\n      swap1\n      pop\n    tag_170:\n      pop\n        /* \"back/contracts/campaigns.sol\":1322:1387  Campaign[] memory allCampaigns = new Campaign[](campaigns.length) */\n      swap1\n      pop\n        /* \"back/contracts/campaigns.sol\":1411:1417  uint i */\n      0x00\n        /* \"back/contracts/campaigns.sol\":1406:1505  for (uint i = 0; i < campaigns.length; i++) {... */\n    tag_173:\n        /* \"back/contracts/campaigns.sol\":1427:1436  campaigns */\n      0x00\n        /* \"back/contracts/campaigns.sol\":1427:1443  campaigns.length */\n      dup1\n      sload\n      swap1\n      pop\n        /* \"back/contracts/campaigns.sol\":1423:1424  i */\n      dup2\n        /* \"back/contracts/campaigns.sol\":1423:1443  i < campaigns.length */\n      lt\n        /* \"back/contracts/campaigns.sol\":1406:1505  for (uint i = 0; i < campaigns.length; i++) {... */\n      iszero\n      tag_174\n      jumpi\n        /* \"back/contracts/campaigns.sol\":1482:1491  campaigns */\n      0x00\n        /* \"back/contracts/campaigns.sol\":1492:1493  i */\n      dup2\n        /* \"back/contracts/campaigns.sol\":1482:1494  campaigns[i] */\n      dup2\n      sload\n      dup2\n      lt\n      tag_176\n      jumpi\n      tag_177\n      tag_87\n      jump\t// in\n    tag_177:\n    tag_176:\n      swap1\n      0x00\n      mstore\n      keccak256(0x00, 0x20)\n      swap1\n      0x06\n      mul\n      add\n        /* \"back/contracts/campaigns.sol\":1464:1494  allCampaigns[i] = campaigns[i] */\n      mload(0x40)\n      dup1\n      0xe0\n      add\n      0x40\n      mstore\n      swap1\n      dup2\n      0x00\n      dup3\n      add\n      dup1\n      sload\n      tag_179\n      swap1\n      tag_59\n      jump\t// in\n    tag_179:\n      dup1\n      0x1f\n      add\n      0x20\n      dup1\n      swap2\n      div\n      mul\n      0x20\n      add\n      mload(0x40)\n      swap1\n      dup2\n      add\n      0x40\n      mstore\n      dup1\n      swap3\n      swap2\n      swap1\n      dup2\n      dup2\n      mstore\n      0x20\n      add\n      dup3\n      dup1\n      sload\n      tag_180\n      swap1\n      tag_59\n      jump\t// in\n    tag_180:\n      dup1\n      iszero\n      tag_181\n      jumpi\n      dup1\n      0x1f\n      lt\n      tag_182\n      jumpi\n      0x0100\n      dup1\n      dup4\n      sload\n      div\n      mul\n      dup4\n      mstore\n      swap2\n      0x20\n      add\n      swap2\n      jump(tag_181)\n    tag_182:\n      dup3\n      add\n      swap2\n      swap1\n      0x00\n      mstore\n      keccak256(0x00, 0x20)\n      swap1\n    tag_183:\n      dup2\n      sload\n      dup2\n      mstore\n      swap1\n      0x01\n      add\n      swap1\n      0x20\n      add\n      dup1\n      dup4\n      gt\n      tag_183\n      jumpi\n      dup3\n      swap1\n      sub\n      0x1f\n      and\n      dup3\n      add\n      swap2\n    tag_181:\n      pop\n      pop\n      pop\n      pop\n      pop\n      dup2\n      mstore\n      0x20\n      add\n      0x01\n      dup3\n      add\n      sload\n      dup2\n      mstore\n      0x20\n      add\n      0x02\n      dup3\n      add\n      sload\n      dup2\n      mstore\n      0x20\n      add\n      0x03\n      dup3\n      add\n      sload\n      dup2\n      mstore\n      0x20\n      add\n      0x04\n      dup3\n      add\n      sload\n      dup2\n      mstore\n      0x20\n      add\n      0x05\n      dup3\n      add\n      0x00\n      swap1\n      sload\n      swap1\n      0x0100\n      exp\n      swap1\n      div\n      0xffffffffffffffffffffffffffffffffffffffff\n      and\n      0xffffffffffffffffffffffffffffffffffffffff\n      and\n      0xffffffffffffffffffffffffffffffffffffffff\n      and\n      dup2\n      mstore\n      0x20\n      add\n      0x05\n      dup3\n      add\n      0x14\n      swap1\n      sload\n      swap1\n      0x0100\n      exp\n      swap1\n      div\n      0xff\n      and\n      0x02\n      dup2\n      gt\n      iszero\n      tag_184\n      jumpi\n      tag_185\n      tag_96\n      jump\t// in\n    tag_185:\n    tag_184:\n      0x02\n      dup2\n      gt\n      iszero\n      tag_186\n      jumpi\n      tag_187\n      tag_96\n      jump\t// in\n    tag_187:\n    tag_186:\n      dup2\n      mstore\n      pop\n      pop\n        /* \"back/contracts/campaigns.sol\":1464:1476  allCampaigns */\n      dup3\n        /* \"back/contracts/campaigns.sol\":1477:1478  i */\n      dup3\n        /* \"back/contracts/campaigns.sol\":1464:1479  allCampaigns[i] */\n      dup2\n      mload\n      dup2\n      lt\n      tag_188\n      jumpi\n      tag_189\n      tag_87\n      jump\t// in\n    tag_189:\n    tag_188:\n      0x20\n      mul\n      0x20\n      add\n      add\n        /* \"back/contracts/campaigns.sol\":1464:1494  allCampaigns[i] = campaigns[i] */\n      dup2\n      swap1\n      mstore\n      pop\n        /* \"back/contracts/campaigns.sol\":1445:1448  i++ */\n      dup1\n      dup1\n      0x01\n      add\n      swap2\n      pop\n      pop\n        /* \"back/contracts/campaigns.sol\":1406:1505  for (uint i = 0; i < campaigns.length; i++) {... */\n      jump(tag_173)\n    tag_174:\n      pop\n        /* \"back/contracts/campaigns.sol\":1530:1542  allCampaigns */\n      dup1\n        /* \"back/contracts/campaigns.sol\":1523:1542  return allCampaigns */\n      swap2\n      pop\n      pop\n        /* \"back/contracts/campaigns.sol\":1247:1549  function getCampaigns() public view returns ( Campaign[] memory) {... */\n      swap1\n      jump\t// out\n        /* \"back/contracts/campaigns.sol\":767:1241  function setCampaign(uint _target_amount, uint _days_deadline, string memory _name) public {... */\n    tag_48:\n        /* \"back/contracts/campaigns.sol\":893:894  0 */\n      0x00\n        /* \"back/contracts/campaigns.sol\":876:890  _target_amount */\n      dup4\n        /* \"back/contracts/campaigns.sol\":876:894  _target_amount > 0 */\n      gt\n        /* \"back/contracts/campaigns.sol\":868:939  require(_target_amount > 0, \"Target amount must be greater than zero \") */\n      tag_191\n      jumpi\n      mload(0x40)\n      0x08c379a000000000000000000000000000000000000000000000000000000000\n      dup2\n      mstore\n      0x04\n      add\n      tag_192\n      swap1\n      tag_193\n      jump\t// in\n    tag_192:\n      mload(0x40)\n      dup1\n      swap2\n      sub\n      swap1\n      revert\n    tag_191:\n        /* \"back/contracts/campaigns.sol\":950:974  Campaign memory campaign */\n      0x00\n        /* \"back/contracts/campaigns.sol\":977:1078  Campaign(_name, _target_amount, 0, _days_deadline, block.timestamp, msg.sender, CampaignState.Active) */\n      mload(0x40)\n      dup1\n      0xe0\n      add\n      0x40\n      mstore\n      dup1\n        /* \"back/contracts/campaigns.sol\":986:991  _name */\n      dup4\n        /* \"back/contracts/campaigns.sol\":977:1078  Campaign(_name, _target_amount, 0, _days_deadline, block.timestamp, msg.sender, CampaignState.Active) */\n      dup2\n      mstore\n      0x20\n      add\n        /* \"back/contracts/campaigns.sol\":993:1007  _target_amount */\n      dup6\n        /* \"back/contracts/campaigns.sol\":977:1078  Campaign(_name, _target_amount, 0, _days_deadline, block.timestamp, msg.sender, CampaignState.Active) */\n      dup2\n      mstore\n      0x20\n      add\n        /* \"back/contracts/campaigns.sol\":1009:1010  0 */\n      0x00\n        /* \"back/contracts/campaigns.sol\":977:1078  Campaign(_name, _target_amount, 0, _days_deadline, block.timestamp, msg.sender, CampaignState.Active) */\n      dup2\n      mstore\n      0x20\n      add\n        /* \"back/contracts/campaigns.sol\":1012:1026  _days_deadline */\n      dup5\n        /* \"back/contracts/campaigns.sol\":977:1078  Campaign(_name, _target_amount, 0, _days_deadline, block.timestamp, msg.sender, CampaignState.Active) */\n      dup2\n      mstore\n      0x20\n      add\n        /* \"back/contracts/campaigns.sol\":1028:1043  block.timestamp */\n      timestamp\n        /* \"back/contracts/campaigns.sol\":977:1078  Campaign(_name, _target_amount, 0, _days_deadline, block.timestamp, msg.sender, CampaignState.Active) */\n      dup2\n      mstore\n      0x20\n      add\n        /* \"back/contracts/campaigns.sol\":1045:1055  msg.sender */\n      caller\n        /* \"back/contracts/campaigns.sol\":977:1078  Campaign(_name, _target_amount, 0, _days_deadline, block.timestamp, msg.sender, CampaignState.Active) */\n      0xffffffffffffffffffffffffffffffffffffffff\n      and\n      dup2\n      mstore\n      0x20\n      add\n        /* \"back/contracts/campaigns.sol\":1057:1077  CampaignState.Active */\n      0x00\n        /* \"back/contracts/campaigns.sol\":977:1078  Campaign(_name, _target_amount, 0, _days_deadline, block.timestamp, msg.sender, CampaignState.Active) */\n      0x02\n      dup2\n      gt\n      iszero\n      tag_194\n      jumpi\n      tag_195\n      tag_96\n      jump\t// in\n    tag_195:\n    tag_194:\n      dup2\n      mstore\n      pop\n        /* \"back/contracts/campaigns.sol\":950:1078  Campaign memory campaign = Campaign(_name, _target_amount, 0, _days_deadline, block.timestamp, msg.sender, CampaignState.Active) */\n      swap1\n      pop\n        /* \"back/contracts/campaigns.sol\":1088:1097  campaigns */\n      0x00\n        /* \"back/contracts/campaigns.sol\":1103:1111  campaign */\n      dup2\n        /* \"back/contracts/campaigns.sol\":1088:1112  campaigns.push(campaign) */\n      swap1\n      dup1\n      0x01\n      dup2\n      sload\n      add\n      dup1\n      dup3\n      sstore\n      dup1\n      swap2\n      pop\n      pop\n      0x01\n      swap1\n      sub\n      swap1\n      0x00\n      mstore\n      keccak256(0x00, 0x20)\n      swap1\n      0x06\n      mul\n      add\n      0x00\n      swap1\n      swap2\n      swap1\n      swap2\n      swap1\n      swap2\n      pop\n      0x00\n      dup3\n      add\n      mload\n      dup2\n      0x00\n      add\n      swap1\n      dup2\n      tag_197\n      swap2\n      swap1\n      tag_198\n      jump\t// in\n    tag_197:\n      pop\n      0x20\n      dup3\n      add\n      mload\n      dup2\n      0x01\n      add\n      sstore\n      0x40\n      dup3\n      add\n      mload\n      dup2\n      0x02\n      add\n      sstore\n      0x60\n      dup3\n      add\n      mload\n      dup2\n      0x03\n      add\n      sstore\n      0x80\n      dup3\n      add\n      mload\n      dup2\n      0x04\n      add\n      sstore\n      0xa0\n      dup3\n      add\n      mload\n      dup2\n      0x05\n      add\n      exp(0x0100, 0x00)\n      dup2\n      sload\n      dup2\n      0xffffffffffffffffffffffffffffffffffffffff\n      mul\n      not\n      and\n      swap1\n      dup4\n      0xffffffffffffffffffffffffffffffffffffffff\n      and\n      mul\n      or\n      swap1\n      sstore\n      pop\n      0xc0\n      dup3\n      add\n      mload\n      dup2\n      0x05\n      add\n      exp(0x0100, 0x14)\n      dup2\n      sload\n      dup2\n      0xff\n      mul\n      not\n      and\n      swap1\n      dup4\n      0x02\n      dup2\n      gt\n      iszero\n      tag_199\n      jumpi\n      tag_200\n      tag_96\n      jump\t// in\n    tag_200:\n    tag_199:\n      mul\n      or\n      swap1\n      sstore\n      pop\n      pop\n      pop\n        /* \"back/contracts/campaigns.sol\":1123:1138  uint campaignId */\n      0x00\n        /* \"back/contracts/campaigns.sol\":1141:1150  campaigns */\n      dup1\n        /* \"back/contracts/campaigns.sol\":1141:1157  campaigns.length */\n      dup1\n      sload\n      swap1\n      pop\n        /* \"back/contracts/campaigns.sol\":1123:1157  uint campaignId = campaigns.length */\n      swap1\n      pop\n        /* \"back/contracts/campaigns.sol\":1172:1234  NewCampaign(campaignId, _name, _target_amount, _days_deadline) */\n      0x1486a9d041aafa1cc375bcfca1613261bf8835c435c377e732a03a0854a0c5ad\n        /* \"back/contracts/campaigns.sol\":1184:1194  campaignId */\n      dup2\n        /* \"back/contracts/campaigns.sol\":1196:1201  _name */\n      dup5\n        /* \"back/contracts/campaigns.sol\":1203:1217  _target_amount */\n      dup8\n        /* \"back/contracts/campaigns.sol\":1219:1233  _days_deadline */\n      dup8\n        /* \"back/contracts/campaigns.sol\":1172:1234  NewCampaign(campaignId, _name, _target_amount, _days_deadline) */\n      mload(0x40)\n      tag_201\n      swap5\n      swap4\n      swap3\n      swap2\n      swap1\n      tag_202\n      jump\t// in\n    tag_201:\n      mload(0x40)\n      dup1\n      swap2\n      sub\n      swap1\n      log1\n        /* \"back/contracts/campaigns.sol\":858:1241  {... */\n      pop\n      pop\n        /* \"back/contracts/campaigns.sol\":767:1241  function setCampaign(uint _target_amount, uint _days_deadline, string memory _name) public {... */\n      pop\n      pop\n      pop\n      jump\t// out\n        /* \"back/contracts/campaigns.sol\":617:675  mapping(uint => address[]) public contributorsByCampaignId */\n    tag_53:\n      mstore(0x20, 0x01)\n      dup2\n      0x00\n      mstore\n      keccak256(0x00, 0x40)\n      dup2\n      dup2\n      sload\n      dup2\n      lt\n      tag_203\n      jumpi\n      0x00\n      dup1\n      revert\n    tag_203:\n      swap1\n      0x00\n      mstore\n      keccak256(0x00, 0x20)\n      add\n      0x00\n      swap2\n      pop\n      swap2\n      pop\n      swap1\n      sload\n      swap1\n      0x0100\n      exp\n      swap1\n      div\n      0xffffffffffffffffffffffffffffffffffffffff\n      and\n      dup2\n      jump\t// out\n    tag_77:\n      mload(0x40)\n      dup1\n      0xe0\n      add\n      0x40\n      mstore\n      dup1\n      0x60\n      dup2\n      mstore\n      0x20\n      add\n      0x00\n      dup2\n      mstore\n      0x20\n      add\n      0x00\n      dup2\n      mstore\n      0x20\n      add\n      0x00\n      dup2\n      mstore\n      0x20\n      add\n      0x00\n      dup2\n      mstore\n      0x20\n      add\n      and(0xffffffffffffffffffffffffffffffffffffffff, 0x00)\n      dup2\n      mstore\n      0x20\n      add\n      0x00\n      0x02\n      dup2\n      gt\n      iszero\n      tag_205\n      jumpi\n      tag_206\n      tag_96\n      jump\t// in\n    tag_206:\n    tag_205:\n      dup2\n      mstore\n      pop\n      swap1\n      jump\t// out\n        /* \"#utility.yul\":7:82   */\n    tag_207:\n        /* \"#utility.yul\":40:46   */\n      0x00\n        /* \"#utility.yul\":73:75   */\n      0x40\n        /* \"#utility.yul\":67:76   */\n      mload\n        /* \"#utility.yul\":57:76   */\n      swap1\n      pop\n        /* \"#utility.yul\":7:82   */\n      swap1\n      jump\t// out\n        /* \"#utility.yul\":88:205   */\n    tag_208:\n        /* \"#utility.yul\":197:198   */\n      0x00\n        /* \"#utility.yul\":194:195   */\n      dup1\n        /* \"#utility.yul\":187:199   */\n      revert\n        /* \"#utility.yul\":211:328   */\n    tag_209:\n        /* \"#utility.yul\":320:321   */\n      0x00\n        /* \"#utility.yul\":317:318   */\n      dup1\n        /* \"#utility.yul\":310:322   */\n      revert\n        /* \"#utility.yul\":334:411   */\n    tag_210:\n        /* \"#utility.yul\":371:378   */\n      0x00\n        /* \"#utility.yul\":400:405   */\n      dup2\n        /* \"#utility.yul\":389:405   */\n      swap1\n      pop\n        /* \"#utility.yul\":334:411   */\n      swap2\n      swap1\n      pop\n      jump\t// out\n        /* \"#utility.yul\":417:539   */\n    tag_211:\n        /* \"#utility.yul\":490:514   */\n      tag_291\n        /* \"#utility.yul\":508:513   */\n      dup2\n        /* \"#utility.yul\":490:514   */\n      tag_210\n      jump\t// in\n    tag_291:\n        /* \"#utility.yul\":483:488   */\n      dup2\n        /* \"#utility.yul\":480:515   */\n      eq\n        /* \"#utility.yul\":470:533   */\n      tag_292\n      jumpi\n        /* \"#utility.yul\":529:530   */\n      0x00\n        /* \"#utility.yul\":526:527   */\n      dup1\n        /* \"#utility.yul\":519:531   */\n      revert\n        /* \"#utility.yul\":470:533   */\n    tag_292:\n        /* \"#utility.yul\":417:539   */\n      pop\n      jump\t// out\n        /* \"#utility.yul\":545:684   */\n    tag_212:\n        /* \"#utility.yul\":591:596   */\n      0x00\n        /* \"#utility.yul\":629:635   */\n      dup2\n        /* \"#utility.yul\":616:636   */\n      calldataload\n        /* \"#utility.yul\":607:636   */\n      swap1\n      pop\n        /* \"#utility.yul\":645:678   */\n      tag_294\n        /* \"#utility.yul\":672:677   */\n      dup2\n        /* \"#utility.yul\":645:678   */\n      tag_211\n      jump\t// in\n    tag_294:\n        /* \"#utility.yul\":545:684   */\n      swap3\n      swap2\n      pop\n      pop\n      jump\t// out\n        /* \"#utility.yul\":690:1019   */\n    tag_14:\n        /* \"#utility.yul\":749:755   */\n      0x00\n        /* \"#utility.yul\":798:800   */\n      0x20\n        /* \"#utility.yul\":786:795   */\n      dup3\n        /* \"#utility.yul\":777:784   */\n      dup5\n        /* \"#utility.yul\":773:796   */\n      sub\n        /* \"#utility.yul\":769:801   */\n      slt\n        /* \"#utility.yul\":766:885   */\n      iszero\n      tag_296\n      jumpi\n        /* \"#utility.yul\":804:883   */\n      tag_297\n      tag_208\n      jump\t// in\n    tag_297:\n        /* \"#utility.yul\":766:885   */\n    tag_296:\n        /* \"#utility.yul\":924:925   */\n      0x00\n        /* \"#utility.yul\":949:1002   */\n      tag_298\n        /* \"#utility.yul\":994:1001   */\n      dup5\n        /* \"#utility.yul\":985:991   */\n      dup3\n        /* \"#utility.yul\":974:983   */\n      dup6\n        /* \"#utility.yul\":970:992   */\n      add\n        /* \"#utility.yul\":949:1002   */\n      tag_212\n      jump\t// in\n    tag_298:\n        /* \"#utility.yul\":939:1002   */\n      swap2\n      pop\n        /* \"#utility.yul\":895:1012   */\n      pop\n        /* \"#utility.yul\":690:1019   */\n      swap3\n      swap2\n      pop\n      pop\n      jump\t// out\n        /* \"#utility.yul\":1025:1124   */\n    tag_213:\n        /* \"#utility.yul\":1077:1083   */\n      0x00\n        /* \"#utility.yul\":1111:1116   */\n      dup2\n        /* \"#utility.yul\":1105:1117   */\n      mload\n        /* \"#utility.yul\":1095:1117   */\n      swap1\n      pop\n        /* \"#utility.yul\":1025:1124   */\n      swap2\n      swap1\n      pop\n      jump\t// out\n        /* \"#utility.yul\":1130:1299   */\n    tag_214:\n        /* \"#utility.yul\":1214:1225   */\n      0x00\n        /* \"#utility.yul\":1248:1254   */\n      dup3\n        /* \"#utility.yul\":1243:1246   */\n      dup3\n        /* \"#utility.yul\":1236:1255   */\n      mstore\n        /* \"#utility.yul\":1288:1292   */\n      0x20\n        /* \"#utility.yul\":1283:1286   */\n      dup3\n        /* \"#utility.yul\":1279:1293   */\n      add\n        /* \"#utility.yul\":1264:1293   */\n      swap1\n      pop\n        /* \"#utility.yul\":1130:1299   */\n      swap3\n      swap2\n      pop\n      pop\n      jump\t// out\n        /* \"#utility.yul\":1305:1444   */\n    tag_215:\n        /* \"#utility.yul\":1394:1400   */\n      dup3\n        /* \"#utility.yul\":1389:1392   */\n      dup2\n        /* \"#utility.yul\":1384:1387   */\n      dup4\n        /* \"#utility.yul\":1378:1401   */\n      mcopy\n        /* \"#utility.yul\":1435:1436   */\n      0x00\n        /* \"#utility.yul\":1426:1432   */\n      dup4\n        /* \"#utility.yul\":1421:1424   */\n      dup4\n        /* \"#utility.yul\":1417:1433   */\n      add\n        /* \"#utility.yul\":1410:1437   */\n      mstore\n        /* \"#utility.yul\":1305:1444   */\n      pop\n      pop\n      pop\n      jump\t// out\n        /* \"#utility.yul\":1450:1552   */\n    tag_216:\n        /* \"#utility.yul\":1491:1497   */\n      0x00\n        /* \"#utility.yul\":1542:1544   */\n      0x1f\n        /* \"#utility.yul\":1538:1545   */\n      not\n        /* \"#utility.yul\":1533:1535   */\n      0x1f\n        /* \"#utility.yul\":1526:1531   */\n      dup4\n        /* \"#utility.yul\":1522:1536   */\n      add\n        /* \"#utility.yul\":1518:1546   */\n      and\n        /* \"#utility.yul\":1508:1546   */\n      swap1\n      pop\n        /* \"#utility.yul\":1450:1552   */\n      swap2\n      swap1\n      pop\n      jump\t// out\n        /* \"#utility.yul\":1558:1935   */\n    tag_217:\n        /* \"#utility.yul\":1646:1649   */\n      0x00\n        /* \"#utility.yul\":1674:1713   */\n      tag_304\n        /* \"#utility.yul\":1707:1712   */\n      dup3\n        /* \"#utility.yul\":1674:1713   */\n      tag_213\n      jump\t// in\n    tag_304:\n        /* \"#utility.yul\":1729:1800   */\n      tag_305\n        /* \"#utility.yul\":1793:1799   */\n      dup2\n        /* \"#utility.yul\":1788:1791   */\n      dup6\n        /* \"#utility.yul\":1729:1800   */\n      tag_214\n      jump\t// in\n    tag_305:\n        /* \"#utility.yul\":1722:1800   */\n      swap4\n      pop\n        /* \"#utility.yul\":1809:1874   */\n      tag_306\n        /* \"#utility.yul\":1867:1873   */\n      dup2\n        /* \"#utility.yul\":1862:1865   */\n      dup6\n        /* \"#utility.yul\":1855:1859   */\n      0x20\n        /* \"#utility.yul\":1848:1853   */\n      dup7\n        /* \"#utility.yul\":1844:1860   */\n      add\n        /* \"#utility.yul\":1809:1874   */\n      tag_215\n      jump\t// in\n    tag_306:\n        /* \"#utility.yul\":1899:1928   */\n      tag_307\n        /* \"#utility.yul\":1921:1927   */\n      dup2\n        /* \"#utility.yul\":1899:1928   */\n      tag_216\n      jump\t// in\n    tag_307:\n        /* \"#utility.yul\":1894:1897   */\n      dup5\n        /* \"#utility.yul\":1890:1929   */\n      add\n        /* \"#utility.yul\":1883:1929   */\n      swap2\n      pop\n        /* \"#utility.yul\":1650:1935   */\n      pop\n        /* \"#utility.yul\":1558:1935   */\n      swap3\n      swap2\n      pop\n      pop\n      jump\t// out\n        /* \"#utility.yul\":1941:2059   */\n    tag_218:\n        /* \"#utility.yul\":2028:2052   */\n      tag_309\n        /* \"#utility.yul\":2046:2051   */\n      dup2\n        /* \"#utility.yul\":2028:2052   */\n      tag_210\n      jump\t// in\n    tag_309:\n        /* \"#utility.yul\":2023:2026   */\n      dup3\n        /* \"#utility.yul\":2016:2053   */\n      mstore\n        /* \"#utility.yul\":1941:2059   */\n      pop\n      pop\n      jump\t// out\n        /* \"#utility.yul\":2065:2191   */\n    tag_219:\n        /* \"#utility.yul\":2102:2109   */\n      0x00\n        /* \"#utility.yul\":2142:2184   */\n      0xffffffffffffffffffffffffffffffffffffffff\n        /* \"#utility.yul\":2135:2140   */\n      dup3\n        /* \"#utility.yul\":2131:2185   */\n      and\n        /* \"#utility.yul\":2120:2185   */\n      swap1\n      pop\n        /* \"#utility.yul\":2065:2191   */\n      swap2\n      swap1\n      pop\n      jump\t// out\n        /* \"#utility.yul\":2197:2293   */\n    tag_220:\n        /* \"#utility.yul\":2234:2241   */\n      0x00\n        /* \"#utility.yul\":2263:2287   */\n      tag_312\n        /* \"#utility.yul\":2281:2286   */\n      dup3\n        /* \"#utility.yul\":2263:2287   */\n      tag_219\n      jump\t// in\n    tag_312:\n        /* \"#utility.yul\":2252:2287   */\n      swap1\n      pop\n        /* \"#utility.yul\":2197:2293   */\n      swap2\n      swap1\n      pop\n      jump\t// out\n        /* \"#utility.yul\":2299:2417   */\n    tag_221:\n        /* \"#utility.yul\":2386:2410   */\n      tag_314\n        /* \"#utility.yul\":2404:2409   */\n      dup2\n        /* \"#utility.yul\":2386:2410   */\n      tag_220\n      jump\t// in\n    tag_314:\n        /* \"#utility.yul\":2381:2384   */\n      dup3\n        /* \"#utility.yul\":2374:2411   */\n      mstore\n        /* \"#utility.yul\":2299:2417   */\n      pop\n      pop\n      jump\t// out\n        /* \"#utility.yul\":2423:2603   */\n    tag_96:\n        /* \"#utility.yul\":2471:2548   */\n      0x4e487b7100000000000000000000000000000000000000000000000000000000\n        /* \"#utility.yul\":2468:2469   */\n      0x00\n        /* \"#utility.yul\":2461:2549   */\n      mstore\n        /* \"#utility.yul\":2568:2572   */\n      0x21\n        /* \"#utility.yul\":2565:2566   */\n      0x04\n        /* \"#utility.yul\":2558:2573   */\n      mstore\n        /* \"#utility.yul\":2592:2596   */\n      0x24\n        /* \"#utility.yul\":2589:2590   */\n      0x00\n        /* \"#utility.yul\":2582:2597   */\n      revert\n        /* \"#utility.yul\":2609:2729   */\n    tag_222:\n        /* \"#utility.yul\":2697:2698   */\n      0x03\n        /* \"#utility.yul\":2690:2695   */\n      dup2\n        /* \"#utility.yul\":2687:2699   */\n      lt\n        /* \"#utility.yul\":2677:2723   */\n      tag_317\n      jumpi\n        /* \"#utility.yul\":2703:2721   */\n      tag_318\n      tag_96\n      jump\t// in\n    tag_318:\n        /* \"#utility.yul\":2677:2723   */\n    tag_317:\n        /* \"#utility.yul\":2609:2729   */\n      pop\n      jump\t// out\n        /* \"#utility.yul\":2735:2876   */\n    tag_223:\n        /* \"#utility.yul\":2787:2794   */\n      0x00\n        /* \"#utility.yul\":2816:2821   */\n      dup2\n        /* \"#utility.yul\":2805:2821   */\n      swap1\n      pop\n        /* \"#utility.yul\":2822:2870   */\n      tag_320\n        /* \"#utility.yul\":2864:2869   */\n      dup3\n        /* \"#utility.yul\":2822:2870   */\n      tag_222\n      jump\t// in\n    tag_320:\n        /* \"#utility.yul\":2735:2876   */\n      swap2\n      swap1\n      pop\n      jump\t// out\n        /* \"#utility.yul\":2882:3023   */\n    tag_224:\n        /* \"#utility.yul\":2945:2954   */\n      0x00\n        /* \"#utility.yul\":2978:3017   */\n      tag_322\n        /* \"#utility.yul\":3011:3016   */\n      dup3\n        /* \"#utility.yul\":2978:3017   */\n      tag_223\n      jump\t// in\n    tag_322:\n        /* \"#utility.yul\":2965:3017   */\n      swap1\n      pop\n        /* \"#utility.yul\":2882:3023   */\n      swap2\n      swap1\n      pop\n      jump\t// out\n        /* \"#utility.yul\":3029:3186   */\n    tag_225:\n        /* \"#utility.yul\":3129:3179   */\n      tag_324\n        /* \"#utility.yul\":3173:3178   */\n      dup2\n        /* \"#utility.yul\":3129:3179   */\n      tag_224\n      jump\t// in\n    tag_324:\n        /* \"#utility.yul\":3124:3127   */\n      dup3\n        /* \"#utility.yul\":3117:3180   */\n      mstore\n        /* \"#utility.yul\":3029:3186   */\n      pop\n      pop\n      jump\t// out\n        /* \"#utility.yul\":3192:4195   */\n    tag_17:\n        /* \"#utility.yul\":3486:3490   */\n      0x00\n        /* \"#utility.yul\":3524:3527   */\n      0xe0\n        /* \"#utility.yul\":3513:3522   */\n      dup3\n        /* \"#utility.yul\":3509:3528   */\n      add\n        /* \"#utility.yul\":3501:3528   */\n      swap1\n      pop\n        /* \"#utility.yul\":3574:3583   */\n      dup2\n        /* \"#utility.yul\":3568:3572   */\n      dup2\n        /* \"#utility.yul\":3564:3584   */\n      sub\n        /* \"#utility.yul\":3560:3561   */\n      0x00\n        /* \"#utility.yul\":3549:3558   */\n      dup4\n        /* \"#utility.yul\":3545:3562   */\n      add\n        /* \"#utility.yul\":3538:3585   */\n      mstore\n        /* \"#utility.yul\":3602:3680   */\n      tag_326\n        /* \"#utility.yul\":3675:3679   */\n      dup2\n        /* \"#utility.yul\":3666:3672   */\n      dup11\n        /* \"#utility.yul\":3602:3680   */\n      tag_217\n      jump\t// in\n    tag_326:\n        /* \"#utility.yul\":3594:3680   */\n      swap1\n      pop\n        /* \"#utility.yul\":3690:3762   */\n      tag_327\n        /* \"#utility.yul\":3758:3760   */\n      0x20\n        /* \"#utility.yul\":3747:3756   */\n      dup4\n        /* \"#utility.yul\":3743:3761   */\n      add\n        /* \"#utility.yul\":3734:3740   */\n      dup10\n        /* \"#utility.yul\":3690:3762   */\n      tag_218\n      jump\t// in\n    tag_327:\n        /* \"#utility.yul\":3772:3844   */\n      tag_328\n        /* \"#utility.yul\":3840:3842   */\n      0x40\n        /* \"#utility.yul\":3829:3838   */\n      dup4\n        /* \"#utility.yul\":3825:3843   */\n      add\n        /* \"#utility.yul\":3816:3822   */\n      dup9\n        /* \"#utility.yul\":3772:3844   */\n      tag_218\n      jump\t// in\n    tag_328:\n        /* \"#utility.yul\":3854:3926   */\n      tag_329\n        /* \"#utility.yul\":3922:3924   */\n      0x60\n        /* \"#utility.yul\":3911:3920   */\n      dup4\n        /* \"#utility.yul\":3907:3925   */\n      add\n        /* \"#utility.yul\":3898:3904   */\n      dup8\n        /* \"#utility.yul\":3854:3926   */\n      tag_218\n      jump\t// in\n    tag_329:\n        /* \"#utility.yul\":3936:4009   */\n      tag_330\n        /* \"#utility.yul\":4004:4007   */\n      0x80\n        /* \"#utility.yul\":3993:4002   */\n      dup4\n        /* \"#utility.yul\":3989:4008   */\n      add\n        /* \"#utility.yul\":3980:3986   */\n      dup7\n        /* \"#utility.yul\":3936:4009   */\n      tag_218\n      jump\t// in\n    tag_330:\n        /* \"#utility.yul\":4019:4092   */\n      tag_331\n        /* \"#utility.yul\":4087:4090   */\n      0xa0\n        /* \"#utility.yul\":4076:4085   */\n      dup4\n        /* \"#utility.yul\":4072:4091   */\n      add\n        /* \"#utility.yul\":4063:4069   */\n      dup6\n        /* \"#utility.yul\":4019:4092   */\n      tag_221\n      jump\t// in\n    tag_331:\n        /* \"#utility.yul\":4102:4188   */\n      tag_332\n        /* \"#utility.yul\":4183:4186   */\n      0xc0\n        /* \"#utility.yul\":4172:4181   */\n      dup4\n        /* \"#utility.yul\":4168:4187   */\n      add\n        /* \"#utility.yul\":4159:4165   */\n      dup5\n        /* \"#utility.yul\":4102:4188   */\n      tag_225\n      jump\t// in\n    tag_332:\n        /* \"#utility.yul\":3192:4195   */\n      swap9\n      swap8\n      pop\n      pop\n      pop\n      pop\n      pop\n      pop\n      pop\n      pop\n      jump\t// out\n        /* \"#utility.yul\":4201:4323   */\n    tag_226:\n        /* \"#utility.yul\":4274:4298   */\n      tag_334\n        /* \"#utility.yul\":4292:4297   */\n      dup2\n        /* \"#utility.yul\":4274:4298   */\n      tag_220\n      jump\t// in\n    tag_334:\n        /* \"#utility.yul\":4267:4272   */\n      dup2\n        /* \"#utility.yul\":4264:4299   */\n      eq\n        /* \"#utility.yul\":4254:4317   */\n      tag_335\n      jumpi\n        /* \"#utility.yul\":4313:4314   */\n      0x00\n        /* \"#utility.yul\":4310:4311   */\n      dup1\n        /* \"#utility.yul\":4303:4315   */\n      revert\n        /* \"#utility.yul\":4254:4317   */\n    tag_335:\n        /* \"#utility.yul\":4201:4323   */\n      pop\n      jump\t// out\n        /* \"#utility.yul\":4329:4468   */\n    tag_227:\n        /* \"#utility.yul\":4375:4380   */\n      0x00\n        /* \"#utility.yul\":4413:4419   */\n      dup2\n        /* \"#utility.yul\":4400:4420   */\n      calldataload\n        /* \"#utility.yul\":4391:4420   */\n      swap1\n      pop\n        /* \"#utility.yul\":4429:4462   */\n      tag_337\n        /* \"#utility.yul\":4456:4461   */\n      dup2\n        /* \"#utility.yul\":4429:4462   */\n      tag_226\n      jump\t// in\n    tag_337:\n        /* \"#utility.yul\":4329:4468   */\n      swap3\n      swap2\n      pop\n      pop\n      jump\t// out\n        /* \"#utility.yul\":4474:4803   */\n    tag_21:\n        /* \"#utility.yul\":4533:4539   */\n      0x00\n        /* \"#utility.yul\":4582:4584   */\n      0x20\n        /* \"#utility.yul\":4570:4579   */\n      dup3\n        /* \"#utility.yul\":4561:4568   */\n      dup5\n        /* \"#utility.yul\":4557:4580   */\n      sub\n        /* \"#utility.yul\":4553:4585   */\n      slt\n        /* \"#utility.yul\":4550:4669   */\n      iszero\n      tag_339\n      jumpi\n        /* \"#utility.yul\":4588:4667   */\n      tag_340\n      tag_208\n      jump\t// in\n    tag_340:\n        /* \"#utility.yul\":4550:4669   */\n    tag_339:\n        /* \"#utility.yul\":4708:4709   */\n      0x00\n        /* \"#utility.yul\":4733:4786   */\n      tag_341\n        /* \"#utility.yul\":4778:4785   */\n      dup5\n        /* \"#utility.yul\":4769:4775   */\n      dup3\n        /* \"#utility.yul\":4758:4767   */\n      dup6\n        /* \"#utility.yul\":4754:4776   */\n      add\n        /* \"#utility.yul\":4733:4786   */\n      tag_227\n      jump\t// in\n    tag_341:\n        /* \"#utility.yul\":4723:4786   */\n      swap2\n      pop\n        /* \"#utility.yul\":4679:4796   */\n      pop\n        /* \"#utility.yul\":4474:4803   */\n      swap3\n      swap2\n      pop\n      pop\n      jump\t// out\n        /* \"#utility.yul\":4809:4947   */\n    tag_228:\n        /* \"#utility.yul\":4900:4906   */\n      0x00\n        /* \"#utility.yul\":4934:4939   */\n      dup2\n        /* \"#utility.yul\":4928:4940   */\n      mload\n        /* \"#utility.yul\":4918:4940   */\n      swap1\n      pop\n        /* \"#utility.yul\":4809:4947   */\n      swap2\n      swap1\n      pop\n      jump\t// out\n        /* \"#utility.yul\":4953:5161   */\n    tag_229:\n        /* \"#utility.yul\":5076:5087   */\n      0x00\n        /* \"#utility.yul\":5110:5116   */\n      dup3\n        /* \"#utility.yul\":5105:5108   */\n      dup3\n        /* \"#utility.yul\":5098:5117   */\n      mstore\n        /* \"#utility.yul\":5150:5154   */\n      0x20\n        /* \"#utility.yul\":5145:5148   */\n      dup3\n        /* \"#utility.yul\":5141:5155   */\n      add\n        /* \"#utility.yul\":5126:5155   */\n      swap1\n      pop\n        /* \"#utility.yul\":4953:5161   */\n      swap3\n      swap2\n      pop\n      pop\n      jump\t// out\n        /* \"#utility.yul\":5167:5323   */\n    tag_230:\n        /* \"#utility.yul\":5258:5262   */\n      0x00\n        /* \"#utility.yul\":5281:5284   */\n      dup2\n        /* \"#utility.yul\":5273:5284   */\n      swap1\n      pop\n        /* \"#utility.yul\":5311:5315   */\n      0x20\n        /* \"#utility.yul\":5306:5309   */\n      dup3\n        /* \"#utility.yul\":5302:5316   */\n      add\n        /* \"#utility.yul\":5294:5316   */\n      swap1\n      pop\n        /* \"#utility.yul\":5167:5323   */\n      swap2\n      swap1\n      pop\n      jump\t// out\n        /* \"#utility.yul\":5329:5488   */\n    tag_231:\n        /* \"#utility.yul\":5403:5414   */\n      0x00\n        /* \"#utility.yul\":5437:5443   */\n      dup3\n        /* \"#utility.yul\":5432:5435   */\n      dup3\n        /* \"#utility.yul\":5425:5444   */\n      mstore\n        /* \"#utility.yul\":5477:5481   */\n      0x20\n        /* \"#utility.yul\":5472:5475   */\n      dup3\n        /* \"#utility.yul\":5468:5482   */\n      add\n        /* \"#utility.yul\":5453:5482   */\n      swap1\n      pop\n        /* \"#utility.yul\":5329:5488   */\n      swap3\n      swap2\n      pop\n      pop\n      jump\t// out\n        /* \"#utility.yul\":5494:5851   */\n    tag_232:\n        /* \"#utility.yul\":5572:5575   */\n      0x00\n        /* \"#utility.yul\":5600:5639   */\n      tag_347\n        /* \"#utility.yul\":5633:5638   */\n      dup3\n        /* \"#utility.yul\":5600:5639   */\n      tag_213\n      jump\t// in\n    tag_347:\n        /* \"#utility.yul\":5655:5716   */\n      tag_348\n        /* \"#utility.yul\":5709:5715   */\n      dup2\n        /* \"#utility.yul\":5704:5707   */\n      dup6\n        /* \"#utility.yul\":5655:5716   */\n      tag_231\n      jump\t// in\n    tag_348:\n        /* \"#utility.yul\":5648:5716   */\n      swap4\n      pop\n        /* \"#utility.yul\":5725:5790   */\n      tag_349\n        /* \"#utility.yul\":5783:5789   */\n      dup2\n        /* \"#utility.yul\":5778:5781   */\n      dup6\n        /* \"#utility.yul\":5771:5775   */\n      0x20\n        /* \"#utility.yul\":5764:5769   */\n      dup7\n        /* \"#utility.yul\":5760:5776   */\n      add\n        /* \"#utility.yul\":5725:5790   */\n      tag_215\n      jump\t// in\n    tag_349:\n        /* \"#utility.yul\":5815:5844   */\n      tag_350\n        /* \"#utility.yul\":5837:5843   */\n      dup2\n        /* \"#utility.yul\":5815:5844   */\n      tag_216\n      jump\t// in\n    tag_350:\n        /* \"#utility.yul\":5810:5813   */\n      dup5\n        /* \"#utility.yul\":5806:5845   */\n      add\n        /* \"#utility.yul\":5799:5845   */\n      swap2\n      pop\n        /* \"#utility.yul\":5576:5851   */\n      pop\n        /* \"#utility.yul\":5494:5851   */\n      swap3\n      swap2\n      pop\n      pop\n      jump\t// out\n        /* \"#utility.yul\":5857:5965   */\n    tag_233:\n        /* \"#utility.yul\":5934:5958   */\n      tag_352\n        /* \"#utility.yul\":5952:5957   */\n      dup2\n        /* \"#utility.yul\":5934:5958   */\n      tag_210\n      jump\t// in\n    tag_352:\n        /* \"#utility.yul\":5929:5932   */\n      dup3\n        /* \"#utility.yul\":5922:5959   */\n      mstore\n        /* \"#utility.yul\":5857:5965   */\n      pop\n      pop\n      jump\t// out\n        /* \"#utility.yul\":5971:6079   */\n    tag_234:\n        /* \"#utility.yul\":6048:6072   */\n      tag_354\n        /* \"#utility.yul\":6066:6071   */\n      dup2\n        /* \"#utility.yul\":6048:6072   */\n      tag_220\n      jump\t// in\n    tag_354:\n        /* \"#utility.yul\":6043:6046   */\n      dup3\n        /* \"#utility.yul\":6036:6073   */\n      mstore\n        /* \"#utility.yul\":5971:6079   */\n      pop\n      pop\n      jump\t// out\n        /* \"#utility.yul\":6085:6232   */\n    tag_235:\n        /* \"#utility.yul\":6175:6225   */\n      tag_356\n        /* \"#utility.yul\":6219:6224   */\n      dup2\n        /* \"#utility.yul\":6175:6225   */\n      tag_224\n      jump\t// in\n    tag_356:\n        /* \"#utility.yul\":6170:6173   */\n      dup3\n        /* \"#utility.yul\":6163:6226   */\n      mstore\n        /* \"#utility.yul\":6085:6232   */\n      pop\n      pop\n      jump\t// out\n        /* \"#utility.yul\":6300:7812   */\n    tag_236:\n        /* \"#utility.yul\":6407:6410   */\n      0x00\n        /* \"#utility.yul\":6443:6447   */\n      0xe0\n        /* \"#utility.yul\":6438:6441   */\n      dup4\n        /* \"#utility.yul\":6434:6448   */\n      add\n        /* \"#utility.yul\":6530:6534   */\n      0x00\n        /* \"#utility.yul\":6523:6528   */\n      dup4\n        /* \"#utility.yul\":6519:6535   */\n      add\n        /* \"#utility.yul\":6513:6536   */\n      mload\n        /* \"#utility.yul\":6583:6586   */\n      dup5\n        /* \"#utility.yul\":6577:6581   */\n      dup3\n        /* \"#utility.yul\":6573:6587   */\n      sub\n        /* \"#utility.yul\":6566:6570   */\n      0x00\n        /* \"#utility.yul\":6561:6564   */\n      dup7\n        /* \"#utility.yul\":6557:6571   */\n      add\n        /* \"#utility.yul\":6550:6588   */\n      mstore\n        /* \"#utility.yul\":6609:6682   */\n      tag_358\n        /* \"#utility.yul\":6677:6681   */\n      dup3\n        /* \"#utility.yul\":6663:6675   */\n      dup3\n        /* \"#utility.yul\":6609:6682   */\n      tag_232\n      jump\t// in\n    tag_358:\n        /* \"#utility.yul\":6601:6682   */\n      swap2\n      pop\n        /* \"#utility.yul\":6458:6693   */\n      pop\n        /* \"#utility.yul\":6784:6788   */\n      0x20\n        /* \"#utility.yul\":6777:6782   */\n      dup4\n        /* \"#utility.yul\":6773:6789   */\n      add\n        /* \"#utility.yul\":6767:6790   */\n      mload\n        /* \"#utility.yul\":6803:6866   */\n      tag_359\n        /* \"#utility.yul\":6860:6864   */\n      0x20\n        /* \"#utility.yul\":6855:6858   */\n      dup7\n        /* \"#utility.yul\":6851:6865   */\n      add\n        /* \"#utility.yul\":6837:6849   */\n      dup3\n        /* \"#utility.yul\":6803:6866   */\n      tag_233\n      jump\t// in\n    tag_359:\n        /* \"#utility.yul\":6703:6876   */\n      pop\n        /* \"#utility.yul\":6968:6972   */\n      0x40\n        /* \"#utility.yul\":6961:6966   */\n      dup4\n        /* \"#utility.yul\":6957:6973   */\n      add\n        /* \"#utility.yul\":6951:6974   */\n      mload\n        /* \"#utility.yul\":6987:7050   */\n      tag_360\n        /* \"#utility.yul\":7044:7048   */\n      0x40\n        /* \"#utility.yul\":7039:7042   */\n      dup7\n        /* \"#utility.yul\":7035:7049   */\n      add\n        /* \"#utility.yul\":7021:7033   */\n      dup3\n        /* \"#utility.yul\":6987:7050   */\n      tag_233\n      jump\t// in\n    tag_360:\n        /* \"#utility.yul\":6886:7060   */\n      pop\n        /* \"#utility.yul\":7146:7150   */\n      0x60\n        /* \"#utility.yul\":7139:7144   */\n      dup4\n        /* \"#utility.yul\":7135:7151   */\n      add\n        /* \"#utility.yul\":7129:7152   */\n      mload\n        /* \"#utility.yul\":7165:7228   */\n      tag_361\n        /* \"#utility.yul\":7222:7226   */\n      0x60\n        /* \"#utility.yul\":7217:7220   */\n      dup7\n        /* \"#utility.yul\":7213:7227   */\n      add\n        /* \"#utility.yul\":7199:7211   */\n      dup3\n        /* \"#utility.yul\":7165:7228   */\n      tag_233\n      jump\t// in\n    tag_361:\n        /* \"#utility.yul\":7070:7238   */\n      pop\n        /* \"#utility.yul\":7328:7332   */\n      0x80\n        /* \"#utility.yul\":7321:7326   */\n      dup4\n        /* \"#utility.yul\":7317:7333   */\n      add\n        /* \"#utility.yul\":7311:7334   */\n      mload\n        /* \"#utility.yul\":7347:7410   */\n      tag_362\n        /* \"#utility.yul\":7404:7408   */\n      0x80\n        /* \"#utility.yul\":7399:7402   */\n      dup7\n        /* \"#utility.yul\":7395:7409   */\n      add\n        /* \"#utility.yul\":7381:7393   */\n      dup3\n        /* \"#utility.yul\":7347:7410   */\n      tag_233\n      jump\t// in\n    tag_362:\n        /* \"#utility.yul\":7248:7420   */\n      pop\n        /* \"#utility.yul\":7505:7509   */\n      0xa0\n        /* \"#utility.yul\":7498:7503   */\n      dup4\n        /* \"#utility.yul\":7494:7510   */\n      add\n        /* \"#utility.yul\":7488:7511   */\n      mload\n        /* \"#utility.yul\":7524:7587   */\n      tag_363\n        /* \"#utility.yul\":7581:7585   */\n      0xa0\n        /* \"#utility.yul\":7576:7579   */\n      dup7\n        /* \"#utility.yul\":7572:7586   */\n      add\n        /* \"#utility.yul\":7558:7570   */\n      dup3\n        /* \"#utility.yul\":7524:7587   */\n      tag_234\n      jump\t// in\n    tag_363:\n        /* \"#utility.yul\":7430:7597   */\n      pop\n        /* \"#utility.yul\":7680:7684   */\n      0xc0\n        /* \"#utility.yul\":7673:7678   */\n      dup4\n        /* \"#utility.yul\":7669:7685   */\n      add\n        /* \"#utility.yul\":7663:7686   */\n      mload\n        /* \"#utility.yul\":7699:7775   */\n      tag_364\n        /* \"#utility.yul\":7769:7773   */\n      0xc0\n        /* \"#utility.yul\":7764:7767   */\n      dup7\n        /* \"#utility.yul\":7760:7774   */\n      add\n        /* \"#utility.yul\":7746:7758   */\n      dup3\n        /* \"#utility.yul\":7699:7775   */\n      tag_235\n      jump\t// in\n    tag_364:\n        /* \"#utility.yul\":7607:7785   */\n      pop\n        /* \"#utility.yul\":7802:7806   */\n      dup1\n        /* \"#utility.yul\":7795:7806   */\n      swap2\n      pop\n        /* \"#utility.yul\":6412:7812   */\n      pop\n        /* \"#utility.yul\":6300:7812   */\n      swap3\n      swap2\n      pop\n      pop\n      jump\t// out\n        /* \"#utility.yul\":7818:8070   */\n    tag_237:\n        /* \"#utility.yul\":7935:7945   */\n      0x00\n        /* \"#utility.yul\":7970:8064   */\n      tag_366\n        /* \"#utility.yul\":8060:8063   */\n      dup4\n        /* \"#utility.yul\":8052:8058   */\n      dup4\n        /* \"#utility.yul\":7970:8064   */\n      tag_236\n      jump\t// in\n    tag_366:\n        /* \"#utility.yul\":7956:8064   */\n      swap1\n      pop\n        /* \"#utility.yul\":7818:8070   */\n      swap3\n      swap2\n      pop\n      pop\n      jump\t// out\n        /* \"#utility.yul\":8076:8213   */\n    tag_238:\n        /* \"#utility.yul\":8170:8174   */\n      0x00\n        /* \"#utility.yul\":8202:8206   */\n      0x20\n        /* \"#utility.yul\":8197:8200   */\n      dup3\n        /* \"#utility.yul\":8193:8207   */\n      add\n        /* \"#utility.yul\":8185:8207   */\n      swap1\n      pop\n        /* \"#utility.yul\":8076:8213   */\n      swap2\n      swap1\n      pop\n      jump\t// out\n        /* \"#utility.yul\":8285:9388   */\n    tag_239:\n        /* \"#utility.yul\":8452:8455   */\n      0x00\n        /* \"#utility.yul\":8481:8559   */\n      tag_369\n        /* \"#utility.yul\":8553:8558   */\n      dup3\n        /* \"#utility.yul\":8481:8559   */\n      tag_228\n      jump\t// in\n    tag_369:\n        /* \"#utility.yul\":8575:8685   */\n      tag_370\n        /* \"#utility.yul\":8678:8684   */\n      dup2\n        /* \"#utility.yul\":8673:8676   */\n      dup6\n        /* \"#utility.yul\":8575:8685   */\n      tag_229\n      jump\t// in\n    tag_370:\n        /* \"#utility.yul\":8568:8685   */\n      swap4\n      pop\n        /* \"#utility.yul\":8711:8714   */\n      dup4\n        /* \"#utility.yul\":8756:8760   */\n      0x20\n        /* \"#utility.yul\":8748:8754   */\n      dup3\n        /* \"#utility.yul\":8744:8761   */\n      mul\n        /* \"#utility.yul\":8739:8742   */\n      dup6\n        /* \"#utility.yul\":8735:8762   */\n      add\n        /* \"#utility.yul\":8786:8866   */\n      tag_371\n        /* \"#utility.yul\":8860:8865   */\n      dup6\n        /* \"#utility.yul\":8786:8866   */\n      tag_230\n      jump\t// in\n    tag_371:\n        /* \"#utility.yul\":8889:8896   */\n      dup1\n        /* \"#utility.yul\":8920:8921   */\n      0x00\n        /* \"#utility.yul\":8905:9343   */\n    tag_372:\n        /* \"#utility.yul\":8930:8936   */\n      dup6\n        /* \"#utility.yul\":8927:8928   */\n      dup2\n        /* \"#utility.yul\":8924:8937   */\n      lt\n        /* \"#utility.yul\":8905:9343   */\n      iszero\n      tag_374\n      jumpi\n        /* \"#utility.yul\":9001:9010   */\n      dup5\n        /* \"#utility.yul\":8995:8999   */\n      dup5\n        /* \"#utility.yul\":8991:9011   */\n      sub\n        /* \"#utility.yul\":8986:8989   */\n      dup10\n        /* \"#utility.yul\":8979:9012   */\n      mstore\n        /* \"#utility.yul\":9052:9058   */\n      dup2\n        /* \"#utility.yul\":9046:9059   */\n      mload\n        /* \"#utility.yul\":9080:9192   */\n      tag_375\n        /* \"#utility.yul\":9187:9191   */\n      dup6\n        /* \"#utility.yul\":9172:9185   */\n      dup3\n        /* \"#utility.yul\":9080:9192   */\n      tag_237\n      jump\t// in\n    tag_375:\n        /* \"#utility.yul\":9072:9192   */\n      swap5\n      pop\n        /* \"#utility.yul\":9215:9299   */\n      tag_376\n        /* \"#utility.yul\":9292:9298   */\n      dup4\n        /* \"#utility.yul\":9215:9299   */\n      tag_238\n      jump\t// in\n    tag_376:\n        /* \"#utility.yul\":9205:9299   */\n      swap3\n      pop\n        /* \"#utility.yul\":9328:9332   */\n      0x20\n        /* \"#utility.yul\":9323:9326   */\n      dup11\n        /* \"#utility.yul\":9319:9333   */\n      add\n        /* \"#utility.yul\":9312:9333   */\n      swap10\n      pop\n        /* \"#utility.yul\":8965:9343   */\n      pop\n        /* \"#utility.yul\":8952:8953   */\n      0x01\n        /* \"#utility.yul\":8949:8950   */\n      dup2\n        /* \"#utility.yul\":8945:8954   */\n      add\n        /* \"#utility.yul\":8940:8954   */\n      swap1\n      pop\n        /* \"#utility.yul\":8905:9343   */\n      jump(tag_372)\n    tag_374:\n        /* \"#utility.yul\":8909:8923   */\n      pop\n        /* \"#utility.yul\":9359:9363   */\n      dup3\n        /* \"#utility.yul\":9352:9363   */\n      swap8\n      pop\n        /* \"#utility.yul\":9379:9382   */\n      dup8\n        /* \"#utility.yul\":9372:9382   */\n      swap6\n      pop\n        /* \"#utility.yul\":8457:9388   */\n      pop\n      pop\n      pop\n      pop\n      pop\n        /* \"#utility.yul\":8285:9388   */\n      swap3\n      swap2\n      pop\n      pop\n      jump\t// out\n        /* \"#utility.yul\":9394:9508   */\n    tag_240:\n        /* \"#utility.yul\":9461:9467   */\n      0x00\n        /* \"#utility.yul\":9495:9500   */\n      dup2\n        /* \"#utility.yul\":9489:9501   */\n      mload\n        /* \"#utility.yul\":9479:9501   */\n      swap1\n      pop\n        /* \"#utility.yul\":9394:9508   */\n      swap2\n      swap1\n      pop\n      jump\t// out\n        /* \"#utility.yul\":9514:9698   */\n    tag_241:\n        /* \"#utility.yul\":9613:9624   */\n      0x00\n        /* \"#utility.yul\":9647:9653   */\n      dup3\n        /* \"#utility.yul\":9642:9645   */\n      dup3\n        /* \"#utility.yul\":9635:9654   */\n      mstore\n        /* \"#utility.yul\":9687:9691   */\n      0x20\n        /* \"#utility.yul\":9682:9685   */\n      dup3\n        /* \"#utility.yul\":9678:9692   */\n      add\n        /* \"#utility.yul\":9663:9692   */\n      swap1\n      pop\n        /* \"#utility.yul\":9514:9698   */\n      swap3\n      swap2\n      pop\n      pop\n      jump\t// out\n        /* \"#utility.yul\":9704:9836   */\n    tag_242:\n        /* \"#utility.yul\":9771:9775   */\n      0x00\n        /* \"#utility.yul\":9794:9797   */\n      dup2\n        /* \"#utility.yul\":9786:9797   */\n      swap1\n      pop\n        /* \"#utility.yul\":9824:9828   */\n      0x20\n        /* \"#utility.yul\":9819:9822   */\n      dup3\n        /* \"#utility.yul\":9815:9829   */\n      add\n        /* \"#utility.yul\":9807:9829   */\n      swap1\n      pop\n        /* \"#utility.yul\":9704:9836   */\n      swap2\n      swap1\n      pop\n      jump\t// out\n        /* \"#utility.yul\":9842:10021   */\n    tag_243:\n        /* \"#utility.yul\":9911:9921   */\n      0x00\n        /* \"#utility.yul\":9932:9978   */\n      tag_381\n        /* \"#utility.yul\":9974:9977   */\n      dup4\n        /* \"#utility.yul\":9966:9972   */\n      dup4\n        /* \"#utility.yul\":9932:9978   */\n      tag_233\n      jump\t// in\n    tag_381:\n        /* \"#utility.yul\":10010:10014   */\n      0x20\n        /* \"#utility.yul\":10005:10008   */\n      dup4\n        /* \"#utility.yul\":10001:10015   */\n      add\n        /* \"#utility.yul\":9987:10015   */\n      swap1\n      pop\n        /* \"#utility.yul\":9842:10021   */\n      swap3\n      swap2\n      pop\n      pop\n      jump\t// out\n        /* \"#utility.yul\":10027:10140   */\n    tag_244:\n        /* \"#utility.yul\":10097:10101   */\n      0x00\n        /* \"#utility.yul\":10129:10133   */\n      0x20\n        /* \"#utility.yul\":10124:10127   */\n      dup3\n        /* \"#utility.yul\":10120:10134   */\n      add\n        /* \"#utility.yul\":10112:10134   */\n      swap1\n      pop\n        /* \"#utility.yul\":10027:10140   */\n      swap2\n      swap1\n      pop\n      jump\t// out\n        /* \"#utility.yul\":10176:10908   */\n    tag_245:\n        /* \"#utility.yul\":10295:10298   */\n      0x00\n        /* \"#utility.yul\":10324:10378   */\n      tag_384\n        /* \"#utility.yul\":10372:10377   */\n      dup3\n        /* \"#utility.yul\":10324:10378   */\n      tag_240\n      jump\t// in\n    tag_384:\n        /* \"#utility.yul\":10394:10480   */\n      tag_385\n        /* \"#utility.yul\":10473:10479   */\n      dup2\n        /* \"#utility.yul\":10468:10471   */\n      dup6\n        /* \"#utility.yul\":10394:10480   */\n      tag_241\n      jump\t// in\n    tag_385:\n        /* \"#utility.yul\":10387:10480   */\n      swap4\n      pop\n        /* \"#utility.yul\":10504:10560   */\n      tag_386\n        /* \"#utility.yul\":10554:10559   */\n      dup4\n        /* \"#utility.yul\":10504:10560   */\n      tag_242\n      jump\t// in\n    tag_386:\n        /* \"#utility.yul\":10583:10590   */\n      dup1\n        /* \"#utility.yul\":10614:10615   */\n      0x00\n        /* \"#utility.yul\":10599:10883   */\n    tag_387:\n        /* \"#utility.yul\":10624:10630   */\n      dup4\n        /* \"#utility.yul\":10621:10622   */\n      dup2\n        /* \"#utility.yul\":10618:10631   */\n      lt\n        /* \"#utility.yul\":10599:10883   */\n      iszero\n      tag_389\n      jumpi\n        /* \"#utility.yul\":10700:10706   */\n      dup2\n        /* \"#utility.yul\":10694:10707   */\n      mload\n        /* \"#utility.yul\":10727:10790   */\n      tag_390\n        /* \"#utility.yul\":10786:10789   */\n      dup9\n        /* \"#utility.yul\":10771:10784   */\n      dup3\n        /* \"#utility.yul\":10727:10790   */\n      tag_243\n      jump\t// in\n    tag_390:\n        /* \"#utility.yul\":10720:10790   */\n      swap8\n      pop\n        /* \"#utility.yul\":10813:10873   */\n      tag_391\n        /* \"#utility.yul\":10866:10872   */\n      dup4\n        /* \"#utility.yul\":10813:10873   */\n      tag_244\n      jump\t// in\n    tag_391:\n        /* \"#utility.yul\":10803:10873   */\n      swap3\n      pop\n        /* \"#utility.yul\":10659:10883   */\n      pop\n        /* \"#utility.yul\":10646:10647   */\n      0x01\n        /* \"#utility.yul\":10643:10644   */\n      dup2\n        /* \"#utility.yul\":10639:10648   */\n      add\n        /* \"#utility.yul\":10634:10648   */\n      swap1\n      pop\n        /* \"#utility.yul\":10599:10883   */\n      jump(tag_387)\n    tag_389:\n        /* \"#utility.yul\":10603:10617   */\n      pop\n        /* \"#utility.yul\":10899:10902   */\n      dup6\n        /* \"#utility.yul\":10892:10902   */\n      swap4\n      pop\n        /* \"#utility.yul\":10300:10908   */\n      pop\n      pop\n      pop\n        /* \"#utility.yul\":10176:10908   */\n      swap3\n      swap2\n      pop\n      pop\n      jump\t// out\n        /* \"#utility.yul\":10914:11644   */\n    tag_24:\n        /* \"#utility.yul\":11183:11187   */\n      0x00\n        /* \"#utility.yul\":11221:11223   */\n      0x40\n        /* \"#utility.yul\":11210:11219   */\n      dup3\n        /* \"#utility.yul\":11206:11224   */\n      add\n        /* \"#utility.yul\":11198:11224   */\n      swap1\n      pop\n        /* \"#utility.yul\":11270:11279   */\n      dup2\n        /* \"#utility.yul\":11264:11268   */\n      dup2\n        /* \"#utility.yul\":11260:11280   */\n      sub\n        /* \"#utility.yul\":11256:11257   */\n      0x00\n        /* \"#utility.yul\":11245:11254   */\n      dup4\n        /* \"#utility.yul\":11241:11258   */\n      add\n        /* \"#utility.yul\":11234:11281   */\n      mstore\n        /* \"#utility.yul\":11298:11454   */\n      tag_393\n        /* \"#utility.yul\":11449:11453   */\n      dup2\n        /* \"#utility.yul\":11440:11446   */\n      dup6\n        /* \"#utility.yul\":11298:11454   */\n      tag_239\n      jump\t// in\n    tag_393:\n        /* \"#utility.yul\":11290:11454   */\n      swap1\n      pop\n        /* \"#utility.yul\":11501:11510   */\n      dup2\n        /* \"#utility.yul\":11495:11499   */\n      dup2\n        /* \"#utility.yul\":11491:11511   */\n      sub\n        /* \"#utility.yul\":11486:11488   */\n      0x20\n        /* \"#utility.yul\":11475:11484   */\n      dup4\n        /* \"#utility.yul\":11471:11489   */\n      add\n        /* \"#utility.yul\":11464:11512   */\n      mstore\n        /* \"#utility.yul\":11529:11637   */\n      tag_394\n        /* \"#utility.yul\":11632:11636   */\n      dup2\n        /* \"#utility.yul\":11623:11629   */\n      dup5\n        /* \"#utility.yul\":11529:11637   */\n      tag_245\n      jump\t// in\n    tag_394:\n        /* \"#utility.yul\":11521:11637   */\n      swap1\n      pop\n        /* \"#utility.yul\":10914:11644   */\n      swap4\n      swap3\n      pop\n      pop\n      pop\n      jump\t// out\n        /* \"#utility.yul\":11650:12124   */\n    tag_32:\n        /* \"#utility.yul\":11718:11724   */\n      0x00\n        /* \"#utility.yul\":11726:11732   */\n      dup1\n        /* \"#utility.yul\":11775:11777   */\n      0x40\n        /* \"#utility.yul\":11763:11772   */\n      dup4\n        /* \"#utility.yul\":11754:11761   */\n      dup6\n        /* \"#utility.yul\":11750:11773   */\n      sub\n        /* \"#utility.yul\":11746:11778   */\n      slt\n        /* \"#utility.yul\":11743:11862   */\n      iszero\n      tag_396\n      jumpi\n        /* \"#utility.yul\":11781:11860   */\n      tag_397\n      tag_208\n      jump\t// in\n    tag_397:\n        /* \"#utility.yul\":11743:11862   */\n    tag_396:\n        /* \"#utility.yul\":11901:11902   */\n      0x00\n        /* \"#utility.yul\":11926:11979   */\n      tag_398\n        /* \"#utility.yul\":11971:11978   */\n      dup6\n        /* \"#utility.yul\":11962:11968   */\n      dup3\n        /* \"#utility.yul\":11951:11960   */\n      dup7\n        /* \"#utility.yul\":11947:11969   */\n      add\n        /* \"#utility.yul\":11926:11979   */\n      tag_227\n      jump\t// in\n    tag_398:\n        /* \"#utility.yul\":11916:11979   */\n      swap3\n      pop\n        /* \"#utility.yul\":11872:11989   */\n      pop\n        /* \"#utility.yul\":12028:12030   */\n      0x20\n        /* \"#utility.yul\":12054:12107   */\n      tag_399\n        /* \"#utility.yul\":12099:12106   */\n      dup6\n        /* \"#utility.yul\":12090:12096   */\n      dup3\n        /* \"#utility.yul\":12079:12088   */\n      dup7\n        /* \"#utility.yul\":12075:12097   */\n      add\n        /* \"#utility.yul\":12054:12107   */\n      tag_212\n      jump\t// in\n    tag_399:\n        /* \"#utility.yul\":12044:12107   */\n      swap2\n      pop\n        /* \"#utility.yul\":11999:12117   */\n      pop\n        /* \"#utility.yul\":11650:12124   */\n      swap3\n      pop\n      swap3\n      swap1\n      pop\n      jump\t// out\n        /* \"#utility.yul\":12130:12352   */\n    tag_35:\n        /* \"#utility.yul\":12223:12227   */\n      0x00\n        /* \"#utility.yul\":12261:12263   */\n      0x20\n        /* \"#utility.yul\":12250:12259   */\n      dup3\n        /* \"#utility.yul\":12246:12264   */\n      add\n        /* \"#utility.yul\":12238:12264   */\n      swap1\n      pop\n        /* \"#utility.yul\":12274:12345   */\n      tag_401\n        /* \"#utility.yul\":12342:12343   */\n      0x00\n        /* \"#utility.yul\":12331:12340   */\n      dup4\n        /* \"#utility.yul\":12327:12344   */\n      add\n        /* \"#utility.yul\":12318:12324   */\n      dup5\n        /* \"#utility.yul\":12274:12345   */\n      tag_218\n      jump\t// in\n    tag_401:\n        /* \"#utility.yul\":12130:12352   */\n      swap3\n      swap2\n      pop\n      pop\n      jump\t// out\n        /* \"#utility.yul\":12358:12827   */\n    tag_43:\n        /* \"#utility.yul\":12549:12553   */\n      0x00\n        /* \"#utility.yul\":12587:12589   */\n      0x20\n        /* \"#utility.yul\":12576:12585   */\n      dup3\n        /* \"#utility.yul\":12572:12590   */\n      add\n        /* \"#utility.yul\":12564:12590   */\n      swap1\n      pop\n        /* \"#utility.yul\":12636:12645   */\n      dup2\n        /* \"#utility.yul\":12630:12634   */\n      dup2\n        /* \"#utility.yul\":12626:12646   */\n      sub\n        /* \"#utility.yul\":12622:12623   */\n      0x00\n        /* \"#utility.yul\":12611:12620   */\n      dup4\n        /* \"#utility.yul\":12607:12624   */\n      add\n        /* \"#utility.yul\":12600:12647   */\n      mstore\n        /* \"#utility.yul\":12664:12820   */\n      tag_403\n        /* \"#utility.yul\":12815:12819   */\n      dup2\n        /* \"#utility.yul\":12806:12812   */\n      dup5\n        /* \"#utility.yul\":12664:12820   */\n      tag_239\n      jump\t// in\n    tag_403:\n        /* \"#utility.yul\":12656:12820   */\n      swap1\n      pop\n        /* \"#utility.yul\":12358:12827   */\n      swap3\n      swap2\n      pop\n      pop\n      jump\t// out\n        /* \"#utility.yul\":12833:12950   */\n    tag_246:\n        /* \"#utility.yul\":12942:12943   */\n      0x00\n        /* \"#utility.yul\":12939:12940   */\n      dup1\n        /* \"#utility.yul\":12932:12944   */\n      revert\n        /* \"#utility.yul\":12956:13073   */\n    tag_247:\n        /* \"#utility.yul\":13065:13066   */\n      0x00\n        /* \"#utility.yul\":13062:13063   */\n      dup1\n        /* \"#utility.yul\":13055:13067   */\n      revert\n        /* \"#utility.yul\":13079:13259   */\n    tag_73:\n        /* \"#utility.yul\":13127:13204   */\n      0x4e487b7100000000000000000000000000000000000000000000000000000000\n        /* \"#utility.yul\":13124:13125   */\n      0x00\n        /* \"#utility.yul\":13117:13205   */\n      mstore\n        /* \"#utility.yul\":13224:13228   */\n      0x41\n        /* \"#utility.yul\":13221:13222   */\n      0x04\n        /* \"#utility.yul\":13214:13229   */\n      mstore\n        /* \"#utility.yul\":13248:13252   */\n      0x24\n        /* \"#utility.yul\":13245:13246   */\n      0x00\n        /* \"#utility.yul\":13238:13253   */\n      revert\n        /* \"#utility.yul\":13265:13546   */\n    tag_248:\n        /* \"#utility.yul\":13348:13375   */\n      tag_408\n        /* \"#utility.yul\":13370:13374   */\n      dup3\n        /* \"#utility.yul\":13348:13375   */\n      tag_216\n      jump\t// in\n    tag_408:\n        /* \"#utility.yul\":13340:13346   */\n      dup2\n        /* \"#utility.yul\":13336:13376   */\n      add\n        /* \"#utility.yul\":13478:13484   */\n      dup2\n        /* \"#utility.yul\":13466:13476   */\n      dup2\n        /* \"#utility.yul\":13463:13485   */\n      lt\n        /* \"#utility.yul\":13442:13460   */\n      0xffffffffffffffff\n        /* \"#utility.yul\":13430:13440   */\n      dup3\n        /* \"#utility.yul\":13427:13461   */\n      gt\n        /* \"#utility.yul\":13424:13486   */\n      or\n        /* \"#utility.yul\":13421:13509   */\n      iszero\n      tag_409\n      jumpi\n        /* \"#utility.yul\":13489:13507   */\n      tag_410\n      tag_73\n      jump\t// in\n    tag_410:\n        /* \"#utility.yul\":13421:13509   */\n    tag_409:\n        /* \"#utility.yul\":13529:13539   */\n      dup1\n        /* \"#utility.yul\":13525:13527   */\n      0x40\n        /* \"#utility.yul\":13518:13540   */\n      mstore\n        /* \"#utility.yul\":13308:13546   */\n      pop\n        /* \"#utility.yul\":13265:13546   */\n      pop\n      pop\n      jump\t// out\n        /* \"#utility.yul\":13552:13681   */\n    tag_249:\n        /* \"#utility.yul\":13586:13592   */\n      0x00\n        /* \"#utility.yul\":13613:13633   */\n      tag_412\n      tag_207\n      jump\t// in\n    tag_412:\n        /* \"#utility.yul\":13603:13633   */\n      swap1\n      pop\n        /* \"#utility.yul\":13642:13675   */\n      tag_413\n        /* \"#utility.yul\":13670:13674   */\n      dup3\n        /* \"#utility.yul\":13662:13668   */\n      dup3\n        /* \"#utility.yul\":13642:13675   */\n      tag_248\n      jump\t// in\n    tag_413:\n        /* \"#utility.yul\":13552:13681   */\n      swap2\n      swap1\n      pop\n      jump\t// out\n        /* \"#utility.yul\":13687:13995   */\n    tag_250:\n        /* \"#utility.yul\":13749:13753   */\n      0x00\n        /* \"#utility.yul\":13839:13857   */\n      0xffffffffffffffff\n        /* \"#utility.yul\":13831:13837   */\n      dup3\n        /* \"#utility.yul\":13828:13858   */\n      gt\n        /* \"#utility.yul\":13825:13881   */\n      iszero\n      tag_415\n      jumpi\n        /* \"#utility.yul\":13861:13879   */\n      tag_416\n      tag_73\n      jump\t// in\n    tag_416:\n        /* \"#utility.yul\":13825:13881   */\n    tag_415:\n        /* \"#utility.yul\":13899:13928   */\n      tag_417\n        /* \"#utility.yul\":13921:13927   */\n      dup3\n        /* \"#utility.yul\":13899:13928   */\n      tag_216\n      jump\t// in\n    tag_417:\n        /* \"#utility.yul\":13891:13928   */\n      swap1\n      pop\n        /* \"#utility.yul\":13983:13987   */\n      0x20\n        /* \"#utility.yul\":13977:13981   */\n      dup2\n        /* \"#utility.yul\":13973:13988   */\n      add\n        /* \"#utility.yul\":13965:13988   */\n      swap1\n      pop\n        /* \"#utility.yul\":13687:13995   */\n      swap2\n      swap1\n      pop\n      jump\t// out\n        /* \"#utility.yul\":14001:14149   */\n    tag_251:\n        /* \"#utility.yul\":14099:14105   */\n      dup3\n        /* \"#utility.yul\":14094:14097   */\n      dup2\n        /* \"#utility.yul\":14089:14092   */\n      dup4\n        /* \"#utility.yul\":14076:14106   */\n      calldatacopy\n        /* \"#utility.yul\":14140:14141   */\n      0x00\n        /* \"#utility.yul\":14131:14137   */\n      dup4\n        /* \"#utility.yul\":14126:14129   */\n      dup4\n        /* \"#utility.yul\":14122:14138   */\n      add\n        /* \"#utility.yul\":14115:14142   */\n      mstore\n        /* \"#utility.yul\":14001:14149   */\n      pop\n      pop\n      pop\n      jump\t// out\n        /* \"#utility.yul\":14155:14580   */\n    tag_252:\n        /* \"#utility.yul\":14233:14238   */\n      0x00\n        /* \"#utility.yul\":14258:14324   */\n      tag_420\n        /* \"#utility.yul\":14274:14323   */\n      tag_421\n        /* \"#utility.yul\":14316:14322   */\n      dup5\n        /* \"#utility.yul\":14274:14323   */\n      tag_250\n      jump\t// in\n    tag_421:\n        /* \"#utility.yul\":14258:14324   */\n      tag_249\n      jump\t// in\n    tag_420:\n        /* \"#utility.yul\":14249:14324   */\n      swap1\n      pop\n        /* \"#utility.yul\":14347:14353   */\n      dup3\n        /* \"#utility.yul\":14340:14345   */\n      dup2\n        /* \"#utility.yul\":14333:14354   */\n      mstore\n        /* \"#utility.yul\":14385:14389   */\n      0x20\n        /* \"#utility.yul\":14378:14383   */\n      dup2\n        /* \"#utility.yul\":14374:14390   */\n      add\n        /* \"#utility.yul\":14423:14426   */\n      dup5\n        /* \"#utility.yul\":14414:14420   */\n      dup5\n        /* \"#utility.yul\":14409:14412   */\n      dup5\n        /* \"#utility.yul\":14405:14421   */\n      add\n        /* \"#utility.yul\":14402:14427   */\n      gt\n        /* \"#utility.yul\":14399:14511   */\n      iszero\n      tag_422\n      jumpi\n        /* \"#utility.yul\":14430:14509   */\n      tag_423\n      tag_247\n      jump\t// in\n    tag_423:\n        /* \"#utility.yul\":14399:14511   */\n    tag_422:\n        /* \"#utility.yul\":14520:14574   */\n      tag_424\n        /* \"#utility.yul\":14567:14573   */\n      dup5\n        /* \"#utility.yul\":14562:14565   */\n      dup3\n        /* \"#utility.yul\":14557:14560   */\n      dup6\n        /* \"#utility.yul\":14520:14574   */\n      tag_251\n      jump\t// in\n    tag_424:\n        /* \"#utility.yul\":14239:14580   */\n      pop\n        /* \"#utility.yul\":14155:14580   */\n      swap4\n      swap3\n      pop\n      pop\n      pop\n      jump\t// out\n        /* \"#utility.yul\":14600:14940   */\n    tag_253:\n        /* \"#utility.yul\":14656:14661   */\n      0x00\n        /* \"#utility.yul\":14705:14708   */\n      dup3\n        /* \"#utility.yul\":14698:14702   */\n      0x1f\n        /* \"#utility.yul\":14690:14696   */\n      dup4\n        /* \"#utility.yul\":14686:14703   */\n      add\n        /* \"#utility.yul\":14682:14709   */\n      slt\n        /* \"#utility.yul\":14672:14794   */\n      tag_426\n      jumpi\n        /* \"#utility.yul\":14713:14792   */\n      tag_427\n      tag_246\n      jump\t// in\n    tag_427:\n        /* \"#utility.yul\":14672:14794   */\n    tag_426:\n        /* \"#utility.yul\":14830:14836   */\n      dup2\n        /* \"#utility.yul\":14817:14837   */\n      calldataload\n        /* \"#utility.yul\":14855:14934   */\n      tag_428\n        /* \"#utility.yul\":14930:14933   */\n      dup5\n        /* \"#utility.yul\":14922:14928   */\n      dup3\n        /* \"#utility.yul\":14915:14919   */\n      0x20\n        /* \"#utility.yul\":14907:14913   */\n      dup7\n        /* \"#utility.yul\":14903:14920   */\n      add\n        /* \"#utility.yul\":14855:14934   */\n      tag_252\n      jump\t// in\n    tag_428:\n        /* \"#utility.yul\":14846:14934   */\n      swap2\n      pop\n        /* \"#utility.yul\":14662:14940   */\n      pop\n        /* \"#utility.yul\":14600:14940   */\n      swap3\n      swap2\n      pop\n      pop\n      jump\t// out\n        /* \"#utility.yul\":14946:15745   */\n    tag_47:\n        /* \"#utility.yul\":15033:15039   */\n      0x00\n        /* \"#utility.yul\":15041:15047   */\n      dup1\n        /* \"#utility.yul\":15049:15055   */\n      0x00\n        /* \"#utility.yul\":15098:15100   */\n      0x60\n        /* \"#utility.yul\":15086:15095   */\n      dup5\n        /* \"#utility.yul\":15077:15084   */\n      dup7\n        /* \"#utility.yul\":15073:15096   */\n      sub\n        /* \"#utility.yul\":15069:15101   */\n      slt\n        /* \"#utility.yul\":15066:15185   */\n      iszero\n      tag_430\n      jumpi\n        /* \"#utility.yul\":15104:15183   */\n      tag_431\n      tag_208\n      jump\t// in\n    tag_431:\n        /* \"#utility.yul\":15066:15185   */\n    tag_430:\n        /* \"#utility.yul\":15224:15225   */\n      0x00\n        /* \"#utility.yul\":15249:15302   */\n      tag_432\n        /* \"#utility.yul\":15294:15301   */\n      dup7\n        /* \"#utility.yul\":15285:15291   */\n      dup3\n        /* \"#utility.yul\":15274:15283   */\n      dup8\n        /* \"#utility.yul\":15270:15292   */\n      add\n        /* \"#utility.yul\":15249:15302   */\n      tag_212\n      jump\t// in\n    tag_432:\n        /* \"#utility.yul\":15239:15302   */\n      swap4\n      pop\n        /* \"#utility.yul\":15195:15312   */\n      pop\n        /* \"#utility.yul\":15351:15353   */\n      0x20\n        /* \"#utility.yul\":15377:15430   */\n      tag_433\n        /* \"#utility.yul\":15422:15429   */\n      dup7\n        /* \"#utility.yul\":15413:15419   */\n      dup3\n        /* \"#utility.yul\":15402:15411   */\n      dup8\n        /* \"#utility.yul\":15398:15420   */\n      add\n        /* \"#utility.yul\":15377:15430   */\n      tag_212\n      jump\t// in\n    tag_433:\n        /* \"#utility.yul\":15367:15430   */\n      swap3\n      pop\n        /* \"#utility.yul\":15322:15440   */\n      pop\n        /* \"#utility.yul\":15507:15509   */\n      0x40\n        /* \"#utility.yul\":15496:15505   */\n      dup5\n        /* \"#utility.yul\":15492:15510   */\n      add\n        /* \"#utility.yul\":15479:15511   */\n      calldataload\n        /* \"#utility.yul\":15538:15556   */\n      0xffffffffffffffff\n        /* \"#utility.yul\":15530:15536   */\n      dup2\n        /* \"#utility.yul\":15527:15557   */\n      gt\n        /* \"#utility.yul\":15524:15641   */\n      iszero\n      tag_434\n      jumpi\n        /* \"#utility.yul\":15560:15639   */\n      tag_435\n      tag_209\n      jump\t// in\n    tag_435:\n        /* \"#utility.yul\":15524:15641   */\n    tag_434:\n        /* \"#utility.yul\":15665:15728   */\n      tag_436\n        /* \"#utility.yul\":15720:15727   */\n      dup7\n        /* \"#utility.yul\":15711:15717   */\n      dup3\n        /* \"#utility.yul\":15700:15709   */\n      dup8\n        /* \"#utility.yul\":15696:15718   */\n      add\n        /* \"#utility.yul\":15665:15728   */\n      tag_253\n      jump\t// in\n    tag_436:\n        /* \"#utility.yul\":15655:15728   */\n      swap2\n      pop\n        /* \"#utility.yul\":15450:15738   */\n      pop\n        /* \"#utility.yul\":14946:15745   */\n      swap3\n      pop\n      swap3\n      pop\n      swap3\n      jump\t// out\n        /* \"#utility.yul\":15751:16225   */\n    tag_52:\n        /* \"#utility.yul\":15819:15825   */\n      0x00\n        /* \"#utility.yul\":15827:15833   */\n      dup1\n        /* \"#utility.yul\":15876:15878   */\n      0x40\n        /* \"#utility.yul\":15864:15873   */\n      dup4\n        /* \"#utility.yul\":15855:15862   */\n      dup6\n        /* \"#utility.yul\":15851:15874   */\n      sub\n        /* \"#utility.yul\":15847:15879   */\n      slt\n        /* \"#utility.yul\":15844:15963   */\n      iszero\n      tag_438\n      jumpi\n        /* \"#utility.yul\":15882:15961   */\n      tag_439\n      tag_208\n      jump\t// in\n    tag_439:\n        /* \"#utility.yul\":15844:15963   */\n    tag_438:\n        /* \"#utility.yul\":16002:16003   */\n      0x00\n        /* \"#utility.yul\":16027:16080   */\n      tag_440\n        /* \"#utility.yul\":16072:16079   */\n      dup6\n        /* \"#utility.yul\":16063:16069   */\n      dup3\n        /* \"#utility.yul\":16052:16061   */\n      dup7\n        /* \"#utility.yul\":16048:16070   */\n      add\n        /* \"#utility.yul\":16027:16080   */\n      tag_212\n      jump\t// in\n    tag_440:\n        /* \"#utility.yul\":16017:16080   */\n      swap3\n      pop\n        /* \"#utility.yul\":15973:16090   */\n      pop\n        /* \"#utility.yul\":16129:16131   */\n      0x20\n        /* \"#utility.yul\":16155:16208   */\n      tag_441\n        /* \"#utility.yul\":16200:16207   */\n      dup6\n        /* \"#utility.yul\":16191:16197   */\n      dup3\n        /* \"#utility.yul\":16180:16189   */\n      dup7\n        /* \"#utility.yul\":16176:16198   */\n      add\n        /* \"#utility.yul\":16155:16208   */\n      tag_212\n      jump\t// in\n    tag_441:\n        /* \"#utility.yul\":16145:16208   */\n      swap2\n      pop\n        /* \"#utility.yul\":16100:16218   */\n      pop\n        /* \"#utility.yul\":15751:16225   */\n      swap3\n      pop\n      swap3\n      swap1\n      pop\n      jump\t// out\n        /* \"#utility.yul\":16231:16453   */\n    tag_55:\n        /* \"#utility.yul\":16324:16328   */\n      0x00\n        /* \"#utility.yul\":16362:16364   */\n      0x20\n        /* \"#utility.yul\":16351:16360   */\n      dup3\n        /* \"#utility.yul\":16347:16365   */\n      add\n        /* \"#utility.yul\":16339:16365   */\n      swap1\n      pop\n        /* \"#utility.yul\":16375:16446   */\n      tag_443\n        /* \"#utility.yul\":16443:16444   */\n      0x00\n        /* \"#utility.yul\":16432:16441   */\n      dup4\n        /* \"#utility.yul\":16428:16445   */\n      add\n        /* \"#utility.yul\":16419:16425   */\n      dup5\n        /* \"#utility.yul\":16375:16446   */\n      tag_221\n      jump\t// in\n    tag_443:\n        /* \"#utility.yul\":16231:16453   */\n      swap3\n      swap2\n      pop\n      pop\n      jump\t// out\n        /* \"#utility.yul\":16459:16639   */\n    tag_254:\n        /* \"#utility.yul\":16507:16584   */\n      0x4e487b7100000000000000000000000000000000000000000000000000000000\n        /* \"#utility.yul\":16504:16505   */\n      0x00\n        /* \"#utility.yul\":16497:16585   */\n      mstore\n        /* \"#utility.yul\":16604:16608   */\n      0x22\n        /* \"#utility.yul\":16601:16602   */\n      0x04\n        /* \"#utility.yul\":16594:16609   */\n      mstore\n        /* \"#utility.yul\":16628:16632   */\n      0x24\n        /* \"#utility.yul\":16625:16626   */\n      0x00\n        /* \"#utility.yul\":16618:16633   */\n      revert\n        /* \"#utility.yul\":16645:16965   */\n    tag_59:\n        /* \"#utility.yul\":16689:16695   */\n      0x00\n        /* \"#utility.yul\":16726:16727   */\n      0x02\n        /* \"#utility.yul\":16720:16724   */\n      dup3\n        /* \"#utility.yul\":16716:16728   */\n      div\n        /* \"#utility.yul\":16706:16728   */\n      swap1\n      pop\n        /* \"#utility.yul\":16773:16774   */\n      0x01\n        /* \"#utility.yul\":16767:16771   */\n      dup3\n        /* \"#utility.yul\":16763:16775   */\n      and\n        /* \"#utility.yul\":16794:16812   */\n      dup1\n        /* \"#utility.yul\":16784:16865   */\n      tag_446\n      jumpi\n        /* \"#utility.yul\":16850:16854   */\n      0x7f\n        /* \"#utility.yul\":16842:16848   */\n      dup3\n        /* \"#utility.yul\":16838:16855   */\n      and\n        /* \"#utility.yul\":16828:16855   */\n      swap2\n      pop\n        /* \"#utility.yul\":16784:16865   */\n    tag_446:\n        /* \"#utility.yul\":16912:16914   */\n      0x20\n        /* \"#utility.yul\":16904:16910   */\n      dup3\n        /* \"#utility.yul\":16901:16915   */\n      lt\n        /* \"#utility.yul\":16881:16899   */\n      dup2\n        /* \"#utility.yul\":16878:16916   */\n      sub\n        /* \"#utility.yul\":16875:16959   */\n      tag_447\n      jumpi\n        /* \"#utility.yul\":16931:16949   */\n      tag_448\n      tag_254\n      jump\t// in\n    tag_448:\n        /* \"#utility.yul\":16875:16959   */\n    tag_447:\n        /* \"#utility.yul\":16696:16965   */\n      pop\n        /* \"#utility.yul\":16645:16965   */\n      swap2\n      swap1\n      pop\n      jump\t// out\n        /* \"#utility.yul\":16971:17151   */\n    tag_255:\n        /* \"#utility.yul\":17019:17096   */\n      0x4e487b7100000000000000000000000000000000000000000000000000000000\n        /* \"#utility.yul\":17016:17017   */\n      0x00\n        /* \"#utility.yul\":17009:17097   */\n      mstore\n        /* \"#utility.yul\":17116:17120   */\n      0x11\n        /* \"#utility.yul\":17113:17114   */\n      0x04\n        /* \"#utility.yul\":17106:17121   */\n      mstore\n        /* \"#utility.yul\":17140:17144   */\n      0x24\n        /* \"#utility.yul\":17137:17138   */\n      0x00\n        /* \"#utility.yul\":17130:17145   */\n      revert\n        /* \"#utility.yul\":17157:17390   */\n    tag_70:\n        /* \"#utility.yul\":17196:17199   */\n      0x00\n        /* \"#utility.yul\":17219:17243   */\n      tag_451\n        /* \"#utility.yul\":17237:17242   */\n      dup3\n        /* \"#utility.yul\":17219:17243   */\n      tag_210\n      jump\t// in\n    tag_451:\n        /* \"#utility.yul\":17210:17243   */\n      swap2\n      pop\n        /* \"#utility.yul\":17265:17331   */\n      0xffffffffffffffffffffffffffffffffffffffffffffffffffffffffffffffff\n        /* \"#utility.yul\":17258:17263   */\n      dup3\n        /* \"#utility.yul\":17255:17332   */\n      sub\n        /* \"#utility.yul\":17252:17355   */\n      tag_452\n      jumpi\n        /* \"#utility.yul\":17335:17353   */\n      tag_453\n      tag_255\n      jump\t// in\n    tag_453:\n        /* \"#utility.yul\":17252:17355   */\n    tag_452:\n        /* \"#utility.yul\":17382:17383   */\n      0x01\n        /* \"#utility.yul\":17375:17380   */\n      dup3\n        /* \"#utility.yul\":17371:17384   */\n      add\n        /* \"#utility.yul\":17364:17384   */\n      swap1\n      pop\n        /* \"#utility.yul\":17157:17390   */\n      swap2\n      swap1\n      pop\n      jump\t// out\n        /* \"#utility.yul\":17396:17576   */\n    tag_87:\n        /* \"#utility.yul\":17444:17521   */\n      0x4e487b7100000000000000000000000000000000000000000000000000000000\n        /* \"#utility.yul\":17441:17442   */\n      0x00\n        /* \"#utility.yul\":17434:17522   */\n      mstore\n        /* \"#utility.yul\":17541:17545   */\n      0x32\n        /* \"#utility.yul\":17538:17539   */\n      0x04\n        /* \"#utility.yul\":17531:17546   */\n      mstore\n        /* \"#utility.yul\":17565:17569   */\n      0x24\n        /* \"#utility.yul\":17562:17563   */\n      0x00\n        /* \"#utility.yul\":17555:17570   */\n      revert\n        /* \"#utility.yul\":17582:17755   */\n    tag_256:\n        /* \"#utility.yul\":17722:17747   */\n      0x43616d706169676e20646f6573206e6f74206578697374000000000000000000\n        /* \"#utility.yul\":17718:17719   */\n      0x00\n        /* \"#utility.yul\":17710:17716   */\n      dup3\n        /* \"#utility.yul\":17706:17720   */\n      add\n        /* \"#utility.yul\":17699:17748   */\n      mstore\n        /* \"#utility.yul\":17582:17755   */\n      pop\n      jump\t// out\n        /* \"#utility.yul\":17761:18127   */\n    tag_257:\n        /* \"#utility.yul\":17903:17906   */\n      0x00\n        /* \"#utility.yul\":17924:17991   */\n      tag_457\n        /* \"#utility.yul\":17988:17990   */\n      0x17\n        /* \"#utility.yul\":17983:17986   */\n      dup4\n        /* \"#utility.yul\":17924:17991   */\n      tag_214\n      jump\t// in\n    tag_457:\n        /* \"#utility.yul\":17917:17991   */\n      swap2\n      pop\n        /* \"#utility.yul\":18000:18093   */\n      tag_458\n        /* \"#utility.yul\":18089:18092   */\n      dup3\n        /* \"#utility.yul\":18000:18093   */\n      tag_256\n      jump\t// in\n    tag_458:\n        /* \"#utility.yul\":18118:18120   */\n      0x20\n        /* \"#utility.yul\":18113:18116   */\n      dup3\n        /* \"#utility.yul\":18109:18121   */\n      add\n        /* \"#utility.yul\":18102:18121   */\n      swap1\n      pop\n        /* \"#utility.yul\":17761:18127   */\n      swap2\n      swap1\n      pop\n      jump\t// out\n        /* \"#utility.yul\":18133:18552   */\n    tag_107:\n        /* \"#utility.yul\":18299:18303   */\n      0x00\n        /* \"#utility.yul\":18337:18339   */\n      0x20\n        /* \"#utility.yul\":18326:18335   */\n      dup3\n        /* \"#utility.yul\":18322:18340   */\n      add\n        /* \"#utility.yul\":18314:18340   */\n      swap1\n      pop\n        /* \"#utility.yul\":18386:18395   */\n      dup2\n        /* \"#utility.yul\":18380:18384   */\n      dup2\n        /* \"#utility.yul\":18376:18396   */\n      sub\n        /* \"#utility.yul\":18372:18373   */\n      0x00\n        /* \"#utility.yul\":18361:18370   */\n      dup4\n        /* \"#utility.yul\":18357:18374   */\n      add\n        /* \"#utility.yul\":18350:18397   */\n      mstore\n        /* \"#utility.yul\":18414:18545   */\n      tag_460\n        /* \"#utility.yul\":18540:18544   */\n      dup2\n        /* \"#utility.yul\":18414:18545   */\n      tag_257\n      jump\t// in\n    tag_460:\n        /* \"#utility.yul\":18406:18545   */\n      swap1\n      pop\n        /* \"#utility.yul\":18133:18552   */\n      swap2\n      swap1\n      pop\n      jump\t// out\n        /* \"#utility.yul\":18558:18786   */\n    tag_258:\n        /* \"#utility.yul\":18698:18732   */\n      0x4f6e6c79207468652063726561746f722063616e2063616e63656c2074686973\n        /* \"#utility.yul\":18694:18695   */\n      0x00\n        /* \"#utility.yul\":18686:18692   */\n      dup3\n        /* \"#utility.yul\":18682:18696   */\n      add\n        /* \"#utility.yul\":18675:18733   */\n      mstore\n        /* \"#utility.yul\":18767:18778   */\n      0x2063616d706169676e0000000000000000000000000000000000000000000000\n        /* \"#utility.yul\":18762:18764   */\n      0x20\n        /* \"#utility.yul\":18754:18760   */\n      dup3\n        /* \"#utility.yul\":18750:18765   */\n      add\n        /* \"#utility.yul\":18743:18779   */\n      mstore\n        /* \"#utility.yul\":18558:18786   */\n      pop\n      jump\t// out\n        /* \"#utility.yul\":18792:19158   */\n    tag_259:\n        /* \"#utility.yul\":18934:18937   */\n      0x00\n        /* \"#utility.yul\":18955:19022   */\n      tag_463\n        /* \"#utility.yul\":19019:19021   */\n      0x29\n        /* \"#utility.yul\":19014:19017   */\n      dup4\n        /* \"#utility.yul\":18955:19022   */\n      tag_214\n      jump\t// in\n    tag_463:\n        /* \"#utility.yul\":18948:19022   */\n      swap2\n      pop\n        /* \"#utility.yul\":19031:19124   */\n      tag_464\n        /* \"#utility.yul\":19120:19123   */\n      dup3\n        /* \"#utility.yul\":19031:19124   */\n      tag_258\n      jump\t// in\n    tag_464:\n        /* \"#utility.yul\":19149:19151   */\n      0x40\n        /* \"#utility.yul\":19144:19147   */\n      dup3\n        /* \"#utility.yul\":19140:19152   */\n      add\n        /* \"#utility.yul\":19133:19152   */\n      swap1\n      pop\n        /* \"#utility.yul\":18792:19158   */\n      swap2\n      swap1\n      pop\n      jump\t// out\n        /* \"#utility.yul\":19164:19583   */\n    tag_113:\n        /* \"#utility.yul\":19330:19334   */\n      0x00\n        /* \"#utility.yul\":19368:19370   */\n      0x20\n        /* \"#utility.yul\":19357:19366   */\n      dup3\n        /* \"#utility.yul\":19353:19371   */\n      add\n        /* \"#utility.yul\":19345:19371   */\n      swap1\n      pop\n        /* \"#utility.yul\":19417:19426   */\n      dup2\n        /* \"#utility.yul\":19411:19415   */\n      dup2\n        /* \"#utility.yul\":19407:19427   */\n      sub\n        /* \"#utility.yul\":19403:19404   */\n      0x00\n        /* \"#utility.yul\":19392:19401   */\n      dup4\n        /* \"#utility.yul\":19388:19405   */\n      add\n        /* \"#utility.yul\":19381:19428   */\n      mstore\n        /* \"#utility.yul\":19445:19576   */\n      tag_466\n        /* \"#utility.yul\":19571:19575   */\n      dup2\n        /* \"#utility.yul\":19445:19576   */\n      tag_259\n      jump\t// in\n    tag_466:\n        /* \"#utility.yul\":19437:19576   */\n      swap1\n      pop\n        /* \"#utility.yul\":19164:19583   */\n      swap2\n      swap1\n      pop\n      jump\t// out\n        /* \"#utility.yul\":19589:19761   */\n    tag_260:\n        /* \"#utility.yul\":19729:19753   */\n      0x43616d706169676e206973206e6f742061637469766500000000000000000000\n        /* \"#utility.yul\":19725:19726   */\n      0x00\n        /* \"#utility.yul\":19717:19723   */\n      dup3\n        /* \"#utility.yul\":19713:19727   */\n      add\n        /* \"#utility.yul\":19706:19754   */\n      mstore\n        /* \"#utility.yul\":19589:19761   */\n      pop\n      jump\t// out\n        /* \"#utility.yul\":19767:20133   */\n    tag_261:\n        /* \"#utility.yul\":19909:19912   */\n      0x00\n        /* \"#utility.yul\":19930:19997   */\n      tag_469\n        /* \"#utility.yul\":19994:19996   */\n      0x16\n        /* \"#utility.yul\":19989:19992   */\n      dup4\n        /* \"#utility.yul\":19930:19997   */\n      tag_214\n      jump\t// in\n    tag_469:\n        /* \"#utility.yul\":19923:19997   */\n      swap2\n      pop\n        /* \"#utility.yul\":20006:20099   */\n      tag_470\n        /* \"#utility.yul\":20095:20098   */\n      dup3\n        /* \"#utility.yul\":20006:20099   */\n      tag_260\n      jump\t// in\n    tag_470:\n        /* \"#utility.yul\":20124:20126   */\n      0x20\n        /* \"#utility.yul\":20119:20122   */\n      dup3\n        /* \"#utility.yul\":20115:20127   */\n      add\n        /* \"#utility.yul\":20108:20127   */\n      swap1\n      pop\n        /* \"#utility.yul\":19767:20133   */\n      swap2\n      swap1\n      pop\n      jump\t// out\n        /* \"#utility.yul\":20139:20558   */\n    tag_120:\n        /* \"#utility.yul\":20305:20309   */\n      0x00\n        /* \"#utility.yul\":20343:20345   */\n      0x20\n        /* \"#utility.yul\":20332:20341   */\n      dup3\n        /* \"#utility.yul\":20328:20346   */\n      add\n        /* \"#utility.yul\":20320:20346   */\n      swap1\n      pop\n        /* \"#utility.yul\":20392:20401   */\n      dup2\n        /* \"#utility.yul\":20386:20390   */\n      dup2\n        /* \"#utility.yul\":20382:20402   */\n      sub\n        /* \"#utility.yul\":20378:20379   */\n      0x00\n        /* \"#utility.yul\":20367:20376   */\n      dup4\n        /* \"#utility.yul\":20363:20380   */\n      add\n        /* \"#utility.yul\":20356:20403   */\n      mstore\n        /* \"#utility.yul\":20420:20551   */\n      tag_472\n        /* \"#utility.yul\":20546:20550   */\n      dup2\n        /* \"#utility.yul\":20420:20551   */\n      tag_261\n      jump\t// in\n    tag_472:\n        /* \"#utility.yul\":20412:20551   */\n      swap1\n      pop\n        /* \"#utility.yul\":20139:20558   */\n      swap2\n      swap1\n      pop\n      jump\t// out\n        /* \"#utility.yul\":20564:20705   */\n    tag_262:\n        /* \"#utility.yul\":20613:20617   */\n      0x00\n        /* \"#utility.yul\":20636:20639   */\n      dup2\n        /* \"#utility.yul\":20628:20639   */\n      swap1\n      pop\n        /* \"#utility.yul\":20659:20662   */\n      dup2\n        /* \"#utility.yul\":20656:20657   */\n      0x00\n        /* \"#utility.yul\":20649:20663   */\n      mstore\n        /* \"#utility.yul\":20693:20697   */\n      0x20\n        /* \"#utility.yul\":20690:20691   */\n      0x00\n        /* \"#utility.yul\":20680:20698   */\n      keccak256\n        /* \"#utility.yul\":20672:20698   */\n      swap1\n      pop\n        /* \"#utility.yul\":20564:20705   */\n      swap2\n      swap1\n      pop\n      jump\t// out\n        /* \"#utility.yul\":20735:21566   */\n    tag_263:\n        /* \"#utility.yul\":20820:20823   */\n      0x00\n        /* \"#utility.yul\":20857:20862   */\n      dup2\n        /* \"#utility.yul\":20851:20863   */\n      sload\n        /* \"#utility.yul\":20886:20922   */\n      tag_475\n        /* \"#utility.yul\":20912:20921   */\n      dup2\n        /* \"#utility.yul\":20886:20922   */\n      tag_59\n      jump\t// in\n    tag_475:\n        /* \"#utility.yul\":20938:21009   */\n      tag_476\n        /* \"#utility.yul\":21002:21008   */\n      dup2\n        /* \"#utility.yul\":20997:21000   */\n      dup7\n        /* \"#utility.yul\":20938:21009   */\n      tag_214\n      jump\t// in\n    tag_476:\n        /* \"#utility.yul\":20931:21009   */\n      swap5\n      pop\n        /* \"#utility.yul\":21040:21041   */\n      0x01\n        /* \"#utility.yul\":21029:21038   */\n      dup3\n        /* \"#utility.yul\":21025:21042   */\n      and\n        /* \"#utility.yul\":21056:21057   */\n      0x00\n        /* \"#utility.yul\":21051:21215   */\n      dup2\n      eq\n      tag_478\n      jumpi\n        /* \"#utility.yul\":21229:21230   */\n      0x01\n        /* \"#utility.yul\":21224:21560   */\n      dup2\n      eq\n      tag_479\n      jumpi\n        /* \"#utility.yul\":21018:21560   */\n      jump(tag_477)\n        /* \"#utility.yul\":21051:21215   */\n    tag_478:\n        /* \"#utility.yul\":21135:21139   */\n      0xff\n        /* \"#utility.yul\":21131:21140   */\n      not\n        /* \"#utility.yul\":21120:21129   */\n      dup4\n        /* \"#utility.yul\":21116:21141   */\n      and\n        /* \"#utility.yul\":21111:21114   */\n      dup7\n        /* \"#utility.yul\":21104:21142   */\n      mstore\n        /* \"#utility.yul\":21195:21201   */\n      dup2\n        /* \"#utility.yul\":21188:21202   */\n      iszero\n        /* \"#utility.yul\":21181:21203   */\n      iszero\n        /* \"#utility.yul\":21175:21179   */\n      0x20\n        /* \"#utility.yul\":21171:21204   */\n      mul\n        /* \"#utility.yul\":21166:21169   */\n      dup7\n        /* \"#utility.yul\":21162:21205   */\n      add\n        /* \"#utility.yul\":21155:21205   */\n      swap4\n      pop\n        /* \"#utility.yul\":21051:21215   */\n      jump(tag_477)\n        /* \"#utility.yul\":21224:21560   */\n    tag_479:\n        /* \"#utility.yul\":21291:21329   */\n      tag_480\n        /* \"#utility.yul\":21323:21328   */\n      dup6\n        /* \"#utility.yul\":21291:21329   */\n      tag_262\n      jump\t// in\n    tag_480:\n        /* \"#utility.yul\":21351:21352   */\n      0x00\n        /* \"#utility.yul\":21365:21519   */\n    tag_481:\n        /* \"#utility.yul\":21379:21385   */\n      dup4\n        /* \"#utility.yul\":21376:21377   */\n      dup2\n        /* \"#utility.yul\":21373:21386   */\n      lt\n        /* \"#utility.yul\":21365:21519   */\n      iszero\n      tag_483\n      jumpi\n        /* \"#utility.yul\":21453:21460   */\n      dup2\n        /* \"#utility.yul\":21447:21461   */\n      sload\n        /* \"#utility.yul\":21443:21444   */\n      dup2\n        /* \"#utility.yul\":21438:21441   */\n      dup10\n        /* \"#utility.yul\":21434:21445   */\n      add\n        /* \"#utility.yul\":21427:21462   */\n      mstore\n        /* \"#utility.yul\":21503:21504   */\n      0x01\n        /* \"#utility.yul\":21494:21501   */\n      dup3\n        /* \"#utility.yul\":21490:21505   */\n      add\n        /* \"#utility.yul\":21479:21505   */\n      swap2\n      pop\n        /* \"#utility.yul\":21401:21405   */\n      0x20\n        /* \"#utility.yul\":21398:21399   */\n      dup2\n        /* \"#utility.yul\":21394:21406   */\n      add\n        /* \"#utility.yul\":21389:21406   */\n      swap1\n      pop\n        /* \"#utility.yul\":21365:21519   */\n      jump(tag_481)\n    tag_483:\n        /* \"#utility.yul\":21548:21549   */\n      dup1\n        /* \"#utility.yul\":21543:21546   */\n      dup9\n        /* \"#utility.yul\":21539:21550   */\n      add\n        /* \"#utility.yul\":21532:21550   */\n      swap6\n      pop\n        /* \"#utility.yul\":21231:21560   */\n      pop\n      pop\n        /* \"#utility.yul\":21018:21560   */\n    tag_477:\n      pop\n        /* \"#utility.yul\":20824:21566   */\n      pop\n      pop\n        /* \"#utility.yul\":20735:21566   */\n      swap3\n      swap2\n      pop\n      pop\n      jump\t// out\n        /* \"#utility.yul\":21572:21989   */\n    tag_132:\n        /* \"#utility.yul\":21710:21714   */\n      0x00\n        /* \"#utility.yul\":21748:21750   */\n      0x40\n        /* \"#utility.yul\":21737:21746   */\n      dup3\n        /* \"#utility.yul\":21733:21751   */\n      add\n        /* \"#utility.yul\":21725:21751   */\n      swap1\n      pop\n        /* \"#utility.yul\":21761:21832   */\n      tag_485\n        /* \"#utility.yul\":21829:21830   */\n      0x00\n        /* \"#utility.yul\":21818:21827   */\n      dup4\n        /* \"#utility.yul\":21814:21831   */\n      add\n        /* \"#utility.yul\":21805:21811   */\n      dup6\n        /* \"#utility.yul\":21761:21832   */\n      tag_218\n      jump\t// in\n    tag_485:\n        /* \"#utility.yul\":21879:21888   */\n      dup2\n        /* \"#utility.yul\":21873:21877   */\n      dup2\n        /* \"#utility.yul\":21869:21889   */\n      sub\n        /* \"#utility.yul\":21864:21866   */\n      0x20\n        /* \"#utility.yul\":21853:21862   */\n      dup4\n        /* \"#utility.yul\":21849:21867   */\n      add\n        /* \"#utility.yul\":21842:21890   */\n      mstore\n        /* \"#utility.yul\":21907:21982   */\n      tag_486\n        /* \"#utility.yul\":21977:21981   */\n      dup2\n        /* \"#utility.yul\":21968:21974   */\n      dup5\n        /* \"#utility.yul\":21907:21982   */\n      tag_263\n      jump\t// in\n    tag_486:\n        /* \"#utility.yul\":21899:21982   */\n      swap1\n      pop\n        /* \"#utility.yul\":21572:21989   */\n      swap4\n      swap3\n      pop\n      pop\n      pop\n      jump\t// out\n        /* \"#utility.yul\":21995:22217   */\n    tag_264:\n        /* \"#utility.yul\":22135:22169   */\n      0x436f6e747269627574696f6e206d757374206265206772656174657220746861\n        /* \"#utility.yul\":22131:22132   */\n      0x00\n        /* \"#utility.yul\":22123:22129   */\n      dup3\n        /* \"#utility.yul\":22119:22133   */\n      add\n        /* \"#utility.yul\":22112:22170   */\n      mstore\n        /* \"#utility.yul\":22204:22209   */\n      0x6e20300000000000000000000000000000000000000000000000000000000000\n        /* \"#utility.yul\":22199:22201   */\n      0x20\n        /* \"#utility.yul\":22191:22197   */\n      dup3\n        /* \"#utility.yul\":22187:22202   */\n      add\n        /* \"#utility.yul\":22180:22210   */\n      mstore\n        /* \"#utility.yul\":21995:22217   */\n      pop\n      jump\t// out\n        /* \"#utility.yul\":22223:22589   */\n    tag_265:\n        /* \"#utility.yul\":22365:22368   */\n      0x00\n        /* \"#utility.yul\":22386:22453   */\n      tag_489\n        /* \"#utility.yul\":22450:22452   */\n      0x23\n        /* \"#utility.yul\":22445:22448   */\n      dup4\n        /* \"#utility.yul\":22386:22453   */\n      tag_214\n      jump\t// in\n    tag_489:\n        /* \"#utility.yul\":22379:22453   */\n      swap2\n      pop\n        /* \"#utility.yul\":22462:22555   */\n      tag_490\n        /* \"#utility.yul\":22551:22554   */\n      dup3\n        /* \"#utility.yul\":22462:22555   */\n      tag_264\n      jump\t// in\n    tag_490:\n        /* \"#utility.yul\":22580:22582   */\n      0x40\n        /* \"#utility.yul\":22575:22578   */\n      dup3\n        /* \"#utility.yul\":22571:22583   */\n      add\n        /* \"#utility.yul\":22564:22583   */\n      swap1\n      pop\n        /* \"#utility.yul\":22223:22589   */\n      swap2\n      swap1\n      pop\n      jump\t// out\n        /* \"#utility.yul\":22595:23014   */\n    tag_136:\n        /* \"#utility.yul\":22761:22765   */\n      0x00\n        /* \"#utility.yul\":22799:22801   */\n      0x20\n        /* \"#utility.yul\":22788:22797   */\n      dup3\n        /* \"#utility.yul\":22784:22802   */\n      add\n        /* \"#utility.yul\":22776:22802   */\n      swap1\n      pop\n        /* \"#utility.yul\":22848:22857   */\n      dup2\n        /* \"#utility.yul\":22842:22846   */\n      dup2\n        /* \"#utility.yul\":22838:22858   */\n      sub\n        /* \"#utility.yul\":22834:22835   */\n      0x00\n        /* \"#utility.yul\":22823:22832   */\n      dup4\n        /* \"#utility.yul\":22819:22836   */\n      add\n        /* \"#utility.yul\":22812:22859   */\n      mstore\n        /* \"#utility.yul\":22876:23007   */\n      tag_492\n        /* \"#utility.yul\":23002:23006   */\n      dup2\n        /* \"#utility.yul\":22876:23007   */\n      tag_265\n      jump\t// in\n    tag_492:\n        /* \"#utility.yul\":22868:23007   */\n      swap1\n      pop\n        /* \"#utility.yul\":22595:23014   */\n      swap2\n      swap1\n      pop\n      jump\t// out\n        /* \"#utility.yul\":23020:23246   */\n    tag_266:\n        /* \"#utility.yul\":23160:23194   */\n      0x43616e206f6e6c7920636f6e7472696275746520746f20616374697665206361\n        /* \"#utility.yul\":23156:23157   */\n      0x00\n        /* \"#utility.yul\":23148:23154   */\n      dup3\n        /* \"#utility.yul\":23144:23158   */\n      add\n        /* \"#utility.yul\":23137:23195   */\n      mstore\n        /* \"#utility.yul\":23229:23238   */\n      0x6d706169676e7300000000000000000000000000000000000000000000000000\n        /* \"#utility.yul\":23224:23226   */\n      0x20\n        /* \"#utility.yul\":23216:23222   */\n      dup3\n        /* \"#utility.yul\":23212:23227   */\n      add\n        /* \"#utility.yul\":23205:23239   */\n      mstore\n        /* \"#utility.yul\":23020:23246   */\n      pop\n      jump\t// out\n        /* \"#utility.yul\":23252:23618   */\n    tag_267:\n        /* \"#utility.yul\":23394:23397   */\n      0x00\n        /* \"#utility.yul\":23415:23482   */\n      tag_495\n        /* \"#utility.yul\":23479:23481   */\n      0x27\n        /* \"#utility.yul\":23474:23477   */\n      dup4\n        /* \"#utility.yul\":23415:23482   */\n      tag_214\n      jump\t// in\n    tag_495:\n        /* \"#utility.yul\":23408:23482   */\n      swap2\n      pop\n        /* \"#utility.yul\":23491:23584   */\n      tag_496\n        /* \"#utility.yul\":23580:23583   */\n      dup3\n        /* \"#utility.yul\":23491:23584   */\n      tag_266\n      jump\t// in\n    tag_496:\n        /* \"#utility.yul\":23609:23611   */\n      0x40\n        /* \"#utility.yul\":23604:23607   */\n      dup3\n        /* \"#utility.yul\":23600:23612   */\n      add\n        /* \"#utility.yul\":23593:23612   */\n      swap1\n      pop\n        /* \"#utility.yul\":23252:23618   */\n      swap2\n      swap1\n      pop\n      jump\t// out\n        /* \"#utility.yul\":23624:24043   */\n    tag_157:\n        /* \"#utility.yul\":23790:23794   */\n      0x00\n        /* \"#utility.yul\":23828:23830   */\n      0x20\n        /* \"#utility.yul\":23817:23826   */\n      dup3\n        /* \"#utility.yul\":23813:23831   */\n      add\n        /* \"#utility.yul\":23805:23831   */\n      swap1\n      pop\n        /* \"#utility.yul\":23877:23886   */\n      dup2\n        /* \"#utility.yul\":23871:23875   */\n      dup2\n        /* \"#utility.yul\":23867:23887   */\n      sub\n        /* \"#utility.yul\":23863:23864   */\n      0x00\n        /* \"#utility.yul\":23852:23861   */\n      dup4\n        /* \"#utility.yul\":23848:23865   */\n      add\n        /* \"#utility.yul\":23841:23888   */\n      mstore\n        /* \"#utility.yul\":23905:24036   */\n      tag_498\n        /* \"#utility.yul\":24031:24035   */\n      dup2\n        /* \"#utility.yul\":23905:24036   */\n      tag_267\n      jump\t// in\n    tag_498:\n        /* \"#utility.yul\":23897:24036   */\n      swap1\n      pop\n        /* \"#utility.yul\":23624:24043   */\n      swap2\n      swap1\n      pop\n      jump\t// out\n        /* \"#utility.yul\":24049:24229   */\n    tag_268:\n        /* \"#utility.yul\":24097:24174   */\n      0x4e487b7100000000000000000000000000000000000000000000000000000000\n        /* \"#utility.yul\":24094:24095   */\n      0x00\n        /* \"#utility.yul\":24087:24175   */\n      mstore\n        /* \"#utility.yul\":24194:24198   */\n      0x12\n        /* \"#utility.yul\":24191:24192   */\n      0x04\n        /* \"#utility.yul\":24184:24199   */\n      mstore\n        /* \"#utility.yul\":24218:24222   */\n      0x24\n        /* \"#utility.yul\":24215:24216   */\n      0x00\n        /* \"#utility.yul\":24208:24223   */\n      revert\n        /* \"#utility.yul\":24235:24420   */\n    tag_159:\n        /* \"#utility.yul\":24275:24276   */\n      0x00\n        /* \"#utility.yul\":24292:24312   */\n      tag_501\n        /* \"#utility.yul\":24310:24311   */\n      dup3\n        /* \"#utility.yul\":24292:24312   */\n      tag_210\n      jump\t// in\n    tag_501:\n        /* \"#utility.yul\":24287:24312   */\n      swap2\n      pop\n        /* \"#utility.yul\":24326:24346   */\n      tag_502\n        /* \"#utility.yul\":24344:24345   */\n      dup4\n        /* \"#utility.yul\":24326:24346   */\n      tag_210\n      jump\t// in\n    tag_502:\n        /* \"#utility.yul\":24321:24346   */\n      swap3\n      pop\n        /* \"#utility.yul\":24365:24366   */\n      dup3\n        /* \"#utility.yul\":24355:24390   */\n      tag_503\n      jumpi\n        /* \"#utility.yul\":24370:24388   */\n      tag_504\n      tag_268\n      jump\t// in\n    tag_504:\n        /* \"#utility.yul\":24355:24390   */\n    tag_503:\n        /* \"#utility.yul\":24412:24413   */\n      dup3\n        /* \"#utility.yul\":24409:24410   */\n      dup3\n        /* \"#utility.yul\":24405:24414   */\n      div\n        /* \"#utility.yul\":24400:24414   */\n      swap1\n      pop\n        /* \"#utility.yul\":24235:24420   */\n      swap3\n      swap2\n      pop\n      pop\n      jump\t// out\n        /* \"#utility.yul\":24426:24617   */\n    tag_163:\n        /* \"#utility.yul\":24466:24469   */\n      0x00\n        /* \"#utility.yul\":24485:24505   */\n      tag_506\n        /* \"#utility.yul\":24503:24504   */\n      dup3\n        /* \"#utility.yul\":24485:24505   */\n      tag_210\n      jump\t// in\n    tag_506:\n        /* \"#utility.yul\":24480:24505   */\n      swap2\n      pop\n        /* \"#utility.yul\":24519:24539   */\n      tag_507\n        /* \"#utility.yul\":24537:24538   */\n      dup4\n        /* \"#utility.yul\":24519:24539   */\n      tag_210\n      jump\t// in\n    tag_507:\n        /* \"#utility.yul\":24514:24539   */\n      swap3\n      pop\n        /* \"#utility.yul\":24562:24563   */\n      dup3\n        /* \"#utility.yul\":24559:24560   */\n      dup3\n        /* \"#utility.yul\":24555:24564   */\n      add\n        /* \"#utility.yul\":24548:24564   */\n      swap1\n      pop\n        /* \"#utility.yul\":24583:24586   */\n      dup1\n        /* \"#utility.yul\":24580:24581   */\n      dup3\n        /* \"#utility.yul\":24577:24587   */\n      gt\n        /* \"#utility.yul\":24574:24610   */\n      iszero\n      tag_508\n      jumpi\n        /* \"#utility.yul\":24590:24608   */\n      tag_509\n      tag_255\n      jump\t// in\n    tag_509:\n        /* \"#utility.yul\":24574:24610   */\n    tag_508:\n        /* \"#utility.yul\":24426:24617   */\n      swap3\n      swap2\n      pop\n      pop\n      jump\t// out\n        /* \"#utility.yul\":24623:25065   */\n    tag_166:\n        /* \"#utility.yul\":24772:24776   */\n      0x00\n        /* \"#utility.yul\":24810:24812   */\n      0x60\n        /* \"#utility.yul\":24799:24808   */\n      dup3\n        /* \"#utility.yul\":24795:24813   */\n      add\n        /* \"#utility.yul\":24787:24813   */\n      swap1\n      pop\n        /* \"#utility.yul\":24823:24894   */\n      tag_511\n        /* \"#utility.yul\":24891:24892   */\n      0x00\n        /* \"#utility.yul\":24880:24889   */\n      dup4\n        /* \"#utility.yul\":24876:24893   */\n      add\n        /* \"#utility.yul\":24867:24873   */\n      dup7\n        /* \"#utility.yul\":24823:24894   */\n      tag_218\n      jump\t// in\n    tag_511:\n        /* \"#utility.yul\":24904:24976   */\n      tag_512\n        /* \"#utility.yul\":24972:24974   */\n      0x20\n        /* \"#utility.yul\":24961:24970   */\n      dup4\n        /* \"#utility.yul\":24957:24975   */\n      add\n        /* \"#utility.yul\":24948:24954   */\n      dup6\n        /* \"#utility.yul\":24904:24976   */\n      tag_218\n      jump\t// in\n    tag_512:\n        /* \"#utility.yul\":24986:25058   */\n      tag_513\n        /* \"#utility.yul\":25054:25056   */\n      0x40\n        /* \"#utility.yul\":25043:25052   */\n      dup4\n        /* \"#utility.yul\":25039:25057   */\n      add\n        /* \"#utility.yul\":25030:25036   */\n      dup5\n        /* \"#utility.yul\":24986:25058   */\n      tag_221\n      jump\t// in\n    tag_513:\n        /* \"#utility.yul\":24623:25065   */\n      swap5\n      swap4\n      pop\n      pop\n      pop\n      pop\n      jump\t// out\n        /* \"#utility.yul\":25071:25298   */\n    tag_269:\n        /* \"#utility.yul\":25211:25245   */\n      0x54617267657420616d6f756e74206d7573742062652067726561746572207468\n        /* \"#utility.yul\":25207:25208   */\n      0x00\n        /* \"#utility.yul\":25199:25205   */\n      dup3\n        /* \"#utility.yul\":25195:25209   */\n      add\n        /* \"#utility.yul\":25188:25246   */\n      mstore\n        /* \"#utility.yul\":25280:25290   */\n      0x616e207a65726f20000000000000000000000000000000000000000000000000\n        /* \"#utility.yul\":25275:25277   */\n      0x20\n        /* \"#utility.yul\":25267:25273   */\n      dup3\n        /* \"#utility.yul\":25263:25278   */\n      add\n        /* \"#utility.yul\":25256:25291   */\n      mstore\n        /* \"#utility.yul\":25071:25298   */\n      pop\n      jump\t// out\n        /* \"#utility.yul\":25304:25670   */\n    tag_270:\n        /* \"#utility.yul\":25446:25449   */\n      0x00\n        /* \"#utility.yul\":25467:25534   */\n      tag_516\n        /* \"#utility.yul\":25531:25533   */\n      0x28\n        /* \"#utility.yul\":25526:25529   */\n      dup4\n        /* \"#utility.yul\":25467:25534   */\n      tag_214\n      jump\t// in\n    tag_516:\n        /* \"#utility.yul\":25460:25534   */\n      swap2\n      pop\n        /* \"#utility.yul\":25543:25636   */\n      tag_517\n        /* \"#utility.yul\":25632:25635   */\n      dup3\n        /* \"#utility.yul\":25543:25636   */\n      tag_269\n      jump\t// in\n    tag_517:\n        /* \"#utility.yul\":25661:25663   */\n      0x40\n        /* \"#utility.yul\":25656:25659   */\n      dup3\n        /* \"#utility.yul\":25652:25664   */\n      add\n        /* \"#utility.yul\":25645:25664   */\n      swap1\n      pop\n        /* \"#utility.yul\":25304:25670   */\n      swap2\n      swap1\n      pop\n      jump\t// out\n        /* \"#utility.yul\":25676:26095   */\n    tag_193:\n        /* \"#utility.yul\":25842:25846   */\n      0x00\n        /* \"#utility.yul\":25880:25882   */\n      0x20\n        /* \"#utility.yul\":25869:25878   */\n      dup3\n        /* \"#utility.yul\":25865:25883   */\n      add\n        /* \"#utility.yul\":25857:25883   */\n      swap1\n      pop\n        /* \"#utility.yul\":25929:25938   */\n      dup2\n        /* \"#utility.yul\":25923:25927   */\n      dup2\n        /* \"#utility.yul\":25919:25939   */\n      sub\n        /* \"#utility.yul\":25915:25916   */\n      0x00\n        /* \"#utility.yul\":25904:25913   */\n      dup4\n        /* \"#utility.yul\":25900:25917   */\n      add\n        /* \"#utility.yul\":25893:25940   */\n      mstore\n        /* \"#utility.yul\":25957:26088   */\n      tag_519\n        /* \"#utility.yul\":26083:26087   */\n      dup2\n        /* \"#utility.yul\":25957:26088   */\n      tag_270\n      jump\t// in\n    tag_519:\n        /* \"#utility.yul\":25949:26088   */\n      swap1\n      pop\n        /* \"#utility.yul\":25676:26095   */\n      swap2\n      swap1\n      pop\n      jump\t// out\n        /* \"#utility.yul\":26101:26194   */\n    tag_271:\n        /* \"#utility.yul\":26138:26144   */\n      0x00\n        /* \"#utility.yul\":26185:26187   */\n      0x20\n        /* \"#utility.yul\":26180:26182   */\n      0x1f\n        /* \"#utility.yul\":26173:26178   */\n      dup4\n        /* \"#utility.yul\":26169:26183   */\n      add\n        /* \"#utility.yul\":26165:26188   */\n      div\n        /* \"#utility.yul\":26155:26188   */\n      swap1\n      pop\n        /* \"#utility.yul\":26101:26194   */\n      swap2\n      swap1\n      pop\n      jump\t// out\n        /* \"#utility.yul\":26200:26307   */\n    tag_272:\n        /* \"#utility.yul\":26244:26252   */\n      0x00\n        /* \"#utility.yul\":26294:26299   */\n      dup3\n        /* \"#utility.yul\":26288:26292   */\n      dup3\n        /* \"#utility.yul\":26284:26300   */\n      shl\n        /* \"#utility.yul\":26263:26300   */\n      swap1\n      pop\n        /* \"#utility.yul\":26200:26307   */\n      swap3\n      swap2\n      pop\n      pop\n      jump\t// out\n        /* \"#utility.yul\":26313:26706   */\n    tag_273:\n        /* \"#utility.yul\":26382:26388   */\n      0x00\n        /* \"#utility.yul\":26432:26433   */\n      0x08\n        /* \"#utility.yul\":26420:26430   */\n      dup4\n        /* \"#utility.yul\":26416:26434   */\n      mul\n        /* \"#utility.yul\":26455:26552   */\n      tag_523\n        /* \"#utility.yul\":26485:26551   */\n      0xffffffffffffffffffffffffffffffffffffffffffffffffffffffffffffffff\n        /* \"#utility.yul\":26474:26483   */\n      dup3\n        /* \"#utility.yul\":26455:26552   */\n      tag_272\n      jump\t// in\n    tag_523:\n        /* \"#utility.yul\":26573:26612   */\n      tag_524\n        /* \"#utility.yul\":26603:26611   */\n      dup7\n        /* \"#utility.yul\":26592:26601   */\n      dup4\n        /* \"#utility.yul\":26573:26612   */\n      tag_272\n      jump\t// in\n    tag_524:\n        /* \"#utility.yul\":26561:26612   */\n      swap6\n      pop\n        /* \"#utility.yul\":26645:26649   */\n      dup1\n        /* \"#utility.yul\":26641:26650   */\n      not\n        /* \"#utility.yul\":26634:26639   */\n      dup5\n        /* \"#utility.yul\":26630:26651   */\n      and\n        /* \"#utility.yul\":26621:26651   */\n      swap4\n      pop\n        /* \"#utility.yul\":26694:26698   */\n      dup1\n        /* \"#utility.yul\":26684:26692   */\n      dup7\n        /* \"#utility.yul\":26680:26699   */\n      and\n        /* \"#utility.yul\":26673:26678   */\n      dup5\n        /* \"#utility.yul\":26670:26700   */\n      or\n        /* \"#utility.yul\":26660:26700   */\n      swap3\n      pop\n        /* \"#utility.yul\":26389:26706   */\n      pop\n      pop\n        /* \"#utility.yul\":26313:26706   */\n      swap4\n      swap3\n      pop\n      pop\n      pop\n      jump\t// out\n        /* \"#utility.yul\":26712:26772   */\n    tag_274:\n        /* \"#utility.yul\":26740:26743   */\n      0x00\n        /* \"#utility.yul\":26761:26766   */\n      dup2\n        /* \"#utility.yul\":26754:26766   */\n      swap1\n      pop\n        /* \"#utility.yul\":26712:26772   */\n      swap2\n      swap1\n      pop\n      jump\t// out\n        /* \"#utility.yul\":26778:26920   */\n    tag_275:\n        /* \"#utility.yul\":26828:26837   */\n      0x00\n        /* \"#utility.yul\":26861:26914   */\n      tag_527\n        /* \"#utility.yul\":26879:26913   */\n      tag_528\n        /* \"#utility.yul\":26888:26912   */\n      tag_529\n        /* \"#utility.yul\":26906:26911   */\n      dup5\n        /* \"#utility.yul\":26888:26912   */\n      tag_210\n      jump\t// in\n    tag_529:\n        /* \"#utility.yul\":26879:26913   */\n      tag_274\n      jump\t// in\n    tag_528:\n        /* \"#utility.yul\":26861:26914   */\n      tag_210\n      jump\t// in\n    tag_527:\n        /* \"#utility.yul\":26848:26914   */\n      swap1\n      pop\n        /* \"#utility.yul\":26778:26920   */\n      swap2\n      swap1\n      pop\n      jump\t// out\n        /* \"#utility.yul\":26926:27001   */\n    tag_276:\n        /* \"#utility.yul\":26969:26972   */\n      0x00\n        /* \"#utility.yul\":26990:26995   */\n      dup2\n        /* \"#utility.yul\":26983:26995   */\n      swap1\n      pop\n        /* \"#utility.yul\":26926:27001   */\n      swap2\n      swap1\n      pop\n      jump\t// out\n        /* \"#utility.yul\":27007:27276   */\n    tag_277:\n        /* \"#utility.yul\":27117:27156   */\n      tag_532\n        /* \"#utility.yul\":27148:27155   */\n      dup4\n        /* \"#utility.yul\":27117:27156   */\n      tag_275\n      jump\t// in\n    tag_532:\n        /* \"#utility.yul\":27178:27269   */\n      tag_533\n        /* \"#utility.yul\":27227:27268   */\n      tag_534\n        /* \"#utility.yul\":27251:27267   */\n      dup3\n        /* \"#utility.yul\":27227:27268   */\n      tag_276\n      jump\t// in\n    tag_534:\n        /* \"#utility.yul\":27219:27225   */\n      dup5\n        /* \"#utility.yul\":27212:27216   */\n      dup5\n        /* \"#utility.yul\":27206:27217   */\n      sload\n        /* \"#utility.yul\":27178:27269   */\n      tag_273\n      jump\t// in\n    tag_533:\n        /* \"#utility.yul\":27172:27176   */\n      dup3\n        /* \"#utility.yul\":27165:27270   */\n      sstore\n        /* \"#utility.yul\":27083:27276   */\n      pop\n        /* \"#utility.yul\":27007:27276   */\n      pop\n      pop\n      pop\n      jump\t// out\n        /* \"#utility.yul\":27282:27355   */\n    tag_278:\n        /* \"#utility.yul\":27327:27330   */\n      0x00\n        /* \"#utility.yul\":27282:27355   */\n      swap1\n      jump\t// out\n        /* \"#utility.yul\":27361:27550   */\n    tag_279:\n        /* \"#utility.yul\":27438:27470   */\n      tag_537\n      tag_278\n      jump\t// in\n    tag_537:\n        /* \"#utility.yul\":27479:27544   */\n      tag_538\n        /* \"#utility.yul\":27537:27543   */\n      dup2\n        /* \"#utility.yul\":27529:27535   */\n      dup5\n        /* \"#utility.yul\":27523:27527   */\n      dup5\n        /* \"#utility.yul\":27479:27544   */\n      tag_277\n      jump\t// in\n    tag_538:\n        /* \"#utility.yul\":27414:27550   */\n      pop\n        /* \"#utility.yul\":27361:27550   */\n      pop\n      pop\n      jump\t// out\n        /* \"#utility.yul\":27556:27742   */\n    tag_280:\n        /* \"#utility.yul\":27616:27736   */\n    tag_540:\n        /* \"#utility.yul\":27633:27636   */\n      dup2\n        /* \"#utility.yul\":27626:27631   */\n      dup2\n        /* \"#utility.yul\":27623:27637   */\n      lt\n        /* \"#utility.yul\":27616:27736   */\n      iszero\n      tag_542\n      jumpi\n        /* \"#utility.yul\":27687:27726   */\n      tag_543\n        /* \"#utility.yul\":27724:27725   */\n      0x00\n        /* \"#utility.yul\":27717:27722   */\n      dup3\n        /* \"#utility.yul\":27687:27726   */\n      tag_279\n      jump\t// in\n    tag_543:\n        /* \"#utility.yul\":27660:27661   */\n      0x01\n        /* \"#utility.yul\":27653:27658   */\n      dup2\n        /* \"#utility.yul\":27649:27662   */\n      add\n        /* \"#utility.yul\":27640:27662   */\n      swap1\n      pop\n        /* \"#utility.yul\":27616:27736   */\n      jump(tag_540)\n    tag_542:\n        /* \"#utility.yul\":27556:27742   */\n      pop\n      pop\n      jump\t// out\n        /* \"#utility.yul\":27748:28291   */\n    tag_281:\n        /* \"#utility.yul\":27849:27851   */\n      0x1f\n        /* \"#utility.yul\":27844:27847   */\n      dup3\n        /* \"#utility.yul\":27841:27852   */\n      gt\n        /* \"#utility.yul\":27838:28284   */\n      iszero\n      tag_545\n      jumpi\n        /* \"#utility.yul\":27883:27921   */\n      tag_546\n        /* \"#utility.yul\":27915:27920   */\n      dup2\n        /* \"#utility.yul\":27883:27921   */\n      tag_262\n      jump\t// in\n    tag_546:\n        /* \"#utility.yul\":27967:27996   */\n      tag_547\n        /* \"#utility.yul\":27985:27995   */\n      dup5\n        /* \"#utility.yul\":27967:27996   */\n      tag_271\n      jump\t// in\n    tag_547:\n        /* \"#utility.yul\":27957:27965   */\n      dup2\n        /* \"#utility.yul\":27953:27997   */\n      add\n        /* \"#utility.yul\":28150:28152   */\n      0x20\n        /* \"#utility.yul\":28138:28148   */\n      dup6\n        /* \"#utility.yul\":28135:28153   */\n      lt\n        /* \"#utility.yul\":28132:28181   */\n      iszero\n      tag_548\n      jumpi\n        /* \"#utility.yul\":28171:28179   */\n      dup2\n        /* \"#utility.yul\":28156:28179   */\n      swap1\n      pop\n        /* \"#utility.yul\":28132:28181   */\n    tag_548:\n        /* \"#utility.yul\":28194:28274   */\n      tag_549\n        /* \"#utility.yul\":28250:28272   */\n      tag_550\n        /* \"#utility.yul\":28268:28271   */\n      dup6\n        /* \"#utility.yul\":28250:28272   */\n      tag_271\n      jump\t// in\n    tag_550:\n        /* \"#utility.yul\":28240:28248   */\n      dup4\n        /* \"#utility.yul\":28236:28273   */\n      add\n        /* \"#utility.yul\":28223:28234   */\n      dup3\n        /* \"#utility.yul\":28194:28274   */\n      tag_280\n      jump\t// in\n    tag_549:\n        /* \"#utility.yul\":27853:28284   */\n      pop\n      pop\n        /* \"#utility.yul\":27838:28284   */\n    tag_545:\n        /* \"#utility.yul\":27748:28291   */\n      pop\n      pop\n      pop\n      jump\t// out\n        /* \"#utility.yul\":28297:28414   */\n    tag_282:\n        /* \"#utility.yul\":28351:28359   */\n      0x00\n        /* \"#utility.yul\":28401:28406   */\n      dup3\n        /* \"#utility.yul\":28395:28399   */\n      dup3\n        /* \"#utility.yul\":28391:28407   */\n      shr\n        /* \"#utility.yul\":28370:28407   */\n      swap1\n      pop\n        /* \"#utility.yul\":28297:28414   */\n      swap3\n      swap2\n      pop\n      pop\n      jump\t// out\n        /* \"#utility.yul\":28420:28589   */\n    tag_283:\n        /* \"#utility.yul\":28464:28470   */\n      0x00\n        /* \"#utility.yul\":28497:28548   */\n      tag_553\n        /* \"#utility.yul\":28545:28546   */\n      0x00\n        /* \"#utility.yul\":28541:28547   */\n      not\n        /* \"#utility.yul\":28533:28538   */\n      dup5\n        /* \"#utility.yul\":28530:28531   */\n      0x08\n        /* \"#utility.yul\":28526:28539   */\n      mul\n        /* \"#utility.yul\":28497:28548   */\n      tag_282\n      jump\t// in\n    tag_553:\n        /* \"#utility.yul\":28493:28549   */\n      not\n        /* \"#utility.yul\":28578:28582   */\n      dup1\n        /* \"#utility.yul\":28572:28576   */\n      dup4\n        /* \"#utility.yul\":28568:28583   */\n      and\n        /* \"#utility.yul\":28558:28583   */\n      swap2\n      pop\n        /* \"#utility.yul\":28471:28589   */\n      pop\n        /* \"#utility.yul\":28420:28589   */\n      swap3\n      swap2\n      pop\n      pop\n      jump\t// out\n        /* \"#utility.yul\":28594:28889   */\n    tag_284:\n        /* \"#utility.yul\":28670:28674   */\n      0x00\n        /* \"#utility.yul\":28816:28845   */\n      tag_555\n        /* \"#utility.yul\":28841:28844   */\n      dup4\n        /* \"#utility.yul\":28835:28839   */\n      dup4\n        /* \"#utility.yul\":28816:28845   */\n      tag_283\n      jump\t// in\n    tag_555:\n        /* \"#utility.yul\":28808:28845   */\n      swap2\n      pop\n        /* \"#utility.yul\":28878:28881   */\n      dup3\n        /* \"#utility.yul\":28875:28876   */\n      0x02\n        /* \"#utility.yul\":28871:28882   */\n      mul\n        /* \"#utility.yul\":28865:28869   */\n      dup3\n        /* \"#utility.yul\":28862:28883   */\n      or\n        /* \"#utility.yul\":28854:28883   */\n      swap1\n      pop\n        /* \"#utility.yul\":28594:28889   */\n      swap3\n      swap2\n      pop\n      pop\n      jump\t// out\n        /* \"#utility.yul\":28894:30289   */\n    tag_198:\n        /* \"#utility.yul\":29011:29048   */\n      tag_557\n        /* \"#utility.yul\":29044:29047   */\n      dup3\n        /* \"#utility.yul\":29011:29048   */\n      tag_213\n      jump\t// in\n    tag_557:\n        /* \"#utility.yul\":29113:29131   */\n      0xffffffffffffffff\n        /* \"#utility.yul\":29105:29111   */\n      dup2\n        /* \"#utility.yul\":29102:29132   */\n      gt\n        /* \"#utility.yul\":29099:29155   */\n      iszero\n      tag_558\n      jumpi\n        /* \"#utility.yul\":29135:29153   */\n      tag_559\n      tag_73\n      jump\t// in\n    tag_559:\n        /* \"#utility.yul\":29099:29155   */\n    tag_558:\n        /* \"#utility.yul\":29179:29217   */\n      tag_560\n        /* \"#utility.yul\":29211:29215   */\n      dup3\n        /* \"#utility.yul\":29205:29216   */\n      sload\n        /* \"#utility.yul\":29179:29217   */\n      tag_59\n      jump\t// in\n    tag_560:\n        /* \"#utility.yul\":29264:29331   */\n      tag_561\n        /* \"#utility.yul\":29324:29330   */\n      dup3\n        /* \"#utility.yul\":29316:29322   */\n      dup3\n        /* \"#utility.yul\":29310:29314   */\n      dup6\n        /* \"#utility.yul\":29264:29331   */\n      tag_281\n      jump\t// in\n    tag_561:\n        /* \"#utility.yul\":29358:29359   */\n      0x00\n        /* \"#utility.yul\":29382:29386   */\n      0x20\n        /* \"#utility.yul\":29369:29386   */\n      swap1\n      pop\n        /* \"#utility.yul\":29414:29416   */\n      0x1f\n        /* \"#utility.yul\":29406:29412   */\n      dup4\n        /* \"#utility.yul\":29403:29417   */\n      gt\n        /* \"#utility.yul\":29431:29432   */\n      0x01\n        /* \"#utility.yul\":29426:30044   */\n      dup2\n      eq\n      tag_563\n      jumpi\n        /* \"#utility.yul\":30088:30089   */\n      0x00\n        /* \"#utility.yul\":30105:30111   */\n      dup5\n        /* \"#utility.yul\":30102:30179   */\n      iszero\n      tag_564\n      jumpi\n        /* \"#utility.yul\":30154:30163   */\n      dup3\n        /* \"#utility.yul\":30149:30152   */\n      dup8\n        /* \"#utility.yul\":30145:30164   */\n      add\n        /* \"#utility.yul\":30139:30165   */\n      mload\n        /* \"#utility.yul\":30130:30165   */\n      swap1\n      pop\n        /* \"#utility.yul\":30102:30179   */\n    tag_564:\n        /* \"#utility.yul\":30205:30272   */\n      tag_565\n        /* \"#utility.yul\":30265:30271   */\n      dup6\n        /* \"#utility.yul\":30258:30263   */\n      dup3\n        /* \"#utility.yul\":30205:30272   */\n      tag_284\n      jump\t// in\n    tag_565:\n        /* \"#utility.yul\":30199:30203   */\n      dup7\n        /* \"#utility.yul\":30192:30273   */\n      sstore\n        /* \"#utility.yul\":30061:30283   */\n      pop\n        /* \"#utility.yul\":29396:30283   */\n      jump(tag_562)\n        /* \"#utility.yul\":29426:30044   */\n    tag_563:\n        /* \"#utility.yul\":29478:29482   */\n      0x1f\n        /* \"#utility.yul\":29474:29483   */\n      not\n        /* \"#utility.yul\":29466:29472   */\n      dup5\n        /* \"#utility.yul\":29462:29484   */\n      and\n        /* \"#utility.yul\":29512:29549   */\n      tag_566\n        /* \"#utility.yul\":29544:29548   */\n      dup7\n        /* \"#utility.yul\":29512:29549   */\n      tag_262\n      jump\t// in\n    tag_566:\n        /* \"#utility.yul\":29571:29572   */\n      0x00\n        /* \"#utility.yul\":29585:29793   */\n    tag_567:\n        /* \"#utility.yul\":29599:29606   */\n      dup3\n        /* \"#utility.yul\":29596:29597   */\n      dup2\n        /* \"#utility.yul\":29593:29607   */\n      lt\n        /* \"#utility.yul\":29585:29793   */\n      iszero\n      tag_569\n      jumpi\n        /* \"#utility.yul\":29678:29687   */\n      dup5\n        /* \"#utility.yul\":29673:29676   */\n      dup10\n        /* \"#utility.yul\":29669:29688   */\n      add\n        /* \"#utility.yul\":29663:29689   */\n      mload\n        /* \"#utility.yul\":29655:29661   */\n      dup3\n        /* \"#utility.yul\":29648:29690   */\n      sstore\n        /* \"#utility.yul\":29729:29730   */\n      0x01\n        /* \"#utility.yul\":29721:29727   */\n      dup3\n        /* \"#utility.yul\":29717:29731   */\n      add\n        /* \"#utility.yul\":29707:29731   */\n      swap2\n      pop\n        /* \"#utility.yul\":29776:29778   */\n      0x20\n        /* \"#utility.yul\":29765:29774   */\n      dup6\n        /* \"#utility.yul\":29761:29779   */\n      add\n        /* \"#utility.yul\":29748:29779   */\n      swap5\n      pop\n        /* \"#utility.yul\":29622:29626   */\n      0x20\n        /* \"#utility.yul\":29619:29620   */\n      dup2\n        /* \"#utility.yul\":29615:29627   */\n      add\n        /* \"#utility.yul\":29610:29627   */\n      swap1\n      pop\n        /* \"#utility.yul\":29585:29793   */\n      jump(tag_567)\n    tag_569:\n        /* \"#utility.yul\":29821:29827   */\n      dup7\n        /* \"#utility.yul\":29812:29819   */\n      dup4\n        /* \"#utility.yul\":29809:29828   */\n      lt\n        /* \"#utility.yul\":29806:29985   */\n      iszero\n      tag_570\n      jumpi\n        /* \"#utility.yul\":29879:29888   */\n      dup5\n        /* \"#utility.yul\":29874:29877   */\n      dup10\n        /* \"#utility.yul\":29870:29889   */\n      add\n        /* \"#utility.yul\":29864:29890   */\n      mload\n        /* \"#utility.yul\":29922:29970   */\n      tag_571\n        /* \"#utility.yul\":29964:29968   */\n      0x1f\n        /* \"#utility.yul\":29956:29962   */\n      dup10\n        /* \"#utility.yul\":29952:29969   */\n      and\n        /* \"#utility.yul\":29941:29950   */\n      dup3\n        /* \"#utility.yul\":29922:29970   */\n      tag_283\n      jump\t// in\n    tag_571:\n        /* \"#utility.yul\":29914:29920   */\n      dup4\n        /* \"#utility.yul\":29907:29971   */\n      sstore\n        /* \"#utility.yul\":29829:29985   */\n      pop\n        /* \"#utility.yul\":29806:29985   */\n    tag_570:\n        /* \"#utility.yul\":30031:30032   */\n      0x01\n        /* \"#utility.yul\":30027:30028   */\n      0x02\n        /* \"#utility.yul\":30019:30025   */\n      dup9\n        /* \"#utility.yul\":30015:30029   */\n      mul\n        /* \"#utility.yul\":30011:30033   */\n      add\n        /* \"#utility.yul\":30005:30009   */\n      dup9\n        /* \"#utility.yul\":29998:30034   */\n      sstore\n        /* \"#utility.yul\":29433:30044   */\n      pop\n      pop\n      pop\n        /* \"#utility.yul\":29396:30283   */\n    tag_562:\n      pop\n        /* \"#utility.yul\":28986:30289   */\n      pop\n      pop\n      pop\n        /* \"#utility.yul\":28894:30289   */\n      pop\n      pop\n      jump\t// out\n        /* \"#utility.yul\":30295:30939   */\n    tag_202:\n        /* \"#utility.yul\":30492:30496   */\n      0x00\n        /* \"#utility.yul\":30530:30533   */\n      0x80\n        /* \"#utility.yul\":30519:30528   */\n      dup3\n        /* \"#utility.yul\":30515:30534   */\n      add\n        /* \"#utility.yul\":30507:30534   */\n      swap1\n      pop\n        /* \"#utility.yul\":30544:30615   */\n      tag_573\n        /* \"#utility.yul\":30612:30613   */\n      0x00\n        /* \"#utility.yul\":30601:30610   */\n      dup4\n        /* \"#utility.yul\":30597:30614   */\n      add\n        /* \"#utility.yul\":30588:30594   */\n      dup8\n        /* \"#utility.yul\":30544:30615   */\n      tag_218\n      jump\t// in\n    tag_573:\n        /* \"#utility.yul\":30662:30671   */\n      dup2\n        /* \"#utility.yul\":30656:30660   */\n      dup2\n        /* \"#utility.yul\":30652:30672   */\n      sub\n        /* \"#utility.yul\":30647:30649   */\n      0x20\n        /* \"#utility.yul\":30636:30645   */\n      dup4\n        /* \"#utility.yul\":30632:30650   */\n      add\n        /* \"#utility.yul\":30625:30673   */\n      mstore\n        /* \"#utility.yul\":30690:30768   */\n      tag_574\n        /* \"#utility.yul\":30763:30767   */\n      dup2\n        /* \"#utility.yul\":30754:30760   */\n      dup7\n        /* \"#utility.yul\":30690:30768   */\n      tag_217\n      jump\t// in\n    tag_574:\n        /* \"#utility.yul\":30682:30768   */\n      swap1\n      pop\n        /* \"#utility.yul\":30778:30850   */\n      tag_575\n        /* \"#utility.yul\":30846:30848   */\n      0x40\n        /* \"#utility.yul\":30835:30844   */\n      dup4\n        /* \"#utility.yul\":30831:30849   */\n      add\n        /* \"#utility.yul\":30822:30828   */\n      dup6\n        /* \"#utility.yul\":30778:30850   */\n      tag_218\n      jump\t// in\n    tag_575:\n        /* \"#utility.yul\":30860:30932   */\n      tag_576\n        /* \"#utility.yul\":30928:30930   */\n      0x60\n        /* \"#utility.yul\":30917:30926   */\n      dup4\n        /* \"#utility.yul\":30913:30931   */\n      add\n        /* \"#utility.yul\":30904:30910   */\n      dup5\n        /* \"#utility.yul\":30860:30932   */\n      tag_218\n      jump\t// in\n    tag_576:\n        /* \"#utility.yul\":30295:30939   */\n      swap6\n      swap5\n      pop\n      pop\n      pop\n      pop\n      pop\n      jump\t// out\n\n    auxdata: 0xa2646970667358221220ba26c9398f3fdbcb617dbbf89dd19343eddd7bd0dbe252b9e80b687d1beb75c364736f6c634300081a0033\n}\n",
				"bytecode": {
					"linkReferences": {},
					"object": "6080604052348015600e575f80fd5b506121d38061001c5f395ff3fe60806040526004361061007a575f3560e01c80638418cd991161004d5780638418cd9914610161578063a6b036331461017d578063ace6e3c6146101a7578063e543fd50146101cf5761007a565b8063141961bc1461007e5780633f19d043146100c057806345598b4a146100fd5780634d2ebe8d14610125575b5f80fd5b348015610089575f80fd5b506100a4600480360381019061009f919061123c565b61020b565b6040516100b79796959493929190611398565b60405180910390f35b3480156100cb575f80fd5b506100e660048036038101906100e19190611436565b610309565b6040516100f49291906116d2565b60405180910390f35b348015610108575f80fd5b50610123600480360381019061011e919061123c565b610672565b005b348015610130575f80fd5b5061014b60048036038101906101469190611707565b61095e565b6040516101589190611745565b60405180910390f35b61017b60048036038101906101769190611707565b61097e565b005b348015610188575f80fd5b50610191610d7a565b60405161019e919061175e565b60405180910390f35b3480156101b2575f80fd5b506101cd60048036038101906101c891906118aa565b610f89565b005b3480156101da575f80fd5b506101f560048036038101906101f09190611916565b611151565b6040516102029190611954565b60405180910390f35b5f8181548110610219575f80fd5b905f5260205f2090600602015f91509050805f0180546102389061199a565b80601f01602080910402602001604051908101604052809291908181526020018280546102649061199a565b80156102af5780601f10610286576101008083540402835291602001916102af565b820191905f5260205f20905b81548152906001019060200180831161029257829003601f168201915b505050505090806001015490806002015490806003015490806004015490806005015f9054906101000a900473ffffffffffffffffffffffffffffffffffffffff16908060050160149054906101000a900460ff16905087565b6060805f805b5f8054905081101561038b575f60025f8773ffffffffffffffffffffffffffffffffffffffff1673ffffffffffffffffffffffffffffffffffffffff1681526020019081526020015f205f8381526020019081526020015f2054111561037e57818061037a906119f7565b9250505b808060010191505061030f565b505f8167ffffffffffffffff8111156103a7576103a6611786565b5b6040519080825280602002602001820160405280156103e057816020015b6103cd611199565b8152602001906001900390816103c55790505b5090505f8267ffffffffffffffff8111156103fe576103fd611786565b5b60405190808252806020026020018201604052801561042c5781602001602082028036833780820191505090505b5090505f805b5f80549050811015610662575f60025f8a73ffffffffffffffffffffffffffffffffffffffff1673ffffffffffffffffffffffffffffffffffffffff1681526020019081526020015f205f8381526020019081526020015f205490505f811115610654575f82815481106104a9576104a8611a3e565b5b905f5260205f2090600602016040518060e00160405290815f820180546104cf9061199a565b80601f01602080910402602001604051908101604052809291908181526020018280546104fb9061199a565b80156105465780601f1061051d57610100808354040283529160200191610546565b820191905f5260205f20905b81548152906001019060200180831161052957829003601f168201915b5050505050815260200160018201548152602001600282015481526020016003820154815260200160048201548152602001600582015f9054906101000a900473ffffffffffffffffffffffffffffffffffffffff1673ffffffffffffffffffffffffffffffffffffffff1673ffffffffffffffffffffffffffffffffffffffff1681526020016005820160149054906101000a900460ff1660028111156105f1576105f0611325565b5b600281111561060357610602611325565b5b8152505085848151811061061a57610619611a3e565b5b60200260200101819052508084848151811061063957610638611a3e565b5b6020026020010181815250508280610650906119f7565b9350505b508080600101915050610432565b5082829550955050505050915091565b5f8054905081106106b8576040517f08c379a00000000000000000000000000000000000000000000000000000000081526004016106af90611ab5565b60405180910390fd5b5f8082815481106106cc576106cb611a3e565b5b905f5260205f20906006020190503373ffffffffffffffffffffffffffffffffffffffff16816005015f9054906101000a900473ffffffffffffffffffffffffffffffffffffffff1673ffffffffffffffffffffffffffffffffffffffff161461076b576040517f08c379a000000000000000000000000000000000000000000000000000000000815260040161076290611b43565b60405180910390fd5b5f600281111561077e5761077d611325565b5b8160050160149054906101000a900460ff1660028111156107a2576107a1611325565b5b146107e2576040517f08c379a00000000000000000000000000000000000000000000000000000000081526004016107d990611bab565b60405180910390fd5b60028160050160146101000a81548160ff0219169083600281111561080a57610809611325565b5b02179055505f5b60015f8481526020019081526020015f208054905081101561091e575f60015f8581526020019081526020015f20828154811061085157610850611a3e565b5b905f5260205f20015f9054906101000a900473ffffffffffffffffffffffffffffffffffffffff1690505f60025f8373ffffffffffffffffffffffffffffffffffffffff1673ffffffffffffffffffffffffffffffffffffffff1681526020019081526020015f205f8681526020019081526020015f205490508173ffffffffffffffffffffffffffffffffffffffff166108fc8290811502906040515f60405180830381858888f1935050505015801561090e573d5f803e3d5ffd5b5050508080600101915050610811565b507ff021e62333cdfbbd34d095d4f9914d4a723cc108f866fba75fc4581b1a34fa1f82825f01604051610952929190611c5c565b60405180910390a15050565b6002602052815f5260405f20602052805f5260405f205f91509150505481565b5f34116109c0576040517f08c379a00000000000000000000000000000000000000000000000000000000081526004016109b790611cfa565b60405180910390fd5b5f805490508110610a06576040517f08c379a00000000000000000000000000000000000000000000000000000000081526004016109fd90611ab5565b60405180910390fd5b5f808281548110610a1a57610a19611a3e565b5b905f5260205f2090600602016040518060e00160405290815f82018054610a409061199a565b80601f0160208091040260200160405190810160405280929190818152602001828054610a6c9061199a565b8015610ab75780601f10610a8e57610100808354040283529160200191610ab7565b820191905f5260205f20905b815481529060010190602001808311610a9a57829003601f168201915b5050505050815260200160018201548152602001600282015481526020016003820154815260200160048201548152602001600582015f9054906101000a900473ffffffffffffffffffffffffffffffffffffffff1673ffffffffffffffffffffffffffffffffffffffff1673ffffffffffffffffffffffffffffffffffffffff1681526020016005820160149054906101000a900460ff166002811115610b6257610b61611325565b5b6002811115610b7457610b73611325565b5b8152505090505f6002811115610b8d57610b8c611325565b5b8160c001516002811115610ba457610ba3611325565b5b14610be4576040517f08c379a0000000000000000000000000000000000000000000000000000000008152600401610bdb90611d88565b60405180910390fd5b5f670de0b6b3a764000034610bf99190611dd3565b90505f60025f8673ffffffffffffffffffffffffffffffffffffffff1673ffffffffffffffffffffffffffffffffffffffff1681526020019081526020015f205f8581526020019081526020015f205403610cbe5760015f8481526020019081526020015f2084908060018154018082558091505060019003905f5260205f20015f9091909190916101000a81548173ffffffffffffffffffffffffffffffffffffffff021916908373ffffffffffffffffffffffffffffffffffffffff1602179055505b3460025f8673ffffffffffffffffffffffffffffffffffffffff1673ffffffffffffffffffffffffffffffffffffffff1681526020019081526020015f205f8581526020019081526020015f205f828254610d199190611e03565b925050819055508082604001818151610d329190611e03565b915081815250507fee00973e6c16bdd1dedb2118f4c32980d7c53c73529bd0fc135501096f0155b9838286604051610d6c93929190611e36565b60405180910390a150505050565b60605f808054905067ffffffffffffffff811115610d9b57610d9a611786565b5b604051908082528060200260200182016040528015610dd457816020015b610dc1611199565b815260200190600190039081610db95790505b5090505f5b5f80549050811015610f81575f8181548110610df857610df7611a3e565b5b905f5260205f2090600602016040518060e00160405290815f82018054610e1e9061199a565b80601f0160208091040260200160405190810160405280929190818152602001828054610e4a9061199a565b8015610e955780601f10610e6c57610100808354040283529160200191610e95565b820191905f5260205f20905b815481529060010190602001808311610e7857829003601f168201915b5050505050815260200160018201548152602001600282015481526020016003820154815260200160048201548152602001600582015f9054906101000a900473ffffffffffffffffffffffffffffffffffffffff1673ffffffffffffffffffffffffffffffffffffffff1673ffffffffffffffffffffffffffffffffffffffff1681526020016005820160149054906101000a900460ff166002811115610f4057610f3f611325565b5b6002811115610f5257610f51611325565b5b81525050828281518110610f6957610f68611a3e565b5b60200260200101819052508080600101915050610dd9565b508091505090565b5f8311610fcb576040517f08c379a0000000000000000000000000000000000000000000000000000000008152600401610fc290611edb565b60405180910390fd5b5f6040518060e001604052808381526020018581526020015f81526020018481526020014281526020013373ffffffffffffffffffffffffffffffffffffffff1681526020015f600281111561102457611023611325565b5b81525090505f81908060018154018082558091505060019003905f5260205f2090600602015f909190919091505f820151815f0190816110649190612084565b506020820151816001015560408201518160020155606082015181600301556080820151816004015560a0820151816005015f6101000a81548173ffffffffffffffffffffffffffffffffffffffff021916908373ffffffffffffffffffffffffffffffffffffffff16021790555060c08201518160050160146101000a81548160ff021916908360028111156110fe576110fd611325565b5b021790555050505f808054905090507f1486a9d041aafa1cc375bcfca1613261bf8835c435c377e732a03a0854a0c5ad818487876040516111429493929190612153565b60405180910390a15050505050565b6001602052815f5260405f20818154811061116a575f80fd5b905f5260205f20015f915091509054906101000a900473ffffffffffffffffffffffffffffffffffffffff1681565b6040518060e00160405280606081526020015f81526020015f81526020015f81526020015f81526020015f73ffffffffffffffffffffffffffffffffffffffff1681526020015f60028111156111f2576111f1611325565b5b81525090565b5f604051905090565b5f80fd5b5f80fd5b5f819050919050565b61121b81611209565b8114611225575f80fd5b50565b5f8135905061123681611212565b92915050565b5f6020828403121561125157611250611201565b5b5f61125e84828501611228565b91505092915050565b5f81519050919050565b5f82825260208201905092915050565b8281835e5f83830152505050565b5f601f19601f8301169050919050565b5f6112a982611267565b6112b38185611271565b93506112c3818560208601611281565b6112cc8161128f565b840191505092915050565b6112e081611209565b82525050565b5f73ffffffffffffffffffffffffffffffffffffffff82169050919050565b5f61130f826112e6565b9050919050565b61131f81611305565b82525050565b7f4e487b71000000000000000000000000000000000000000000000000000000005f52602160045260245ffd5b6003811061136357611362611325565b5b50565b5f81905061137382611352565b919050565b5f61138282611366565b9050919050565b61139281611378565b82525050565b5f60e0820190508181035f8301526113b0818a61129f565b90506113bf60208301896112d7565b6113cc60408301886112d7565b6113d960608301876112d7565b6113e660808301866112d7565b6113f360a0830185611316565b61140060c0830184611389565b98975050505050505050565b61141581611305565b811461141f575f80fd5b50565b5f813590506114308161140c565b92915050565b5f6020828403121561144b5761144a611201565b5b5f61145884828501611422565b91505092915050565b5f81519050919050565b5f82825260208201905092915050565b5f819050602082019050919050565b5f82825260208201905092915050565b5f6114a482611267565b6114ae818561148a565b93506114be818560208601611281565b6114c78161128f565b840191505092915050565b6114db81611209565b82525050565b6114ea81611305565b82525050565b6114f981611378565b82525050565b5f60e083015f8301518482035f860152611519828261149a565b915050602083015161152e60208601826114d2565b50604083015161154160408601826114d2565b50606083015161155460608601826114d2565b50608083015161156760808601826114d2565b5060a083015161157a60a08601826114e1565b5060c083015161158d60c08601826114f0565b508091505092915050565b5f6115a383836114ff565b905092915050565b5f602082019050919050565b5f6115c182611461565b6115cb818561146b565b9350836020820285016115dd8561147b565b805f5b8581101561161857848403895281516115f98582611598565b9450611604836115ab565b925060208a019950506001810190506115e0565b50829750879550505050505092915050565b5f81519050919050565b5f82825260208201905092915050565b5f819050602082019050919050565b5f61165e83836114d2565b60208301905092915050565b5f602082019050919050565b5f6116808261162a565b61168a8185611634565b935061169583611644565b805f5b838110156116c55781516116ac8882611653565b97506116b78361166a565b925050600181019050611698565b5085935050505092915050565b5f6040820190508181035f8301526116ea81856115b7565b905081810360208301526116fe8184611676565b90509392505050565b5f806040838503121561171d5761171c611201565b5b5f61172a85828601611422565b925050602061173b85828601611228565b9150509250929050565b5f6020820190506117585f8301846112d7565b92915050565b5f6020820190508181035f83015261177681846115b7565b905092915050565b5f80fd5b5f80fd5b7f4e487b71000000000000000000000000000000000000000000000000000000005f52604160045260245ffd5b6117bc8261128f565b810181811067ffffffffffffffff821117156117db576117da611786565b5b80604052505050565b5f6117ed6111f8565b90506117f982826117b3565b919050565b5f67ffffffffffffffff82111561181857611817611786565b5b6118218261128f565b9050602081019050919050565b828183375f83830152505050565b5f61184e611849846117fe565b6117e4565b90508281526020810184848401111561186a57611869611782565b5b61187584828561182e565b509392505050565b5f82601f8301126118915761189061177e565b5b81356118a184826020860161183c565b91505092915050565b5f805f606084860312156118c1576118c0611201565b5b5f6118ce86828701611228565b93505060206118df86828701611228565b925050604084013567ffffffffffffffff811115611900576118ff611205565b5b61190c8682870161187d565b9150509250925092565b5f806040838503121561192c5761192b611201565b5b5f61193985828601611228565b925050602061194a85828601611228565b9150509250929050565b5f6020820190506119675f830184611316565b92915050565b7f4e487b71000000000000000000000000000000000000000000000000000000005f52602260045260245ffd5b5f60028204905060018216806119b157607f821691505b6020821081036119c4576119c361196d565b5b50919050565b7f4e487b71000000000000000000000000000000000000000000000000000000005f52601160045260245ffd5b5f611a0182611209565b91507fffffffffffffffffffffffffffffffffffffffffffffffffffffffffffffffff8203611a3357611a326119ca565b5b600182019050919050565b7f4e487b71000000000000000000000000000000000000000000000000000000005f52603260045260245ffd5b7f43616d706169676e20646f6573206e6f742065786973740000000000000000005f82015250565b5f611a9f601783611271565b9150611aaa82611a6b565b602082019050919050565b5f6020820190508181035f830152611acc81611a93565b9050919050565b7f4f6e6c79207468652063726561746f722063616e2063616e63656c20746869735f8201527f2063616d706169676e0000000000000000000000000000000000000000000000602082015250565b5f611b2d602983611271565b9150611b3882611ad3565b604082019050919050565b5f6020820190508181035f830152611b5a81611b21565b9050919050565b7f43616d706169676e206973206e6f7420616374697665000000000000000000005f82015250565b5f611b95601683611271565b9150611ba082611b61565b602082019050919050565b5f6020820190508181035f830152611bc281611b89565b9050919050565b5f819050815f5260205f209050919050565b5f8154611be78161199a565b611bf18186611271565b9450600182165f8114611c0b5760018114611c2157611c53565b60ff198316865281151560200286019350611c53565b611c2a85611bc9565b5f5b83811015611c4b57815481890152600182019150602081019050611c2c565b808801955050505b50505092915050565b5f604082019050611c6f5f8301856112d7565b8181036020830152611c818184611bdb565b90509392505050565b7f436f6e747269627574696f6e206d7573742062652067726561746572207468615f8201527f6e20300000000000000000000000000000000000000000000000000000000000602082015250565b5f611ce4602383611271565b9150611cef82611c8a565b604082019050919050565b5f6020820190508181035f830152611d1181611cd8565b9050919050565b7f43616e206f6e6c7920636f6e7472696275746520746f206163746976652063615f8201527f6d706169676e7300000000000000000000000000000000000000000000000000602082015250565b5f611d72602783611271565b9150611d7d82611d18565b604082019050919050565b5f6020820190508181035f830152611d9f81611d66565b9050919050565b7f4e487b71000000000000000000000000000000000000000000000000000000005f52601260045260245ffd5b5f611ddd82611209565b9150611de883611209565b925082611df857611df7611da6565b5b828204905092915050565b5f611e0d82611209565b9150611e1883611209565b9250828201905080821115611e3057611e2f6119ca565b5b92915050565b5f606082019050611e495f8301866112d7565b611e5660208301856112d7565b611e636040830184611316565b949350505050565b7f54617267657420616d6f756e74206d75737420626520677265617465722074685f8201527f616e207a65726f20000000000000000000000000000000000000000000000000602082015250565b5f611ec5602883611271565b9150611ed082611e6b565b604082019050919050565b5f6020820190508181035f830152611ef281611eb9565b9050919050565b5f6020601f8301049050919050565b5f82821b905092915050565b5f60088302611f437fffffffffffffffffffffffffffffffffffffffffffffffffffffffffffffffff82611f08565b611f4d8683611f08565b95508019841693508086168417925050509392505050565b5f819050919050565b5f611f88611f83611f7e84611209565b611f65565b611209565b9050919050565b5f819050919050565b611fa183611f6e565b611fb5611fad82611f8f565b848454611f14565b825550505050565b5f90565b611fc9611fbd565b611fd4818484611f98565b505050565b5b81811015611ff757611fec5f82611fc1565b600181019050611fda565b5050565b601f82111561203c5761200d81611bc9565b61201684611ef9565b81016020851015612025578190505b61203961203185611ef9565b830182611fd9565b50505b505050565b5f82821c905092915050565b5f61205c5f1984600802612041565b1980831691505092915050565b5f612074838361204d565b9150826002028217905092915050565b61208d82611267565b67ffffffffffffffff8111156120a6576120a5611786565b5b6120b0825461199a565b6120bb828285611ffb565b5f60209050601f8311600181146120ec575f84156120da578287015190505b6120e48582612069565b86555061214b565b601f1984166120fa86611bc9565b5f5b82811015612121578489015182556001820191506020850194506020810190506120fc565b8683101561213e578489015161213a601f89168261204d565b8355505b6001600288020188555050505b505050505050565b5f6080820190506121665f8301876112d7565b8181036020830152612178818661129f565b905061218760408301856112d7565b61219460608301846112d7565b9594505050505056fea2646970667358221220ba26c9398f3fdbcb617dbbf89dd19343eddd7bd0dbe252b9e80b687d1beb75c364736f6c634300081a0033",
					"opcodes": "PUSH1 0x80 PUSH1 0x40 MSTORE CALLVALUE DUP1 ISZERO PUSH1 0xE JUMPI PUSH0 DUP1 REVERT JUMPDEST POP PUSH2 0x21D3 DUP1 PUSH2 0x1C PUSH0 CODECOPY PUSH0 RETURN INVALID PUSH1 0x80 PUSH1 0x40 MSTORE PUSH1 0x4 CALLDATASIZE LT PUSH2 0x7A JUMPI PUSH0 CALLDATALOAD PUSH1 0xE0 SHR DUP1 PUSH4 0x8418CD99 GT PUSH2 0x4D JUMPI DUP1 PUSH4 0x8418CD99 EQ PUSH2 0x161 JUMPI DUP1 PUSH4 0xA6B03633 EQ PUSH2 0x17D JUMPI DUP1 PUSH4 0xACE6E3C6 EQ PUSH2 0x1A7 JUMPI DUP1 PUSH4 0xE543FD50 EQ PUSH2 0x1CF JUMPI PUSH2 0x7A JUMP JUMPDEST DUP1 PUSH4 0x141961BC EQ PUSH2 0x7E JUMPI DUP1 PUSH4 0x3F19D043 EQ PUSH2 0xC0 JUMPI DUP1 PUSH4 0x45598B4A EQ PUSH2 0xFD JUMPI DUP1 PUSH4 0x4D2EBE8D EQ PUSH2 0x125 JUMPI JUMPDEST PUSH0 DUP1 REVERT JUMPDEST CALLVALUE DUP1 ISZERO PUSH2 0x89 JUMPI PUSH0 DUP1 REVERT JUMPDEST POP PUSH2 0xA4 PUSH1 0x4 DUP1 CALLDATASIZE SUB DUP2 ADD SWAP1 PUSH2 0x9F SWAP2 SWAP1 PUSH2 0x123C JUMP JUMPDEST PUSH2 0x20B JUMP JUMPDEST PUSH1 0x40 MLOAD PUSH2 0xB7 SWAP8 SWAP7 SWAP6 SWAP5 SWAP4 SWAP3 SWAP2 SWAP1 PUSH2 0x1398 JUMP JUMPDEST PUSH1 0x40 MLOAD DUP1 SWAP2 SUB SWAP1 RETURN JUMPDEST CALLVALUE DUP1 ISZERO PUSH2 0xCB JUMPI PUSH0 DUP1 REVERT JUMPDEST POP PUSH2 0xE6 PUSH1 0x4 DUP1 CALLDATASIZE SUB DUP2 ADD SWAP1 PUSH2 0xE1 SWAP2 SWAP1 PUSH2 0x1436 JUMP JUMPDEST PUSH2 0x309 JUMP JUMPDEST PUSH1 0x40 MLOAD PUSH2 0xF4 SWAP3 SWAP2 SWAP1 PUSH2 0x16D2 JUMP JUMPDEST PUSH1 0x40 MLOAD DUP1 SWAP2 SUB SWAP1 RETURN JUMPDEST CALLVALUE DUP1 ISZERO PUSH2 0x108 JUMPI PUSH0 DUP1 REVERT JUMPDEST POP PUSH2 0x123 PUSH1 0x4 DUP1 CALLDATASIZE SUB DUP2 ADD SWAP1 PUSH2 0x11E SWAP2 SWAP1 PUSH2 0x123C JUMP JUMPDEST PUSH2 0x672 JUMP JUMPDEST STOP JUMPDEST CALLVALUE DUP1 ISZERO PUSH2 0x130 JUMPI PUSH0 DUP1 REVERT JUMPDEST POP PUSH2 0x14B PUSH1 0x4 DUP1 CALLDATASIZE SUB DUP2 ADD SWAP1 PUSH2 0x146 SWAP2 SWAP1 PUSH2 0x1707 JUMP JUMPDEST PUSH2 0x95E JUMP JUMPDEST PUSH1 0x40 MLOAD PUSH2 0x158 SWAP2 SWAP1 PUSH2 0x1745 JUMP JUMPDEST PUSH1 0x40 MLOAD DUP1 SWAP2 SUB SWAP1 RETURN JUMPDEST PUSH2 0x17B PUSH1 0x4 DUP1 CALLDATASIZE SUB DUP2 ADD SWAP1 PUSH2 0x176 SWAP2 SWAP1 PUSH2 0x1707 JUMP JUMPDEST PUSH2 0x97E JUMP JUMPDEST STOP JUMPDEST CALLVALUE DUP1 ISZERO PUSH2 0x188 JUMPI PUSH0 DUP1 REVERT JUMPDEST POP PUSH2 0x191 PUSH2 0xD7A JUMP JUMPDEST PUSH1 0x40 MLOAD PUSH2 0x19E SWAP2 SWAP1 PUSH2 0x175E JUMP JUMPDEST PUSH1 0x40 MLOAD DUP1 SWAP2 SUB SWAP1 RETURN JUMPDEST CALLVALUE DUP1 ISZERO PUSH2 0x1B2 JUMPI PUSH0 DUP1 REVERT JUMPDEST POP PUSH2 0x1CD PUSH1 0x4 DUP1 CALLDATASIZE SUB DUP2 ADD SWAP1 PUSH2 0x1C8 SWAP2 SWAP1 PUSH2 0x18AA JUMP JUMPDEST PUSH2 0xF89 JUMP JUMPDEST STOP JUMPDEST CALLVALUE DUP1 ISZERO PUSH2 0x1DA JUMPI PUSH0 DUP1 REVERT JUMPDEST POP PUSH2 0x1F5 PUSH1 0x4 DUP1 CALLDATASIZE SUB DUP2 ADD SWAP1 PUSH2 0x1F0 SWAP2 SWAP1 PUSH2 0x1916 JUMP JUMPDEST PUSH2 0x1151 JUMP JUMPDEST PUSH1 0x40 MLOAD PUSH2 0x202 SWAP2 SWAP1 PUSH2 0x1954 JUMP JUMPDEST PUSH1 0x40 MLOAD DUP1 SWAP2 SUB SWAP1 RETURN JUMPDEST PUSH0 DUP2 DUP2 SLOAD DUP2 LT PUSH2 0x219 JUMPI PUSH0 DUP1 REVERT JUMPDEST SWAP1 PUSH0 MSTORE PUSH1 0x20 PUSH0 KECCAK256 SWAP1 PUSH1 0x6 MUL ADD PUSH0 SWAP2 POP SWAP1 POP DUP1 PUSH0 ADD DUP1 SLOAD PUSH2 0x238 SWAP1 PUSH2 0x199A JUMP JUMPDEST DUP1 PUSH1 0x1F ADD PUSH1 0x20 DUP1 SWAP2 DIV MUL PUSH1 0x20 ADD PUSH1 0x40 MLOAD SWAP1 DUP2 ADD PUSH1 0x40 MSTORE DUP1 SWAP3 SWAP2 SWAP1 DUP2 DUP2 MSTORE PUSH1 0x20 ADD DUP3 DUP1 SLOAD PUSH2 0x264 SWAP1 PUSH2 0x199A JUMP JUMPDEST DUP1 ISZERO PUSH2 0x2AF JUMPI DUP1 PUSH1 0x1F LT PUSH2 0x286 JUMPI PUSH2 0x100 DUP1 DUP4 SLOAD DIV MUL DUP4 MSTORE SWAP2 PUSH1 0x20 ADD SWAP2 PUSH2 0x2AF JUMP JUMPDEST DUP3 ADD SWAP2 SWAP1 PUSH0 MSTORE PUSH1 0x20 PUSH0 KECCAK256 SWAP1 JUMPDEST DUP2 SLOAD DUP2 MSTORE SWAP1 PUSH1 0x1 ADD SWAP1 PUSH1 0x20 ADD DUP1 DUP4 GT PUSH2 0x292 JUMPI DUP3 SWAP1 SUB PUSH1 0x1F AND DUP3 ADD SWAP2 JUMPDEST POP POP POP POP POP SWAP1 DUP1 PUSH1 0x1 ADD SLOAD SWAP1 DUP1 PUSH1 0x2 ADD SLOAD SWAP1 DUP1 PUSH1 0x3 ADD SLOAD SWAP1 DUP1 PUSH1 0x4 ADD SLOAD SWAP1 DUP1 PUSH1 0x5 ADD PUSH0 SWAP1 SLOAD SWAP1 PUSH2 0x100 EXP SWAP1 DIV PUSH20 0xFFFFFFFFFFFFFFFFFFFFFFFFFFFFFFFFFFFFFFFF AND SWAP1 DUP1 PUSH1 0x5 ADD PUSH1 0x14 SWAP1 SLOAD SWAP1 PUSH2 0x100 EXP SWAP1 DIV PUSH1 0xFF AND SWAP1 POP DUP8 JUMP JUMPDEST PUSH1 0x60 DUP1 PUSH0 DUP1 JUMPDEST PUSH0 DUP1 SLOAD SWAP1 POP DUP2 LT ISZERO PUSH2 0x38B JUMPI PUSH0 PUSH1 0x2 PUSH0 DUP8 PUSH20 0xFFFFFFFFFFFFFFFFFFFFFFFFFFFFFFFFFFFFFFFF AND PUSH20 0xFFFFFFFFFFFFFFFFFFFFFFFFFFFFFFFFFFFFFFFF AND DUP2 MSTORE PUSH1 0x20 ADD SWAP1 DUP2 MSTORE PUSH1 0x20 ADD PUSH0 KECCAK256 PUSH0 DUP4 DUP2 MSTORE PUSH1 0x20 ADD SWAP1 DUP2 MSTORE PUSH1 0x20 ADD PUSH0 KECCAK256 SLOAD GT ISZERO PUSH2 0x37E JUMPI DUP2 DUP1 PUSH2 0x37A SWAP1 PUSH2 0x19F7 JUMP JUMPDEST SWAP3 POP POP JUMPDEST DUP1 DUP1 PUSH1 0x1 ADD SWAP2 POP POP PUSH2 0x30F JUMP JUMPDEST POP PUSH0 DUP2 PUSH8 0xFFFFFFFFFFFFFFFF DUP2 GT ISZERO PUSH2 0x3A7 JUMPI PUSH2 0x3A6 PUSH2 0x1786 JUMP JUMPDEST JUMPDEST PUSH1 0x40 MLOAD SWAP1 DUP1 DUP3 MSTORE DUP1 PUSH1 0x20 MUL PUSH1 0x20 ADD DUP3 ADD PUSH1 0x40 MSTORE DUP1 ISZERO PUSH2 0x3E0 JUMPI DUP2 PUSH1 0x20 ADD JUMPDEST PUSH2 0x3CD PUSH2 0x1199 JUMP JUMPDEST DUP2 MSTORE PUSH1 0x20 ADD SWAP1 PUSH1 0x1 SWAP1 SUB SWAP1 DUP2 PUSH2 0x3C5 JUMPI SWAP1 POP JUMPDEST POP SWAP1 POP PUSH0 DUP3 PUSH8 0xFFFFFFFFFFFFFFFF DUP2 GT ISZERO PUSH2 0x3FE JUMPI PUSH2 0x3FD PUSH2 0x1786 JUMP JUMPDEST JUMPDEST PUSH1 0x40 MLOAD SWAP1 DUP1 DUP3 MSTORE DUP1 PUSH1 0x20 MUL PUSH1 0x20 ADD DUP3 ADD PUSH1 0x40 MSTORE DUP1 ISZERO PUSH2 0x42C JUMPI DUP2 PUSH1 0x20 ADD PUSH1 0x20 DUP3 MUL DUP1 CALLDATASIZE DUP4 CALLDATACOPY DUP1 DUP3 ADD SWAP2 POP POP SWAP1 POP JUMPDEST POP SWAP1 POP PUSH0 DUP1 JUMPDEST PUSH0 DUP1 SLOAD SWAP1 POP DUP2 LT ISZERO PUSH2 0x662 JUMPI PUSH0 PUSH1 0x2 PUSH0 DUP11 PUSH20 0xFFFFFFFFFFFFFFFFFFFFFFFFFFFFFFFFFFFFFFFF AND PUSH20 0xFFFFFFFFFFFFFFFFFFFFFFFFFFFFFFFFFFFFFFFF AND DUP2 MSTORE PUSH1 0x20 ADD SWAP1 DUP2 MSTORE PUSH1 0x20 ADD PUSH0 KECCAK256 PUSH0 DUP4 DUP2 MSTORE PUSH1 0x20 ADD SWAP1 DUP2 MSTORE PUSH1 0x20 ADD PUSH0 KECCAK256 SLOAD SWAP1 POP PUSH0 DUP2 GT ISZERO PUSH2 0x654 JUMPI PUSH0 DUP3 DUP2 SLOAD DUP2 LT PUSH2 0x4A9 JUMPI PUSH2 0x4A8 PUSH2 0x1A3E JUMP JUMPDEST JUMPDEST SWAP1 PUSH0 MSTORE PUSH1 0x20 PUSH0 KECCAK256 SWAP1 PUSH1 0x6 MUL ADD PUSH1 0x40 MLOAD DUP1 PUSH1 0xE0 ADD PUSH1 0x40 MSTORE SWAP1 DUP2 PUSH0 DUP3 ADD DUP1 SLOAD PUSH2 0x4CF SWAP1 PUSH2 0x199A JUMP JUMPDEST DUP1 PUSH1 0x1F ADD PUSH1 0x20 DUP1 SWAP2 DIV MUL PUSH1 0x20 ADD PUSH1 0x40 MLOAD SWAP1 DUP2 ADD PUSH1 0x40 MSTORE DUP1 SWAP3 SWAP2 SWAP1 DUP2 DUP2 MSTORE PUSH1 0x20 ADD DUP3 DUP1 SLOAD PUSH2 0x4FB SWAP1 PUSH2 0x199A JUMP JUMPDEST DUP1 ISZERO PUSH2 0x546 JUMPI DUP1 PUSH1 0x1F LT PUSH2 0x51D JUMPI PUSH2 0x100 DUP1 DUP4 SLOAD DIV MUL DUP4 MSTORE SWAP2 PUSH1 0x20 ADD SWAP2 PUSH2 0x546 JUMP JUMPDEST DUP3 ADD SWAP2 SWAP1 PUSH0 MSTORE PUSH1 0x20 PUSH0 KECCAK256 SWAP1 JUMPDEST DUP2 SLOAD DUP2 MSTORE SWAP1 PUSH1 0x1 ADD SWAP1 PUSH1 0x20 ADD DUP1 DUP4 GT PUSH2 0x529 JUMPI DUP3 SWAP1 SUB PUSH1 0x1F AND DUP3 ADD SWAP2 JUMPDEST POP POP POP POP POP DUP2 MSTORE PUSH1 0x20 ADD PUSH1 0x1 DUP3 ADD SLOAD DUP2 MSTORE PUSH1 0x20 ADD PUSH1 0x2 DUP3 ADD SLOAD DUP2 MSTORE PUSH1 0x20 ADD PUSH1 0x3 DUP3 ADD SLOAD DUP2 MSTORE PUSH1 0x20 ADD PUSH1 0x4 DUP3 ADD SLOAD DUP2 MSTORE PUSH1 0x20 ADD PUSH1 0x5 DUP3 ADD PUSH0 SWAP1 SLOAD SWAP1 PUSH2 0x100 EXP SWAP1 DIV PUSH20 0xFFFFFFFFFFFFFFFFFFFFFFFFFFFFFFFFFFFFFFFF AND PUSH20 0xFFFFFFFFFFFFFFFFFFFFFFFFFFFFFFFFFFFFFFFF AND PUSH20 0xFFFFFFFFFFFFFFFFFFFFFFFFFFFFFFFFFFFFFFFF AND DUP2 MSTORE PUSH1 0x20 ADD PUSH1 0x5 DUP3 ADD PUSH1 0x14 SWAP1 SLOAD SWAP1 PUSH2 0x100 EXP SWAP1 DIV PUSH1 0xFF AND PUSH1 0x2 DUP2 GT ISZERO PUSH2 0x5F1 JUMPI PUSH2 0x5F0 PUSH2 0x1325 JUMP JUMPDEST JUMPDEST PUSH1 0x2 DUP2 GT ISZERO PUSH2 0x603 JUMPI PUSH2 0x602 PUSH2 0x1325 JUMP JUMPDEST JUMPDEST DUP2 MSTORE POP POP DUP6 DUP5 DUP2 MLOAD DUP2 LT PUSH2 0x61A JUMPI PUSH2 0x619 PUSH2 0x1A3E JUMP JUMPDEST JUMPDEST PUSH1 0x20 MUL PUSH1 0x20 ADD ADD DUP2 SWAP1 MSTORE POP DUP1 DUP5 DUP5 DUP2 MLOAD DUP2 LT PUSH2 0x639 JUMPI PUSH2 0x638 PUSH2 0x1A3E JUMP JUMPDEST JUMPDEST PUSH1 0x20 MUL PUSH1 0x20 ADD ADD DUP2 DUP2 MSTORE POP POP DUP3 DUP1 PUSH2 0x650 SWAP1 PUSH2 0x19F7 JUMP JUMPDEST SWAP4 POP POP JUMPDEST POP DUP1 DUP1 PUSH1 0x1 ADD SWAP2 POP POP PUSH2 0x432 JUMP JUMPDEST POP DUP3 DUP3 SWAP6 POP SWAP6 POP POP POP POP POP SWAP2 POP SWAP2 JUMP JUMPDEST PUSH0 DUP1 SLOAD SWAP1 POP DUP2 LT PUSH2 0x6B8 JUMPI PUSH1 0x40 MLOAD PUSH32 0x8C379A000000000000000000000000000000000000000000000000000000000 DUP2 MSTORE PUSH1 0x4 ADD PUSH2 0x6AF SWAP1 PUSH2 0x1AB5 JUMP JUMPDEST PUSH1 0x40 MLOAD DUP1 SWAP2 SUB SWAP1 REVERT JUMPDEST PUSH0 DUP1 DUP3 DUP2 SLOAD DUP2 LT PUSH2 0x6CC JUMPI PUSH2 0x6CB PUSH2 0x1A3E JUMP JUMPDEST JUMPDEST SWAP1 PUSH0 MSTORE PUSH1 0x20 PUSH0 KECCAK256 SWAP1 PUSH1 0x6 MUL ADD SWAP1 POP CALLER PUSH20 0xFFFFFFFFFFFFFFFFFFFFFFFFFFFFFFFFFFFFFFFF AND DUP2 PUSH1 0x5 ADD PUSH0 SWAP1 SLOAD SWAP1 PUSH2 0x100 EXP SWAP1 DIV PUSH20 0xFFFFFFFFFFFFFFFFFFFFFFFFFFFFFFFFFFFFFFFF AND PUSH20 0xFFFFFFFFFFFFFFFFFFFFFFFFFFFFFFFFFFFFFFFF AND EQ PUSH2 0x76B JUMPI PUSH1 0x40 MLOAD PUSH32 0x8C379A000000000000000000000000000000000000000000000000000000000 DUP2 MSTORE PUSH1 0x4 ADD PUSH2 0x762 SWAP1 PUSH2 0x1B43 JUMP JUMPDEST PUSH1 0x40 MLOAD DUP1 SWAP2 SUB SWAP1 REVERT JUMPDEST PUSH0 PUSH1 0x2 DUP2 GT ISZERO PUSH2 0x77E JUMPI PUSH2 0x77D PUSH2 0x1325 JUMP JUMPDEST JUMPDEST DUP2 PUSH1 0x5 ADD PUSH1 0x14 SWAP1 SLOAD SWAP1 PUSH2 0x100 EXP SWAP1 DIV PUSH1 0xFF AND PUSH1 0x2 DUP2 GT ISZERO PUSH2 0x7A2 JUMPI PUSH2 0x7A1 PUSH2 0x1325 JUMP JUMPDEST JUMPDEST EQ PUSH2 0x7E2 JUMPI PUSH1 0x40 MLOAD PUSH32 0x8C379A000000000000000000000000000000000000000000000000000000000 DUP2 MSTORE PUSH1 0x4 ADD PUSH2 0x7D9 SWAP1 PUSH2 0x1BAB JUMP JUMPDEST PUSH1 0x40 MLOAD DUP1 SWAP2 SUB SWAP1 REVERT JUMPDEST PUSH1 0x2 DUP2 PUSH1 0x5 ADD PUSH1 0x14 PUSH2 0x100 EXP DUP2 SLOAD DUP2 PUSH1 0xFF MUL NOT AND SWAP1 DUP4 PUSH1 0x2 DUP2 GT ISZERO PUSH2 0x80A JUMPI PUSH2 0x809 PUSH2 0x1325 JUMP JUMPDEST JUMPDEST MUL OR SWAP1 SSTORE POP PUSH0 JUMPDEST PUSH1 0x1 PUSH0 DUP5 DUP2 MSTORE PUSH1 0x20 ADD SWAP1 DUP2 MSTORE PUSH1 0x20 ADD PUSH0 KECCAK256 DUP1 SLOAD SWAP1 POP DUP2 LT ISZERO PUSH2 0x91E JUMPI PUSH0 PUSH1 0x1 PUSH0 DUP6 DUP2 MSTORE PUSH1 0x20 ADD SWAP1 DUP2 MSTORE PUSH1 0x20 ADD PUSH0 KECCAK256 DUP3 DUP2 SLOAD DUP2 LT PUSH2 0x851 JUMPI PUSH2 0x850 PUSH2 0x1A3E JUMP JUMPDEST JUMPDEST SWAP1 PUSH0 MSTORE PUSH1 0x20 PUSH0 KECCAK256 ADD PUSH0 SWAP1 SLOAD SWAP1 PUSH2 0x100 EXP SWAP1 DIV PUSH20 0xFFFFFFFFFFFFFFFFFFFFFFFFFFFFFFFFFFFFFFFF AND SWAP1 POP PUSH0 PUSH1 0x2 PUSH0 DUP4 PUSH20 0xFFFFFFFFFFFFFFFFFFFFFFFFFFFFFFFFFFFFFFFF AND PUSH20 0xFFFFFFFFFFFFFFFFFFFFFFFFFFFFFFFFFFFFFFFF AND DUP2 MSTORE PUSH1 0x20 ADD SWAP1 DUP2 MSTORE PUSH1 0x20 ADD PUSH0 KECCAK256 PUSH0 DUP7 DUP2 MSTORE PUSH1 0x20 ADD SWAP1 DUP2 MSTORE PUSH1 0x20 ADD PUSH0 KECCAK256 SLOAD SWAP1 POP DUP2 PUSH20 0xFFFFFFFFFFFFFFFFFFFFFFFFFFFFFFFFFFFFFFFF AND PUSH2 0x8FC DUP3 SWAP1 DUP2 ISZERO MUL SWAP1 PUSH1 0x40 MLOAD PUSH0 PUSH1 0x40 MLOAD DUP1 DUP4 SUB DUP2 DUP6 DUP9 DUP9 CALL SWAP4 POP POP POP POP ISZERO DUP1 ISZERO PUSH2 0x90E JUMPI RETURNDATASIZE PUSH0 DUP1 RETURNDATACOPY RETURNDATASIZE PUSH0 REVERT JUMPDEST POP POP POP DUP1 DUP1 PUSH1 0x1 ADD SWAP2 POP POP PUSH2 0x811 JUMP JUMPDEST POP PUSH32 0xF021E62333CDFBBD34D095D4F9914D4A723CC108F866FBA75FC4581B1A34FA1F DUP3 DUP3 PUSH0 ADD PUSH1 0x40 MLOAD PUSH2 0x952 SWAP3 SWAP2 SWAP1 PUSH2 0x1C5C JUMP JUMPDEST PUSH1 0x40 MLOAD DUP1 SWAP2 SUB SWAP1 LOG1 POP POP JUMP JUMPDEST PUSH1 0x2 PUSH1 0x20 MSTORE DUP2 PUSH0 MSTORE PUSH1 0x40 PUSH0 KECCAK256 PUSH1 0x20 MSTORE DUP1 PUSH0 MSTORE PUSH1 0x40 PUSH0 KECCAK256 PUSH0 SWAP2 POP SWAP2 POP POP SLOAD DUP2 JUMP JUMPDEST PUSH0 CALLVALUE GT PUSH2 0x9C0 JUMPI PUSH1 0x40 MLOAD PUSH32 0x8C379A000000000000000000000000000000000000000000000000000000000 DUP2 MSTORE PUSH1 0x4 ADD PUSH2 0x9B7 SWAP1 PUSH2 0x1CFA JUMP JUMPDEST PUSH1 0x40 MLOAD DUP1 SWAP2 SUB SWAP1 REVERT JUMPDEST PUSH0 DUP1 SLOAD SWAP1 POP DUP2 LT PUSH2 0xA06 JUMPI PUSH1 0x40 MLOAD PUSH32 0x8C379A000000000000000000000000000000000000000000000000000000000 DUP2 MSTORE PUSH1 0x4 ADD PUSH2 0x9FD SWAP1 PUSH2 0x1AB5 JUMP JUMPDEST PUSH1 0x40 MLOAD DUP1 SWAP2 SUB SWAP1 REVERT JUMPDEST PUSH0 DUP1 DUP3 DUP2 SLOAD DUP2 LT PUSH2 0xA1A JUMPI PUSH2 0xA19 PUSH2 0x1A3E JUMP JUMPDEST JUMPDEST SWAP1 PUSH0 MSTORE PUSH1 0x20 PUSH0 KECCAK256 SWAP1 PUSH1 0x6 MUL ADD PUSH1 0x40 MLOAD DUP1 PUSH1 0xE0 ADD PUSH1 0x40 MSTORE SWAP1 DUP2 PUSH0 DUP3 ADD DUP1 SLOAD PUSH2 0xA40 SWAP1 PUSH2 0x199A JUMP JUMPDEST DUP1 PUSH1 0x1F ADD PUSH1 0x20 DUP1 SWAP2 DIV MUL PUSH1 0x20 ADD PUSH1 0x40 MLOAD SWAP1 DUP2 ADD PUSH1 0x40 MSTORE DUP1 SWAP3 SWAP2 SWAP1 DUP2 DUP2 MSTORE PUSH1 0x20 ADD DUP3 DUP1 SLOAD PUSH2 0xA6C SWAP1 PUSH2 0x199A JUMP JUMPDEST DUP1 ISZERO PUSH2 0xAB7 JUMPI DUP1 PUSH1 0x1F LT PUSH2 0xA8E JUMPI PUSH2 0x100 DUP1 DUP4 SLOAD DIV MUL DUP4 MSTORE SWAP2 PUSH1 0x20 ADD SWAP2 PUSH2 0xAB7 JUMP JUMPDEST DUP3 ADD SWAP2 SWAP1 PUSH0 MSTORE PUSH1 0x20 PUSH0 KECCAK256 SWAP1 JUMPDEST DUP2 SLOAD DUP2 MSTORE SWAP1 PUSH1 0x1 ADD SWAP1 PUSH1 0x20 ADD DUP1 DUP4 GT PUSH2 0xA9A JUMPI DUP3 SWAP1 SUB PUSH1 0x1F AND DUP3 ADD SWAP2 JUMPDEST POP POP POP POP POP DUP2 MSTORE PUSH1 0x20 ADD PUSH1 0x1 DUP3 ADD SLOAD DUP2 MSTORE PUSH1 0x20 ADD PUSH1 0x2 DUP3 ADD SLOAD DUP2 MSTORE PUSH1 0x20 ADD PUSH1 0x3 DUP3 ADD SLOAD DUP2 MSTORE PUSH1 0x20 ADD PUSH1 0x4 DUP3 ADD SLOAD DUP2 MSTORE PUSH1 0x20 ADD PUSH1 0x5 DUP3 ADD PUSH0 SWAP1 SLOAD SWAP1 PUSH2 0x100 EXP SWAP1 DIV PUSH20 0xFFFFFFFFFFFFFFFFFFFFFFFFFFFFFFFFFFFFFFFF AND PUSH20 0xFFFFFFFFFFFFFFFFFFFFFFFFFFFFFFFFFFFFFFFF AND PUSH20 0xFFFFFFFFFFFFFFFFFFFFFFFFFFFFFFFFFFFFFFFF AND DUP2 MSTORE PUSH1 0x20 ADD PUSH1 0x5 DUP3 ADD PUSH1 0x14 SWAP1 SLOAD SWAP1 PUSH2 0x100 EXP SWAP1 DIV PUSH1 0xFF AND PUSH1 0x2 DUP2 GT ISZERO PUSH2 0xB62 JUMPI PUSH2 0xB61 PUSH2 0x1325 JUMP JUMPDEST JUMPDEST PUSH1 0x2 DUP2 GT ISZERO PUSH2 0xB74 JUMPI PUSH2 0xB73 PUSH2 0x1325 JUMP JUMPDEST JUMPDEST DUP2 MSTORE POP POP SWAP1 POP PUSH0 PUSH1 0x2 DUP2 GT ISZERO PUSH2 0xB8D JUMPI PUSH2 0xB8C PUSH2 0x1325 JUMP JUMPDEST JUMPDEST DUP2 PUSH1 0xC0 ADD MLOAD PUSH1 0x2 DUP2 GT ISZERO PUSH2 0xBA4 JUMPI PUSH2 0xBA3 PUSH2 0x1325 JUMP JUMPDEST JUMPDEST EQ PUSH2 0xBE4 JUMPI PUSH1 0x40 MLOAD PUSH32 0x8C379A000000000000000000000000000000000000000000000000000000000 DUP2 MSTORE PUSH1 0x4 ADD PUSH2 0xBDB SWAP1 PUSH2 0x1D88 JUMP JUMPDEST PUSH1 0x40 MLOAD DUP1 SWAP2 SUB SWAP1 REVERT JUMPDEST PUSH0 PUSH8 0xDE0B6B3A7640000 CALLVALUE PUSH2 0xBF9 SWAP2 SWAP1 PUSH2 0x1DD3 JUMP JUMPDEST SWAP1 POP PUSH0 PUSH1 0x2 PUSH0 DUP7 PUSH20 0xFFFFFFFFFFFFFFFFFFFFFFFFFFFFFFFFFFFFFFFF AND PUSH20 0xFFFFFFFFFFFFFFFFFFFFFFFFFFFFFFFFFFFFFFFF AND DUP2 MSTORE PUSH1 0x20 ADD SWAP1 DUP2 MSTORE PUSH1 0x20 ADD PUSH0 KECCAK256 PUSH0 DUP6 DUP2 MSTORE PUSH1 0x20 ADD SWAP1 DUP2 MSTORE PUSH1 0x20 ADD PUSH0 KECCAK256 SLOAD SUB PUSH2 0xCBE JUMPI PUSH1 0x1 PUSH0 DUP5 DUP2 MSTORE PUSH1 0x20 ADD SWAP1 DUP2 MSTORE PUSH1 0x20 ADD PUSH0 KECCAK256 DUP5 SWAP1 DUP1 PUSH1 0x1 DUP2 SLOAD ADD DUP1 DUP3 SSTORE DUP1 SWAP2 POP POP PUSH1 0x1 SWAP1 SUB SWAP1 PUSH0 MSTORE PUSH1 0x20 PUSH0 KECCAK256 ADD PUSH0 SWAP1 SWAP2 SWAP1 SWAP2 SWAP1 SWAP2 PUSH2 0x100 EXP DUP2 SLOAD DUP2 PUSH20 0xFFFFFFFFFFFFFFFFFFFFFFFFFFFFFFFFFFFFFFFF MUL NOT AND SWAP1 DUP4 PUSH20 0xFFFFFFFFFFFFFFFFFFFFFFFFFFFFFFFFFFFFFFFF AND MUL OR SWAP1 SSTORE POP JUMPDEST CALLVALUE PUSH1 0x2 PUSH0 DUP7 PUSH20 0xFFFFFFFFFFFFFFFFFFFFFFFFFFFFFFFFFFFFFFFF AND PUSH20 0xFFFFFFFFFFFFFFFFFFFFFFFFFFFFFFFFFFFFFFFF AND DUP2 MSTORE PUSH1 0x20 ADD SWAP1 DUP2 MSTORE PUSH1 0x20 ADD PUSH0 KECCAK256 PUSH0 DUP6 DUP2 MSTORE PUSH1 0x20 ADD SWAP1 DUP2 MSTORE PUSH1 0x20 ADD PUSH0 KECCAK256 PUSH0 DUP3 DUP3 SLOAD PUSH2 0xD19 SWAP2 SWAP1 PUSH2 0x1E03 JUMP JUMPDEST SWAP3 POP POP DUP2 SWAP1 SSTORE POP DUP1 DUP3 PUSH1 0x40 ADD DUP2 DUP2 MLOAD PUSH2 0xD32 SWAP2 SWAP1 PUSH2 0x1E03 JUMP JUMPDEST SWAP2 POP DUP2 DUP2 MSTORE POP POP PUSH32 0xEE00973E6C16BDD1DEDB2118F4C32980D7C53C73529BD0FC135501096F0155B9 DUP4 DUP3 DUP7 PUSH1 0x40 MLOAD PUSH2 0xD6C SWAP4 SWAP3 SWAP2 SWAP1 PUSH2 0x1E36 JUMP JUMPDEST PUSH1 0x40 MLOAD DUP1 SWAP2 SUB SWAP1 LOG1 POP POP POP POP JUMP JUMPDEST PUSH1 0x60 PUSH0 DUP1 DUP1 SLOAD SWAP1 POP PUSH8 0xFFFFFFFFFFFFFFFF DUP2 GT ISZERO PUSH2 0xD9B JUMPI PUSH2 0xD9A PUSH2 0x1786 JUMP JUMPDEST JUMPDEST PUSH1 0x40 MLOAD SWAP1 DUP1 DUP3 MSTORE DUP1 PUSH1 0x20 MUL PUSH1 0x20 ADD DUP3 ADD PUSH1 0x40 MSTORE DUP1 ISZERO PUSH2 0xDD4 JUMPI DUP2 PUSH1 0x20 ADD JUMPDEST PUSH2 0xDC1 PUSH2 0x1199 JUMP JUMPDEST DUP2 MSTORE PUSH1 0x20 ADD SWAP1 PUSH1 0x1 SWAP1 SUB SWAP1 DUP2 PUSH2 0xDB9 JUMPI SWAP1 POP JUMPDEST POP SWAP1 POP PUSH0 JUMPDEST PUSH0 DUP1 SLOAD SWAP1 POP DUP2 LT ISZERO PUSH2 0xF81 JUMPI PUSH0 DUP2 DUP2 SLOAD DUP2 LT PUSH2 0xDF8 JUMPI PUSH2 0xDF7 PUSH2 0x1A3E JUMP JUMPDEST JUMPDEST SWAP1 PUSH0 MSTORE PUSH1 0x20 PUSH0 KECCAK256 SWAP1 PUSH1 0x6 MUL ADD PUSH1 0x40 MLOAD DUP1 PUSH1 0xE0 ADD PUSH1 0x40 MSTORE SWAP1 DUP2 PUSH0 DUP3 ADD DUP1 SLOAD PUSH2 0xE1E SWAP1 PUSH2 0x199A JUMP JUMPDEST DUP1 PUSH1 0x1F ADD PUSH1 0x20 DUP1 SWAP2 DIV MUL PUSH1 0x20 ADD PUSH1 0x40 MLOAD SWAP1 DUP2 ADD PUSH1 0x40 MSTORE DUP1 SWAP3 SWAP2 SWAP1 DUP2 DUP2 MSTORE PUSH1 0x20 ADD DUP3 DUP1 SLOAD PUSH2 0xE4A SWAP1 PUSH2 0x199A JUMP JUMPDEST DUP1 ISZERO PUSH2 0xE95 JUMPI DUP1 PUSH1 0x1F LT PUSH2 0xE6C JUMPI PUSH2 0x100 DUP1 DUP4 SLOAD DIV MUL DUP4 MSTORE SWAP2 PUSH1 0x20 ADD SWAP2 PUSH2 0xE95 JUMP JUMPDEST DUP3 ADD SWAP2 SWAP1 PUSH0 MSTORE PUSH1 0x20 PUSH0 KECCAK256 SWAP1 JUMPDEST DUP2 SLOAD DUP2 MSTORE SWAP1 PUSH1 0x1 ADD SWAP1 PUSH1 0x20 ADD DUP1 DUP4 GT PUSH2 0xE78 JUMPI DUP3 SWAP1 SUB PUSH1 0x1F AND DUP3 ADD SWAP2 JUMPDEST POP POP POP POP POP DUP2 MSTORE PUSH1 0x20 ADD PUSH1 0x1 DUP3 ADD SLOAD DUP2 MSTORE PUSH1 0x20 ADD PUSH1 0x2 DUP3 ADD SLOAD DUP2 MSTORE PUSH1 0x20 ADD PUSH1 0x3 DUP3 ADD SLOAD DUP2 MSTORE PUSH1 0x20 ADD PUSH1 0x4 DUP3 ADD SLOAD DUP2 MSTORE PUSH1 0x20 ADD PUSH1 0x5 DUP3 ADD PUSH0 SWAP1 SLOAD SWAP1 PUSH2 0x100 EXP SWAP1 DIV PUSH20 0xFFFFFFFFFFFFFFFFFFFFFFFFFFFFFFFFFFFFFFFF AND PUSH20 0xFFFFFFFFFFFFFFFFFFFFFFFFFFFFFFFFFFFFFFFF AND PUSH20 0xFFFFFFFFFFFFFFFFFFFFFFFFFFFFFFFFFFFFFFFF AND DUP2 MSTORE PUSH1 0x20 ADD PUSH1 0x5 DUP3 ADD PUSH1 0x14 SWAP1 SLOAD SWAP1 PUSH2 0x100 EXP SWAP1 DIV PUSH1 0xFF AND PUSH1 0x2 DUP2 GT ISZERO PUSH2 0xF40 JUMPI PUSH2 0xF3F PUSH2 0x1325 JUMP JUMPDEST JUMPDEST PUSH1 0x2 DUP2 GT ISZERO PUSH2 0xF52 JUMPI PUSH2 0xF51 PUSH2 0x1325 JUMP JUMPDEST JUMPDEST DUP2 MSTORE POP POP DUP3 DUP3 DUP2 MLOAD DUP2 LT PUSH2 0xF69 JUMPI PUSH2 0xF68 PUSH2 0x1A3E JUMP JUMPDEST JUMPDEST PUSH1 0x20 MUL PUSH1 0x20 ADD ADD DUP2 SWAP1 MSTORE POP DUP1 DUP1 PUSH1 0x1 ADD SWAP2 POP POP PUSH2 0xDD9 JUMP JUMPDEST POP DUP1 SWAP2 POP POP SWAP1 JUMP JUMPDEST PUSH0 DUP4 GT PUSH2 0xFCB JUMPI PUSH1 0x40 MLOAD PUSH32 0x8C379A000000000000000000000000000000000000000000000000000000000 DUP2 MSTORE PUSH1 0x4 ADD PUSH2 0xFC2 SWAP1 PUSH2 0x1EDB JUMP JUMPDEST PUSH1 0x40 MLOAD DUP1 SWAP2 SUB SWAP1 REVERT JUMPDEST PUSH0 PUSH1 0x40 MLOAD DUP1 PUSH1 0xE0 ADD PUSH1 0x40 MSTORE DUP1 DUP4 DUP2 MSTORE PUSH1 0x20 ADD DUP6 DUP2 MSTORE PUSH1 0x20 ADD PUSH0 DUP2 MSTORE PUSH1 0x20 ADD DUP5 DUP2 MSTORE PUSH1 0x20 ADD TIMESTAMP DUP2 MSTORE PUSH1 0x20 ADD CALLER PUSH20 0xFFFFFFFFFFFFFFFFFFFFFFFFFFFFFFFFFFFFFFFF AND DUP2 MSTORE PUSH1 0x20 ADD PUSH0 PUSH1 0x2 DUP2 GT ISZERO PUSH2 0x1024 JUMPI PUSH2 0x1023 PUSH2 0x1325 JUMP JUMPDEST JUMPDEST DUP2 MSTORE POP SWAP1 POP PUSH0 DUP2 SWAP1 DUP1 PUSH1 0x1 DUP2 SLOAD ADD DUP1 DUP3 SSTORE DUP1 SWAP2 POP POP PUSH1 0x1 SWAP1 SUB SWAP1 PUSH0 MSTORE PUSH1 0x20 PUSH0 KECCAK256 SWAP1 PUSH1 0x6 MUL ADD PUSH0 SWAP1 SWAP2 SWAP1 SWAP2 SWAP1 SWAP2 POP PUSH0 DUP3 ADD MLOAD DUP2 PUSH0 ADD SWAP1 DUP2 PUSH2 0x1064 SWAP2 SWAP1 PUSH2 0x2084 JUMP JUMPDEST POP PUSH1 0x20 DUP3 ADD MLOAD DUP2 PUSH1 0x1 ADD SSTORE PUSH1 0x40 DUP3 ADD MLOAD DUP2 PUSH1 0x2 ADD SSTORE PUSH1 0x60 DUP3 ADD MLOAD DUP2 PUSH1 0x3 ADD SSTORE PUSH1 0x80 DUP3 ADD MLOAD DUP2 PUSH1 0x4 ADD SSTORE PUSH1 0xA0 DUP3 ADD MLOAD DUP2 PUSH1 0x5 ADD PUSH0 PUSH2 0x100 EXP DUP2 SLOAD DUP2 PUSH20 0xFFFFFFFFFFFFFFFFFFFFFFFFFFFFFFFFFFFFFFFF MUL NOT AND SWAP1 DUP4 PUSH20 0xFFFFFFFFFFFFFFFFFFFFFFFFFFFFFFFFFFFFFFFF AND MUL OR SWAP1 SSTORE POP PUSH1 0xC0 DUP3 ADD MLOAD DUP2 PUSH1 0x5 ADD PUSH1 0x14 PUSH2 0x100 EXP DUP2 SLOAD DUP2 PUSH1 0xFF MUL NOT AND SWAP1 DUP4 PUSH1 0x2 DUP2 GT ISZERO PUSH2 0x10FE JUMPI PUSH2 0x10FD PUSH2 0x1325 JUMP JUMPDEST JUMPDEST MUL OR SWAP1 SSTORE POP POP POP PUSH0 DUP1 DUP1 SLOAD SWAP1 POP SWAP1 POP PUSH32 0x1486A9D041AAFA1CC375BCFCA1613261BF8835C435C377E732A03A0854A0C5AD DUP2 DUP5 DUP8 DUP8 PUSH1 0x40 MLOAD PUSH2 0x1142 SWAP5 SWAP4 SWAP3 SWAP2 SWAP1 PUSH2 0x2153 JUMP JUMPDEST PUSH1 0x40 MLOAD DUP1 SWAP2 SUB SWAP1 LOG1 POP POP POP POP POP JUMP JUMPDEST PUSH1 0x1 PUSH1 0x20 MSTORE DUP2 PUSH0 MSTORE PUSH1 0x40 PUSH0 KECCAK256 DUP2 DUP2 SLOAD DUP2 LT PUSH2 0x116A JUMPI PUSH0 DUP1 REVERT JUMPDEST SWAP1 PUSH0 MSTORE PUSH1 0x20 PUSH0 KECCAK256 ADD PUSH0 SWAP2 POP SWAP2 POP SWAP1 SLOAD SWAP1 PUSH2 0x100 EXP SWAP1 DIV PUSH20 0xFFFFFFFFFFFFFFFFFFFFFFFFFFFFFFFFFFFFFFFF AND DUP2 JUMP JUMPDEST PUSH1 0x40 MLOAD DUP1 PUSH1 0xE0 ADD PUSH1 0x40 MSTORE DUP1 PUSH1 0x60 DUP2 MSTORE PUSH1 0x20 ADD PUSH0 DUP2 MSTORE PUSH1 0x20 ADD PUSH0 DUP2 MSTORE PUSH1 0x20 ADD PUSH0 DUP2 MSTORE PUSH1 0x20 ADD PUSH0 DUP2 MSTORE PUSH1 0x20 ADD PUSH0 PUSH20 0xFFFFFFFFFFFFFFFFFFFFFFFFFFFFFFFFFFFFFFFF AND DUP2 MSTORE PUSH1 0x20 ADD PUSH0 PUSH1 0x2 DUP2 GT ISZERO PUSH2 0x11F2 JUMPI PUSH2 0x11F1 PUSH2 0x1325 JUMP JUMPDEST JUMPDEST DUP2 MSTORE POP SWAP1 JUMP JUMPDEST PUSH0 PUSH1 0x40 MLOAD SWAP1 POP SWAP1 JUMP JUMPDEST PUSH0 DUP1 REVERT JUMPDEST PUSH0 DUP1 REVERT JUMPDEST PUSH0 DUP2 SWAP1 POP SWAP2 SWAP1 POP JUMP JUMPDEST PUSH2 0x121B DUP2 PUSH2 0x1209 JUMP JUMPDEST DUP2 EQ PUSH2 0x1225 JUMPI PUSH0 DUP1 REVERT JUMPDEST POP JUMP JUMPDEST PUSH0 DUP2 CALLDATALOAD SWAP1 POP PUSH2 0x1236 DUP2 PUSH2 0x1212 JUMP JUMPDEST SWAP3 SWAP2 POP POP JUMP JUMPDEST PUSH0 PUSH1 0x20 DUP3 DUP5 SUB SLT ISZERO PUSH2 0x1251 JUMPI PUSH2 0x1250 PUSH2 0x1201 JUMP JUMPDEST JUMPDEST PUSH0 PUSH2 0x125E DUP5 DUP3 DUP6 ADD PUSH2 0x1228 JUMP JUMPDEST SWAP2 POP POP SWAP3 SWAP2 POP POP JUMP JUMPDEST PUSH0 DUP2 MLOAD SWAP1 POP SWAP2 SWAP1 POP JUMP JUMPDEST PUSH0 DUP3 DUP3 MSTORE PUSH1 0x20 DUP3 ADD SWAP1 POP SWAP3 SWAP2 POP POP JUMP JUMPDEST DUP3 DUP2 DUP4 MCOPY PUSH0 DUP4 DUP4 ADD MSTORE POP POP POP JUMP JUMPDEST PUSH0 PUSH1 0x1F NOT PUSH1 0x1F DUP4 ADD AND SWAP1 POP SWAP2 SWAP1 POP JUMP JUMPDEST PUSH0 PUSH2 0x12A9 DUP3 PUSH2 0x1267 JUMP JUMPDEST PUSH2 0x12B3 DUP2 DUP6 PUSH2 0x1271 JUMP JUMPDEST SWAP4 POP PUSH2 0x12C3 DUP2 DUP6 PUSH1 0x20 DUP7 ADD PUSH2 0x1281 JUMP JUMPDEST PUSH2 0x12CC DUP2 PUSH2 0x128F JUMP JUMPDEST DUP5 ADD SWAP2 POP POP SWAP3 SWAP2 POP POP JUMP JUMPDEST PUSH2 0x12E0 DUP2 PUSH2 0x1209 JUMP JUMPDEST DUP3 MSTORE POP POP JUMP JUMPDEST PUSH0 PUSH20 0xFFFFFFFFFFFFFFFFFFFFFFFFFFFFFFFFFFFFFFFF DUP3 AND SWAP1 POP SWAP2 SWAP1 POP JUMP JUMPDEST PUSH0 PUSH2 0x130F DUP3 PUSH2 0x12E6 JUMP JUMPDEST SWAP1 POP SWAP2 SWAP1 POP JUMP JUMPDEST PUSH2 0x131F DUP2 PUSH2 0x1305 JUMP JUMPDEST DUP3 MSTORE POP POP JUMP JUMPDEST PUSH32 0x4E487B7100000000000000000000000000000000000000000000000000000000 PUSH0 MSTORE PUSH1 0x21 PUSH1 0x4 MSTORE PUSH1 0x24 PUSH0 REVERT JUMPDEST PUSH1 0x3 DUP2 LT PUSH2 0x1363 JUMPI PUSH2 0x1362 PUSH2 0x1325 JUMP JUMPDEST JUMPDEST POP JUMP JUMPDEST PUSH0 DUP2 SWAP1 POP PUSH2 0x1373 DUP3 PUSH2 0x1352 JUMP JUMPDEST SWAP2 SWAP1 POP JUMP JUMPDEST PUSH0 PUSH2 0x1382 DUP3 PUSH2 0x1366 JUMP JUMPDEST SWAP1 POP SWAP2 SWAP1 POP JUMP JUMPDEST PUSH2 0x1392 DUP2 PUSH2 0x1378 JUMP JUMPDEST DUP3 MSTORE POP POP JUMP JUMPDEST PUSH0 PUSH1 0xE0 DUP3 ADD SWAP1 POP DUP2 DUP2 SUB PUSH0 DUP4 ADD MSTORE PUSH2 0x13B0 DUP2 DUP11 PUSH2 0x129F JUMP JUMPDEST SWAP1 POP PUSH2 0x13BF PUSH1 0x20 DUP4 ADD DUP10 PUSH2 0x12D7 JUMP JUMPDEST PUSH2 0x13CC PUSH1 0x40 DUP4 ADD DUP9 PUSH2 0x12D7 JUMP JUMPDEST PUSH2 0x13D9 PUSH1 0x60 DUP4 ADD DUP8 PUSH2 0x12D7 JUMP JUMPDEST PUSH2 0x13E6 PUSH1 0x80 DUP4 ADD DUP7 PUSH2 0x12D7 JUMP JUMPDEST PUSH2 0x13F3 PUSH1 0xA0 DUP4 ADD DUP6 PUSH2 0x1316 JUMP JUMPDEST PUSH2 0x1400 PUSH1 0xC0 DUP4 ADD DUP5 PUSH2 0x1389 JUMP JUMPDEST SWAP9 SWAP8 POP POP POP POP POP POP POP POP JUMP JUMPDEST PUSH2 0x1415 DUP2 PUSH2 0x1305 JUMP JUMPDEST DUP2 EQ PUSH2 0x141F JUMPI PUSH0 DUP1 REVERT JUMPDEST POP JUMP JUMPDEST PUSH0 DUP2 CALLDATALOAD SWAP1 POP PUSH2 0x1430 DUP2 PUSH2 0x140C JUMP JUMPDEST SWAP3 SWAP2 POP POP JUMP JUMPDEST PUSH0 PUSH1 0x20 DUP3 DUP5 SUB SLT ISZERO PUSH2 0x144B JUMPI PUSH2 0x144A PUSH2 0x1201 JUMP JUMPDEST JUMPDEST PUSH0 PUSH2 0x1458 DUP5 DUP3 DUP6 ADD PUSH2 0x1422 JUMP JUMPDEST SWAP2 POP POP SWAP3 SWAP2 POP POP JUMP JUMPDEST PUSH0 DUP2 MLOAD SWAP1 POP SWAP2 SWAP1 POP JUMP JUMPDEST PUSH0 DUP3 DUP3 MSTORE PUSH1 0x20 DUP3 ADD SWAP1 POP SWAP3 SWAP2 POP POP JUMP JUMPDEST PUSH0 DUP2 SWAP1 POP PUSH1 0x20 DUP3 ADD SWAP1 POP SWAP2 SWAP1 POP JUMP JUMPDEST PUSH0 DUP3 DUP3 MSTORE PUSH1 0x20 DUP3 ADD SWAP1 POP SWAP3 SWAP2 POP POP JUMP JUMPDEST PUSH0 PUSH2 0x14A4 DUP3 PUSH2 0x1267 JUMP JUMPDEST PUSH2 0x14AE DUP2 DUP6 PUSH2 0x148A JUMP JUMPDEST SWAP4 POP PUSH2 0x14BE DUP2 DUP6 PUSH1 0x20 DUP7 ADD PUSH2 0x1281 JUMP JUMPDEST PUSH2 0x14C7 DUP2 PUSH2 0x128F JUMP JUMPDEST DUP5 ADD SWAP2 POP POP SWAP3 SWAP2 POP POP JUMP JUMPDEST PUSH2 0x14DB DUP2 PUSH2 0x1209 JUMP JUMPDEST DUP3 MSTORE POP POP JUMP JUMPDEST PUSH2 0x14EA DUP2 PUSH2 0x1305 JUMP JUMPDEST DUP3 MSTORE POP POP JUMP JUMPDEST PUSH2 0x14F9 DUP2 PUSH2 0x1378 JUMP JUMPDEST DUP3 MSTORE POP POP JUMP JUMPDEST PUSH0 PUSH1 0xE0 DUP4 ADD PUSH0 DUP4 ADD MLOAD DUP5 DUP3 SUB PUSH0 DUP7 ADD MSTORE PUSH2 0x1519 DUP3 DUP3 PUSH2 0x149A JUMP JUMPDEST SWAP2 POP POP PUSH1 0x20 DUP4 ADD MLOAD PUSH2 0x152E PUSH1 0x20 DUP7 ADD DUP3 PUSH2 0x14D2 JUMP JUMPDEST POP PUSH1 0x40 DUP4 ADD MLOAD PUSH2 0x1541 PUSH1 0x40 DUP7 ADD DUP3 PUSH2 0x14D2 JUMP JUMPDEST POP PUSH1 0x60 DUP4 ADD MLOAD PUSH2 0x1554 PUSH1 0x60 DUP7 ADD DUP3 PUSH2 0x14D2 JUMP JUMPDEST POP PUSH1 0x80 DUP4 ADD MLOAD PUSH2 0x1567 PUSH1 0x80 DUP7 ADD DUP3 PUSH2 0x14D2 JUMP JUMPDEST POP PUSH1 0xA0 DUP4 ADD MLOAD PUSH2 0x157A PUSH1 0xA0 DUP7 ADD DUP3 PUSH2 0x14E1 JUMP JUMPDEST POP PUSH1 0xC0 DUP4 ADD MLOAD PUSH2 0x158D PUSH1 0xC0 DUP7 ADD DUP3 PUSH2 0x14F0 JUMP JUMPDEST POP DUP1 SWAP2 POP POP SWAP3 SWAP2 POP POP JUMP JUMPDEST PUSH0 PUSH2 0x15A3 DUP4 DUP4 PUSH2 0x14FF JUMP JUMPDEST SWAP1 POP SWAP3 SWAP2 POP POP JUMP JUMPDEST PUSH0 PUSH1 0x20 DUP3 ADD SWAP1 POP SWAP2 SWAP1 POP JUMP JUMPDEST PUSH0 PUSH2 0x15C1 DUP3 PUSH2 0x1461 JUMP JUMPDEST PUSH2 0x15CB DUP2 DUP6 PUSH2 0x146B JUMP JUMPDEST SWAP4 POP DUP4 PUSH1 0x20 DUP3 MUL DUP6 ADD PUSH2 0x15DD DUP6 PUSH2 0x147B JUMP JUMPDEST DUP1 PUSH0 JUMPDEST DUP6 DUP2 LT ISZERO PUSH2 0x1618 JUMPI DUP5 DUP5 SUB DUP10 MSTORE DUP2 MLOAD PUSH2 0x15F9 DUP6 DUP3 PUSH2 0x1598 JUMP JUMPDEST SWAP5 POP PUSH2 0x1604 DUP4 PUSH2 0x15AB JUMP JUMPDEST SWAP3 POP PUSH1 0x20 DUP11 ADD SWAP10 POP POP PUSH1 0x1 DUP2 ADD SWAP1 POP PUSH2 0x15E0 JUMP JUMPDEST POP DUP3 SWAP8 POP DUP8 SWAP6 POP POP POP POP POP POP SWAP3 SWAP2 POP POP JUMP JUMPDEST PUSH0 DUP2 MLOAD SWAP1 POP SWAP2 SWAP1 POP JUMP JUMPDEST PUSH0 DUP3 DUP3 MSTORE PUSH1 0x20 DUP3 ADD SWAP1 POP SWAP3 SWAP2 POP POP JUMP JUMPDEST PUSH0 DUP2 SWAP1 POP PUSH1 0x20 DUP3 ADD SWAP1 POP SWAP2 SWAP1 POP JUMP JUMPDEST PUSH0 PUSH2 0x165E DUP4 DUP4 PUSH2 0x14D2 JUMP JUMPDEST PUSH1 0x20 DUP4 ADD SWAP1 POP SWAP3 SWAP2 POP POP JUMP JUMPDEST PUSH0 PUSH1 0x20 DUP3 ADD SWAP1 POP SWAP2 SWAP1 POP JUMP JUMPDEST PUSH0 PUSH2 0x1680 DUP3 PUSH2 0x162A JUMP JUMPDEST PUSH2 0x168A DUP2 DUP6 PUSH2 0x1634 JUMP JUMPDEST SWAP4 POP PUSH2 0x1695 DUP4 PUSH2 0x1644 JUMP JUMPDEST DUP1 PUSH0 JUMPDEST DUP4 DUP2 LT ISZERO PUSH2 0x16C5 JUMPI DUP2 MLOAD PUSH2 0x16AC DUP9 DUP3 PUSH2 0x1653 JUMP JUMPDEST SWAP8 POP PUSH2 0x16B7 DUP4 PUSH2 0x166A JUMP JUMPDEST SWAP3 POP POP PUSH1 0x1 DUP2 ADD SWAP1 POP PUSH2 0x1698 JUMP JUMPDEST POP DUP6 SWAP4 POP POP POP POP SWAP3 SWAP2 POP POP JUMP JUMPDEST PUSH0 PUSH1 0x40 DUP3 ADD SWAP1 POP DUP2 DUP2 SUB PUSH0 DUP4 ADD MSTORE PUSH2 0x16EA DUP2 DUP6 PUSH2 0x15B7 JUMP JUMPDEST SWAP1 POP DUP2 DUP2 SUB PUSH1 0x20 DUP4 ADD MSTORE PUSH2 0x16FE DUP2 DUP5 PUSH2 0x1676 JUMP JUMPDEST SWAP1 POP SWAP4 SWAP3 POP POP POP JUMP JUMPDEST PUSH0 DUP1 PUSH1 0x40 DUP4 DUP6 SUB SLT ISZERO PUSH2 0x171D JUMPI PUSH2 0x171C PUSH2 0x1201 JUMP JUMPDEST JUMPDEST PUSH0 PUSH2 0x172A DUP6 DUP3 DUP7 ADD PUSH2 0x1422 JUMP JUMPDEST SWAP3 POP POP PUSH1 0x20 PUSH2 0x173B DUP6 DUP3 DUP7 ADD PUSH2 0x1228 JUMP JUMPDEST SWAP2 POP POP SWAP3 POP SWAP3 SWAP1 POP JUMP JUMPDEST PUSH0 PUSH1 0x20 DUP3 ADD SWAP1 POP PUSH2 0x1758 PUSH0 DUP4 ADD DUP5 PUSH2 0x12D7 JUMP JUMPDEST SWAP3 SWAP2 POP POP JUMP JUMPDEST PUSH0 PUSH1 0x20 DUP3 ADD SWAP1 POP DUP2 DUP2 SUB PUSH0 DUP4 ADD MSTORE PUSH2 0x1776 DUP2 DUP5 PUSH2 0x15B7 JUMP JUMPDEST SWAP1 POP SWAP3 SWAP2 POP POP JUMP JUMPDEST PUSH0 DUP1 REVERT JUMPDEST PUSH0 DUP1 REVERT JUMPDEST PUSH32 0x4E487B7100000000000000000000000000000000000000000000000000000000 PUSH0 MSTORE PUSH1 0x41 PUSH1 0x4 MSTORE PUSH1 0x24 PUSH0 REVERT JUMPDEST PUSH2 0x17BC DUP3 PUSH2 0x128F JUMP JUMPDEST DUP2 ADD DUP2 DUP2 LT PUSH8 0xFFFFFFFFFFFFFFFF DUP3 GT OR ISZERO PUSH2 0x17DB JUMPI PUSH2 0x17DA PUSH2 0x1786 JUMP JUMPDEST JUMPDEST DUP1 PUSH1 0x40 MSTORE POP POP POP JUMP JUMPDEST PUSH0 PUSH2 0x17ED PUSH2 0x11F8 JUMP JUMPDEST SWAP1 POP PUSH2 0x17F9 DUP3 DUP3 PUSH2 0x17B3 JUMP JUMPDEST SWAP2 SWAP1 POP JUMP JUMPDEST PUSH0 PUSH8 0xFFFFFFFFFFFFFFFF DUP3 GT ISZERO PUSH2 0x1818 JUMPI PUSH2 0x1817 PUSH2 0x1786 JUMP JUMPDEST JUMPDEST PUSH2 0x1821 DUP3 PUSH2 0x128F JUMP JUMPDEST SWAP1 POP PUSH1 0x20 DUP2 ADD SWAP1 POP SWAP2 SWAP1 POP JUMP JUMPDEST DUP3 DUP2 DUP4 CALLDATACOPY PUSH0 DUP4 DUP4 ADD MSTORE POP POP POP JUMP JUMPDEST PUSH0 PUSH2 0x184E PUSH2 0x1849 DUP5 PUSH2 0x17FE JUMP JUMPDEST PUSH2 0x17E4 JUMP JUMPDEST SWAP1 POP DUP3 DUP2 MSTORE PUSH1 0x20 DUP2 ADD DUP5 DUP5 DUP5 ADD GT ISZERO PUSH2 0x186A JUMPI PUSH2 0x1869 PUSH2 0x1782 JUMP JUMPDEST JUMPDEST PUSH2 0x1875 DUP5 DUP3 DUP6 PUSH2 0x182E JUMP JUMPDEST POP SWAP4 SWAP3 POP POP POP JUMP JUMPDEST PUSH0 DUP3 PUSH1 0x1F DUP4 ADD SLT PUSH2 0x1891 JUMPI PUSH2 0x1890 PUSH2 0x177E JUMP JUMPDEST JUMPDEST DUP2 CALLDATALOAD PUSH2 0x18A1 DUP5 DUP3 PUSH1 0x20 DUP7 ADD PUSH2 0x183C JUMP JUMPDEST SWAP2 POP POP SWAP3 SWAP2 POP POP JUMP JUMPDEST PUSH0 DUP1 PUSH0 PUSH1 0x60 DUP5 DUP7 SUB SLT ISZERO PUSH2 0x18C1 JUMPI PUSH2 0x18C0 PUSH2 0x1201 JUMP JUMPDEST JUMPDEST PUSH0 PUSH2 0x18CE DUP7 DUP3 DUP8 ADD PUSH2 0x1228 JUMP JUMPDEST SWAP4 POP POP PUSH1 0x20 PUSH2 0x18DF DUP7 DUP3 DUP8 ADD PUSH2 0x1228 JUMP JUMPDEST SWAP3 POP POP PUSH1 0x40 DUP5 ADD CALLDATALOAD PUSH8 0xFFFFFFFFFFFFFFFF DUP2 GT ISZERO PUSH2 0x1900 JUMPI PUSH2 0x18FF PUSH2 0x1205 JUMP JUMPDEST JUMPDEST PUSH2 0x190C DUP7 DUP3 DUP8 ADD PUSH2 0x187D JUMP JUMPDEST SWAP2 POP POP SWAP3 POP SWAP3 POP SWAP3 JUMP JUMPDEST PUSH0 DUP1 PUSH1 0x40 DUP4 DUP6 SUB SLT ISZERO PUSH2 0x192C JUMPI PUSH2 0x192B PUSH2 0x1201 JUMP JUMPDEST JUMPDEST PUSH0 PUSH2 0x1939 DUP6 DUP3 DUP7 ADD PUSH2 0x1228 JUMP JUMPDEST SWAP3 POP POP PUSH1 0x20 PUSH2 0x194A DUP6 DUP3 DUP7 ADD PUSH2 0x1228 JUMP JUMPDEST SWAP2 POP POP SWAP3 POP SWAP3 SWAP1 POP JUMP JUMPDEST PUSH0 PUSH1 0x20 DUP3 ADD SWAP1 POP PUSH2 0x1967 PUSH0 DUP4 ADD DUP5 PUSH2 0x1316 JUMP JUMPDEST SWAP3 SWAP2 POP POP JUMP JUMPDEST PUSH32 0x4E487B7100000000000000000000000000000000000000000000000000000000 PUSH0 MSTORE PUSH1 0x22 PUSH1 0x4 MSTORE PUSH1 0x24 PUSH0 REVERT JUMPDEST PUSH0 PUSH1 0x2 DUP3 DIV SWAP1 POP PUSH1 0x1 DUP3 AND DUP1 PUSH2 0x19B1 JUMPI PUSH1 0x7F DUP3 AND SWAP2 POP JUMPDEST PUSH1 0x20 DUP3 LT DUP2 SUB PUSH2 0x19C4 JUMPI PUSH2 0x19C3 PUSH2 0x196D JUMP JUMPDEST JUMPDEST POP SWAP2 SWAP1 POP JUMP JUMPDEST PUSH32 0x4E487B7100000000000000000000000000000000000000000000000000000000 PUSH0 MSTORE PUSH1 0x11 PUSH1 0x4 MSTORE PUSH1 0x24 PUSH0 REVERT JUMPDEST PUSH0 PUSH2 0x1A01 DUP3 PUSH2 0x1209 JUMP JUMPDEST SWAP2 POP PUSH32 0xFFFFFFFFFFFFFFFFFFFFFFFFFFFFFFFFFFFFFFFFFFFFFFFFFFFFFFFFFFFFFFFF DUP3 SUB PUSH2 0x1A33 JUMPI PUSH2 0x1A32 PUSH2 0x19CA JUMP JUMPDEST JUMPDEST PUSH1 0x1 DUP3 ADD SWAP1 POP SWAP2 SWAP1 POP JUMP JUMPDEST PUSH32 0x4E487B7100000000000000000000000000000000000000000000000000000000 PUSH0 MSTORE PUSH1 0x32 PUSH1 0x4 MSTORE PUSH1 0x24 PUSH0 REVERT JUMPDEST PUSH32 0x43616D706169676E20646F6573206E6F74206578697374000000000000000000 PUSH0 DUP3 ADD MSTORE POP JUMP JUMPDEST PUSH0 PUSH2 0x1A9F PUSH1 0x17 DUP4 PUSH2 0x1271 JUMP JUMPDEST SWAP2 POP PUSH2 0x1AAA DUP3 PUSH2 0x1A6B JUMP JUMPDEST PUSH1 0x20 DUP3 ADD SWAP1 POP SWAP2 SWAP1 POP JUMP JUMPDEST PUSH0 PUSH1 0x20 DUP3 ADD SWAP1 POP DUP2 DUP2 SUB PUSH0 DUP4 ADD MSTORE PUSH2 0x1ACC DUP2 PUSH2 0x1A93 JUMP JUMPDEST SWAP1 POP SWAP2 SWAP1 POP JUMP JUMPDEST PUSH32 0x4F6E6C79207468652063726561746F722063616E2063616E63656C2074686973 PUSH0 DUP3 ADD MSTORE PUSH32 0x2063616D706169676E0000000000000000000000000000000000000000000000 PUSH1 0x20 DUP3 ADD MSTORE POP JUMP JUMPDEST PUSH0 PUSH2 0x1B2D PUSH1 0x29 DUP4 PUSH2 0x1271 JUMP JUMPDEST SWAP2 POP PUSH2 0x1B38 DUP3 PUSH2 0x1AD3 JUMP JUMPDEST PUSH1 0x40 DUP3 ADD SWAP1 POP SWAP2 SWAP1 POP JUMP JUMPDEST PUSH0 PUSH1 0x20 DUP3 ADD SWAP1 POP DUP2 DUP2 SUB PUSH0 DUP4 ADD MSTORE PUSH2 0x1B5A DUP2 PUSH2 0x1B21 JUMP JUMPDEST SWAP1 POP SWAP2 SWAP1 POP JUMP JUMPDEST PUSH32 0x43616D706169676E206973206E6F742061637469766500000000000000000000 PUSH0 DUP3 ADD MSTORE POP JUMP JUMPDEST PUSH0 PUSH2 0x1B95 PUSH1 0x16 DUP4 PUSH2 0x1271 JUMP JUMPDEST SWAP2 POP PUSH2 0x1BA0 DUP3 PUSH2 0x1B61 JUMP JUMPDEST PUSH1 0x20 DUP3 ADD SWAP1 POP SWAP2 SWAP1 POP JUMP JUMPDEST PUSH0 PUSH1 0x20 DUP3 ADD SWAP1 POP DUP2 DUP2 SUB PUSH0 DUP4 ADD MSTORE PUSH2 0x1BC2 DUP2 PUSH2 0x1B89 JUMP JUMPDEST SWAP1 POP SWAP2 SWAP1 POP JUMP JUMPDEST PUSH0 DUP2 SWAP1 POP DUP2 PUSH0 MSTORE PUSH1 0x20 PUSH0 KECCAK256 SWAP1 POP SWAP2 SWAP1 POP JUMP JUMPDEST PUSH0 DUP2 SLOAD PUSH2 0x1BE7 DUP2 PUSH2 0x199A JUMP JUMPDEST PUSH2 0x1BF1 DUP2 DUP7 PUSH2 0x1271 JUMP JUMPDEST SWAP5 POP PUSH1 0x1 DUP3 AND PUSH0 DUP2 EQ PUSH2 0x1C0B JUMPI PUSH1 0x1 DUP2 EQ PUSH2 0x1C21 JUMPI PUSH2 0x1C53 JUMP JUMPDEST PUSH1 0xFF NOT DUP4 AND DUP7 MSTORE DUP2 ISZERO ISZERO PUSH1 0x20 MUL DUP7 ADD SWAP4 POP PUSH2 0x1C53 JUMP JUMPDEST PUSH2 0x1C2A DUP6 PUSH2 0x1BC9 JUMP JUMPDEST PUSH0 JUMPDEST DUP4 DUP2 LT ISZERO PUSH2 0x1C4B JUMPI DUP2 SLOAD DUP2 DUP10 ADD MSTORE PUSH1 0x1 DUP3 ADD SWAP2 POP PUSH1 0x20 DUP2 ADD SWAP1 POP PUSH2 0x1C2C JUMP JUMPDEST DUP1 DUP9 ADD SWAP6 POP POP POP JUMPDEST POP POP POP SWAP3 SWAP2 POP POP JUMP JUMPDEST PUSH0 PUSH1 0x40 DUP3 ADD SWAP1 POP PUSH2 0x1C6F PUSH0 DUP4 ADD DUP6 PUSH2 0x12D7 JUMP JUMPDEST DUP2 DUP2 SUB PUSH1 0x20 DUP4 ADD MSTORE PUSH2 0x1C81 DUP2 DUP5 PUSH2 0x1BDB JUMP JUMPDEST SWAP1 POP SWAP4 SWAP3 POP POP POP JUMP JUMPDEST PUSH32 0x436F6E747269627574696F6E206D757374206265206772656174657220746861 PUSH0 DUP3 ADD MSTORE PUSH32 0x6E20300000000000000000000000000000000000000000000000000000000000 PUSH1 0x20 DUP3 ADD MSTORE POP JUMP JUMPDEST PUSH0 PUSH2 0x1CE4 PUSH1 0x23 DUP4 PUSH2 0x1271 JUMP JUMPDEST SWAP2 POP PUSH2 0x1CEF DUP3 PUSH2 0x1C8A JUMP JUMPDEST PUSH1 0x40 DUP3 ADD SWAP1 POP SWAP2 SWAP1 POP JUMP JUMPDEST PUSH0 PUSH1 0x20 DUP3 ADD SWAP1 POP DUP2 DUP2 SUB PUSH0 DUP4 ADD MSTORE PUSH2 0x1D11 DUP2 PUSH2 0x1CD8 JUMP JUMPDEST SWAP1 POP SWAP2 SWAP1 POP JUMP JUMPDEST PUSH32 0x43616E206F6E6C7920636F6E7472696275746520746F20616374697665206361 PUSH0 DUP3 ADD MSTORE PUSH32 0x6D706169676E7300000000000000000000000000000000000000000000000000 PUSH1 0x20 DUP3 ADD MSTORE POP JUMP JUMPDEST PUSH0 PUSH2 0x1D72 PUSH1 0x27 DUP4 PUSH2 0x1271 JUMP JUMPDEST SWAP2 POP PUSH2 0x1D7D DUP3 PUSH2 0x1D18 JUMP JUMPDEST PUSH1 0x40 DUP3 ADD SWAP1 POP SWAP2 SWAP1 POP JUMP JUMPDEST PUSH0 PUSH1 0x20 DUP3 ADD SWAP1 POP DUP2 DUP2 SUB PUSH0 DUP4 ADD MSTORE PUSH2 0x1D9F DUP2 PUSH2 0x1D66 JUMP JUMPDEST SWAP1 POP SWAP2 SWAP1 POP JUMP JUMPDEST PUSH32 0x4E487B7100000000000000000000000000000000000000000000000000000000 PUSH0 MSTORE PUSH1 0x12 PUSH1 0x4 MSTORE PUSH1 0x24 PUSH0 REVERT JUMPDEST PUSH0 PUSH2 0x1DDD DUP3 PUSH2 0x1209 JUMP JUMPDEST SWAP2 POP PUSH2 0x1DE8 DUP4 PUSH2 0x1209 JUMP JUMPDEST SWAP3 POP DUP3 PUSH2 0x1DF8 JUMPI PUSH2 0x1DF7 PUSH2 0x1DA6 JUMP JUMPDEST JUMPDEST DUP3 DUP3 DIV SWAP1 POP SWAP3 SWAP2 POP POP JUMP JUMPDEST PUSH0 PUSH2 0x1E0D DUP3 PUSH2 0x1209 JUMP JUMPDEST SWAP2 POP PUSH2 0x1E18 DUP4 PUSH2 0x1209 JUMP JUMPDEST SWAP3 POP DUP3 DUP3 ADD SWAP1 POP DUP1 DUP3 GT ISZERO PUSH2 0x1E30 JUMPI PUSH2 0x1E2F PUSH2 0x19CA JUMP JUMPDEST JUMPDEST SWAP3 SWAP2 POP POP JUMP JUMPDEST PUSH0 PUSH1 0x60 DUP3 ADD SWAP1 POP PUSH2 0x1E49 PUSH0 DUP4 ADD DUP7 PUSH2 0x12D7 JUMP JUMPDEST PUSH2 0x1E56 PUSH1 0x20 DUP4 ADD DUP6 PUSH2 0x12D7 JUMP JUMPDEST PUSH2 0x1E63 PUSH1 0x40 DUP4 ADD DUP5 PUSH2 0x1316 JUMP JUMPDEST SWAP5 SWAP4 POP POP POP POP JUMP JUMPDEST PUSH32 0x54617267657420616D6F756E74206D7573742062652067726561746572207468 PUSH0 DUP3 ADD MSTORE PUSH32 0x616E207A65726F20000000000000000000000000000000000000000000000000 PUSH1 0x20 DUP3 ADD MSTORE POP JUMP JUMPDEST PUSH0 PUSH2 0x1EC5 PUSH1 0x28 DUP4 PUSH2 0x1271 JUMP JUMPDEST SWAP2 POP PUSH2 0x1ED0 DUP3 PUSH2 0x1E6B JUMP JUMPDEST PUSH1 0x40 DUP3 ADD SWAP1 POP SWAP2 SWAP1 POP JUMP JUMPDEST PUSH0 PUSH1 0x20 DUP3 ADD SWAP1 POP DUP2 DUP2 SUB PUSH0 DUP4 ADD MSTORE PUSH2 0x1EF2 DUP2 PUSH2 0x1EB9 JUMP JUMPDEST SWAP1 POP SWAP2 SWAP1 POP JUMP JUMPDEST PUSH0 PUSH1 0x20 PUSH1 0x1F DUP4 ADD DIV SWAP1 POP SWAP2 SWAP1 POP JUMP JUMPDEST PUSH0 DUP3 DUP3 SHL SWAP1 POP SWAP3 SWAP2 POP POP JUMP JUMPDEST PUSH0 PUSH1 0x8 DUP4 MUL PUSH2 0x1F43 PUSH32 0xFFFFFFFFFFFFFFFFFFFFFFFFFFFFFFFFFFFFFFFFFFFFFFFFFFFFFFFFFFFFFFFF DUP3 PUSH2 0x1F08 JUMP JUMPDEST PUSH2 0x1F4D DUP7 DUP4 PUSH2 0x1F08 JUMP JUMPDEST SWAP6 POP DUP1 NOT DUP5 AND SWAP4 POP DUP1 DUP7 AND DUP5 OR SWAP3 POP POP POP SWAP4 SWAP3 POP POP POP JUMP JUMPDEST PUSH0 DUP2 SWAP1 POP SWAP2 SWAP1 POP JUMP JUMPDEST PUSH0 PUSH2 0x1F88 PUSH2 0x1F83 PUSH2 0x1F7E DUP5 PUSH2 0x1209 JUMP JUMPDEST PUSH2 0x1F65 JUMP JUMPDEST PUSH2 0x1209 JUMP JUMPDEST SWAP1 POP SWAP2 SWAP1 POP JUMP JUMPDEST PUSH0 DUP2 SWAP1 POP SWAP2 SWAP1 POP JUMP JUMPDEST PUSH2 0x1FA1 DUP4 PUSH2 0x1F6E JUMP JUMPDEST PUSH2 0x1FB5 PUSH2 0x1FAD DUP3 PUSH2 0x1F8F JUMP JUMPDEST DUP5 DUP5 SLOAD PUSH2 0x1F14 JUMP JUMPDEST DUP3 SSTORE POP POP POP POP JUMP JUMPDEST PUSH0 SWAP1 JUMP JUMPDEST PUSH2 0x1FC9 PUSH2 0x1FBD JUMP JUMPDEST PUSH2 0x1FD4 DUP2 DUP5 DUP5 PUSH2 0x1F98 JUMP JUMPDEST POP POP POP JUMP JUMPDEST JUMPDEST DUP2 DUP2 LT ISZERO PUSH2 0x1FF7 JUMPI PUSH2 0x1FEC PUSH0 DUP3 PUSH2 0x1FC1 JUMP JUMPDEST PUSH1 0x1 DUP2 ADD SWAP1 POP PUSH2 0x1FDA JUMP JUMPDEST POP POP JUMP JUMPDEST PUSH1 0x1F DUP3 GT ISZERO PUSH2 0x203C JUMPI PUSH2 0x200D DUP2 PUSH2 0x1BC9 JUMP JUMPDEST PUSH2 0x2016 DUP5 PUSH2 0x1EF9 JUMP JUMPDEST DUP2 ADD PUSH1 0x20 DUP6 LT ISZERO PUSH2 0x2025 JUMPI DUP2 SWAP1 POP JUMPDEST PUSH2 0x2039 PUSH2 0x2031 DUP6 PUSH2 0x1EF9 JUMP JUMPDEST DUP4 ADD DUP3 PUSH2 0x1FD9 JUMP JUMPDEST POP POP JUMPDEST POP POP POP JUMP JUMPDEST PUSH0 DUP3 DUP3 SHR SWAP1 POP SWAP3 SWAP2 POP POP JUMP JUMPDEST PUSH0 PUSH2 0x205C PUSH0 NOT DUP5 PUSH1 0x8 MUL PUSH2 0x2041 JUMP JUMPDEST NOT DUP1 DUP4 AND SWAP2 POP POP SWAP3 SWAP2 POP POP JUMP JUMPDEST PUSH0 PUSH2 0x2074 DUP4 DUP4 PUSH2 0x204D JUMP JUMPDEST SWAP2 POP DUP3 PUSH1 0x2 MUL DUP3 OR SWAP1 POP SWAP3 SWAP2 POP POP JUMP JUMPDEST PUSH2 0x208D DUP3 PUSH2 0x1267 JUMP JUMPDEST PUSH8 0xFFFFFFFFFFFFFFFF DUP2 GT ISZERO PUSH2 0x20A6 JUMPI PUSH2 0x20A5 PUSH2 0x1786 JUMP JUMPDEST JUMPDEST PUSH2 0x20B0 DUP3 SLOAD PUSH2 0x199A JUMP JUMPDEST PUSH2 0x20BB DUP3 DUP3 DUP6 PUSH2 0x1FFB JUMP JUMPDEST PUSH0 PUSH1 0x20 SWAP1 POP PUSH1 0x1F DUP4 GT PUSH1 0x1 DUP2 EQ PUSH2 0x20EC JUMPI PUSH0 DUP5 ISZERO PUSH2 0x20DA JUMPI DUP3 DUP8 ADD MLOAD SWAP1 POP JUMPDEST PUSH2 0x20E4 DUP6 DUP3 PUSH2 0x2069 JUMP JUMPDEST DUP7 SSTORE POP PUSH2 0x214B JUMP JUMPDEST PUSH1 0x1F NOT DUP5 AND PUSH2 0x20FA DUP7 PUSH2 0x1BC9 JUMP JUMPDEST PUSH0 JUMPDEST DUP3 DUP2 LT ISZERO PUSH2 0x2121 JUMPI DUP5 DUP10 ADD MLOAD DUP3 SSTORE PUSH1 0x1 DUP3 ADD SWAP2 POP PUSH1 0x20 DUP6 ADD SWAP5 POP PUSH1 0x20 DUP2 ADD SWAP1 POP PUSH2 0x20FC JUMP JUMPDEST DUP7 DUP4 LT ISZERO PUSH2 0x213E JUMPI DUP5 DUP10 ADD MLOAD PUSH2 0x213A PUSH1 0x1F DUP10 AND DUP3 PUSH2 0x204D JUMP JUMPDEST DUP4 SSTORE POP JUMPDEST PUSH1 0x1 PUSH1 0x2 DUP9 MUL ADD DUP9 SSTORE POP POP POP JUMPDEST POP POP POP POP POP POP JUMP JUMPDEST PUSH0 PUSH1 0x80 DUP3 ADD SWAP1 POP PUSH2 0x2166 PUSH0 DUP4 ADD DUP8 PUSH2 0x12D7 JUMP JUMPDEST DUP2 DUP2 SUB PUSH1 0x20 DUP4 ADD MSTORE PUSH2 0x2178 DUP2 DUP7 PUSH2 0x129F JUMP JUMPDEST SWAP1 POP PUSH2 0x2187 PUSH1 0x40 DUP4 ADD DUP6 PUSH2 0x12D7 JUMP JUMPDEST PUSH2 0x2194 PUSH1 0x60 DUP4 ADD DUP5 PUSH2 0x12D7 JUMP JUMPDEST SWAP6 SWAP5 POP POP POP POP POP JUMP INVALID LOG2 PUSH5 0x6970667358 0x22 SLT KECCAK256 0xBA 0x26 0xC9 CODECOPY DUP16 EXTCODEHASH 0xDB 0xCB PUSH2 0x7DBB 0xF8 SWAP14 0xD1 SWAP4 NUMBER 0xED 0xDD PUSH28 0xD0DBE252B9E80B687D1BEB75C364736F6C634300081A003300000000 "
				},
				"gasEstimates": {
					"creation": {
						"codeDepositCost": "1731800",
						"executionCost": "1818",
						"totalCost": "1733618"
					},
					"external": {
						"campaigns(uint256)": "infinite",
						"campaignsByContributor(address,uint256)": "infinite",
						"cancelCampaign(uint256)": "infinite",
						"contribute(address,uint256)": "infinite",
						"contributorsByCampaignId(uint256,uint256)": "infinite",
						"getCampaigns()": "infinite",
						"getContributions(address)": "infinite",
						"setCampaign(uint256,uint256,string)": "infinite"
					}
				},
				"methodIdentifiers": {
					"campaigns(uint256)": "141961bc",
					"campaignsByContributor(address,uint256)": "4d2ebe8d",
					"cancelCampaign(uint256)": "45598b4a",
					"contribute(address,uint256)": "8418cd99",
					"contributorsByCampaignId(uint256,uint256)": "e543fd50",
					"getCampaigns()": "a6b03633",
					"getContributions(address)": "3f19d043",
					"setCampaign(uint256,uint256,string)": "ace6e3c6"
				}
			},
			"storageLayout": {
				"storage": [
					{
						"astId": 49,
						"contract": "back/contracts/campaigns.sol:Campaigns",
						"label": "campaigns",
						"offset": 0,
						"slot": "0",
						"type": "t_array(t_struct(Campaign)21_storage)dyn_storage"
					},
					{
						"astId": 54,
						"contract": "back/contracts/campaigns.sol:Campaigns",
						"label": "contributorsByCampaignId",
						"offset": 0,
						"slot": "1",
						"type": "t_mapping(t_uint256,t_array(t_address)dyn_storage)"
					},
					{
						"astId": 60,
						"contract": "back/contracts/campaigns.sol:Campaigns",
						"label": "campaignsByContributor",
						"offset": 0,
						"slot": "2",
						"type": "t_mapping(t_address,t_mapping(t_uint256,t_uint256))"
					}
				],
				"types": {
					"t_address": {
						"encoding": "inplace",
						"label": "address",
						"numberOfBytes": "20"
					},
					"t_array(t_address)dyn_storage": {
						"base": "t_address",
						"encoding": "dynamic_array",
						"label": "address[]",
						"numberOfBytes": "32"
					},
					"t_array(t_struct(Campaign)21_storage)dyn_storage": {
						"base": "t_struct(Campaign)21_storage",
						"encoding": "dynamic_array",
						"label": "struct Campaigns.Campaign[]",
						"numberOfBytes": "32"
					},
					"t_enum(CampaignState)5": {
						"encoding": "inplace",
						"label": "enum Campaigns.CampaignState",
						"numberOfBytes": "1"
					},
					"t_mapping(t_address,t_mapping(t_uint256,t_uint256))": {
						"encoding": "mapping",
						"key": "t_address",
						"label": "mapping(address => mapping(uint256 => uint256))",
						"numberOfBytes": "32",
						"value": "t_mapping(t_uint256,t_uint256)"
					},
					"t_mapping(t_uint256,t_array(t_address)dyn_storage)": {
						"encoding": "mapping",
						"key": "t_uint256",
						"label": "mapping(uint256 => address[])",
						"numberOfBytes": "32",
						"value": "t_array(t_address)dyn_storage"
					},
					"t_mapping(t_uint256,t_uint256)": {
						"encoding": "mapping",
						"key": "t_uint256",
						"label": "mapping(uint256 => uint256)",
						"numberOfBytes": "32",
						"value": "t_uint256"
					},
					"t_string_storage": {
						"encoding": "bytes",
						"label": "string",
						"numberOfBytes": "32"
					},
					"t_struct(Campaign)21_storage": {
						"encoding": "inplace",
						"label": "struct Campaigns.Campaign",
						"members": [
							{
								"astId": 7,
								"contract": "back/contracts/campaigns.sol:Campaigns",
								"label": "name",
								"offset": 0,
								"slot": "0",
								"type": "t_string_storage"
							},
							{
								"astId": 9,
								"contract": "back/contracts/campaigns.sol:Campaigns",
								"label": "target_amount",
								"offset": 0,
								"slot": "1",
								"type": "t_uint256"
							},
							{
								"astId": 11,
								"contract": "back/contracts/campaigns.sol:Campaigns",
								"label": "current_amount",
								"offset": 0,
								"slot": "2",
								"type": "t_uint256"
							},
							{
								"astId": 13,
								"contract": "back/contracts/campaigns.sol:Campaigns",
								"label": "deadline",
								"offset": 0,
								"slot": "3",
								"type": "t_uint256"
							},
							{
								"astId": 15,
								"contract": "back/contracts/campaigns.sol:Campaigns",
								"label": "creationDate",
								"offset": 0,
								"slot": "4",
								"type": "t_uint256"
							},
							{
								"astId": 17,
								"contract": "back/contracts/campaigns.sol:Campaigns",
								"label": "creator",
								"offset": 0,
								"slot": "5",
								"type": "t_address"
							},
							{
								"astId": 20,
								"contract": "back/contracts/campaigns.sol:Campaigns",
								"label": "state",
								"offset": 20,
								"slot": "5",
								"type": "t_enum(CampaignState)5"
							}
						],
						"numberOfBytes": "192"
					},
					"t_uint256": {
						"encoding": "inplace",
						"label": "uint256",
						"numberOfBytes": "32"
					}
				}
			},
			"userdoc": {
				"kind": "user",
				"methods": {},
				"version": 1
			}
		}
	}
}